{
	"Work/CLS-Polygon.sol": {
		"SubscriptionContract": {
			"abi": [
				{
					"inputs": [],
					"stateMutability": "nonpayable",
					"type": "constructor"
				},
				{
					"anonymous": false,
					"inputs": [
						{
							"indexed": false,
							"internalType": "address",
							"name": "subscriber",
							"type": "address"
						},
						{
							"indexed": false,
							"internalType": "uint256",
							"name": "new_balance",
							"type": "uint256"
						}
					],
					"name": "balance_update",
					"type": "event"
				},
				{
					"anonymous": false,
					"inputs": [
						{
							"indexed": false,
							"internalType": "address",
							"name": "sender",
							"type": "address"
						},
						{
							"indexed": false,
							"internalType": "address",
							"name": "receiver",
							"type": "address"
						},
						{
							"indexed": false,
							"internalType": "uint256",
							"name": "amount_withdrawn",
							"type": "uint256"
						},
						{
							"indexed": false,
							"internalType": "uint256",
							"name": "treasury_balance",
							"type": "uint256"
						}
					],
					"name": "treasury_withdrawal",
					"type": "event"
				},
				{
					"anonymous": false,
					"inputs": [
						{
							"indexed": false,
							"internalType": "uint256",
							"name": "videoID",
							"type": "uint256"
						}
					],
					"name": "vault_cancellation",
					"type": "event"
				},
				{
					"anonymous": false,
					"inputs": [
						{
							"indexed": false,
							"internalType": "uint256",
							"name": "videoID",
							"type": "uint256"
						},
						{
							"indexed": false,
							"internalType": "address",
							"name": "returnAddress",
							"type": "address"
						},
						{
							"indexed": false,
							"internalType": "uint256",
							"name": "balance",
							"type": "uint256"
						},
						{
							"indexed": false,
							"internalType": "uint256",
							"name": "lockend",
							"type": "uint256"
						},
						{
							"indexed": false,
							"internalType": "uint256",
							"name": "lockstart",
							"type": "uint256"
						}
					],
					"name": "vault_creation",
					"type": "event"
				},
				{
					"anonymous": false,
					"inputs": [
						{
							"indexed": false,
							"internalType": "uint256",
							"name": "videoID",
							"type": "uint256"
						},
						{
							"indexed": false,
							"internalType": "uint256",
							"name": "new_balance",
							"type": "uint256"
						},
						{
							"indexed": false,
							"internalType": "uint256",
							"name": "new_lockstart",
							"type": "uint256"
						},
						{
							"indexed": false,
							"internalType": "uint256",
							"name": "new_lockend",
							"type": "uint256"
						}
					],
					"name": "vault_update",
					"type": "event"
				},
				{
					"inputs": [
						{
							"internalType": "address",
							"name": "",
							"type": "address"
						}
					],
					"name": "admin",
					"outputs": [
						{
							"internalType": "bool",
							"name": "",
							"type": "bool"
						}
					],
					"stateMutability": "view",
					"type": "function"
				},
				{
					"inputs": [
						{
							"internalType": "uint256",
							"name": "videoID",
							"type": "uint256"
						}
					],
					"name": "cancel_stream",
					"outputs": [],
					"stateMutability": "nonpayable",
					"type": "function"
				},
				{
					"inputs": [
						{
							"internalType": "address",
							"name": "_admin",
							"type": "address"
						},
						{
							"internalType": "bool",
							"name": "_status",
							"type": "bool"
						}
					],
					"name": "change_admin_status",
					"outputs": [],
					"stateMutability": "nonpayable",
					"type": "function"
				},
				{
					"inputs": [
						{
							"internalType": "uint256",
							"name": "_amount",
							"type": "uint256"
						}
					],
					"name": "deposit",
					"outputs": [],
					"stateMutability": "nonpayable",
					"type": "function"
				},
				{
					"inputs": [
						{
							"internalType": "uint256",
							"name": "videoID",
							"type": "uint256"
						},
						{
							"internalType": "int256",
							"name": "amount_change",
							"type": "int256"
						},
						{
							"internalType": "int256",
							"name": "lock_duration_change",
							"type": "int256"
						},
						{
							"internalType": "int256",
							"name": "lock_start_change",
							"type": "int256"
						}
					],
					"name": "edit_vault",
					"outputs": [],
					"stateMutability": "nonpayable",
					"type": "function"
				},
				{
					"inputs": [
						{
							"internalType": "uint256",
							"name": "videoID",
							"type": "uint256"
						},
						{
							"internalType": "uint256",
							"name": "start_time",
							"type": "uint256"
						},
						{
							"internalType": "uint256",
							"name": "_lockduration",
							"type": "uint256"
						},
						{
							"internalType": "uint256",
							"name": "_amount",
							"type": "uint256"
						}
					],
					"name": "lock_funds",
					"outputs": [],
					"stateMutability": "nonpayable",
					"type": "function"
				},
				{
					"inputs": [
						{
							"internalType": "uint256[]",
							"name": "videoID",
							"type": "uint256[]"
						},
						{
							"internalType": "uint256[]",
							"name": "_amount",
							"type": "uint256[]"
						}
					],
					"name": "multiWithdraw",
					"outputs": [],
					"stateMutability": "nonpayable",
					"type": "function"
				},
				{
					"inputs": [],
					"name": "owner",
					"outputs": [
						{
							"internalType": "address",
							"name": "",
							"type": "address"
						}
					],
					"stateMutability": "view",
					"type": "function"
				},
				{
					"inputs": [],
					"name": "tokenAddress",
					"outputs": [
						{
							"internalType": "address",
							"name": "",
							"type": "address"
						}
					],
					"stateMutability": "view",
					"type": "function"
				},
				{
					"inputs": [
						{
							"internalType": "address",
							"name": "new_owner",
							"type": "address"
						}
					],
					"name": "transfer_ownership",
					"outputs": [],
					"stateMutability": "nonpayable",
					"type": "function"
				},
				{
					"inputs": [],
					"name": "treasury",
					"outputs": [
						{
							"internalType": "uint256",
							"name": "",
							"type": "uint256"
						}
					],
					"stateMutability": "view",
					"type": "function"
				},
				{
					"inputs": [
						{
							"internalType": "address",
							"name": "_receiver",
							"type": "address"
						},
						{
							"internalType": "uint256",
							"name": "_amount",
							"type": "uint256"
						}
					],
					"name": "treasuryWithdraw",
					"outputs": [],
					"stateMutability": "nonpayable",
					"type": "function"
				},
				{
					"inputs": [
						{
							"internalType": "uint256",
							"name": "",
							"type": "uint256"
						}
					],
					"name": "vault",
					"outputs": [
						{
							"internalType": "address",
							"name": "returnAddress",
							"type": "address"
						},
						{
							"internalType": "uint256",
							"name": "lockstart",
							"type": "uint256"
						},
						{
							"internalType": "uint256",
							"name": "lockduration",
							"type": "uint256"
						},
						{
							"internalType": "uint256",
							"name": "balance",
							"type": "uint256"
						}
					],
					"stateMutability": "view",
					"type": "function"
				},
				{
					"inputs": [
						{
							"internalType": "uint256",
							"name": "videoID",
							"type": "uint256"
						},
						{
							"internalType": "uint256",
							"name": "_amount",
							"type": "uint256"
						}
					],
					"name": "vaultWithdraw",
					"outputs": [],
					"stateMutability": "nonpayable",
					"type": "function"
				},
				{
					"inputs": [],
					"name": "view_blocktimestamp",
					"outputs": [
						{
							"internalType": "uint256",
							"name": "blocktimestamp",
							"type": "uint256"
						}
					],
					"stateMutability": "view",
					"type": "function"
				},
				{
					"inputs": [
						{
							"internalType": "address",
							"name": "sub_owner",
							"type": "address"
						}
					],
					"name": "view_sub_info",
					"outputs": [
						{
							"internalType": "uint256",
							"name": "balance",
							"type": "uint256"
						},
						{
							"internalType": "uint256",
							"name": "lockedBalance",
							"type": "uint256"
						},
						{
							"internalType": "uint256[]",
							"name": "vaultIDs",
							"type": "uint256[]"
						}
					],
					"stateMutability": "view",
					"type": "function"
				},
				{
					"inputs": [
						{
							"internalType": "uint256",
							"name": "videoID",
							"type": "uint256"
						}
					],
					"name": "view_vault",
					"outputs": [
						{
							"internalType": "address",
							"name": "returnAddress",
							"type": "address"
						},
						{
							"internalType": "uint256",
							"name": "balance",
							"type": "uint256"
						},
						{
							"internalType": "uint256",
							"name": "_lockstart",
							"type": "uint256"
						},
						{
							"internalType": "uint256",
							"name": "_lockend",
							"type": "uint256"
						},
						{
							"internalType": "bool",
							"name": "locked",
							"type": "bool"
						}
					],
					"stateMutability": "view",
					"type": "function"
				},
				{
					"inputs": [
						{
							"internalType": "uint256",
							"name": "_amount",
							"type": "uint256"
						}
					],
					"name": "withdraw",
					"outputs": [],
					"stateMutability": "nonpayable",
					"type": "function"
				}
			],
			"devdoc": {
				"kind": "dev",
				"methods": {},
				"version": 1
			},
			"evm": {
				"assembly": "    /* \"Work/CLS-Polygon.sol\":69:11348  contract SubscriptionContract {... */\n  mstore(0x40, 0x80)\n    /* \"Work/CLS-Polygon.sol\":1548:1706  constructor(/*address _tokenAddress*/){... */\n  callvalue\n  dup1\n  iszero\n  tag_1\n  jumpi\n  0x00\n  dup1\n  revert\ntag_1:\n  pop\n    /* \"Work/CLS-Polygon.sol\":1605:1615  msg.sender */\n  caller\n    /* \"Work/CLS-Polygon.sol\":1597:1602  owner */\n  0x00\n  dup1\n    /* \"Work/CLS-Polygon.sol\":1597:1615  owner = msg.sender */\n  0x0100\n  exp\n  dup2\n  sload\n  dup2\n  0xffffffffffffffffffffffffffffffffffffffff\n  mul\n  not\n  and\n  swap1\n  dup4\n  0xffffffffffffffffffffffffffffffffffffffff\n  and\n  mul\n  or\n  swap1\n  sstore\n  pop\n    /* \"Work/CLS-Polygon.sol\":183:225  0x2791Bca1f2de4661ED88A30C99A7a9449Aa84174 */\n  0x2791bca1f2de4661ed88a30c99a7a9449aa84174\n    /* \"Work/CLS-Polygon.sol\":1669:1674  token */\n  0x02\n  0x00\n    /* \"Work/CLS-Polygon.sol\":1669:1696  token = ERC20(tokenAddress) */\n  0x0100\n  exp\n  dup2\n  sload\n  dup2\n  0xffffffffffffffffffffffffffffffffffffffff\n  mul\n  not\n  and\n  swap1\n  dup4\n  0xffffffffffffffffffffffffffffffffffffffff\n  and\n  mul\n  or\n  swap1\n  sstore\n  pop\n    /* \"Work/CLS-Polygon.sol\":69:11348  contract SubscriptionContract {... */\n  dataSize(sub_0)\n  dup1\n  dataOffset(sub_0)\n  0x00\n  codecopy\n  0x00\n  return\nstop\n\nsub_0: assembly {\n        /* \"Work/CLS-Polygon.sol\":69:11348  contract SubscriptionContract {... */\n      mstore(0x40, 0x80)\n      callvalue\n      dup1\n      iszero\n      tag_1\n      jumpi\n      0x00\n      dup1\n      revert\n    tag_1:\n      pop\n      jumpi(tag_2, lt(calldatasize, 0x04))\n      shr(0xe0, calldataload(0x00))\n      dup1\n      0xab40d83a\n      gt\n      tag_21\n      jumpi\n      dup1\n      0xcb7b7bce\n      gt\n      tag_22\n      jumpi\n      dup1\n      0xcb7b7bce\n      eq\n      tag_16\n      jumpi\n      dup1\n      0xcc0d93be\n      eq\n      tag_17\n      jumpi\n      dup1\n      0xd864ddf7\n      eq\n      tag_18\n      jumpi\n      dup1\n      0xf0350c04\n      eq\n      tag_19\n      jumpi\n      dup1\n      0xfd01ec6d\n      eq\n      tag_20\n      jumpi\n      jump(tag_2)\n    tag_22:\n      dup1\n      0xab40d83a\n      eq\n      tag_12\n      jumpi\n      dup1\n      0xaea62e3f\n      eq\n      tag_13\n      jumpi\n      dup1\n      0xb6b55f25\n      eq\n      tag_14\n      jumpi\n      dup1\n      0xc49bfdca\n      eq\n      tag_15\n      jumpi\n      jump(tag_2)\n    tag_21:\n      dup1\n      0x61d027b3\n      gt\n      tag_23\n      jumpi\n      dup1\n      0x61d027b3\n      eq\n      tag_7\n      jumpi\n      dup1\n      0x63a846f8\n      eq\n      tag_8\n      jumpi\n      dup1\n      0x81a36fb6\n      eq\n      tag_9\n      jumpi\n      dup1\n      0x8da5cb5b\n      eq\n      tag_10\n      jumpi\n      dup1\n      0x9d76ea58\n      eq\n      tag_11\n      jumpi\n      jump(tag_2)\n    tag_23:\n      dup1\n      0x05d955f4\n      eq\n      tag_3\n      jumpi\n      dup1\n      0x2314c2a2\n      eq\n      tag_4\n      jumpi\n      dup1\n      0x2e1a7d4d\n      eq\n      tag_5\n      jumpi\n      dup1\n      0x3a491381\n      eq\n      tag_6\n      jumpi\n    tag_2:\n      0x00\n      dup1\n      revert\n        /* \"Work/CLS-Polygon.sol\":5011:7142  function edit_vault(uint256 videoID, int256 amount_change, int256 lock_duration_change /*in minutes*/, int256 lock_start_change/*in minutes*/) public {... */\n    tag_3:\n      tag_24\n      0x04\n      dup1\n      calldatasize\n      sub\n      dup2\n      add\n      swap1\n      tag_25\n      swap2\n      swap1\n      tag_26\n      jump\t// in\n    tag_25:\n      tag_27\n      jump\t// in\n    tag_24:\n      stop\n        /* \"Work/CLS-Polygon.sol\":10278:10604  function view_sub_info(address sub_owner) view external returns ( uint256 balance,uint256 lockedBalance,uint256[] memory vaultIDs) {... */\n    tag_4:\n      tag_28\n      0x04\n      dup1\n      calldatasize\n      sub\n      dup2\n      add\n      swap1\n      tag_29\n      swap2\n      swap1\n      tag_30\n      jump\t// in\n    tag_29:\n      tag_31\n      jump\t// in\n    tag_28:\n      mload(0x40)\n      tag_32\n      swap4\n      swap3\n      swap2\n      swap1\n      tag_33\n      jump\t// in\n    tag_32:\n      mload(0x40)\n      dup1\n      swap2\n      sub\n      swap1\n      return\n        /* \"Work/CLS-Polygon.sol\":2506:3163  function withdraw(uint256 _amount) external {... */\n    tag_5:\n      tag_34\n      0x04\n      dup1\n      calldatasize\n      sub\n      dup2\n      add\n      swap1\n      tag_35\n      swap2\n      swap1\n      tag_36\n      jump\t// in\n    tag_35:\n      tag_37\n      jump\t// in\n    tag_34:\n      stop\n        /* \"Work/CLS-Polygon.sol\":8170:8297  function change_admin_status(address _admin, bool _status) external onlyOwner{... */\n    tag_6:\n      tag_38\n      0x04\n      dup1\n      calldatasize\n      sub\n      dup2\n      add\n      swap1\n      tag_39\n      swap2\n      swap1\n      tag_40\n      jump\t// in\n    tag_39:\n      tag_41\n      jump\t// in\n    tag_38:\n      stop\n        /* \"Work/CLS-Polygon.sol\":741:764  uint256 public treasury */\n    tag_7:\n      tag_42\n      tag_43\n      jump\t// in\n    tag_42:\n      mload(0x40)\n      tag_44\n      swap2\n      swap1\n      tag_45\n      jump\t// in\n    tag_44:\n      mload(0x40)\n      dup1\n      swap2\n      sub\n      swap1\n      return\n        /* \"Work/CLS-Polygon.sol\":275:312  mapping(address => bool) public admin */\n    tag_8:\n      tag_46\n      0x04\n      dup1\n      calldatasize\n      sub\n      dup2\n      add\n      swap1\n      tag_47\n      swap2\n      swap1\n      tag_30\n      jump\t// in\n    tag_47:\n      tag_48\n      jump\t// in\n    tag_46:\n      mload(0x40)\n      tag_49\n      swap2\n      swap1\n      tag_50\n      jump\t// in\n    tag_49:\n      mload(0x40)\n      dup1\n      swap2\n      sub\n      swap1\n      return\n        /* \"Work/CLS-Polygon.sol\":689:732  mapping(uint256 => vault_info) public vault */\n    tag_9:\n      tag_51\n      0x04\n      dup1\n      calldatasize\n      sub\n      dup2\n      add\n      swap1\n      tag_52\n      swap2\n      swap1\n      tag_36\n      jump\t// in\n    tag_52:\n      tag_53\n      jump\t// in\n    tag_51:\n      mload(0x40)\n      tag_54\n      swap5\n      swap4\n      swap3\n      swap2\n      swap1\n      tag_55\n      jump\t// in\n    tag_54:\n      mload(0x40)\n      dup1\n      swap2\n      sub\n      swap1\n      return\n        /* \"Work/CLS-Polygon.sol\":248:268  address public owner */\n    tag_10:\n      tag_56\n      tag_57\n      jump\t// in\n    tag_56:\n      mload(0x40)\n      tag_58\n      swap2\n      swap1\n      tag_59\n      jump\t// in\n    tag_58:\n      mload(0x40)\n      dup1\n      swap2\n      sub\n      swap1\n      return\n        /* \"Work/CLS-Polygon.sol\":144:225  address constant public tokenAddress = 0x2791Bca1f2de4661ED88A30C99A7a9449Aa84174 */\n    tag_11:\n      tag_60\n      tag_61\n      jump\t// in\n    tag_60:\n      mload(0x40)\n      tag_62\n      swap2\n      swap1\n      tag_59\n      jump\t// in\n    tag_62:\n      mload(0x40)\n      dup1\n      swap2\n      sub\n      swap1\n      return\n        /* \"Work/CLS-Polygon.sol\":11208:11335  function view_blocktimestamp() view external returns (uint256 blocktimestamp) {... */\n    tag_12:\n      tag_63\n      tag_64\n      jump\t// in\n    tag_63:\n      mload(0x40)\n      tag_65\n      swap2\n      swap1\n      tag_45\n      jump\t// in\n    tag_65:\n      mload(0x40)\n      dup1\n      swap2\n      sub\n      swap1\n      return\n        /* \"Work/CLS-Polygon.sol\":9204:9545  function multiWithdraw (uint256[] calldata videoID,uint256[] calldata _amount) public onlyAdmin{... */\n    tag_13:\n      tag_66\n      0x04\n      dup1\n      calldatasize\n      sub\n      dup2\n      add\n      swap1\n      tag_67\n      swap2\n      swap1\n      tag_68\n      jump\t// in\n    tag_67:\n      tag_69\n      jump\t// in\n    tag_66:\n      stop\n        /* \"Work/CLS-Polygon.sol\":1786:2494  function deposit(uint256 _amount) public {... */\n    tag_14:\n      tag_70\n      0x04\n      dup1\n      calldatasize\n      sub\n      dup2\n      add\n      swap1\n      tag_71\n      swap2\n      swap1\n      tag_36\n      jump\t// in\n    tag_71:\n      tag_72\n      jump\t// in\n    tag_70:\n      stop\n        /* \"Work/CLS-Polygon.sol\":9557:10026  function treasuryWithdraw(address _receiver,uint256 _amount) public onlyAdmin {... */\n    tag_15:\n      tag_73\n      0x04\n      dup1\n      calldatasize\n      sub\n      dup2\n      add\n      swap1\n      tag_74\n      swap2\n      swap1\n      tag_75\n      jump\t// in\n    tag_74:\n      tag_76\n      jump\t// in\n    tag_73:\n      stop\n        /* \"Work/CLS-Polygon.sol\":3349:4909  function lock_funds(uint256 videoID,... */\n    tag_16:\n      tag_77\n      0x04\n      dup1\n      calldatasize\n      sub\n      dup2\n      add\n      swap1\n      tag_78\n      swap2\n      swap1\n      tag_79\n      jump\t// in\n    tag_78:\n      tag_80\n      jump\t// in\n    tag_77:\n      stop\n        /* \"Work/CLS-Polygon.sol\":10649:11196  function view_vault(uint256 videoID) view external returns ( address returnAddress,uint256 balance,uint256 _lockstart,uint256 _lockend,bool locked){... */\n    tag_17:\n      tag_81\n      0x04\n      dup1\n      calldatasize\n      sub\n      dup2\n      add\n      swap1\n      tag_82\n      swap2\n      swap1\n      tag_36\n      jump\t// in\n    tag_82:\n      tag_83\n      jump\t// in\n    tag_81:\n      mload(0x40)\n      tag_84\n      swap6\n      swap5\n      swap4\n      swap3\n      swap2\n      swap1\n      tag_85\n      jump\t// in\n    tag_84:\n      mload(0x40)\n      dup1\n      swap2\n      sub\n      swap1\n      return\n        /* \"Work/CLS-Polygon.sol\":7165:7968  function cancel_stream (uint256 videoID) public {... */\n    tag_18:\n      tag_86\n      0x04\n      dup1\n      calldatasize\n      sub\n      dup2\n      add\n      swap1\n      tag_87\n      swap2\n      swap1\n      tag_36\n      jump\t// in\n    tag_87:\n      tag_88\n      jump\t// in\n    tag_86:\n      stop\n        /* \"Work/CLS-Polygon.sol\":8049:8158  function transfer_ownership(address new_owner) external onlyOwner{... */\n    tag_19:\n      tag_89\n      0x04\n      dup1\n      calldatasize\n      sub\n      dup2\n      add\n      swap1\n      tag_90\n      swap2\n      swap1\n      tag_30\n      jump\t// in\n    tag_90:\n      tag_91\n      jump\t// in\n    tag_89:\n      stop\n        /* \"Work/CLS-Polygon.sol\":8309:9184  function vaultWithdraw(uint256 videoID, uint256 _amount) public onlyAdmin{... */\n    tag_20:\n      tag_92\n      0x04\n      dup1\n      calldatasize\n      sub\n      dup2\n      add\n      swap1\n      tag_93\n      swap2\n      swap1\n      tag_94\n      jump\t// in\n    tag_93:\n      tag_95\n      jump\t// in\n    tag_92:\n      stop\n        /* \"Work/CLS-Polygon.sol\":5011:7142  function edit_vault(uint256 videoID, int256 amount_change, int256 lock_duration_change /*in minutes*/, int256 lock_start_change/*in minutes*/) public {... */\n    tag_27:\n        /* \"Work/CLS-Polygon.sol\":5178:5202  vault_info memory _vault */\n      0x00\n        /* \"Work/CLS-Polygon.sol\":5205:5210  vault */\n      0x04\n        /* \"Work/CLS-Polygon.sol\":5205:5219  vault[videoID] */\n      0x00\n        /* \"Work/CLS-Polygon.sol\":5211:5218  videoID */\n      dup7\n        /* \"Work/CLS-Polygon.sol\":5205:5219  vault[videoID] */\n      dup2\n      mstore\n      0x20\n      add\n      swap1\n      dup2\n      mstore\n      0x20\n      add\n      0x00\n      keccak256\n        /* \"Work/CLS-Polygon.sol\":5178:5219  vault_info memory _vault = vault[videoID] */\n      mload(0x40)\n      dup1\n      0x80\n      add\n      0x40\n      mstore\n      swap1\n      dup2\n      0x00\n      dup3\n      add\n      0x00\n      swap1\n      sload\n      swap1\n      0x0100\n      exp\n      swap1\n      div\n      0xffffffffffffffffffffffffffffffffffffffff\n      and\n      0xffffffffffffffffffffffffffffffffffffffff\n      and\n      0xffffffffffffffffffffffffffffffffffffffff\n      and\n      dup2\n      mstore\n      0x20\n      add\n      0x01\n      dup3\n      add\n      sload\n      dup2\n      mstore\n      0x20\n      add\n      0x02\n      dup3\n      add\n      sload\n      dup2\n      mstore\n      0x20\n      add\n      0x03\n      dup3\n      add\n      sload\n      dup2\n      mstore\n      pop\n      pop\n      swap1\n      pop\n        /* \"Work/CLS-Polygon.sol\":5268:5278  msg.sender */\n      caller\n        /* \"Work/CLS-Polygon.sol\":5244:5278  _vault.returnAddress == msg.sender */\n      0xffffffffffffffffffffffffffffffffffffffff\n      and\n        /* \"Work/CLS-Polygon.sol\":5244:5250  _vault */\n      dup2\n        /* \"Work/CLS-Polygon.sol\":5244:5264  _vault.returnAddress */\n      0x00\n      add\n      mload\n        /* \"Work/CLS-Polygon.sol\":5244:5278  _vault.returnAddress == msg.sender */\n      0xffffffffffffffffffffffffffffffffffffffff\n      and\n      eq\n        /* \"Work/CLS-Polygon.sol\":5236:5322  require(_vault.returnAddress == msg.sender,\"caller is not associated with this vault\") */\n      tag_97\n      jumpi\n      mload(0x40)\n      0x08c379a000000000000000000000000000000000000000000000000000000000\n      dup2\n      mstore\n      0x04\n      add\n      tag_98\n      swap1\n      tag_99\n      jump\t// in\n    tag_98:\n      mload(0x40)\n      dup1\n      swap2\n      sub\n      swap1\n      revert\n    tag_97:\n        /* \"Work/CLS-Polygon.sol\":5364:5379  block.timestamp */\n      timestamp\n        /* \"Work/CLS-Polygon.sol\":5345:5351  _vault */\n      dup2\n        /* \"Work/CLS-Polygon.sol\":5345:5361  _vault.lockstart */\n      0x20\n      add\n      mload\n        /* \"Work/CLS-Polygon.sol\":5345:5379  _vault.lockstart < block.timestamp */\n      lt\n        /* \"Work/CLS-Polygon.sol\":5337:5412  require(_vault.lockstart < block.timestamp,\"lock/stream has already begun\") */\n      tag_100\n      jumpi\n      mload(0x40)\n      0x08c379a000000000000000000000000000000000000000000000000000000000\n      dup2\n      mstore\n      0x04\n      add\n      tag_101\n      swap1\n      tag_102\n      jump\t// in\n    tag_101:\n      mload(0x40)\n      dup1\n      swap2\n      sub\n      swap1\n      revert\n    tag_100:\n        /* \"Work/CLS-Polygon.sol\":5513:5514  0 */\n      0x00\n        /* \"Work/CLS-Polygon.sol\":5492:5509  lock_start_change */\n      dup3\n        /* \"Work/CLS-Polygon.sol\":5492:5514  lock_start_change != 0 */\n      eq\n        /* \"Work/CLS-Polygon.sol\":5488:5793  if (lock_start_change != 0) {... */\n      tag_103\n      jumpi\n        /* \"Work/CLS-Polygon.sol\":5611:5626  block.timestamp */\n      timestamp\n        /* \"Work/CLS-Polygon.sol\":5591:5600  1 minutes */\n      0x3c\n        /* \"Work/CLS-Polygon.sol\":5571:5588  lock_start_change */\n      dup4\n        /* \"Work/CLS-Polygon.sol\":5571:5600  lock_start_change * 1 minutes */\n      tag_104\n      swap2\n      swap1\n      tag_105\n      jump\t// in\n    tag_104:\n        /* \"Work/CLS-Polygon.sol\":5550:5556  _vault */\n      dup3\n        /* \"Work/CLS-Polygon.sol\":5550:5566  _vault.lockstart */\n      0x20\n      add\n      mload\n        /* \"Work/CLS-Polygon.sol\":5543:5601  int256(_vault.lockstart) + (lock_start_change * 1 minutes) */\n      tag_106\n      swap2\n      swap1\n      tag_107\n      jump\t// in\n    tag_106:\n        /* \"Work/CLS-Polygon.sol\":5543:5627  int256(_vault.lockstart) + (lock_start_change * 1 minutes) > int256(block.timestamp) */\n      sgt\n        /* \"Work/CLS-Polygon.sol\":5535:5664  require(int256(_vault.lockstart) + (lock_start_change * 1 minutes) > int256(block.timestamp),\"lock_start can not be in the past\") */\n      tag_108\n      jumpi\n      mload(0x40)\n      0x08c379a000000000000000000000000000000000000000000000000000000000\n      dup2\n      mstore\n      0x04\n      add\n      tag_109\n      swap1\n      tag_110\n      jump\t// in\n    tag_109:\n      mload(0x40)\n      dup1\n      swap2\n      sub\n      swap1\n      revert\n    tag_108:\n        /* \"Work/CLS-Polygon.sol\":5760:5769  1 minutes */\n      0x3c\n        /* \"Work/CLS-Polygon.sol\":5740:5757  lock_start_change */\n      dup3\n        /* \"Work/CLS-Polygon.sol\":5740:5769  lock_start_change * 1 minutes */\n      tag_111\n      swap2\n      swap1\n      tag_105\n      jump\t// in\n    tag_111:\n        /* \"Work/CLS-Polygon.sol\":5719:5725  _vault */\n      dup2\n        /* \"Work/CLS-Polygon.sol\":5719:5735  _vault.lockstart */\n      0x20\n      add\n      mload\n        /* \"Work/CLS-Polygon.sol\":5712:5770  int256(_vault.lockstart) + (lock_start_change * 1 minutes) */\n      tag_112\n      swap2\n      swap1\n      tag_107\n      jump\t// in\n    tag_112:\n        /* \"Work/CLS-Polygon.sol\":5685:5691  _vault */\n      dup2\n        /* \"Work/CLS-Polygon.sol\":5685:5701  _vault.lockstart */\n      0x20\n      add\n        /* \"Work/CLS-Polygon.sol\":5685:5771  _vault.lockstart = uint256(int256(_vault.lockstart) + (lock_start_change * 1 minutes)) */\n      dup2\n      dup2\n      mstore\n      pop\n      pop\n        /* \"Work/CLS-Polygon.sol\":5488:5793  if (lock_start_change != 0) {... */\n    tag_103:\n        /* \"Work/CLS-Polygon.sol\":5895:5896  0 */\n      0x00\n        /* \"Work/CLS-Polygon.sol\":5871:5891  lock_duration_change */\n      dup4\n        /* \"Work/CLS-Polygon.sol\":5871:5896  lock_duration_change != 0 */\n      eq\n        /* \"Work/CLS-Polygon.sol\":5867:6165  if (lock_duration_change != 0) {... */\n      tag_113\n      jumpi\n        /* \"Work/CLS-Polygon.sol\":5992:5993  0 */\n      0x00\n        /* \"Work/CLS-Polygon.sol\":5979:5988  1 minutes */\n      0x3c\n        /* \"Work/CLS-Polygon.sol\":5956:5976  lock_duration_change */\n      dup5\n        /* \"Work/CLS-Polygon.sol\":5956:5988  lock_duration_change * 1 minutes */\n      tag_114\n      swap2\n      swap1\n      tag_105\n      jump\t// in\n    tag_114:\n        /* \"Work/CLS-Polygon.sol\":5932:5938  _vault */\n      dup3\n        /* \"Work/CLS-Polygon.sol\":5932:5951  _vault.lockduration */\n      0x40\n      add\n      mload\n        /* \"Work/CLS-Polygon.sol\":5925:5989  int256(_vault.lockduration) + (lock_duration_change * 1 minutes) */\n      tag_115\n      swap2\n      swap1\n      tag_107\n      jump\t// in\n    tag_115:\n        /* \"Work/CLS-Polygon.sol\":5925:5993  int256(_vault.lockduration) + (lock_duration_change * 1 minutes) > 0 */\n      sgt\n        /* \"Work/CLS-Polygon.sol\":5917:6033  require(int256(_vault.lockduration) + (lock_duration_change * 1 minutes) > 0,\"lock_duration_change is too negitive\") */\n      tag_116\n      jumpi\n      mload(0x40)\n      0x08c379a000000000000000000000000000000000000000000000000000000000\n      dup2\n      mstore\n      0x04\n      add\n      tag_117\n      swap1\n      tag_118\n      jump\t// in\n    tag_117:\n      mload(0x40)\n      dup1\n      swap2\n      sub\n      swap1\n      revert\n    tag_116:\n        /* \"Work/CLS-Polygon.sol\":6138:6147  1 minutes */\n      0x3c\n        /* \"Work/CLS-Polygon.sol\":6115:6135  lock_duration_change */\n      dup4\n        /* \"Work/CLS-Polygon.sol\":6115:6147  lock_duration_change * 1 minutes */\n      tag_119\n      swap2\n      swap1\n      tag_105\n      jump\t// in\n    tag_119:\n        /* \"Work/CLS-Polygon.sol\":6091:6097  _vault */\n      dup2\n        /* \"Work/CLS-Polygon.sol\":6091:6110  _vault.lockduration */\n      0x40\n      add\n      mload\n        /* \"Work/CLS-Polygon.sol\":6084:6148  int256(_vault.lockduration) + (lock_duration_change * 1 minutes) */\n      tag_120\n      swap2\n      swap1\n      tag_107\n      jump\t// in\n    tag_120:\n        /* \"Work/CLS-Polygon.sol\":6054:6060  _vault */\n      dup2\n        /* \"Work/CLS-Polygon.sol\":6054:6073  _vault.lockduration */\n      0x40\n      add\n        /* \"Work/CLS-Polygon.sol\":6054:6149  _vault.lockduration = uint256(int256(_vault.lockduration) + (lock_duration_change * 1 minutes)) */\n      dup2\n      dup2\n      mstore\n      pop\n      pop\n        /* \"Work/CLS-Polygon.sol\":5867:6165  if (lock_duration_change != 0) {... */\n    tag_113:\n        /* \"Work/CLS-Polygon.sol\":6258:6259  0 */\n      0x00\n        /* \"Work/CLS-Polygon.sol\":6241:6254  amount_change */\n      dup5\n        /* \"Work/CLS-Polygon.sol\":6241:6259  amount_change != 0 */\n      eq\n        /* \"Work/CLS-Polygon.sol\":6237:6990  if (amount_change != 0){... */\n      tag_121\n      jumpi\n        /* \"Work/CLS-Polygon.sol\":6279:6308  Subscription memory _sub_info */\n      0x00\n        /* \"Work/CLS-Polygon.sol\":6311:6319  sub_info */\n      0x03\n        /* \"Work/CLS-Polygon.sol\":6311:6331  sub_info[msg.sender] */\n      0x00\n        /* \"Work/CLS-Polygon.sol\":6320:6330  msg.sender */\n      caller\n        /* \"Work/CLS-Polygon.sol\":6311:6331  sub_info[msg.sender] */\n      0xffffffffffffffffffffffffffffffffffffffff\n      and\n      0xffffffffffffffffffffffffffffffffffffffff\n      and\n      dup2\n      mstore\n      0x20\n      add\n      swap1\n      dup2\n      mstore\n      0x20\n      add\n      0x00\n      keccak256\n        /* \"Work/CLS-Polygon.sol\":6279:6331  Subscription memory _sub_info = sub_info[msg.sender] */\n      mload(0x40)\n      dup1\n      0x60\n      add\n      0x40\n      mstore\n      swap1\n      dup2\n      0x00\n      dup3\n      add\n      sload\n      dup2\n      mstore\n      0x20\n      add\n      0x01\n      dup3\n      add\n      sload\n      dup2\n      mstore\n      0x20\n      add\n      0x02\n      dup3\n      add\n      dup1\n      sload\n      dup1\n      0x20\n      mul\n      0x20\n      add\n      mload(0x40)\n      swap1\n      dup2\n      add\n      0x40\n      mstore\n      dup1\n      swap3\n      swap2\n      swap1\n      dup2\n      dup2\n      mstore\n      0x20\n      add\n      dup3\n      dup1\n      sload\n      dup1\n      iszero\n      tag_122\n      jumpi\n      0x20\n      mul\n      dup3\n      add\n      swap2\n      swap1\n      0x00\n      mstore\n      keccak256(0x00, 0x20)\n      swap1\n    tag_123:\n      dup2\n      sload\n      dup2\n      mstore\n      0x20\n      add\n      swap1\n      0x01\n      add\n      swap1\n      dup1\n      dup4\n      gt\n      tag_123\n      jumpi\n    tag_122:\n      pop\n      pop\n      pop\n      pop\n      pop\n      dup2\n      mstore\n      pop\n      pop\n      swap1\n      pop\n        /* \"Work/CLS-Polygon.sol\":6389:6402  amount_change */\n      dup5\n        /* \"Work/CLS-Polygon.sol\":6367:6376  _sub_info */\n      dup2\n        /* \"Work/CLS-Polygon.sol\":6367:6384  _sub_info.balance */\n      0x00\n      add\n      mload\n        /* \"Work/CLS-Polygon.sol\":6360:6402  int256(_sub_info.balance) >= amount_change */\n      slt\n      iszero\n        /* \"Work/CLS-Polygon.sol\":6352:6453  require(int256(_sub_info.balance) >= amount_change,\"balance is smaller than the amount to be locked\") */\n      tag_124\n      jumpi\n      mload(0x40)\n      0x08c379a000000000000000000000000000000000000000000000000000000000\n      dup2\n      mstore\n      0x04\n      add\n      tag_125\n      swap1\n      tag_126\n      jump\t// in\n    tag_125:\n      mload(0x40)\n      dup1\n      swap2\n      sub\n      swap1\n      revert\n    tag_124:\n        /* \"Work/CLS-Polygon.sol\":6522:6523  0 */\n      0x00\n        /* \"Work/CLS-Polygon.sol\":6505:6518  amount_change */\n      dup6\n        /* \"Work/CLS-Polygon.sol\":6487:6493  _vault */\n      dup4\n        /* \"Work/CLS-Polygon.sol\":6487:6501  _vault.balance */\n      0x60\n      add\n      mload\n        /* \"Work/CLS-Polygon.sol\":6480:6518  int256(_vault.balance) + amount_change */\n      tag_127\n      swap2\n      swap1\n      tag_107\n      jump\t// in\n    tag_127:\n        /* \"Work/CLS-Polygon.sol\":6480:6523  int256(_vault.balance) + amount_change >= 0 */\n      slt\n      iszero\n        /* \"Work/CLS-Polygon.sol\":6472:6574  require(int256(_vault.balance) + amount_change >= 0,\"amount_change + vault balance is smaller than 0\") */\n      tag_128\n      jumpi\n      mload(0x40)\n      0x08c379a000000000000000000000000000000000000000000000000000000000\n      dup2\n      mstore\n      0x04\n      add\n      tag_129\n      swap1\n      tag_130\n      jump\t// in\n    tag_129:\n      mload(0x40)\n      dup1\n      swap2\n      sub\n      swap1\n      revert\n    tag_128:\n        /* \"Work/CLS-Polygon.sol\":6651:6664  amount_change */\n      dup5\n        /* \"Work/CLS-Polygon.sol\":6630:6639  _sub_info */\n      dup2\n        /* \"Work/CLS-Polygon.sol\":6630:6647  _sub_info.balance */\n      0x00\n      add\n      mload\n        /* \"Work/CLS-Polygon.sol\":6623:6664  int256(_sub_info.balance) - amount_change */\n      tag_131\n      swap2\n      swap1\n      tag_132\n      jump\t// in\n    tag_131:\n        /* \"Work/CLS-Polygon.sol\":6595:6604  _sub_info */\n      dup2\n        /* \"Work/CLS-Polygon.sol\":6595:6612  _sub_info.balance */\n      0x00\n      add\n        /* \"Work/CLS-Polygon.sol\":6595:6665  _sub_info.balance = uint256(int256(_sub_info.balance) - amount_change) */\n      dup2\n      dup2\n      mstore\n      pop\n      pop\n        /* \"Work/CLS-Polygon.sol\":6752:6765  amount_change */\n      dup5\n        /* \"Work/CLS-Polygon.sol\":6725:6734  _sub_info */\n      dup2\n        /* \"Work/CLS-Polygon.sol\":6725:6748  _sub_info.lockedBalance */\n      0x20\n      add\n      mload\n        /* \"Work/CLS-Polygon.sol\":6718:6765  int256(_sub_info.lockedBalance) + amount_change */\n      tag_133\n      swap2\n      swap1\n      tag_107\n      jump\t// in\n    tag_133:\n        /* \"Work/CLS-Polygon.sol\":6684:6693  _sub_info */\n      dup2\n        /* \"Work/CLS-Polygon.sol\":6684:6707  _sub_info.lockedBalance */\n      0x20\n      add\n        /* \"Work/CLS-Polygon.sol\":6684:6766  _sub_info.lockedBalance = uint256(int256(_sub_info.lockedBalance) + amount_change) */\n      dup2\n      dup2\n      mstore\n      pop\n      pop\n        /* \"Work/CLS-Polygon.sol\":6837:6850  amount_change */\n      dup5\n        /* \"Work/CLS-Polygon.sol\":6819:6825  _vault */\n      dup3\n        /* \"Work/CLS-Polygon.sol\":6819:6833  _vault.balance */\n      0x60\n      add\n      mload\n        /* \"Work/CLS-Polygon.sol\":6812:6850  int256(_vault.balance) + amount_change */\n      tag_134\n      swap2\n      swap1\n      tag_107\n      jump\t// in\n    tag_134:\n        /* \"Work/CLS-Polygon.sol\":6787:6793  _vault */\n      dup3\n        /* \"Work/CLS-Polygon.sol\":6787:6801  _vault.balance */\n      0x60\n      add\n        /* \"Work/CLS-Polygon.sol\":6787:6851  _vault.balance = uint256(int256(_vault.balance) + amount_change) */\n      dup2\n      dup2\n      mstore\n      pop\n      pop\n        /* \"Work/CLS-Polygon.sol\":6895:6904  _sub_info */\n      dup1\n        /* \"Work/CLS-Polygon.sol\":6872:6880  sub_info */\n      0x03\n        /* \"Work/CLS-Polygon.sol\":6872:6892  sub_info[msg.sender] */\n      0x00\n        /* \"Work/CLS-Polygon.sol\":6881:6891  msg.sender */\n      caller\n        /* \"Work/CLS-Polygon.sol\":6872:6892  sub_info[msg.sender] */\n      0xffffffffffffffffffffffffffffffffffffffff\n      and\n      0xffffffffffffffffffffffffffffffffffffffff\n      and\n      dup2\n      mstore\n      0x20\n      add\n      swap1\n      dup2\n      mstore\n      0x20\n      add\n      0x00\n      keccak256\n        /* \"Work/CLS-Polygon.sol\":6872:6904  sub_info[msg.sender] = _sub_info */\n      0x00\n      dup3\n      add\n      mload\n      dup2\n      0x00\n      add\n      sstore\n      0x20\n      dup3\n      add\n      mload\n      dup2\n      0x01\n      add\n      sstore\n      0x40\n      dup3\n      add\n      mload\n      dup2\n      0x02\n      add\n      swap1\n      dup1\n      mload\n      swap1\n      0x20\n      add\n      swap1\n      tag_135\n      swap3\n      swap2\n      swap1\n      tag_136\n      jump\t// in\n    tag_135:\n      pop\n      swap1\n      pop\n      pop\n        /* \"Work/CLS-Polygon.sol\":6928:6973  balance_update(msg.sender, _sub_info.balance) */\n      0xca3824b7e6e1648f24d80bb94c0549cd029b4e985db70a77cc71332e52cd1611\n        /* \"Work/CLS-Polygon.sol\":6943:6953  msg.sender */\n      caller\n        /* \"Work/CLS-Polygon.sol\":6955:6964  _sub_info */\n      dup3\n        /* \"Work/CLS-Polygon.sol\":6955:6972  _sub_info.balance */\n      0x00\n      add\n      mload\n        /* \"Work/CLS-Polygon.sol\":6928:6973  balance_update(msg.sender, _sub_info.balance) */\n      mload(0x40)\n      tag_137\n      swap3\n      swap2\n      swap1\n      tag_138\n      jump\t// in\n    tag_137:\n      mload(0x40)\n      dup1\n      swap2\n      sub\n      swap1\n      log1\n        /* \"Work/CLS-Polygon.sol\":6260:6990  {... */\n      pop\n        /* \"Work/CLS-Polygon.sol\":6237:6990  if (amount_change != 0){... */\n    tag_121:\n        /* \"Work/CLS-Polygon.sol\":7029:7035  _vault */\n      dup1\n        /* \"Work/CLS-Polygon.sol\":7012:7017  vault */\n      0x04\n        /* \"Work/CLS-Polygon.sol\":7012:7026  vault[videoID] */\n      0x00\n        /* \"Work/CLS-Polygon.sol\":7018:7025  videoID */\n      dup8\n        /* \"Work/CLS-Polygon.sol\":7012:7026  vault[videoID] */\n      dup2\n      mstore\n      0x20\n      add\n      swap1\n      dup2\n      mstore\n      0x20\n      add\n      0x00\n      keccak256\n        /* \"Work/CLS-Polygon.sol\":7012:7035  vault[videoID] = _vault */\n      0x00\n      dup3\n      add\n      mload\n      dup2\n      0x00\n      add\n      exp(0x0100, 0x00)\n      dup2\n      sload\n      dup2\n      0xffffffffffffffffffffffffffffffffffffffff\n      mul\n      not\n      and\n      swap1\n      dup4\n      0xffffffffffffffffffffffffffffffffffffffff\n      and\n      mul\n      or\n      swap1\n      sstore\n      pop\n      0x20\n      dup3\n      add\n      mload\n      dup2\n      0x01\n      add\n      sstore\n      0x40\n      dup3\n      add\n      mload\n      dup2\n      0x02\n      add\n      sstore\n      0x60\n      dup3\n      add\n      mload\n      dup2\n      0x03\n      add\n      sstore\n      swap1\n      pop\n      pop\n        /* \"Work/CLS-Polygon.sol\":7057:7130  vault_update(videoID, _vault.balance, _vault.lockstart, lockend(videoID)) */\n      0x3c6a380e7dfff0ffb6efe4e395ed2b4456ea50ec4a9650a5fecff8aa2a6f40f2\n        /* \"Work/CLS-Polygon.sol\":7070:7077  videoID */\n      dup6\n        /* \"Work/CLS-Polygon.sol\":7079:7085  _vault */\n      dup3\n        /* \"Work/CLS-Polygon.sol\":7079:7093  _vault.balance */\n      0x60\n      add\n      mload\n        /* \"Work/CLS-Polygon.sol\":7095:7101  _vault */\n      dup4\n        /* \"Work/CLS-Polygon.sol\":7095:7111  _vault.lockstart */\n      0x20\n      add\n      mload\n        /* \"Work/CLS-Polygon.sol\":7113:7129  lockend(videoID) */\n      tag_139\n        /* \"Work/CLS-Polygon.sol\":7121:7128  videoID */\n      dup10\n        /* \"Work/CLS-Polygon.sol\":7113:7120  lockend */\n      tag_140\n        /* \"Work/CLS-Polygon.sol\":7113:7129  lockend(videoID) */\n      jump\t// in\n    tag_139:\n        /* \"Work/CLS-Polygon.sol\":7057:7130  vault_update(videoID, _vault.balance, _vault.lockstart, lockend(videoID)) */\n      mload(0x40)\n      tag_141\n      swap5\n      swap4\n      swap3\n      swap2\n      swap1\n      tag_142\n      jump\t// in\n    tag_141:\n      mload(0x40)\n      dup1\n      swap2\n      sub\n      swap1\n      log1\n        /* \"Work/CLS-Polygon.sol\":5161:7142  {... */\n      pop\n        /* \"Work/CLS-Polygon.sol\":5011:7142  function edit_vault(uint256 videoID, int256 amount_change, int256 lock_duration_change /*in minutes*/, int256 lock_start_change/*in minutes*/) public {... */\n      pop\n      pop\n      pop\n      pop\n      jump\t// out\n        /* \"Work/CLS-Polygon.sol\":10278:10604  function view_sub_info(address sub_owner) view external returns ( uint256 balance,uint256 lockedBalance,uint256[] memory vaultIDs) {... */\n    tag_31:\n        /* \"Work/CLS-Polygon.sol\":10344:10359  uint256 balance */\n      0x00\n        /* \"Work/CLS-Polygon.sol\":10360:10381  uint256 lockedBalance */\n      dup1\n        /* \"Work/CLS-Polygon.sol\":10382:10407  uint256[] memory vaultIDs */\n      0x60\n        /* \"Work/CLS-Polygon.sol\":10451:10459  sub_info */\n      0x03\n        /* \"Work/CLS-Polygon.sol\":10451:10470  sub_info[sub_owner] */\n      0x00\n        /* \"Work/CLS-Polygon.sol\":10460:10469  sub_owner */\n      dup6\n        /* \"Work/CLS-Polygon.sol\":10451:10470  sub_info[sub_owner] */\n      0xffffffffffffffffffffffffffffffffffffffff\n      and\n      0xffffffffffffffffffffffffffffffffffffffff\n      and\n      dup2\n      mstore\n      0x20\n      add\n      swap1\n      dup2\n      mstore\n      0x20\n      add\n      0x00\n      keccak256\n        /* \"Work/CLS-Polygon.sol\":10451:10478  sub_info[sub_owner].balance */\n      0x00\n      add\n      sload\n        /* \"Work/CLS-Polygon.sol\":10497:10505  sub_info */\n      0x03\n        /* \"Work/CLS-Polygon.sol\":10497:10516  sub_info[sub_owner] */\n      0x00\n        /* \"Work/CLS-Polygon.sol\":10506:10515  sub_owner */\n      dup7\n        /* \"Work/CLS-Polygon.sol\":10497:10516  sub_info[sub_owner] */\n      0xffffffffffffffffffffffffffffffffffffffff\n      and\n      0xffffffffffffffffffffffffffffffffffffffff\n      and\n      dup2\n      mstore\n      0x20\n      add\n      swap1\n      dup2\n      mstore\n      0x20\n      add\n      0x00\n      keccak256\n        /* \"Work/CLS-Polygon.sol\":10497:10530  sub_info[sub_owner].lockedBalance */\n      0x01\n      add\n      sload\n        /* \"Work/CLS-Polygon.sol\":10549:10557  sub_info */\n      0x03\n        /* \"Work/CLS-Polygon.sol\":10549:10568  sub_info[sub_owner] */\n      0x00\n        /* \"Work/CLS-Polygon.sol\":10558:10567  sub_owner */\n      dup8\n        /* \"Work/CLS-Polygon.sol\":10549:10568  sub_info[sub_owner] */\n      0xffffffffffffffffffffffffffffffffffffffff\n      and\n      0xffffffffffffffffffffffffffffffffffffffff\n      and\n      dup2\n      mstore\n      0x20\n      add\n      swap1\n      dup2\n      mstore\n      0x20\n      add\n      0x00\n      keccak256\n        /* \"Work/CLS-Polygon.sol\":10549:10577  sub_info[sub_owner].videoIDs */\n      0x02\n      add\n        /* \"Work/CLS-Polygon.sol\":10426:10592  return(... */\n      dup1\n      dup1\n      sload\n      dup1\n      0x20\n      mul\n      0x20\n      add\n      mload(0x40)\n      swap1\n      dup2\n      add\n      0x40\n      mstore\n      dup1\n      swap3\n      swap2\n      swap1\n      dup2\n      dup2\n      mstore\n      0x20\n      add\n      dup3\n      dup1\n      sload\n      dup1\n      iszero\n      tag_144\n      jumpi\n      0x20\n      mul\n      dup3\n      add\n      swap2\n      swap1\n      0x00\n      mstore\n      keccak256(0x00, 0x20)\n      swap1\n    tag_145:\n      dup2\n      sload\n      dup2\n      mstore\n      0x20\n      add\n      swap1\n      0x01\n      add\n      swap1\n      dup1\n      dup4\n      gt\n      tag_145\n      jumpi\n    tag_144:\n      pop\n      pop\n      pop\n      pop\n      pop\n      swap1\n      pop\n      swap3\n      pop\n      swap3\n      pop\n      swap3\n      pop\n        /* \"Work/CLS-Polygon.sol\":10278:10604  function view_sub_info(address sub_owner) view external returns ( uint256 balance,uint256 lockedBalance,uint256[] memory vaultIDs) {... */\n      swap2\n      swap4\n      swap1\n      swap3\n      pop\n      jump\t// out\n        /* \"Work/CLS-Polygon.sol\":2506:3163  function withdraw(uint256 _amount) external {... */\n    tag_37:\n        /* \"Work/CLS-Polygon.sol\":2565:2594  Subscription memory _sub_info */\n      0x00\n        /* \"Work/CLS-Polygon.sol\":2597:2605  sub_info */\n      0x03\n        /* \"Work/CLS-Polygon.sol\":2597:2617  sub_info[msg.sender] */\n      0x00\n        /* \"Work/CLS-Polygon.sol\":2606:2616  msg.sender */\n      caller\n        /* \"Work/CLS-Polygon.sol\":2597:2617  sub_info[msg.sender] */\n      0xffffffffffffffffffffffffffffffffffffffff\n      and\n      0xffffffffffffffffffffffffffffffffffffffff\n      and\n      dup2\n      mstore\n      0x20\n      add\n      swap1\n      dup2\n      mstore\n      0x20\n      add\n      0x00\n      keccak256\n        /* \"Work/CLS-Polygon.sol\":2565:2617  Subscription memory _sub_info = sub_info[msg.sender] */\n      mload(0x40)\n      dup1\n      0x60\n      add\n      0x40\n      mstore\n      swap1\n      dup2\n      0x00\n      dup3\n      add\n      sload\n      dup2\n      mstore\n      0x20\n      add\n      0x01\n      dup3\n      add\n      sload\n      dup2\n      mstore\n      0x20\n      add\n      0x02\n      dup3\n      add\n      dup1\n      sload\n      dup1\n      0x20\n      mul\n      0x20\n      add\n      mload(0x40)\n      swap1\n      dup2\n      add\n      0x40\n      mstore\n      dup1\n      swap3\n      swap2\n      swap1\n      dup2\n      dup2\n      mstore\n      0x20\n      add\n      dup3\n      dup1\n      sload\n      dup1\n      iszero\n      tag_147\n      jumpi\n      0x20\n      mul\n      dup3\n      add\n      swap2\n      swap1\n      0x00\n      mstore\n      keccak256(0x00, 0x20)\n      swap1\n    tag_148:\n      dup2\n      sload\n      dup2\n      mstore\n      0x20\n      add\n      swap1\n      0x01\n      add\n      swap1\n      dup1\n      dup4\n      gt\n      tag_148\n      jumpi\n    tag_147:\n      pop\n      pop\n      pop\n      pop\n      pop\n      dup2\n      mstore\n      pop\n      pop\n      swap1\n      pop\n        /* \"Work/CLS-Polygon.sol\":2652:2661  _sub_info */\n      dup1\n        /* \"Work/CLS-Polygon.sol\":2652:2669  _sub_info.balance */\n      0x00\n      add\n      mload\n        /* \"Work/CLS-Polygon.sol\":2642:2649  _amount */\n      dup3\n        /* \"Work/CLS-Polygon.sol\":2642:2669  _amount > _sub_info.balance */\n      gt\n        /* \"Work/CLS-Polygon.sol\":2640:2670  !(_amount > _sub_info.balance) */\n      iszero\n        /* \"Work/CLS-Polygon.sol\":2632:2713  require(!(_amount > _sub_info.balance),\"balance is smaller than withdraw amount\") */\n      tag_149\n      jumpi\n      mload(0x40)\n      0x08c379a000000000000000000000000000000000000000000000000000000000\n      dup2\n      mstore\n      0x04\n      add\n      tag_150\n      swap1\n      tag_151\n      jump\t// in\n    tag_150:\n      mload(0x40)\n      dup1\n      swap2\n      sub\n      swap1\n      revert\n    tag_149:\n        /* \"Work/CLS-Polygon.sol\":2797:2804  _amount */\n      dup2\n        /* \"Work/CLS-Polygon.sol\":2776:2785  _sub_info */\n      dup2\n        /* \"Work/CLS-Polygon.sol\":2776:2793  _sub_info.balance */\n      0x00\n      add\n        /* \"Work/CLS-Polygon.sol\":2776:2804  _sub_info.balance -= _amount */\n      dup2\n      dup2\n      mload\n      tag_152\n      swap2\n      swap1\n      tag_153\n      jump\t// in\n    tag_152:\n      swap2\n      pop\n      dup2\n      dup2\n      mstore\n      pop\n      pop\n        /* \"Work/CLS-Polygon.sol\":2864:2873  _sub_info */\n      dup1\n        /* \"Work/CLS-Polygon.sol\":2864:2881  _sub_info.balance */\n      0x00\n      add\n      mload\n        /* \"Work/CLS-Polygon.sol\":2833:2841  sub_info */\n      0x03\n        /* \"Work/CLS-Polygon.sol\":2833:2853  sub_info[msg.sender] */\n      0x00\n        /* \"Work/CLS-Polygon.sol\":2842:2852  msg.sender */\n      caller\n        /* \"Work/CLS-Polygon.sol\":2833:2853  sub_info[msg.sender] */\n      0xffffffffffffffffffffffffffffffffffffffff\n      and\n      0xffffffffffffffffffffffffffffffffffffffff\n      and\n      dup2\n      mstore\n      0x20\n      add\n      swap1\n      dup2\n      mstore\n      0x20\n      add\n      0x00\n      keccak256\n        /* \"Work/CLS-Polygon.sol\":2833:2861  sub_info[msg.sender].balance */\n      0x00\n      add\n        /* \"Work/CLS-Polygon.sol\":2833:2881  sub_info[msg.sender].balance = _sub_info.balance */\n      dup2\n      swap1\n      sstore\n      pop\n        /* \"Work/CLS-Polygon.sol\":2960:2981  bool transfer_success */\n      0x00\n        /* \"Work/CLS-Polygon.sol\":2985:2990  token */\n      0x02\n      0x00\n      swap1\n      sload\n      swap1\n      0x0100\n      exp\n      swap1\n      div\n      0xffffffffffffffffffffffffffffffffffffffff\n      and\n        /* \"Work/CLS-Polygon.sol\":2985:2999  token.transfer */\n      0xffffffffffffffffffffffffffffffffffffffff\n      and\n      0xa9059cbb\n        /* \"Work/CLS-Polygon.sol\":3000:3010  msg.sender */\n      caller\n        /* \"Work/CLS-Polygon.sol\":3012:3019  _amount */\n      dup6\n        /* \"Work/CLS-Polygon.sol\":2985:3020  token.transfer(msg.sender, _amount) */\n      mload(0x40)\n      dup4\n      0xffffffff\n      and\n      0xe0\n      shl\n      dup2\n      mstore\n      0x04\n      add\n      tag_154\n      swap3\n      swap2\n      swap1\n      tag_138\n      jump\t// in\n    tag_154:\n      0x20\n      mload(0x40)\n      dup1\n      dup4\n      sub\n      dup2\n      0x00\n      dup8\n      gas\n      call\n      iszero\n      dup1\n      iszero\n      tag_156\n      jumpi\n      returndatasize\n      0x00\n      dup1\n      returndatacopy\n      revert(0x00, returndatasize)\n    tag_156:\n      pop\n      pop\n      pop\n      pop\n      mload(0x40)\n      returndatasize\n      not(0x1f)\n      0x1f\n      dup3\n      add\n      and\n      dup3\n      add\n      dup1\n      0x40\n      mstore\n      pop\n      dup2\n      add\n      swap1\n      tag_157\n      swap2\n      swap1\n      tag_158\n      jump\t// in\n    tag_157:\n        /* \"Work/CLS-Polygon.sol\":2960:3021  bool transfer_success = (token.transfer(msg.sender, _amount)) */\n      swap1\n      pop\n        /* \"Work/CLS-Polygon.sol\":3044:3060  transfer_success */\n      dup1\n        /* \"Work/CLS-Polygon.sol\":3036:3085  require(transfer_success,\"token transfer failed\") */\n      tag_159\n      jumpi\n      mload(0x40)\n      0x08c379a000000000000000000000000000000000000000000000000000000000\n      dup2\n      mstore\n      0x04\n      add\n      tag_160\n      swap1\n      tag_161\n      jump\t// in\n    tag_160:\n      mload(0x40)\n      dup1\n      swap2\n      sub\n      swap1\n      revert\n    tag_159:\n        /* \"Work/CLS-Polygon.sol\":3107:3151  balance_update(msg.sender,_sub_info.balance) */\n      0xca3824b7e6e1648f24d80bb94c0549cd029b4e985db70a77cc71332e52cd1611\n        /* \"Work/CLS-Polygon.sol\":3122:3132  msg.sender */\n      caller\n        /* \"Work/CLS-Polygon.sol\":3133:3142  _sub_info */\n      dup4\n        /* \"Work/CLS-Polygon.sol\":3133:3150  _sub_info.balance */\n      0x00\n      add\n      mload\n        /* \"Work/CLS-Polygon.sol\":3107:3151  balance_update(msg.sender,_sub_info.balance) */\n      mload(0x40)\n      tag_162\n      swap3\n      swap2\n      swap1\n      tag_138\n      jump\t// in\n    tag_162:\n      mload(0x40)\n      dup1\n      swap2\n      sub\n      swap1\n      log1\n        /* \"Work/CLS-Polygon.sol\":2550:3163  {... */\n      pop\n      pop\n        /* \"Work/CLS-Polygon.sol\":2506:3163  function withdraw(uint256 _amount) external {... */\n      pop\n      jump\t// out\n        /* \"Work/CLS-Polygon.sol\":8170:8297  function change_admin_status(address _admin, bool _status) external onlyOwner{... */\n    tag_41:\n        /* \"Work/CLS-Polygon.sol\":1285:1290  owner */\n      0x00\n      dup1\n      sload\n      swap1\n      0x0100\n      exp\n      swap1\n      div\n      0xffffffffffffffffffffffffffffffffffffffff\n      and\n        /* \"Work/CLS-Polygon.sol\":1271:1290  msg.sender == owner */\n      0xffffffffffffffffffffffffffffffffffffffff\n      and\n        /* \"Work/CLS-Polygon.sol\":1271:1281  msg.sender */\n      caller\n        /* \"Work/CLS-Polygon.sol\":1271:1290  msg.sender == owner */\n      0xffffffffffffffffffffffffffffffffffffffff\n      and\n      eq\n        /* \"Work/CLS-Polygon.sol\":1263:1314  require(msg.sender == owner ,\"caller is not owner\") */\n      tag_164\n      jumpi\n      mload(0x40)\n      0x08c379a000000000000000000000000000000000000000000000000000000000\n      dup2\n      mstore\n      0x04\n      add\n      tag_165\n      swap1\n      tag_166\n      jump\t// in\n    tag_165:\n      mload(0x40)\n      dup1\n      swap2\n      sub\n      swap1\n      revert\n    tag_164:\n        /* \"Work/CLS-Polygon.sol\":8278:8285  _status */\n      dup1\n        /* \"Work/CLS-Polygon.sol\":8262:8267  admin */\n      0x01\n        /* \"Work/CLS-Polygon.sol\":8262:8275  admin[_admin] */\n      0x00\n        /* \"Work/CLS-Polygon.sol\":8268:8274  _admin */\n      dup5\n        /* \"Work/CLS-Polygon.sol\":8262:8275  admin[_admin] */\n      0xffffffffffffffffffffffffffffffffffffffff\n      and\n      0xffffffffffffffffffffffffffffffffffffffff\n      and\n      dup2\n      mstore\n      0x20\n      add\n      swap1\n      dup2\n      mstore\n      0x20\n      add\n      0x00\n      keccak256\n      0x00\n        /* \"Work/CLS-Polygon.sol\":8262:8285  admin[_admin] = _status */\n      0x0100\n      exp\n      dup2\n      sload\n      dup2\n      0xff\n      mul\n      not\n      and\n      swap1\n      dup4\n      iszero\n      iszero\n      mul\n      or\n      swap1\n      sstore\n      pop\n        /* \"Work/CLS-Polygon.sol\":8170:8297  function change_admin_status(address _admin, bool _status) external onlyOwner{... */\n      pop\n      pop\n      jump\t// out\n        /* \"Work/CLS-Polygon.sol\":741:764  uint256 public treasury */\n    tag_43:\n      sload(0x05)\n      dup2\n      jump\t// out\n        /* \"Work/CLS-Polygon.sol\":275:312  mapping(address => bool) public admin */\n    tag_48:\n      mstore(0x20, 0x01)\n      dup1\n      0x00\n      mstore\n      keccak256(0x00, 0x40)\n      0x00\n      swap2\n      pop\n      sload\n      swap1\n      0x0100\n      exp\n      swap1\n      div\n      0xff\n      and\n      dup2\n      jump\t// out\n        /* \"Work/CLS-Polygon.sol\":689:732  mapping(uint256 => vault_info) public vault */\n    tag_53:\n      mstore(0x20, 0x04)\n      dup1\n      0x00\n      mstore\n      keccak256(0x00, 0x40)\n      0x00\n      swap2\n      pop\n      swap1\n      pop\n      dup1\n      0x00\n      add\n      0x00\n      swap1\n      sload\n      swap1\n      0x0100\n      exp\n      swap1\n      div\n      0xffffffffffffffffffffffffffffffffffffffff\n      and\n      swap1\n      dup1\n      0x01\n      add\n      sload\n      swap1\n      dup1\n      0x02\n      add\n      sload\n      swap1\n      dup1\n      0x03\n      add\n      sload\n      swap1\n      pop\n      dup5\n      jump\t// out\n        /* \"Work/CLS-Polygon.sol\":248:268  address public owner */\n    tag_57:\n      0x00\n      dup1\n      sload\n      swap1\n      0x0100\n      exp\n      swap1\n      div\n      0xffffffffffffffffffffffffffffffffffffffff\n      and\n      dup2\n      jump\t// out\n        /* \"Work/CLS-Polygon.sol\":144:225  address constant public tokenAddress = 0x2791Bca1f2de4661ED88A30C99A7a9449Aa84174 */\n    tag_61:\n        /* \"Work/CLS-Polygon.sol\":183:225  0x2791Bca1f2de4661ED88A30C99A7a9449Aa84174 */\n      0x2791bca1f2de4661ed88a30c99a7a9449aa84174\n        /* \"Work/CLS-Polygon.sol\":144:225  address constant public tokenAddress = 0x2791Bca1f2de4661ED88A30C99A7a9449Aa84174 */\n      dup2\n      jump\t// out\n        /* \"Work/CLS-Polygon.sol\":11208:11335  function view_blocktimestamp() view external returns (uint256 blocktimestamp) {... */\n    tag_64:\n        /* \"Work/CLS-Polygon.sol\":11262:11284  uint256 blocktimestamp */\n      0x00\n        /* \"Work/CLS-Polygon.sol\":11308:11323  block.timestamp */\n      timestamp\n        /* \"Work/CLS-Polygon.sol\":11301:11323  return block.timestamp */\n      swap1\n      pop\n        /* \"Work/CLS-Polygon.sol\":11208:11335  function view_blocktimestamp() view external returns (uint256 blocktimestamp) {... */\n      swap1\n      jump\t// out\n        /* \"Work/CLS-Polygon.sol\":9204:9545  function multiWithdraw (uint256[] calldata videoID,uint256[] calldata _amount) public onlyAdmin{... */\n    tag_69:\n        /* \"Work/CLS-Polygon.sol\":1405:1410  admin */\n      0x01\n        /* \"Work/CLS-Polygon.sol\":1405:1422  admin[msg.sender] */\n      0x00\n        /* \"Work/CLS-Polygon.sol\":1411:1421  msg.sender */\n      caller\n        /* \"Work/CLS-Polygon.sol\":1405:1422  admin[msg.sender] */\n      0xffffffffffffffffffffffffffffffffffffffff\n      and\n      0xffffffffffffffffffffffffffffffffffffffff\n      and\n      dup2\n      mstore\n      0x20\n      add\n      swap1\n      dup2\n      mstore\n      0x20\n      add\n      0x00\n      keccak256\n      0x00\n      swap1\n      sload\n      swap1\n      0x0100\n      exp\n      swap1\n      div\n      0xff\n      and\n        /* \"Work/CLS-Polygon.sol\":1405:1445  admin[msg.sender] || msg.sender == owner */\n      dup1\n      tag_170\n      jumpi\n      pop\n        /* \"Work/CLS-Polygon.sol\":1440:1445  owner */\n      0x00\n      dup1\n      sload\n      swap1\n      0x0100\n      exp\n      swap1\n      div\n      0xffffffffffffffffffffffffffffffffffffffff\n      and\n        /* \"Work/CLS-Polygon.sol\":1426:1445  msg.sender == owner */\n      0xffffffffffffffffffffffffffffffffffffffff\n      and\n        /* \"Work/CLS-Polygon.sol\":1426:1436  msg.sender */\n      caller\n        /* \"Work/CLS-Polygon.sol\":1426:1445  msg.sender == owner */\n      0xffffffffffffffffffffffffffffffffffffffff\n      and\n      eq\n        /* \"Work/CLS-Polygon.sol\":1405:1445  admin[msg.sender] || msg.sender == owner */\n    tag_170:\n        /* \"Work/CLS-Polygon.sol\":1397:1489  require(admin[msg.sender] || msg.sender == owner ,\"caller does not have the perms required\") */\n      tag_171\n      jumpi\n      mload(0x40)\n      0x08c379a000000000000000000000000000000000000000000000000000000000\n      dup2\n      mstore\n      0x04\n      add\n      tag_172\n      swap1\n      tag_173\n      jump\t// in\n    tag_172:\n      mload(0x40)\n      dup1\n      swap2\n      sub\n      swap1\n      revert\n    tag_171:\n        /* \"Work/CLS-Polygon.sol\":9340:9347  _amount */\n      dup2\n      dup2\n        /* \"Work/CLS-Polygon.sol\":9340:9354  _amount.length */\n      swap1\n      pop\n        /* \"Work/CLS-Polygon.sol\":9322:9329  videoID */\n      dup5\n      dup5\n        /* \"Work/CLS-Polygon.sol\":9322:9336  videoID.length */\n      swap1\n      pop\n        /* \"Work/CLS-Polygon.sol\":9322:9354  videoID.length == _amount.length */\n      eq\n        /* \"Work/CLS-Polygon.sol\":9314:9388  require(videoID.length == _amount.length,\"arrays must be of equal length\") */\n      tag_175\n      jumpi\n      mload(0x40)\n      0x08c379a000000000000000000000000000000000000000000000000000000000\n      dup2\n      mstore\n      0x04\n      add\n      tag_176\n      swap1\n      tag_177\n      jump\t// in\n    tag_176:\n      mload(0x40)\n      dup1\n      swap2\n      sub\n      swap1\n      revert\n    tag_175:\n        /* \"Work/CLS-Polygon.sol\":9409:9415  uint i */\n      0x00\n        /* \"Work/CLS-Polygon.sol\":9405:9534  for(uint i = 0;i < _amount.length;){... */\n    tag_178:\n        /* \"Work/CLS-Polygon.sol\":9424:9431  _amount */\n      dup3\n      dup3\n        /* \"Work/CLS-Polygon.sol\":9424:9438  _amount.length */\n      swap1\n      pop\n        /* \"Work/CLS-Polygon.sol\":9420:9421  i */\n      dup2\n        /* \"Work/CLS-Polygon.sol\":9420:9438  i < _amount.length */\n      lt\n        /* \"Work/CLS-Polygon.sol\":9405:9534  for(uint i = 0;i < _amount.length;){... */\n      iszero\n      tag_179\n      jumpi\n        /* \"Work/CLS-Polygon.sol\":9459:9496  vaultWithdraw(videoID[i], _amount[i]) */\n      tag_181\n        /* \"Work/CLS-Polygon.sol\":9473:9480  videoID */\n      dup6\n      dup6\n        /* \"Work/CLS-Polygon.sol\":9481:9482  i */\n      dup4\n        /* \"Work/CLS-Polygon.sol\":9473:9483  videoID[i] */\n      dup2\n      dup2\n      lt\n      tag_182\n      jumpi\n      tag_183\n      tag_184\n      jump\t// in\n    tag_183:\n    tag_182:\n      swap1\n      pop\n      0x20\n      mul\n      add\n      calldataload\n        /* \"Work/CLS-Polygon.sol\":9485:9492  _amount */\n      dup5\n      dup5\n        /* \"Work/CLS-Polygon.sol\":9493:9494  i */\n      dup5\n        /* \"Work/CLS-Polygon.sol\":9485:9495  _amount[i] */\n      dup2\n      dup2\n      lt\n      tag_185\n      jumpi\n      tag_186\n      tag_184\n      jump\t// in\n    tag_186:\n    tag_185:\n      swap1\n      pop\n      0x20\n      mul\n      add\n      calldataload\n        /* \"Work/CLS-Polygon.sol\":9459:9472  vaultWithdraw */\n      tag_95\n        /* \"Work/CLS-Polygon.sol\":9459:9496  vaultWithdraw(videoID[i], _amount[i]) */\n      jump\t// in\n    tag_181:\n        /* \"Work/CLS-Polygon.sol\":9515:9518  i++ */\n      dup1\n      dup1\n      tag_187\n      swap1\n      tag_188\n      jump\t// in\n    tag_187:\n      swap2\n      pop\n      pop\n        /* \"Work/CLS-Polygon.sol\":9405:9534  for(uint i = 0;i < _amount.length;){... */\n      jump(tag_178)\n    tag_179:\n      pop\n        /* \"Work/CLS-Polygon.sol\":9204:9545  function multiWithdraw (uint256[] calldata videoID,uint256[] calldata _amount) public onlyAdmin{... */\n      pop\n      pop\n      pop\n      pop\n      jump\t// out\n        /* \"Work/CLS-Polygon.sol\":1786:2494  function deposit(uint256 _amount) public {... */\n    tag_72:\n        /* \"Work/CLS-Polygon.sol\":1896:1903  _amount */\n      dup1\n        /* \"Work/CLS-Polygon.sol\":1850:1855  token */\n      0x02\n      0x00\n      swap1\n      sload\n      swap1\n      0x0100\n      exp\n      swap1\n      div\n      0xffffffffffffffffffffffffffffffffffffffff\n      and\n        /* \"Work/CLS-Polygon.sol\":1850:1865  token.allowance */\n      0xffffffffffffffffffffffffffffffffffffffff\n      and\n      0xdd62ed3e\n        /* \"Work/CLS-Polygon.sol\":1866:1876  msg.sender */\n      caller\n        /* \"Work/CLS-Polygon.sol\":1886:1890  this */\n      address\n        /* \"Work/CLS-Polygon.sol\":1850:1892  token.allowance(msg.sender, address(this)) */\n      mload(0x40)\n      dup4\n      0xffffffff\n      and\n      0xe0\n      shl\n      dup2\n      mstore\n      0x04\n      add\n      tag_190\n      swap3\n      swap2\n      swap1\n      tag_191\n      jump\t// in\n    tag_190:\n      0x20\n      mload(0x40)\n      dup1\n      dup4\n      sub\n      dup2\n      dup7\n      gas\n      staticcall\n      iszero\n      dup1\n      iszero\n      tag_193\n      jumpi\n      returndatasize\n      0x00\n      dup1\n      returndatacopy\n      revert(0x00, returndatasize)\n    tag_193:\n      pop\n      pop\n      pop\n      pop\n      mload(0x40)\n      returndatasize\n      not(0x1f)\n      0x1f\n      dup3\n      add\n      and\n      dup3\n      add\n      dup1\n      0x40\n      mstore\n      pop\n      dup2\n      add\n      swap1\n      tag_194\n      swap2\n      swap1\n      tag_195\n      jump\t// in\n    tag_194:\n        /* \"Work/CLS-Polygon.sol\":1850:1903  token.allowance(msg.sender, address(this)) >= _amount */\n      lt\n      iszero\n        /* \"Work/CLS-Polygon.sol\":1842:1964  require(token.allowance(msg.sender, address(this)) >= _amount,\"caller has not approved this contract to pull these funds\") */\n      tag_196\n      jumpi\n      mload(0x40)\n      0x08c379a000000000000000000000000000000000000000000000000000000000\n      dup2\n      mstore\n      0x04\n      add\n      tag_197\n      swap1\n      tag_198\n      jump\t// in\n    tag_197:\n      mload(0x40)\n      dup1\n      swap2\n      sub\n      swap1\n      revert\n    tag_196:\n        /* \"Work/CLS-Polygon.sol\":2018:2025  _amount */\n      dup1\n        /* \"Work/CLS-Polygon.sol\":1987:1992  token */\n      0x02\n      0x00\n      swap1\n      sload\n      swap1\n      0x0100\n      exp\n      swap1\n      div\n      0xffffffffffffffffffffffffffffffffffffffff\n      and\n        /* \"Work/CLS-Polygon.sol\":1987:2002  token.balanceOf */\n      0xffffffffffffffffffffffffffffffffffffffff\n      and\n      0x70a08231\n        /* \"Work/CLS-Polygon.sol\":2003:2013  msg.sender */\n      caller\n        /* \"Work/CLS-Polygon.sol\":1987:2014  token.balanceOf(msg.sender) */\n      mload(0x40)\n      dup3\n      0xffffffff\n      and\n      0xe0\n      shl\n      dup2\n      mstore\n      0x04\n      add\n      tag_199\n      swap2\n      swap1\n      tag_59\n      jump\t// in\n    tag_199:\n      0x20\n      mload(0x40)\n      dup1\n      dup4\n      sub\n      dup2\n      dup7\n      gas\n      staticcall\n      iszero\n      dup1\n      iszero\n      tag_201\n      jumpi\n      returndatasize\n      0x00\n      dup1\n      returndatacopy\n      revert(0x00, returndatasize)\n    tag_201:\n      pop\n      pop\n      pop\n      pop\n      mload(0x40)\n      returndatasize\n      not(0x1f)\n      0x1f\n      dup3\n      add\n      and\n      dup3\n      add\n      dup1\n      0x40\n      mstore\n      pop\n      dup2\n      add\n      swap1\n      tag_202\n      swap2\n      swap1\n      tag_195\n      jump\t// in\n    tag_202:\n        /* \"Work/CLS-Polygon.sol\":1987:2025  token.balanceOf(msg.sender) >= _amount */\n      lt\n      iszero\n        /* \"Work/CLS-Polygon.sol\":1979:2087  require(token.balanceOf(msg.sender) >= _amount,\"caller does not have enough tokens in their wallet to pull\") */\n      tag_203\n      jumpi\n      mload(0x40)\n      0x08c379a000000000000000000000000000000000000000000000000000000000\n      dup2\n      mstore\n      0x04\n      add\n      tag_204\n      swap1\n      tag_205\n      jump\t// in\n    tag_204:\n      mload(0x40)\n      dup1\n      swap2\n      sub\n      swap1\n      revert\n    tag_203:\n        /* \"Work/CLS-Polygon.sol\":2171:2192  bool transfer_success */\n      0x00\n        /* \"Work/CLS-Polygon.sol\":2196:2201  token */\n      0x02\n      0x00\n      swap1\n      sload\n      swap1\n      0x0100\n      exp\n      swap1\n      div\n      0xffffffffffffffffffffffffffffffffffffffff\n      and\n        /* \"Work/CLS-Polygon.sol\":2196:2214  token.transferFrom */\n      0xffffffffffffffffffffffffffffffffffffffff\n      and\n      0x23b872dd\n        /* \"Work/CLS-Polygon.sol\":2215:2225  msg.sender */\n      caller\n        /* \"Work/CLS-Polygon.sol\":2235:2239  this */\n      address\n        /* \"Work/CLS-Polygon.sol\":2242:2249  _amount */\n      dup6\n        /* \"Work/CLS-Polygon.sol\":2196:2250  token.transferFrom(msg.sender, address(this), _amount) */\n      mload(0x40)\n      dup5\n      0xffffffff\n      and\n      0xe0\n      shl\n      dup2\n      mstore\n      0x04\n      add\n      tag_206\n      swap4\n      swap3\n      swap2\n      swap1\n      tag_207\n      jump\t// in\n    tag_206:\n      0x20\n      mload(0x40)\n      dup1\n      dup4\n      sub\n      dup2\n      0x00\n      dup8\n      gas\n      call\n      iszero\n      dup1\n      iszero\n      tag_209\n      jumpi\n      returndatasize\n      0x00\n      dup1\n      returndatacopy\n      revert(0x00, returndatasize)\n    tag_209:\n      pop\n      pop\n      pop\n      pop\n      mload(0x40)\n      returndatasize\n      not(0x1f)\n      0x1f\n      dup3\n      add\n      and\n      dup3\n      add\n      dup1\n      0x40\n      mstore\n      pop\n      dup2\n      add\n      swap1\n      tag_210\n      swap2\n      swap1\n      tag_158\n      jump\t// in\n    tag_210:\n        /* \"Work/CLS-Polygon.sol\":2171:2251  bool transfer_success = (token.transferFrom(msg.sender, address(this), _amount)) */\n      swap1\n      pop\n        /* \"Work/CLS-Polygon.sol\":2274:2290  transfer_success */\n      dup1\n        /* \"Work/CLS-Polygon.sol\":2266:2315  require(transfer_success,\"token transfer failed\") */\n      tag_211\n      jumpi\n      mload(0x40)\n      0x08c379a000000000000000000000000000000000000000000000000000000000\n      dup2\n      mstore\n      0x04\n      add\n      tag_212\n      swap1\n      tag_161\n      jump\t// in\n    tag_212:\n      mload(0x40)\n      dup1\n      swap2\n      sub\n      swap1\n      revert\n    tag_211:\n        /* \"Work/CLS-Polygon.sol\":2419:2426  _amount */\n      dup2\n        /* \"Work/CLS-Polygon.sol\":2387:2395  sub_info */\n      0x03\n        /* \"Work/CLS-Polygon.sol\":2387:2407  sub_info[msg.sender] */\n      0x00\n        /* \"Work/CLS-Polygon.sol\":2396:2406  msg.sender */\n      caller\n        /* \"Work/CLS-Polygon.sol\":2387:2407  sub_info[msg.sender] */\n      0xffffffffffffffffffffffffffffffffffffffff\n      and\n      0xffffffffffffffffffffffffffffffffffffffff\n      and\n      dup2\n      mstore\n      0x20\n      add\n      swap1\n      dup2\n      mstore\n      0x20\n      add\n      0x00\n      keccak256\n        /* \"Work/CLS-Polygon.sol\":2387:2415  sub_info[msg.sender].balance */\n      0x00\n      add\n      0x00\n        /* \"Work/CLS-Polygon.sol\":2387:2426  sub_info[msg.sender].balance += _amount */\n      dup3\n      dup3\n      sload\n      tag_213\n      swap2\n      swap1\n      tag_214\n      jump\t// in\n    tag_213:\n      swap3\n      pop\n      pop\n      dup2\n      swap1\n      sstore\n      pop\n        /* \"Work/CLS-Polygon.sol\":2448:2482  balance_update(msg.sender,_amount) */\n      0xca3824b7e6e1648f24d80bb94c0549cd029b4e985db70a77cc71332e52cd1611\n        /* \"Work/CLS-Polygon.sol\":2463:2473  msg.sender */\n      caller\n        /* \"Work/CLS-Polygon.sol\":2474:2481  _amount */\n      dup4\n        /* \"Work/CLS-Polygon.sol\":2448:2482  balance_update(msg.sender,_amount) */\n      mload(0x40)\n      tag_215\n      swap3\n      swap2\n      swap1\n      tag_138\n      jump\t// in\n    tag_215:\n      mload(0x40)\n      dup1\n      swap2\n      sub\n      swap1\n      log1\n        /* \"Work/CLS-Polygon.sol\":1827:2494  {... */\n      pop\n        /* \"Work/CLS-Polygon.sol\":1786:2494  function deposit(uint256 _amount) public {... */\n      pop\n      jump\t// out\n        /* \"Work/CLS-Polygon.sol\":9557:10026  function treasuryWithdraw(address _receiver,uint256 _amount) public onlyAdmin {... */\n    tag_76:\n        /* \"Work/CLS-Polygon.sol\":1405:1410  admin */\n      0x01\n        /* \"Work/CLS-Polygon.sol\":1405:1422  admin[msg.sender] */\n      0x00\n        /* \"Work/CLS-Polygon.sol\":1411:1421  msg.sender */\n      caller\n        /* \"Work/CLS-Polygon.sol\":1405:1422  admin[msg.sender] */\n      0xffffffffffffffffffffffffffffffffffffffff\n      and\n      0xffffffffffffffffffffffffffffffffffffffff\n      and\n      dup2\n      mstore\n      0x20\n      add\n      swap1\n      dup2\n      mstore\n      0x20\n      add\n      0x00\n      keccak256\n      0x00\n      swap1\n      sload\n      swap1\n      0x0100\n      exp\n      swap1\n      div\n      0xff\n      and\n        /* \"Work/CLS-Polygon.sol\":1405:1445  admin[msg.sender] || msg.sender == owner */\n      dup1\n      tag_217\n      jumpi\n      pop\n        /* \"Work/CLS-Polygon.sol\":1440:1445  owner */\n      0x00\n      dup1\n      sload\n      swap1\n      0x0100\n      exp\n      swap1\n      div\n      0xffffffffffffffffffffffffffffffffffffffff\n      and\n        /* \"Work/CLS-Polygon.sol\":1426:1445  msg.sender == owner */\n      0xffffffffffffffffffffffffffffffffffffffff\n      and\n        /* \"Work/CLS-Polygon.sol\":1426:1436  msg.sender */\n      caller\n        /* \"Work/CLS-Polygon.sol\":1426:1445  msg.sender == owner */\n      0xffffffffffffffffffffffffffffffffffffffff\n      and\n      eq\n        /* \"Work/CLS-Polygon.sol\":1405:1445  admin[msg.sender] || msg.sender == owner */\n    tag_217:\n        /* \"Work/CLS-Polygon.sol\":1397:1489  require(admin[msg.sender] || msg.sender == owner ,\"caller does not have the perms required\") */\n      tag_218\n      jumpi\n      mload(0x40)\n      0x08c379a000000000000000000000000000000000000000000000000000000000\n      dup2\n      mstore\n      0x04\n      add\n      tag_219\n      swap1\n      tag_173\n      jump\t// in\n    tag_219:\n      mload(0x40)\n      dup1\n      swap2\n      sub\n      swap1\n      revert\n    tag_218:\n        /* \"Work/CLS-Polygon.sol\":9669:9677  treasury */\n      sload(0x05)\n        /* \"Work/CLS-Polygon.sol\":9658:9665  _amount */\n      dup2\n        /* \"Work/CLS-Polygon.sol\":9658:9677  _amount <= treasury */\n      gt\n      iszero\n        /* \"Work/CLS-Polygon.sol\":9650:9749  require(_amount <= treasury,\"treasury dose not have enough funds to withdraw the requested amount\") */\n      tag_221\n      jumpi\n      mload(0x40)\n      0x08c379a000000000000000000000000000000000000000000000000000000000\n      dup2\n      mstore\n      0x04\n      add\n      tag_222\n      swap1\n      tag_223\n      jump\t// in\n    tag_222:\n      mload(0x40)\n      dup1\n      swap2\n      sub\n      swap1\n      revert\n    tag_221:\n        /* \"Work/CLS-Polygon.sol\":9788:9795  _amount */\n      dup1\n        /* \"Work/CLS-Polygon.sol\":9777:9785  treasury */\n      sload(0x05)\n        /* \"Work/CLS-Polygon.sol\":9777:9795  treasury - _amount */\n      tag_224\n      swap2\n      swap1\n      tag_153\n      jump\t// in\n    tag_224:\n        /* \"Work/CLS-Polygon.sol\":9766:9774  treasury */\n      0x05\n        /* \"Work/CLS-Polygon.sol\":9766:9795  treasury = treasury - _amount */\n      dup2\n      swap1\n      sstore\n      pop\n        /* \"Work/CLS-Polygon.sol\":9810:9831  bool transfer_success */\n      0x00\n        /* \"Work/CLS-Polygon.sol\":9835:9840  token */\n      0x02\n      0x00\n      swap1\n      sload\n      swap1\n      0x0100\n      exp\n      swap1\n      div\n      0xffffffffffffffffffffffffffffffffffffffff\n      and\n        /* \"Work/CLS-Polygon.sol\":9835:9849  token.transfer */\n      0xffffffffffffffffffffffffffffffffffffffff\n      and\n      0xa9059cbb\n        /* \"Work/CLS-Polygon.sol\":9850:9859  _receiver */\n      dup5\n        /* \"Work/CLS-Polygon.sol\":9861:9868  _amount */\n      dup5\n        /* \"Work/CLS-Polygon.sol\":9835:9869  token.transfer(_receiver, _amount) */\n      mload(0x40)\n      dup4\n      0xffffffff\n      and\n      0xe0\n      shl\n      dup2\n      mstore\n      0x04\n      add\n      tag_225\n      swap3\n      swap2\n      swap1\n      tag_138\n      jump\t// in\n    tag_225:\n      0x20\n      mload(0x40)\n      dup1\n      dup4\n      sub\n      dup2\n      0x00\n      dup8\n      gas\n      call\n      iszero\n      dup1\n      iszero\n      tag_227\n      jumpi\n      returndatasize\n      0x00\n      dup1\n      returndatacopy\n      revert(0x00, returndatasize)\n    tag_227:\n      pop\n      pop\n      pop\n      pop\n      mload(0x40)\n      returndatasize\n      not(0x1f)\n      0x1f\n      dup3\n      add\n      and\n      dup3\n      add\n      dup1\n      0x40\n      mstore\n      pop\n      dup2\n      add\n      swap1\n      tag_228\n      swap2\n      swap1\n      tag_158\n      jump\t// in\n    tag_228:\n        /* \"Work/CLS-Polygon.sol\":9810:9870  bool transfer_success = (token.transfer(_receiver, _amount)) */\n      swap1\n      pop\n        /* \"Work/CLS-Polygon.sol\":9893:9909  transfer_success */\n      dup1\n        /* \"Work/CLS-Polygon.sol\":9885:9934  require(transfer_success,\"token transfer failed\") */\n      tag_229\n      jumpi\n      mload(0x40)\n      0x08c379a000000000000000000000000000000000000000000000000000000000\n      dup2\n      mstore\n      0x04\n      add\n      tag_230\n      swap1\n      tag_161\n      jump\t// in\n    tag_230:\n      mload(0x40)\n      dup1\n      swap2\n      sub\n      swap1\n      revert\n    tag_229:\n        /* \"Work/CLS-Polygon.sol\":9956:10014  treasury_withdrawal(msg.sender,_receiver,_amount,treasury) */\n      0x52e5f0b0966b7ddae6eb81cf661f808d26cbb035da15d32e70926d514f8d8c34\n        /* \"Work/CLS-Polygon.sol\":9976:9986  msg.sender */\n      caller\n        /* \"Work/CLS-Polygon.sol\":9987:9996  _receiver */\n      dup5\n        /* \"Work/CLS-Polygon.sol\":9997:10004  _amount */\n      dup5\n        /* \"Work/CLS-Polygon.sol\":10005:10013  treasury */\n      sload(0x05)\n        /* \"Work/CLS-Polygon.sol\":9956:10014  treasury_withdrawal(msg.sender,_receiver,_amount,treasury) */\n      mload(0x40)\n      tag_231\n      swap5\n      swap4\n      swap3\n      swap2\n      swap1\n      tag_232\n      jump\t// in\n    tag_231:\n      mload(0x40)\n      dup1\n      swap2\n      sub\n      swap1\n      log1\n        /* \"Work/CLS-Polygon.sol\":9635:10026  {... */\n      pop\n        /* \"Work/CLS-Polygon.sol\":9557:10026  function treasuryWithdraw(address _receiver,uint256 _amount) public onlyAdmin {... */\n      pop\n      pop\n      jump\t// out\n        /* \"Work/CLS-Polygon.sol\":3349:4909  function lock_funds(uint256 videoID,... */\n    tag_80:\n        /* \"Work/CLS-Polygon.sol\":3773:3774  0 */\n      0x00\n        /* \"Work/CLS-Polygon.sol\":3733:3775  vault[videoID].returnAddress == address(0) */\n      0xffffffffffffffffffffffffffffffffffffffff\n      and\n        /* \"Work/CLS-Polygon.sol\":3733:3738  vault */\n      0x04\n        /* \"Work/CLS-Polygon.sol\":3733:3747  vault[videoID] */\n      0x00\n        /* \"Work/CLS-Polygon.sol\":3739:3746  videoID */\n      dup7\n        /* \"Work/CLS-Polygon.sol\":3733:3747  vault[videoID] */\n      dup2\n      mstore\n      0x20\n      add\n      swap1\n      dup2\n      mstore\n      0x20\n      add\n      0x00\n      keccak256\n        /* \"Work/CLS-Polygon.sol\":3733:3761  vault[videoID].returnAddress */\n      0x00\n      add\n      0x00\n      swap1\n      sload\n      swap1\n      0x0100\n      exp\n      swap1\n      div\n      0xffffffffffffffffffffffffffffffffffffffff\n      and\n        /* \"Work/CLS-Polygon.sol\":3733:3775  vault[videoID].returnAddress == address(0) */\n      0xffffffffffffffffffffffffffffffffffffffff\n      and\n      eq\n        /* \"Work/CLS-Polygon.sol\":3725:3825  require(vault[videoID].returnAddress == address(0),\"videoID is already in use, insert an unique ID\") */\n      tag_234\n      jumpi\n      mload(0x40)\n      0x08c379a000000000000000000000000000000000000000000000000000000000\n      dup2\n      mstore\n      0x04\n      add\n      tag_235\n      swap1\n      tag_236\n      jump\t// in\n    tag_235:\n      mload(0x40)\n      dup1\n      swap2\n      sub\n      swap1\n      revert\n    tag_234:\n        /* \"Work/CLS-Polygon.sol\":3842:3866  vault_info memory _vault */\n      tag_237\n      tag_238\n      jump\t// in\n    tag_237:\n        /* \"Work/CLS-Polygon.sol\":3881:3910  Subscription memory _sub_info */\n      0x00\n        /* \"Work/CLS-Polygon.sol\":3913:3921  sub_info */\n      0x03\n        /* \"Work/CLS-Polygon.sol\":3913:3933  sub_info[msg.sender] */\n      0x00\n        /* \"Work/CLS-Polygon.sol\":3922:3932  msg.sender */\n      caller\n        /* \"Work/CLS-Polygon.sol\":3913:3933  sub_info[msg.sender] */\n      0xffffffffffffffffffffffffffffffffffffffff\n      and\n      0xffffffffffffffffffffffffffffffffffffffff\n      and\n      dup2\n      mstore\n      0x20\n      add\n      swap1\n      dup2\n      mstore\n      0x20\n      add\n      0x00\n      keccak256\n        /* \"Work/CLS-Polygon.sol\":3881:3933  Subscription memory _sub_info = sub_info[msg.sender] */\n      mload(0x40)\n      dup1\n      0x60\n      add\n      0x40\n      mstore\n      swap1\n      dup2\n      0x00\n      dup3\n      add\n      sload\n      dup2\n      mstore\n      0x20\n      add\n      0x01\n      dup3\n      add\n      sload\n      dup2\n      mstore\n      0x20\n      add\n      0x02\n      dup3\n      add\n      dup1\n      sload\n      dup1\n      0x20\n      mul\n      0x20\n      add\n      mload(0x40)\n      swap1\n      dup2\n      add\n      0x40\n      mstore\n      dup1\n      swap3\n      swap2\n      swap1\n      dup2\n      dup2\n      mstore\n      0x20\n      add\n      dup3\n      dup1\n      sload\n      dup1\n      iszero\n      tag_239\n      jumpi\n      0x20\n      mul\n      dup3\n      add\n      swap2\n      swap1\n      0x00\n      mstore\n      keccak256(0x00, 0x20)\n      swap1\n    tag_240:\n      dup2\n      sload\n      dup2\n      mstore\n      0x20\n      add\n      swap1\n      0x01\n      add\n      swap1\n      dup1\n      dup4\n      gt\n      tag_240\n      jumpi\n    tag_239:\n      pop\n      pop\n      pop\n      pop\n      pop\n      dup2\n      mstore\n      pop\n      pop\n      swap1\n      pop\n        /* \"Work/CLS-Polygon.sol\":3979:3986  _amount */\n      dup3\n        /* \"Work/CLS-Polygon.sol\":3958:3967  _sub_info */\n      dup2\n        /* \"Work/CLS-Polygon.sol\":3958:3975  _sub_info.balance */\n      0x00\n      add\n      mload\n        /* \"Work/CLS-Polygon.sol\":3958:3986  _sub_info.balance >= _amount */\n      lt\n      iszero\n        /* \"Work/CLS-Polygon.sol\":3950:4037  require(_sub_info.balance >= _amount,\"balance is smaller than the amount to be locked\") */\n      tag_241\n      jumpi\n      mload(0x40)\n      0x08c379a000000000000000000000000000000000000000000000000000000000\n      dup2\n      mstore\n      0x04\n      add\n      tag_242\n      swap1\n      tag_126\n      jump\t// in\n    tag_242:\n      mload(0x40)\n      dup1\n      swap2\n      sub\n      swap1\n      revert\n    tag_241:\n        /* \"Work/CLS-Polygon.sol\":4075:4082  _amount */\n      dup3\n        /* \"Work/CLS-Polygon.sol\":4054:4063  _sub_info */\n      dup2\n        /* \"Work/CLS-Polygon.sol\":4054:4071  _sub_info.balance */\n      0x00\n      add\n        /* \"Work/CLS-Polygon.sol\":4054:4082  _sub_info.balance -= _amount */\n      dup2\n      dup2\n      mload\n      tag_243\n      swap2\n      swap1\n      tag_153\n      jump\t// in\n    tag_243:\n      swap2\n      pop\n      dup2\n      dup2\n      mstore\n      pop\n      pop\n        /* \"Work/CLS-Polygon.sol\":4124:4131  _amount */\n      dup3\n        /* \"Work/CLS-Polygon.sol\":4097:4106  _sub_info */\n      dup2\n        /* \"Work/CLS-Polygon.sol\":4097:4120  _sub_info.lockedBalance */\n      0x20\n      add\n        /* \"Work/CLS-Polygon.sol\":4097:4131  _sub_info.lockedBalance += _amount */\n      dup2\n      dup2\n      mload\n      tag_244\n      swap2\n      swap1\n      tag_214\n      jump\t// in\n    tag_244:\n      swap2\n      pop\n      dup2\n      dup2\n      mstore\n      pop\n      pop\n        /* \"Work/CLS-Polygon.sol\":4165:4172  _amount */\n      dup3\n        /* \"Work/CLS-Polygon.sol\":4148:4154  _vault */\n      dup3\n        /* \"Work/CLS-Polygon.sol\":4148:4162  _vault.balance */\n      0x60\n      add\n        /* \"Work/CLS-Polygon.sol\":4148:4172  _vault.balance = _amount */\n      dup2\n      dup2\n      mstore\n      pop\n      pop\n        /* \"Work/CLS-Polygon.sol\":4210:4220  msg.sender */\n      caller\n        /* \"Work/CLS-Polygon.sol\":4187:4193  _vault */\n      dup3\n        /* \"Work/CLS-Polygon.sol\":4187:4207  _vault.returnAddress */\n      0x00\n      add\n        /* \"Work/CLS-Polygon.sol\":4187:4220  _vault.returnAddress = msg.sender */\n      swap1\n      0xffffffffffffffffffffffffffffffffffffffff\n      and\n      swap1\n      dup2\n      0xffffffffffffffffffffffffffffffffffffffff\n      and\n      dup2\n      mstore\n      pop\n      pop\n        /* \"Work/CLS-Polygon.sol\":4256:4266  start_time */\n      dup5\n        /* \"Work/CLS-Polygon.sol\":4237:4243  _vault */\n      dup3\n        /* \"Work/CLS-Polygon.sol\":4237:4253  _vault.lockstart */\n      0x20\n      add\n        /* \"Work/CLS-Polygon.sol\":4237:4266  _vault.lockstart = start_time */\n      dup2\n      dup2\n      mstore\n      pop\n      pop\n        /* \"Work/CLS-Polygon.sol\":4390:4400  10 minutes */\n      0x0258\n        /* \"Work/CLS-Polygon.sol\":4370:4376  _vault */\n      dup3\n        /* \"Work/CLS-Polygon.sol\":4370:4386  _vault.lockstart */\n      0x20\n      add\n        /* \"Work/CLS-Polygon.sol\":4370:4400  _vault.lockstart -= 10 minutes */\n      dup2\n      dup2\n      mload\n      tag_245\n      swap2\n      swap1\n      tag_153\n      jump\t// in\n    tag_245:\n      swap2\n      pop\n      dup2\n      dup2\n      mstore\n      pop\n      pop\n        /* \"Work/CLS-Polygon.sol\":4507:4517  10 minutes */\n      0x0258\n        /* \"Work/CLS-Polygon.sol\":4494:4503  1 minutes */\n      0x3c\n        /* \"Work/CLS-Polygon.sol\":4478:4491  _lockduration */\n      dup6\n        /* \"Work/CLS-Polygon.sol\":4478:4503  _lockduration * 1 minutes */\n      tag_246\n      swap2\n      swap1\n      tag_247\n      jump\t// in\n    tag_246:\n        /* \"Work/CLS-Polygon.sol\":4477:4517  (_lockduration * 1 minutes) + 10 minutes */\n      tag_248\n      swap2\n      swap1\n      tag_214\n      jump\t// in\n    tag_248:\n        /* \"Work/CLS-Polygon.sol\":4455:4461  _vault */\n      dup3\n        /* \"Work/CLS-Polygon.sol\":4455:4474  _vault.lockduration */\n      0x40\n      add\n        /* \"Work/CLS-Polygon.sol\":4455:4517  _vault.lockduration = (_lockduration * 1 minutes) + 10 minutes */\n      dup2\n      dup2\n      mstore\n      pop\n      pop\n        /* \"Work/CLS-Polygon.sol\":4626:4635  _sub_info */\n      dup1\n        /* \"Work/CLS-Polygon.sol\":4603:4611  sub_info */\n      0x03\n        /* \"Work/CLS-Polygon.sol\":4603:4623  sub_info[msg.sender] */\n      0x00\n        /* \"Work/CLS-Polygon.sol\":4612:4622  msg.sender */\n      caller\n        /* \"Work/CLS-Polygon.sol\":4603:4623  sub_info[msg.sender] */\n      0xffffffffffffffffffffffffffffffffffffffff\n      and\n      0xffffffffffffffffffffffffffffffffffffffff\n      and\n      dup2\n      mstore\n      0x20\n      add\n      swap1\n      dup2\n      mstore\n      0x20\n      add\n      0x00\n      keccak256\n        /* \"Work/CLS-Polygon.sol\":4603:4635  sub_info[msg.sender] = _sub_info */\n      0x00\n      dup3\n      add\n      mload\n      dup2\n      0x00\n      add\n      sstore\n      0x20\n      dup3\n      add\n      mload\n      dup2\n      0x01\n      add\n      sstore\n      0x40\n      dup3\n      add\n      mload\n      dup2\n      0x02\n      add\n      swap1\n      dup1\n      mload\n      swap1\n      0x20\n      add\n      swap1\n      tag_249\n      swap3\n      swap2\n      swap1\n      tag_136\n      jump\t// in\n    tag_249:\n      pop\n      swap1\n      pop\n      pop\n        /* \"Work/CLS-Polygon.sol\":4650:4658  sub_info */\n      0x03\n        /* \"Work/CLS-Polygon.sol\":4650:4670  sub_info[msg.sender] */\n      0x00\n        /* \"Work/CLS-Polygon.sol\":4659:4669  msg.sender */\n      caller\n        /* \"Work/CLS-Polygon.sol\":4650:4670  sub_info[msg.sender] */\n      0xffffffffffffffffffffffffffffffffffffffff\n      and\n      0xffffffffffffffffffffffffffffffffffffffff\n      and\n      dup2\n      mstore\n      0x20\n      add\n      swap1\n      dup2\n      mstore\n      0x20\n      add\n      0x00\n      keccak256\n        /* \"Work/CLS-Polygon.sol\":4650:4679  sub_info[msg.sender].videoIDs */\n      0x02\n      add\n        /* \"Work/CLS-Polygon.sol\":4685:4692  videoID */\n      dup7\n        /* \"Work/CLS-Polygon.sol\":4650:4693  sub_info[msg.sender].videoIDs.push(videoID) */\n      swap1\n      dup1\n      0x01\n      dup2\n      sload\n      add\n      dup1\n      dup3\n      sstore\n      dup1\n      swap2\n      pop\n      pop\n      0x01\n      swap1\n      sub\n      swap1\n      0x00\n      mstore\n      keccak256(0x00, 0x20)\n      add\n      0x00\n      swap1\n      swap2\n      swap1\n      swap2\n      swap1\n      swap2\n      pop\n      sstore\n        /* \"Work/CLS-Polygon.sol\":4725:4731  _vault */\n      dup2\n        /* \"Work/CLS-Polygon.sol\":4708:4713  vault */\n      0x04\n        /* \"Work/CLS-Polygon.sol\":4708:4722  vault[videoID] */\n      0x00\n        /* \"Work/CLS-Polygon.sol\":4714:4721  videoID */\n      dup9\n        /* \"Work/CLS-Polygon.sol\":4708:4722  vault[videoID] */\n      dup2\n      mstore\n      0x20\n      add\n      swap1\n      dup2\n      mstore\n      0x20\n      add\n      0x00\n      keccak256\n        /* \"Work/CLS-Polygon.sol\":4708:4731  vault[videoID] = _vault */\n      0x00\n      dup3\n      add\n      mload\n      dup2\n      0x00\n      add\n      exp(0x0100, 0x00)\n      dup2\n      sload\n      dup2\n      0xffffffffffffffffffffffffffffffffffffffff\n      mul\n      not\n      and\n      swap1\n      dup4\n      0xffffffffffffffffffffffffffffffffffffffff\n      and\n      mul\n      or\n      swap1\n      sstore\n      pop\n      0x20\n      dup3\n      add\n      mload\n      dup2\n      0x01\n      add\n      sstore\n      0x40\n      dup3\n      add\n      mload\n      dup2\n      0x02\n      add\n      sstore\n      0x60\n      dup3\n      add\n      mload\n      dup2\n      0x03\n      add\n      sstore\n      swap1\n      pop\n      pop\n        /* \"Work/CLS-Polygon.sol\":4753:4797  balance_update(msg.sender,_sub_info.balance) */\n      0xca3824b7e6e1648f24d80bb94c0549cd029b4e985db70a77cc71332e52cd1611\n        /* \"Work/CLS-Polygon.sol\":4768:4778  msg.sender */\n      caller\n        /* \"Work/CLS-Polygon.sol\":4779:4788  _sub_info */\n      dup3\n        /* \"Work/CLS-Polygon.sol\":4779:4796  _sub_info.balance */\n      0x00\n      add\n      mload\n        /* \"Work/CLS-Polygon.sol\":4753:4797  balance_update(msg.sender,_sub_info.balance) */\n      mload(0x40)\n      tag_251\n      swap3\n      swap2\n      swap1\n      tag_138\n      jump\t// in\n    tag_251:\n      mload(0x40)\n      dup1\n      swap2\n      sub\n      swap1\n      log1\n        /* \"Work/CLS-Polygon.sol\":4817:4897  vault_creation(videoID, msg.sender, _amount, lockend(videoID), _vault.lockstart) */\n      0xcf2318af0c0c130d221f4e0c108e3216e19dd0fa2246b660e9cdec57a056fcb0\n        /* \"Work/CLS-Polygon.sol\":4832:4839  videoID */\n      dup7\n        /* \"Work/CLS-Polygon.sol\":4841:4851  msg.sender */\n      caller\n        /* \"Work/CLS-Polygon.sol\":4853:4860  _amount */\n      dup6\n        /* \"Work/CLS-Polygon.sol\":4862:4878  lockend(videoID) */\n      tag_252\n        /* \"Work/CLS-Polygon.sol\":4870:4877  videoID */\n      dup11\n        /* \"Work/CLS-Polygon.sol\":4862:4869  lockend */\n      tag_140\n        /* \"Work/CLS-Polygon.sol\":4862:4878  lockend(videoID) */\n      jump\t// in\n    tag_252:\n        /* \"Work/CLS-Polygon.sol\":4880:4886  _vault */\n      dup7\n        /* \"Work/CLS-Polygon.sol\":4880:4896  _vault.lockstart */\n      0x20\n      add\n      mload\n        /* \"Work/CLS-Polygon.sol\":4817:4897  vault_creation(videoID, msg.sender, _amount, lockend(videoID), _vault.lockstart) */\n      mload(0x40)\n      tag_253\n      swap6\n      swap5\n      swap4\n      swap3\n      swap2\n      swap1\n      tag_254\n      jump\t// in\n    tag_253:\n      mload(0x40)\n      dup1\n      swap2\n      sub\n      swap1\n      log1\n        /* \"Work/CLS-Polygon.sol\":3708:4909  {... */\n      pop\n      pop\n        /* \"Work/CLS-Polygon.sol\":3349:4909  function lock_funds(uint256 videoID,... */\n      pop\n      pop\n      pop\n      pop\n      jump\t// out\n        /* \"Work/CLS-Polygon.sol\":10649:11196  function view_vault(uint256 videoID) view external returns ( address returnAddress,uint256 balance,uint256 _lockstart,uint256 _lockend,bool locked){... */\n    tag_83:\n        /* \"Work/CLS-Polygon.sol\":10710:10731  address returnAddress */\n      0x00\n        /* \"Work/CLS-Polygon.sol\":10732:10747  uint256 balance */\n      dup1\n        /* \"Work/CLS-Polygon.sol\":10748:10766  uint256 _lockstart */\n      0x00\n        /* \"Work/CLS-Polygon.sol\":10767:10783  uint256 _lockend */\n      dup1\n        /* \"Work/CLS-Polygon.sol\":10784:10795  bool locked */\n      0x00\n        /* \"Work/CLS-Polygon.sol\":10822:10838  lockend(videoID) */\n      tag_256\n        /* \"Work/CLS-Polygon.sol\":10830:10837  videoID */\n      dup7\n        /* \"Work/CLS-Polygon.sol\":10822:10829  lockend */\n      tag_140\n        /* \"Work/CLS-Polygon.sol\":10822:10838  lockend(videoID) */\n      jump\t// in\n    tag_256:\n        /* \"Work/CLS-Polygon.sol\":10811:10838  _lockend = lockend(videoID) */\n      swap2\n      pop\n        /* \"Work/CLS-Polygon.sol\":10936:10941  vault */\n      0x04\n        /* \"Work/CLS-Polygon.sol\":10936:10950  vault[videoID] */\n      0x00\n        /* \"Work/CLS-Polygon.sol\":10942:10949  videoID */\n      dup8\n        /* \"Work/CLS-Polygon.sol\":10936:10950  vault[videoID] */\n      dup2\n      mstore\n      0x20\n      add\n      swap1\n      dup2\n      mstore\n      0x20\n      add\n      0x00\n      keccak256\n        /* \"Work/CLS-Polygon.sol\":10936:10964  vault[videoID].returnAddress */\n      0x00\n      add\n      0x00\n      swap1\n      sload\n      swap1\n      0x0100\n      exp\n      swap1\n      div\n      0xffffffffffffffffffffffffffffffffffffffff\n      and\n        /* \"Work/CLS-Polygon.sol\":10983:10988  vault */\n      0x04\n        /* \"Work/CLS-Polygon.sol\":10983:10997  vault[videoID] */\n      0x00\n        /* \"Work/CLS-Polygon.sol\":10989:10996  videoID */\n      dup9\n        /* \"Work/CLS-Polygon.sol\":10983:10997  vault[videoID] */\n      dup2\n      mstore\n      0x20\n      add\n      swap1\n      dup2\n      mstore\n      0x20\n      add\n      0x00\n      keccak256\n        /* \"Work/CLS-Polygon.sol\":10983:11005  vault[videoID].balance */\n      0x03\n      add\n      sload\n        /* \"Work/CLS-Polygon.sol\":11024:11029  vault */\n      0x04\n        /* \"Work/CLS-Polygon.sol\":11024:11038  vault[videoID] */\n      0x00\n        /* \"Work/CLS-Polygon.sol\":11030:11037  videoID */\n      dup10\n        /* \"Work/CLS-Polygon.sol\":11024:11038  vault[videoID] */\n      dup2\n      mstore\n      0x20\n      add\n      swap1\n      dup2\n      mstore\n      0x20\n      add\n      0x00\n      keccak256\n        /* \"Work/CLS-Polygon.sol\":11024:11048  vault[videoID].lockstart */\n      0x01\n      add\n      sload\n        /* \"Work/CLS-Polygon.sol\":11067:11075  _lockend */\n      dup5\n        /* \"Work/CLS-Polygon.sol\":11122:11137  block.timestamp */\n      timestamp\n        /* \"Work/CLS-Polygon.sol\":11095:11100  vault */\n      0x04\n        /* \"Work/CLS-Polygon.sol\":11095:11109  vault[videoID] */\n      0x00\n        /* \"Work/CLS-Polygon.sol\":11101:11108  videoID */\n      dup13\n        /* \"Work/CLS-Polygon.sol\":11095:11109  vault[videoID] */\n      dup2\n      mstore\n      0x20\n      add\n      swap1\n      dup2\n      mstore\n      0x20\n      add\n      0x00\n      keccak256\n        /* \"Work/CLS-Polygon.sol\":11095:11119  vault[videoID].lockstart */\n      0x01\n      add\n      sload\n        /* \"Work/CLS-Polygon.sol\":11095:11137  vault[videoID].lockstart < block.timestamp */\n      lt\n        /* \"Work/CLS-Polygon.sol\":11095:11167  vault[videoID].lockstart < block.timestamp && block.timestamp < _lockend */\n      dup1\n      iszero\n      tag_257\n      jumpi\n      pop\n        /* \"Work/CLS-Polygon.sol\":11159:11167  _lockend */\n      dup6\n        /* \"Work/CLS-Polygon.sol\":11141:11156  block.timestamp */\n      timestamp\n        /* \"Work/CLS-Polygon.sol\":11141:11167  block.timestamp < _lockend */\n      lt\n        /* \"Work/CLS-Polygon.sol\":11095:11167  vault[videoID].lockstart < block.timestamp && block.timestamp < _lockend */\n    tag_257:\n        /* \"Work/CLS-Polygon.sol\":10910:11184  return (... */\n      swap5\n      pop\n      swap5\n      pop\n      swap5\n      pop\n      swap5\n      pop\n      swap5\n      pop\n        /* \"Work/CLS-Polygon.sol\":10649:11196  function view_vault(uint256 videoID) view external returns ( address returnAddress,uint256 balance,uint256 _lockstart,uint256 _lockend,bool locked){... */\n      swap2\n      swap4\n      swap6\n      swap1\n      swap3\n      swap5\n      pop\n      jump\t// out\n        /* \"Work/CLS-Polygon.sol\":7165:7968  function cancel_stream (uint256 videoID) public {... */\n    tag_88:\n        /* \"Work/CLS-Polygon.sol\":7230:7254  vault_info memory _vault */\n      0x00\n        /* \"Work/CLS-Polygon.sol\":7257:7262  vault */\n      0x04\n        /* \"Work/CLS-Polygon.sol\":7257:7271  vault[videoID] */\n      0x00\n        /* \"Work/CLS-Polygon.sol\":7263:7270  videoID */\n      dup4\n        /* \"Work/CLS-Polygon.sol\":7257:7271  vault[videoID] */\n      dup2\n      mstore\n      0x20\n      add\n      swap1\n      dup2\n      mstore\n      0x20\n      add\n      0x00\n      keccak256\n        /* \"Work/CLS-Polygon.sol\":7230:7271  vault_info memory _vault = vault[videoID] */\n      mload(0x40)\n      dup1\n      0x80\n      add\n      0x40\n      mstore\n      swap1\n      dup2\n      0x00\n      dup3\n      add\n      0x00\n      swap1\n      sload\n      swap1\n      0x0100\n      exp\n      swap1\n      div\n      0xffffffffffffffffffffffffffffffffffffffff\n      and\n      0xffffffffffffffffffffffffffffffffffffffff\n      and\n      0xffffffffffffffffffffffffffffffffffffffff\n      and\n      dup2\n      mstore\n      0x20\n      add\n      0x01\n      dup3\n      add\n      sload\n      dup2\n      mstore\n      0x20\n      add\n      0x02\n      dup3\n      add\n      sload\n      dup2\n      mstore\n      0x20\n      add\n      0x03\n      dup3\n      add\n      sload\n      dup2\n      mstore\n      pop\n      pop\n      swap1\n      pop\n        /* \"Work/CLS-Polygon.sol\":7320:7330  msg.sender */\n      caller\n        /* \"Work/CLS-Polygon.sol\":7296:7330  _vault.returnAddress == msg.sender */\n      0xffffffffffffffffffffffffffffffffffffffff\n      and\n        /* \"Work/CLS-Polygon.sol\":7296:7302  _vault */\n      dup2\n        /* \"Work/CLS-Polygon.sol\":7296:7316  _vault.returnAddress */\n      0x00\n      add\n      mload\n        /* \"Work/CLS-Polygon.sol\":7296:7330  _vault.returnAddress == msg.sender */\n      0xffffffffffffffffffffffffffffffffffffffff\n      and\n      eq\n        /* \"Work/CLS-Polygon.sol\":7288:7374  require(_vault.returnAddress == msg.sender,\"caller is not associated with this vault\") */\n      tag_259\n      jumpi\n      mload(0x40)\n      0x08c379a000000000000000000000000000000000000000000000000000000000\n      dup2\n      mstore\n      0x04\n      add\n      tag_260\n      swap1\n      tag_99\n      jump\t// in\n    tag_260:\n      mload(0x40)\n      dup1\n      swap2\n      sub\n      swap1\n      revert\n    tag_259:\n        /* \"Work/CLS-Polygon.sol\":7416:7431  block.timestamp */\n      timestamp\n        /* \"Work/CLS-Polygon.sol\":7397:7403  _vault */\n      dup2\n        /* \"Work/CLS-Polygon.sol\":7397:7413  _vault.lockstart */\n      0x20\n      add\n      mload\n        /* \"Work/CLS-Polygon.sol\":7397:7431  _vault.lockstart > block.timestamp */\n      gt\n        /* \"Work/CLS-Polygon.sol\":7389:7464  require(_vault.lockstart > block.timestamp,\"lock/stream has already begun\") */\n      tag_261\n      jumpi\n      mload(0x40)\n      0x08c379a000000000000000000000000000000000000000000000000000000000\n      dup2\n      mstore\n      0x04\n      add\n      tag_262\n      swap1\n      tag_102\n      jump\t// in\n    tag_262:\n      mload(0x40)\n      dup1\n      swap2\n      sub\n      swap1\n      revert\n    tag_261:\n        /* \"Work/CLS-Polygon.sol\":7481:7510  Subscription memory _sub_info */\n      0x00\n        /* \"Work/CLS-Polygon.sol\":7513:7521  sub_info */\n      0x03\n        /* \"Work/CLS-Polygon.sol\":7513:7533  sub_info[msg.sender] */\n      0x00\n        /* \"Work/CLS-Polygon.sol\":7522:7532  msg.sender */\n      caller\n        /* \"Work/CLS-Polygon.sol\":7513:7533  sub_info[msg.sender] */\n      0xffffffffffffffffffffffffffffffffffffffff\n      and\n      0xffffffffffffffffffffffffffffffffffffffff\n      and\n      dup2\n      mstore\n      0x20\n      add\n      swap1\n      dup2\n      mstore\n      0x20\n      add\n      0x00\n      keccak256\n        /* \"Work/CLS-Polygon.sol\":7481:7533  Subscription memory _sub_info = sub_info[msg.sender] */\n      mload(0x40)\n      dup1\n      0x60\n      add\n      0x40\n      mstore\n      swap1\n      dup2\n      0x00\n      dup3\n      add\n      sload\n      dup2\n      mstore\n      0x20\n      add\n      0x01\n      dup3\n      add\n      sload\n      dup2\n      mstore\n      0x20\n      add\n      0x02\n      dup3\n      add\n      dup1\n      sload\n      dup1\n      0x20\n      mul\n      0x20\n      add\n      mload(0x40)\n      swap1\n      dup2\n      add\n      0x40\n      mstore\n      dup1\n      swap3\n      swap2\n      swap1\n      dup2\n      dup2\n      mstore\n      0x20\n      add\n      dup3\n      dup1\n      sload\n      dup1\n      iszero\n      tag_263\n      jumpi\n      0x20\n      mul\n      dup3\n      add\n      swap2\n      swap1\n      0x00\n      mstore\n      keccak256(0x00, 0x20)\n      swap1\n    tag_264:\n      dup2\n      sload\n      dup2\n      mstore\n      0x20\n      add\n      swap1\n      0x01\n      add\n      swap1\n      dup1\n      dup4\n      gt\n      tag_264\n      jumpi\n    tag_263:\n      pop\n      pop\n      pop\n      pop\n      pop\n      dup2\n      mstore\n      pop\n      pop\n      swap1\n      pop\n        /* \"Work/CLS-Polygon.sol\":7577:7583  _vault */\n      dup2\n        /* \"Work/CLS-Polygon.sol\":7577:7591  _vault.balance */\n      0x60\n      add\n      mload\n        /* \"Work/CLS-Polygon.sol\":7550:7559  _sub_info */\n      dup2\n        /* \"Work/CLS-Polygon.sol\":7550:7573  _sub_info.lockedBalance */\n      0x20\n      add\n        /* \"Work/CLS-Polygon.sol\":7550:7591  _sub_info.lockedBalance -= _vault.balance */\n      dup2\n      dup2\n      mload\n      tag_265\n      swap2\n      swap1\n      tag_153\n      jump\t// in\n    tag_265:\n      swap2\n      pop\n      dup2\n      dup2\n      mstore\n      pop\n      pop\n        /* \"Work/CLS-Polygon.sol\":7627:7633  _vault */\n      dup2\n        /* \"Work/CLS-Polygon.sol\":7627:7641  _vault.balance */\n      0x60\n      add\n      mload\n        /* \"Work/CLS-Polygon.sol\":7606:7615  _sub_info */\n      dup2\n        /* \"Work/CLS-Polygon.sol\":7606:7623  _sub_info.balance */\n      0x00\n      add\n        /* \"Work/CLS-Polygon.sol\":7606:7641  _sub_info.balance += _vault.balance */\n      dup2\n      dup2\n      mload\n      tag_266\n      swap2\n      swap1\n      tag_214\n      jump\t// in\n    tag_266:\n      swap2\n      pop\n      dup2\n      dup2\n      mstore\n      pop\n      pop\n        /* \"Work/CLS-Polygon.sol\":7673:7674  0 */\n      0x00\n        /* \"Work/CLS-Polygon.sol\":7656:7662  _vault */\n      dup3\n        /* \"Work/CLS-Polygon.sol\":7656:7670  _vault.balance */\n      0x60\n      add\n        /* \"Work/CLS-Polygon.sol\":7656:7674  _vault.balance = 0 */\n      dup2\n      dup2\n      mstore\n      pop\n      pop\n        /* \"Work/CLS-Polygon.sol\":7712:7754  0x1111111111111111111111111111111111111111 */\n      0x1111111111111111111111111111111111111111\n        /* \"Work/CLS-Polygon.sol\":7689:7695  _vault */\n      dup3\n        /* \"Work/CLS-Polygon.sol\":7689:7709  _vault.returnAddress */\n      0x00\n      add\n        /* \"Work/CLS-Polygon.sol\":7689:7754  _vault.returnAddress = 0x1111111111111111111111111111111111111111 */\n      swap1\n      0xffffffffffffffffffffffffffffffffffffffff\n      and\n      swap1\n      dup2\n      0xffffffffffffffffffffffffffffffffffffffff\n      and\n      dup2\n      mstore\n      pop\n      pop\n        /* \"Work/CLS-Polygon.sol\":7795:7804  _sub_info */\n      dup1\n        /* \"Work/CLS-Polygon.sol\":7772:7780  sub_info */\n      0x03\n        /* \"Work/CLS-Polygon.sol\":7772:7792  sub_info[msg.sender] */\n      0x00\n        /* \"Work/CLS-Polygon.sol\":7781:7791  msg.sender */\n      caller\n        /* \"Work/CLS-Polygon.sol\":7772:7792  sub_info[msg.sender] */\n      0xffffffffffffffffffffffffffffffffffffffff\n      and\n      0xffffffffffffffffffffffffffffffffffffffff\n      and\n      dup2\n      mstore\n      0x20\n      add\n      swap1\n      dup2\n      mstore\n      0x20\n      add\n      0x00\n      keccak256\n        /* \"Work/CLS-Polygon.sol\":7772:7804  sub_info[msg.sender] = _sub_info */\n      0x00\n      dup3\n      add\n      mload\n      dup2\n      0x00\n      add\n      sstore\n      0x20\n      dup3\n      add\n      mload\n      dup2\n      0x01\n      add\n      sstore\n      0x40\n      dup3\n      add\n      mload\n      dup2\n      0x02\n      add\n      swap1\n      dup1\n      mload\n      swap1\n      0x20\n      add\n      swap1\n      tag_267\n      swap3\n      swap2\n      swap1\n      tag_136\n      jump\t// in\n    tag_267:\n      pop\n      swap1\n      pop\n      pop\n        /* \"Work/CLS-Polygon.sol\":7836:7842  _vault */\n      dup2\n        /* \"Work/CLS-Polygon.sol\":7819:7824  vault */\n      0x04\n        /* \"Work/CLS-Polygon.sol\":7819:7833  vault[videoID] */\n      0x00\n        /* \"Work/CLS-Polygon.sol\":7825:7832  videoID */\n      dup6\n        /* \"Work/CLS-Polygon.sol\":7819:7833  vault[videoID] */\n      dup2\n      mstore\n      0x20\n      add\n      swap1\n      dup2\n      mstore\n      0x20\n      add\n      0x00\n      keccak256\n        /* \"Work/CLS-Polygon.sol\":7819:7842  vault[videoID] = _vault */\n      0x00\n      dup3\n      add\n      mload\n      dup2\n      0x00\n      add\n      exp(0x0100, 0x00)\n      dup2\n      sload\n      dup2\n      0xffffffffffffffffffffffffffffffffffffffff\n      mul\n      not\n      and\n      swap1\n      dup4\n      0xffffffffffffffffffffffffffffffffffffffff\n      and\n      mul\n      or\n      swap1\n      sstore\n      pop\n      0x20\n      dup3\n      add\n      mload\n      dup2\n      0x01\n      add\n      sstore\n      0x40\n      dup3\n      add\n      mload\n      dup2\n      0x02\n      add\n      sstore\n      0x60\n      dup3\n      add\n      mload\n      dup2\n      0x03\n      add\n      sstore\n      swap1\n      pop\n      pop\n        /* \"Work/CLS-Polygon.sol\":7864:7891  vault_cancellation(videoID) */\n      0x3c40ea31b27b76cc19d7289ff39fe49d0d2c54b6f2e71277dcc572f0a0492819\n        /* \"Work/CLS-Polygon.sol\":7883:7890  videoID */\n      dup4\n        /* \"Work/CLS-Polygon.sol\":7864:7891  vault_cancellation(videoID) */\n      mload(0x40)\n      tag_268\n      swap2\n      swap1\n      tag_45\n      jump\t// in\n    tag_268:\n      mload(0x40)\n      dup1\n      swap2\n      sub\n      swap1\n      log1\n        /* \"Work/CLS-Polygon.sol\":7911:7956  balance_update(msg.sender, _sub_info.balance) */\n      0xca3824b7e6e1648f24d80bb94c0549cd029b4e985db70a77cc71332e52cd1611\n        /* \"Work/CLS-Polygon.sol\":7926:7936  msg.sender */\n      caller\n        /* \"Work/CLS-Polygon.sol\":7938:7947  _sub_info */\n      dup3\n        /* \"Work/CLS-Polygon.sol\":7938:7955  _sub_info.balance */\n      0x00\n      add\n      mload\n        /* \"Work/CLS-Polygon.sol\":7911:7956  balance_update(msg.sender, _sub_info.balance) */\n      mload(0x40)\n      tag_269\n      swap3\n      swap2\n      swap1\n      tag_138\n      jump\t// in\n    tag_269:\n      mload(0x40)\n      dup1\n      swap2\n      sub\n      swap1\n      log1\n        /* \"Work/CLS-Polygon.sol\":7213:7968  {... */\n      pop\n      pop\n        /* \"Work/CLS-Polygon.sol\":7165:7968  function cancel_stream (uint256 videoID) public {... */\n      pop\n      jump\t// out\n        /* \"Work/CLS-Polygon.sol\":8049:8158  function transfer_ownership(address new_owner) external onlyOwner{... */\n    tag_91:\n        /* \"Work/CLS-Polygon.sol\":1285:1290  owner */\n      0x00\n      dup1\n      sload\n      swap1\n      0x0100\n      exp\n      swap1\n      div\n      0xffffffffffffffffffffffffffffffffffffffff\n      and\n        /* \"Work/CLS-Polygon.sol\":1271:1290  msg.sender == owner */\n      0xffffffffffffffffffffffffffffffffffffffff\n      and\n        /* \"Work/CLS-Polygon.sol\":1271:1281  msg.sender */\n      caller\n        /* \"Work/CLS-Polygon.sol\":1271:1290  msg.sender == owner */\n      0xffffffffffffffffffffffffffffffffffffffff\n      and\n      eq\n        /* \"Work/CLS-Polygon.sol\":1263:1314  require(msg.sender == owner ,\"caller is not owner\") */\n      tag_271\n      jumpi\n      mload(0x40)\n      0x08c379a000000000000000000000000000000000000000000000000000000000\n      dup2\n      mstore\n      0x04\n      add\n      tag_272\n      swap1\n      tag_166\n      jump\t// in\n    tag_272:\n      mload(0x40)\n      dup1\n      swap2\n      sub\n      swap1\n      revert\n    tag_271:\n        /* \"Work/CLS-Polygon.sol\":8137:8146  new_owner */\n      dup1\n        /* \"Work/CLS-Polygon.sol\":8129:8134  owner */\n      0x00\n      dup1\n        /* \"Work/CLS-Polygon.sol\":8129:8146  owner = new_owner */\n      0x0100\n      exp\n      dup2\n      sload\n      dup2\n      0xffffffffffffffffffffffffffffffffffffffff\n      mul\n      not\n      and\n      swap1\n      dup4\n      0xffffffffffffffffffffffffffffffffffffffff\n      and\n      mul\n      or\n      swap1\n      sstore\n      pop\n        /* \"Work/CLS-Polygon.sol\":8049:8158  function transfer_ownership(address new_owner) external onlyOwner{... */\n      pop\n      jump\t// out\n        /* \"Work/CLS-Polygon.sol\":8309:9184  function vaultWithdraw(uint256 videoID, uint256 _amount) public onlyAdmin{... */\n    tag_95:\n        /* \"Work/CLS-Polygon.sol\":1405:1410  admin */\n      0x01\n        /* \"Work/CLS-Polygon.sol\":1405:1422  admin[msg.sender] */\n      0x00\n        /* \"Work/CLS-Polygon.sol\":1411:1421  msg.sender */\n      caller\n        /* \"Work/CLS-Polygon.sol\":1405:1422  admin[msg.sender] */\n      0xffffffffffffffffffffffffffffffffffffffff\n      and\n      0xffffffffffffffffffffffffffffffffffffffff\n      and\n      dup2\n      mstore\n      0x20\n      add\n      swap1\n      dup2\n      mstore\n      0x20\n      add\n      0x00\n      keccak256\n      0x00\n      swap1\n      sload\n      swap1\n      0x0100\n      exp\n      swap1\n      div\n      0xff\n      and\n        /* \"Work/CLS-Polygon.sol\":1405:1445  admin[msg.sender] || msg.sender == owner */\n      dup1\n      tag_275\n      jumpi\n      pop\n        /* \"Work/CLS-Polygon.sol\":1440:1445  owner */\n      0x00\n      dup1\n      sload\n      swap1\n      0x0100\n      exp\n      swap1\n      div\n      0xffffffffffffffffffffffffffffffffffffffff\n      and\n        /* \"Work/CLS-Polygon.sol\":1426:1445  msg.sender == owner */\n      0xffffffffffffffffffffffffffffffffffffffff\n      and\n        /* \"Work/CLS-Polygon.sol\":1426:1436  msg.sender */\n      caller\n        /* \"Work/CLS-Polygon.sol\":1426:1445  msg.sender == owner */\n      0xffffffffffffffffffffffffffffffffffffffff\n      and\n      eq\n        /* \"Work/CLS-Polygon.sol\":1405:1445  admin[msg.sender] || msg.sender == owner */\n    tag_275:\n        /* \"Work/CLS-Polygon.sol\":1397:1489  require(admin[msg.sender] || msg.sender == owner ,\"caller does not have the perms required\") */\n      tag_276\n      jumpi\n      mload(0x40)\n      0x08c379a000000000000000000000000000000000000000000000000000000000\n      dup2\n      mstore\n      0x04\n      add\n      tag_277\n      swap1\n      tag_173\n      jump\t// in\n    tag_277:\n      mload(0x40)\n      dup1\n      swap2\n      sub\n      swap1\n      revert\n    tag_276:\n        /* \"Work/CLS-Polygon.sol\":8450:8474  vault_info memory _vault */\n      0x00\n        /* \"Work/CLS-Polygon.sol\":8477:8482  vault */\n      0x04\n        /* \"Work/CLS-Polygon.sol\":8477:8491  vault[videoID] */\n      0x00\n        /* \"Work/CLS-Polygon.sol\":8483:8490  videoID */\n      dup5\n        /* \"Work/CLS-Polygon.sol\":8477:8491  vault[videoID] */\n      dup2\n      mstore\n      0x20\n      add\n      swap1\n      dup2\n      mstore\n      0x20\n      add\n      0x00\n      keccak256\n        /* \"Work/CLS-Polygon.sol\":8450:8491  vault_info memory _vault = vault[videoID] */\n      mload(0x40)\n      dup1\n      0x80\n      add\n      0x40\n      mstore\n      swap1\n      dup2\n      0x00\n      dup3\n      add\n      0x00\n      swap1\n      sload\n      swap1\n      0x0100\n      exp\n      swap1\n      div\n      0xffffffffffffffffffffffffffffffffffffffff\n      and\n      0xffffffffffffffffffffffffffffffffffffffff\n      and\n      0xffffffffffffffffffffffffffffffffffffffff\n      and\n      dup2\n      mstore\n      0x20\n      add\n      0x01\n      dup3\n      add\n      sload\n      dup2\n      mstore\n      0x20\n      add\n      0x02\n      dup3\n      add\n      sload\n      dup2\n      mstore\n      0x20\n      add\n      0x03\n      dup3\n      add\n      sload\n      dup2\n      mstore\n      pop\n      pop\n      swap1\n      pop\n        /* \"Work/CLS-Polygon.sol\":8546:8547  0 */\n      0x00\n        /* \"Work/CLS-Polygon.sol\":8514:8548  _vault.returnAddress != address(0) */\n      0xffffffffffffffffffffffffffffffffffffffff\n      and\n        /* \"Work/CLS-Polygon.sol\":8514:8520  _vault */\n      dup2\n        /* \"Work/CLS-Polygon.sol\":8514:8534  _vault.returnAddress */\n      0x00\n      add\n      mload\n        /* \"Work/CLS-Polygon.sol\":8514:8548  _vault.returnAddress != address(0) */\n      0xffffffffffffffffffffffffffffffffffffffff\n      and\n      sub\n        /* \"Work/CLS-Polygon.sol\":8506:8572  require(_vault.returnAddress != address(0),\"vault does not exist\") */\n      tag_279\n      jumpi\n      mload(0x40)\n      0x08c379a000000000000000000000000000000000000000000000000000000000\n      dup2\n      mstore\n      0x04\n      add\n      tag_280\n      swap1\n      tag_281\n      jump\t// in\n    tag_280:\n      mload(0x40)\n      dup1\n      swap2\n      sub\n      swap1\n      revert\n    tag_279:\n        /* \"Work/CLS-Polygon.sol\":8613:8620  _amount */\n      dup2\n        /* \"Work/CLS-Polygon.sol\":8595:8601  _vault */\n      dup2\n        /* \"Work/CLS-Polygon.sol\":8595:8609  _vault.balance */\n      0x60\n      add\n      mload\n        /* \"Work/CLS-Polygon.sol\":8595:8620  _vault.balance >= _amount */\n      lt\n      iszero\n        /* \"Work/CLS-Polygon.sol\":8587:8668  require(_vault.balance >= _amount,\"vault does not have enough funds to withdraw\") */\n      tag_282\n      jumpi\n      mload(0x40)\n      0x08c379a000000000000000000000000000000000000000000000000000000000\n      dup2\n      mstore\n      0x04\n      add\n      tag_283\n      swap1\n      tag_284\n      jump\t// in\n    tag_283:\n      mload(0x40)\n      dup1\n      swap2\n      sub\n      swap1\n      revert\n    tag_282:\n        /* \"Work/CLS-Polygon.sol\":8683:8712  Subscription memory _sub_info */\n      0x00\n        /* \"Work/CLS-Polygon.sol\":8715:8723  sub_info */\n      0x03\n        /* \"Work/CLS-Polygon.sol\":8715:8745  sub_info[_vault.returnAddress] */\n      0x00\n        /* \"Work/CLS-Polygon.sol\":8724:8730  _vault */\n      dup4\n        /* \"Work/CLS-Polygon.sol\":8724:8744  _vault.returnAddress */\n      0x00\n      add\n      mload\n        /* \"Work/CLS-Polygon.sol\":8715:8745  sub_info[_vault.returnAddress] */\n      0xffffffffffffffffffffffffffffffffffffffff\n      and\n      0xffffffffffffffffffffffffffffffffffffffff\n      and\n      dup2\n      mstore\n      0x20\n      add\n      swap1\n      dup2\n      mstore\n      0x20\n      add\n      0x00\n      keccak256\n        /* \"Work/CLS-Polygon.sol\":8683:8745  Subscription memory _sub_info = sub_info[_vault.returnAddress] */\n      mload(0x40)\n      dup1\n      0x60\n      add\n      0x40\n      mstore\n      swap1\n      dup2\n      0x00\n      dup3\n      add\n      sload\n      dup2\n      mstore\n      0x20\n      add\n      0x01\n      dup3\n      add\n      sload\n      dup2\n      mstore\n      0x20\n      add\n      0x02\n      dup3\n      add\n      dup1\n      sload\n      dup1\n      0x20\n      mul\n      0x20\n      add\n      mload(0x40)\n      swap1\n      dup2\n      add\n      0x40\n      mstore\n      dup1\n      swap3\n      swap2\n      swap1\n      dup2\n      dup2\n      mstore\n      0x20\n      add\n      dup3\n      dup1\n      sload\n      dup1\n      iszero\n      tag_285\n      jumpi\n      0x20\n      mul\n      dup3\n      add\n      swap2\n      swap1\n      0x00\n      mstore\n      keccak256(0x00, 0x20)\n      swap1\n    tag_286:\n      dup2\n      sload\n      dup2\n      mstore\n      0x20\n      add\n      swap1\n      0x01\n      add\n      swap1\n      dup1\n      dup4\n      gt\n      tag_286\n      jumpi\n    tag_285:\n      pop\n      pop\n      pop\n      pop\n      pop\n      dup2\n      mstore\n      pop\n      pop\n      swap1\n      pop\n        /* \"Work/CLS-Polygon.sol\":8801:8807  _vault */\n      dup2\n        /* \"Work/CLS-Polygon.sol\":8801:8815  _vault.balance */\n      0x60\n      add\n      mload\n        /* \"Work/CLS-Polygon.sol\":8774:8783  _sub_info */\n      dup2\n        /* \"Work/CLS-Polygon.sol\":8774:8797  _sub_info.lockedBalance */\n      0x20\n      add\n        /* \"Work/CLS-Polygon.sol\":8774:8815  _sub_info.lockedBalance -= _vault.balance */\n      dup2\n      dup2\n      mload\n      tag_287\n      swap2\n      swap1\n      tag_153\n      jump\t// in\n    tag_287:\n      swap2\n      pop\n      dup2\n      dup2\n      mstore\n      pop\n      pop\n        /* \"Work/CLS-Polygon.sol\":8868:8875  _amount */\n      dup3\n        /* \"Work/CLS-Polygon.sol\":8851:8857  _vault */\n      dup3\n        /* \"Work/CLS-Polygon.sol\":8851:8865  _vault.balance */\n      0x60\n      add\n      mload\n        /* \"Work/CLS-Polygon.sol\":8851:8875  _vault.balance - _amount */\n      tag_288\n      swap2\n      swap1\n      tag_153\n      jump\t// in\n    tag_288:\n        /* \"Work/CLS-Polygon.sol\":8830:8839  _sub_info */\n      dup2\n        /* \"Work/CLS-Polygon.sol\":8830:8847  _sub_info.balance */\n      0x00\n      add\n        /* \"Work/CLS-Polygon.sol\":8830:8875  _sub_info.balance += _vault.balance - _amount */\n      dup2\n      dup2\n      mload\n      tag_289\n      swap2\n      swap1\n      tag_214\n      jump\t// in\n    tag_289:\n      swap2\n      pop\n      dup2\n      dup2\n      mstore\n      pop\n      pop\n        /* \"Work/CLS-Polygon.sol\":8907:8908  0 */\n      0x00\n        /* \"Work/CLS-Polygon.sol\":8890:8896  _vault */\n      dup3\n        /* \"Work/CLS-Polygon.sol\":8890:8904  _vault.balance */\n      0x60\n      add\n        /* \"Work/CLS-Polygon.sol\":8890:8908  _vault.balance = 0 */\n      dup2\n      dup2\n      mstore\n      pop\n      pop\n        /* \"Work/CLS-Polygon.sol\":8999:9005  _vault */\n      dup2\n        /* \"Work/CLS-Polygon.sol\":8982:8987  vault */\n      0x04\n        /* \"Work/CLS-Polygon.sol\":8982:8996  vault[videoID] */\n      0x00\n        /* \"Work/CLS-Polygon.sol\":8988:8995  videoID */\n      dup7\n        /* \"Work/CLS-Polygon.sol\":8982:8996  vault[videoID] */\n      dup2\n      mstore\n      0x20\n      add\n      swap1\n      dup2\n      mstore\n      0x20\n      add\n      0x00\n      keccak256\n        /* \"Work/CLS-Polygon.sol\":8982:9005  vault[videoID] = _vault */\n      0x00\n      dup3\n      add\n      mload\n      dup2\n      0x00\n      add\n      exp(0x0100, 0x00)\n      dup2\n      sload\n      dup2\n      0xffffffffffffffffffffffffffffffffffffffff\n      mul\n      not\n      and\n      swap1\n      dup4\n      0xffffffffffffffffffffffffffffffffffffffff\n      and\n      mul\n      or\n      swap1\n      sstore\n      pop\n      0x20\n      dup3\n      add\n      mload\n      dup2\n      0x01\n      add\n      sstore\n      0x40\n      dup3\n      add\n      mload\n      dup2\n      0x02\n      add\n      sstore\n      0x60\n      dup3\n      add\n      mload\n      dup2\n      0x03\n      add\n      sstore\n      swap1\n      pop\n      pop\n        /* \"Work/CLS-Polygon.sol\":9053:9062  _sub_info */\n      dup1\n        /* \"Work/CLS-Polygon.sol\":9020:9028  sub_info */\n      0x03\n        /* \"Work/CLS-Polygon.sol\":9020:9050  sub_info[_vault.returnAddress] */\n      0x00\n        /* \"Work/CLS-Polygon.sol\":9029:9035  _vault */\n      dup5\n        /* \"Work/CLS-Polygon.sol\":9029:9049  _vault.returnAddress */\n      0x00\n      add\n      mload\n        /* \"Work/CLS-Polygon.sol\":9020:9050  sub_info[_vault.returnAddress] */\n      0xffffffffffffffffffffffffffffffffffffffff\n      and\n      0xffffffffffffffffffffffffffffffffffffffff\n      and\n      dup2\n      mstore\n      0x20\n      add\n      swap1\n      dup2\n      mstore\n      0x20\n      add\n      0x00\n      keccak256\n        /* \"Work/CLS-Polygon.sol\":9020:9062  sub_info[_vault.returnAddress] = _sub_info */\n      0x00\n      dup3\n      add\n      mload\n      dup2\n      0x00\n      add\n      sstore\n      0x20\n      dup3\n      add\n      mload\n      dup2\n      0x01\n      add\n      sstore\n      0x40\n      dup3\n      add\n      mload\n      dup2\n      0x02\n      add\n      swap1\n      dup1\n      mload\n      swap1\n      0x20\n      add\n      swap1\n      tag_290\n      swap3\n      swap2\n      swap1\n      tag_136\n      jump\t// in\n    tag_290:\n      pop\n      swap1\n      pop\n      pop\n        /* \"Work/CLS-Polygon.sol\":9089:9096  _amount */\n      dup3\n        /* \"Work/CLS-Polygon.sol\":9077:9085  treasury */\n      0x05\n      0x00\n        /* \"Work/CLS-Polygon.sol\":9077:9096  treasury += _amount */\n      dup3\n      dup3\n      sload\n      tag_291\n      swap2\n      swap1\n      tag_214\n      jump\t// in\n    tag_291:\n      swap3\n      pop\n      pop\n      dup2\n      swap1\n      sstore\n      pop\n        /* \"Work/CLS-Polygon.sol\":9118:9172  balance_update(_vault.returnAddress,_sub_info.balance) */\n      0xca3824b7e6e1648f24d80bb94c0549cd029b4e985db70a77cc71332e52cd1611\n        /* \"Work/CLS-Polygon.sol\":9133:9139  _vault */\n      dup3\n        /* \"Work/CLS-Polygon.sol\":9133:9153  _vault.returnAddress */\n      0x00\n      add\n      mload\n        /* \"Work/CLS-Polygon.sol\":9154:9163  _sub_info */\n      dup3\n        /* \"Work/CLS-Polygon.sol\":9154:9171  _sub_info.balance */\n      0x00\n      add\n      mload\n        /* \"Work/CLS-Polygon.sol\":9118:9172  balance_update(_vault.returnAddress,_sub_info.balance) */\n      mload(0x40)\n      tag_292\n      swap3\n      swap2\n      swap1\n      tag_138\n      jump\t// in\n    tag_292:\n      mload(0x40)\n      dup1\n      swap2\n      sub\n      swap1\n      log1\n        /* \"Work/CLS-Polygon.sol\":8382:9184  {... */\n      pop\n      pop\n        /* \"Work/CLS-Polygon.sol\":8309:9184  function vaultWithdraw(uint256 videoID, uint256 _amount) public onlyAdmin{... */\n      pop\n      pop\n      jump\t// out\n        /* \"Work/CLS-Polygon.sol\":10106:10268  function lockend(uint256 vaultID) view internal returns (uint256 _lockend){... */\n    tag_140:\n        /* \"Work/CLS-Polygon.sol\":10163:10179  uint256 _lockend */\n      0x00\n        /* \"Work/CLS-Polygon.sol\":10229:10234  vault */\n      0x04\n        /* \"Work/CLS-Polygon.sol\":10229:10243  vault[vaultID] */\n      0x00\n        /* \"Work/CLS-Polygon.sol\":10235:10242  vaultID */\n      dup4\n        /* \"Work/CLS-Polygon.sol\":10229:10243  vault[vaultID] */\n      dup2\n      mstore\n      0x20\n      add\n      swap1\n      dup2\n      mstore\n      0x20\n      add\n      0x00\n      keccak256\n        /* \"Work/CLS-Polygon.sol\":10229:10256  vault[vaultID].lockduration */\n      0x02\n      add\n      sload\n        /* \"Work/CLS-Polygon.sol\":10202:10207  vault */\n      0x04\n        /* \"Work/CLS-Polygon.sol\":10202:10216  vault[vaultID] */\n      0x00\n        /* \"Work/CLS-Polygon.sol\":10208:10215  vaultID */\n      dup5\n        /* \"Work/CLS-Polygon.sol\":10202:10216  vault[vaultID] */\n      dup2\n      mstore\n      0x20\n      add\n      swap1\n      dup2\n      mstore\n      0x20\n      add\n      0x00\n      keccak256\n        /* \"Work/CLS-Polygon.sol\":10202:10226  vault[vaultID].lockstart */\n      0x01\n      add\n      sload\n        /* \"Work/CLS-Polygon.sol\":10202:10256  vault[vaultID].lockstart + vault[vaultID].lockduration */\n      tag_294\n      swap2\n      swap1\n      tag_214\n      jump\t// in\n    tag_294:\n        /* \"Work/CLS-Polygon.sol\":10195:10256  return vault[vaultID].lockstart + vault[vaultID].lockduration */\n      swap1\n      pop\n        /* \"Work/CLS-Polygon.sol\":10106:10268  function lockend(uint256 vaultID) view internal returns (uint256 _lockend){... */\n      swap2\n      swap1\n      pop\n      jump\t// out\n    tag_136:\n      dup3\n      dup1\n      sload\n      dup3\n      dup3\n      sstore\n      swap1\n      0x00\n      mstore\n      keccak256(0x00, 0x20)\n      swap1\n      dup2\n      add\n      swap3\n      dup3\n      iszero\n      tag_295\n      jumpi\n      swap2\n      0x20\n      mul\n      dup3\n      add\n    tag_296:\n      dup3\n      dup2\n      gt\n      iszero\n      tag_297\n      jumpi\n      dup3\n      mload\n      dup3\n      sstore\n      swap2\n      0x20\n      add\n      swap2\n      swap1\n      0x01\n      add\n      swap1\n      jump(tag_296)\n    tag_297:\n    tag_295:\n      pop\n      swap1\n      pop\n      tag_298\n      swap2\n      swap1\n      tag_299\n      jump\t// in\n    tag_298:\n      pop\n      swap1\n      jump\t// out\n    tag_238:\n      mload(0x40)\n      dup1\n      0x80\n      add\n      0x40\n      mstore\n      dup1\n      and(0xffffffffffffffffffffffffffffffffffffffff, 0x00)\n      dup2\n      mstore\n      0x20\n      add\n      0x00\n      dup2\n      mstore\n      0x20\n      add\n      0x00\n      dup2\n      mstore\n      0x20\n      add\n      0x00\n      dup2\n      mstore\n      pop\n      swap1\n      jump\t// out\n    tag_299:\n    tag_300:\n      dup1\n      dup3\n      gt\n      iszero\n      tag_301\n      jumpi\n      0x00\n      dup2\n      0x00\n      swap1\n      sstore\n      pop\n      0x01\n      add\n      jump(tag_300)\n    tag_301:\n      pop\n      swap1\n      jump\t// out\n        /* \"#utility.yul\":88:205   */\n    tag_303:\n        /* \"#utility.yul\":197:198   */\n      0x00\n        /* \"#utility.yul\":194:195   */\n      dup1\n        /* \"#utility.yul\":187:199   */\n      revert\n        /* \"#utility.yul\":211:328   */\n    tag_304:\n        /* \"#utility.yul\":320:321   */\n      0x00\n        /* \"#utility.yul\":317:318   */\n      dup1\n        /* \"#utility.yul\":310:322   */\n      revert\n        /* \"#utility.yul\":334:411   */\n    tag_305:\n        /* \"#utility.yul\":371:378   */\n      0x00\n        /* \"#utility.yul\":400:405   */\n      dup2\n        /* \"#utility.yul\":389:405   */\n      swap1\n      pop\n        /* \"#utility.yul\":334:411   */\n      swap2\n      swap1\n      pop\n      jump\t// out\n        /* \"#utility.yul\":417:539   */\n    tag_306:\n        /* \"#utility.yul\":490:514   */\n      tag_376\n        /* \"#utility.yul\":508:513   */\n      dup2\n        /* \"#utility.yul\":490:514   */\n      tag_305\n      jump\t// in\n    tag_376:\n        /* \"#utility.yul\":483:488   */\n      dup2\n        /* \"#utility.yul\":480:515   */\n      eq\n        /* \"#utility.yul\":470:533   */\n      tag_377\n      jumpi\n        /* \"#utility.yul\":529:530   */\n      0x00\n        /* \"#utility.yul\":526:527   */\n      dup1\n        /* \"#utility.yul\":519:531   */\n      revert\n        /* \"#utility.yul\":470:533   */\n    tag_377:\n        /* \"#utility.yul\":417:539   */\n      pop\n      jump\t// out\n        /* \"#utility.yul\":545:684   */\n    tag_307:\n        /* \"#utility.yul\":591:596   */\n      0x00\n        /* \"#utility.yul\":629:635   */\n      dup2\n        /* \"#utility.yul\":616:636   */\n      calldataload\n        /* \"#utility.yul\":607:636   */\n      swap1\n      pop\n        /* \"#utility.yul\":645:678   */\n      tag_379\n        /* \"#utility.yul\":672:677   */\n      dup2\n        /* \"#utility.yul\":645:678   */\n      tag_306\n      jump\t// in\n    tag_379:\n        /* \"#utility.yul\":545:684   */\n      swap3\n      swap2\n      pop\n      pop\n      jump\t// out\n        /* \"#utility.yul\":690:766   */\n    tag_308:\n        /* \"#utility.yul\":726:733   */\n      0x00\n        /* \"#utility.yul\":755:760   */\n      dup2\n        /* \"#utility.yul\":744:760   */\n      swap1\n      pop\n        /* \"#utility.yul\":690:766   */\n      swap2\n      swap1\n      pop\n      jump\t// out\n        /* \"#utility.yul\":772:892   */\n    tag_309:\n        /* \"#utility.yul\":844:867   */\n      tag_382\n        /* \"#utility.yul\":861:866   */\n      dup2\n        /* \"#utility.yul\":844:867   */\n      tag_308\n      jump\t// in\n    tag_382:\n        /* \"#utility.yul\":837:842   */\n      dup2\n        /* \"#utility.yul\":834:868   */\n      eq\n        /* \"#utility.yul\":824:886   */\n      tag_383\n      jumpi\n        /* \"#utility.yul\":882:883   */\n      0x00\n        /* \"#utility.yul\":879:880   */\n      dup1\n        /* \"#utility.yul\":872:884   */\n      revert\n        /* \"#utility.yul\":824:886   */\n    tag_383:\n        /* \"#utility.yul\":772:892   */\n      pop\n      jump\t// out\n        /* \"#utility.yul\":898:1035   */\n    tag_310:\n        /* \"#utility.yul\":943:948   */\n      0x00\n        /* \"#utility.yul\":981:987   */\n      dup2\n        /* \"#utility.yul\":968:988   */\n      calldataload\n        /* \"#utility.yul\":959:988   */\n      swap1\n      pop\n        /* \"#utility.yul\":997:1029   */\n      tag_385\n        /* \"#utility.yul\":1023:1028   */\n      dup2\n        /* \"#utility.yul\":997:1029   */\n      tag_309\n      jump\t// in\n    tag_385:\n        /* \"#utility.yul\":898:1035   */\n      swap3\n      swap2\n      pop\n      pop\n      jump\t// out\n        /* \"#utility.yul\":1041:1800   */\n    tag_26:\n        /* \"#utility.yul\":1124:1130   */\n      0x00\n        /* \"#utility.yul\":1132:1138   */\n      dup1\n        /* \"#utility.yul\":1140:1146   */\n      0x00\n        /* \"#utility.yul\":1148:1154   */\n      dup1\n        /* \"#utility.yul\":1197:1200   */\n      0x80\n        /* \"#utility.yul\":1185:1194   */\n      dup6\n        /* \"#utility.yul\":1176:1183   */\n      dup8\n        /* \"#utility.yul\":1172:1195   */\n      sub\n        /* \"#utility.yul\":1168:1201   */\n      slt\n        /* \"#utility.yul\":1165:1285   */\n      iszero\n      tag_387\n      jumpi\n        /* \"#utility.yul\":1204:1283   */\n      tag_388\n      tag_303\n      jump\t// in\n    tag_388:\n        /* \"#utility.yul\":1165:1285   */\n    tag_387:\n        /* \"#utility.yul\":1324:1325   */\n      0x00\n        /* \"#utility.yul\":1349:1402   */\n      tag_389\n        /* \"#utility.yul\":1394:1401   */\n      dup8\n        /* \"#utility.yul\":1385:1391   */\n      dup3\n        /* \"#utility.yul\":1374:1383   */\n      dup9\n        /* \"#utility.yul\":1370:1392   */\n      add\n        /* \"#utility.yul\":1349:1402   */\n      tag_307\n      jump\t// in\n    tag_389:\n        /* \"#utility.yul\":1339:1402   */\n      swap5\n      pop\n        /* \"#utility.yul\":1295:1412   */\n      pop\n        /* \"#utility.yul\":1451:1453   */\n      0x20\n        /* \"#utility.yul\":1477:1529   */\n      tag_390\n        /* \"#utility.yul\":1521:1528   */\n      dup8\n        /* \"#utility.yul\":1512:1518   */\n      dup3\n        /* \"#utility.yul\":1501:1510   */\n      dup9\n        /* \"#utility.yul\":1497:1519   */\n      add\n        /* \"#utility.yul\":1477:1529   */\n      tag_310\n      jump\t// in\n    tag_390:\n        /* \"#utility.yul\":1467:1529   */\n      swap4\n      pop\n        /* \"#utility.yul\":1422:1539   */\n      pop\n        /* \"#utility.yul\":1578:1580   */\n      0x40\n        /* \"#utility.yul\":1604:1656   */\n      tag_391\n        /* \"#utility.yul\":1648:1655   */\n      dup8\n        /* \"#utility.yul\":1639:1645   */\n      dup3\n        /* \"#utility.yul\":1628:1637   */\n      dup9\n        /* \"#utility.yul\":1624:1646   */\n      add\n        /* \"#utility.yul\":1604:1656   */\n      tag_310\n      jump\t// in\n    tag_391:\n        /* \"#utility.yul\":1594:1656   */\n      swap3\n      pop\n        /* \"#utility.yul\":1549:1666   */\n      pop\n        /* \"#utility.yul\":1705:1707   */\n      0x60\n        /* \"#utility.yul\":1731:1783   */\n      tag_392\n        /* \"#utility.yul\":1775:1782   */\n      dup8\n        /* \"#utility.yul\":1766:1772   */\n      dup3\n        /* \"#utility.yul\":1755:1764   */\n      dup9\n        /* \"#utility.yul\":1751:1773   */\n      add\n        /* \"#utility.yul\":1731:1783   */\n      tag_310\n      jump\t// in\n    tag_392:\n        /* \"#utility.yul\":1721:1783   */\n      swap2\n      pop\n        /* \"#utility.yul\":1676:1793   */\n      pop\n        /* \"#utility.yul\":1041:1800   */\n      swap3\n      swap6\n      swap2\n      swap5\n      pop\n      swap3\n      pop\n      jump\t// out\n        /* \"#utility.yul\":1806:1932   */\n    tag_311:\n        /* \"#utility.yul\":1843:1850   */\n      0x00\n        /* \"#utility.yul\":1883:1925   */\n      0xffffffffffffffffffffffffffffffffffffffff\n        /* \"#utility.yul\":1876:1881   */\n      dup3\n        /* \"#utility.yul\":1872:1926   */\n      and\n        /* \"#utility.yul\":1861:1926   */\n      swap1\n      pop\n        /* \"#utility.yul\":1806:1932   */\n      swap2\n      swap1\n      pop\n      jump\t// out\n        /* \"#utility.yul\":1938:2034   */\n    tag_312:\n        /* \"#utility.yul\":1975:1982   */\n      0x00\n        /* \"#utility.yul\":2004:2028   */\n      tag_395\n        /* \"#utility.yul\":2022:2027   */\n      dup3\n        /* \"#utility.yul\":2004:2028   */\n      tag_311\n      jump\t// in\n    tag_395:\n        /* \"#utility.yul\":1993:2028   */\n      swap1\n      pop\n        /* \"#utility.yul\":1938:2034   */\n      swap2\n      swap1\n      pop\n      jump\t// out\n        /* \"#utility.yul\":2040:2162   */\n    tag_313:\n        /* \"#utility.yul\":2113:2137   */\n      tag_397\n        /* \"#utility.yul\":2131:2136   */\n      dup2\n        /* \"#utility.yul\":2113:2137   */\n      tag_312\n      jump\t// in\n    tag_397:\n        /* \"#utility.yul\":2106:2111   */\n      dup2\n        /* \"#utility.yul\":2103:2138   */\n      eq\n        /* \"#utility.yul\":2093:2156   */\n      tag_398\n      jumpi\n        /* \"#utility.yul\":2152:2153   */\n      0x00\n        /* \"#utility.yul\":2149:2150   */\n      dup1\n        /* \"#utility.yul\":2142:2154   */\n      revert\n        /* \"#utility.yul\":2093:2156   */\n    tag_398:\n        /* \"#utility.yul\":2040:2162   */\n      pop\n      jump\t// out\n        /* \"#utility.yul\":2168:2307   */\n    tag_314:\n        /* \"#utility.yul\":2214:2219   */\n      0x00\n        /* \"#utility.yul\":2252:2258   */\n      dup2\n        /* \"#utility.yul\":2239:2259   */\n      calldataload\n        /* \"#utility.yul\":2230:2259   */\n      swap1\n      pop\n        /* \"#utility.yul\":2268:2301   */\n      tag_400\n        /* \"#utility.yul\":2295:2300   */\n      dup2\n        /* \"#utility.yul\":2268:2301   */\n      tag_313\n      jump\t// in\n    tag_400:\n        /* \"#utility.yul\":2168:2307   */\n      swap3\n      swap2\n      pop\n      pop\n      jump\t// out\n        /* \"#utility.yul\":2313:2642   */\n    tag_30:\n        /* \"#utility.yul\":2372:2378   */\n      0x00\n        /* \"#utility.yul\":2421:2423   */\n      0x20\n        /* \"#utility.yul\":2409:2418   */\n      dup3\n        /* \"#utility.yul\":2400:2407   */\n      dup5\n        /* \"#utility.yul\":2396:2419   */\n      sub\n        /* \"#utility.yul\":2392:2424   */\n      slt\n        /* \"#utility.yul\":2389:2508   */\n      iszero\n      tag_402\n      jumpi\n        /* \"#utility.yul\":2427:2506   */\n      tag_403\n      tag_303\n      jump\t// in\n    tag_403:\n        /* \"#utility.yul\":2389:2508   */\n    tag_402:\n        /* \"#utility.yul\":2547:2548   */\n      0x00\n        /* \"#utility.yul\":2572:2625   */\n      tag_404\n        /* \"#utility.yul\":2617:2624   */\n      dup5\n        /* \"#utility.yul\":2608:2614   */\n      dup3\n        /* \"#utility.yul\":2597:2606   */\n      dup6\n        /* \"#utility.yul\":2593:2615   */\n      add\n        /* \"#utility.yul\":2572:2625   */\n      tag_314\n      jump\t// in\n    tag_404:\n        /* \"#utility.yul\":2562:2625   */\n      swap2\n      pop\n        /* \"#utility.yul\":2518:2635   */\n      pop\n        /* \"#utility.yul\":2313:2642   */\n      swap3\n      swap2\n      pop\n      pop\n      jump\t// out\n        /* \"#utility.yul\":2648:2766   */\n    tag_315:\n        /* \"#utility.yul\":2735:2759   */\n      tag_406\n        /* \"#utility.yul\":2753:2758   */\n      dup2\n        /* \"#utility.yul\":2735:2759   */\n      tag_305\n      jump\t// in\n    tag_406:\n        /* \"#utility.yul\":2730:2733   */\n      dup3\n        /* \"#utility.yul\":2723:2760   */\n      mstore\n        /* \"#utility.yul\":2648:2766   */\n      pop\n      pop\n      jump\t// out\n        /* \"#utility.yul\":2772:2886   */\n    tag_316:\n        /* \"#utility.yul\":2839:2845   */\n      0x00\n        /* \"#utility.yul\":2873:2878   */\n      dup2\n        /* \"#utility.yul\":2867:2879   */\n      mload\n        /* \"#utility.yul\":2857:2879   */\n      swap1\n      pop\n        /* \"#utility.yul\":2772:2886   */\n      swap2\n      swap1\n      pop\n      jump\t// out\n        /* \"#utility.yul\":2892:3076   */\n    tag_317:\n        /* \"#utility.yul\":2991:3002   */\n      0x00\n        /* \"#utility.yul\":3025:3031   */\n      dup3\n        /* \"#utility.yul\":3020:3023   */\n      dup3\n        /* \"#utility.yul\":3013:3032   */\n      mstore\n        /* \"#utility.yul\":3065:3069   */\n      0x20\n        /* \"#utility.yul\":3060:3063   */\n      dup3\n        /* \"#utility.yul\":3056:3070   */\n      add\n        /* \"#utility.yul\":3041:3070   */\n      swap1\n      pop\n        /* \"#utility.yul\":2892:3076   */\n      swap3\n      swap2\n      pop\n      pop\n      jump\t// out\n        /* \"#utility.yul\":3082:3214   */\n    tag_318:\n        /* \"#utility.yul\":3149:3153   */\n      0x00\n        /* \"#utility.yul\":3172:3175   */\n      dup2\n        /* \"#utility.yul\":3164:3175   */\n      swap1\n      pop\n        /* \"#utility.yul\":3202:3206   */\n      0x20\n        /* \"#utility.yul\":3197:3200   */\n      dup3\n        /* \"#utility.yul\":3193:3207   */\n      add\n        /* \"#utility.yul\":3185:3207   */\n      swap1\n      pop\n        /* \"#utility.yul\":3082:3214   */\n      swap2\n      swap1\n      pop\n      jump\t// out\n        /* \"#utility.yul\":3220:3328   */\n    tag_319:\n        /* \"#utility.yul\":3297:3321   */\n      tag_411\n        /* \"#utility.yul\":3315:3320   */\n      dup2\n        /* \"#utility.yul\":3297:3321   */\n      tag_305\n      jump\t// in\n    tag_411:\n        /* \"#utility.yul\":3292:3295   */\n      dup3\n        /* \"#utility.yul\":3285:3322   */\n      mstore\n        /* \"#utility.yul\":3220:3328   */\n      pop\n      pop\n      jump\t// out\n        /* \"#utility.yul\":3334:3513   */\n    tag_320:\n        /* \"#utility.yul\":3403:3413   */\n      0x00\n        /* \"#utility.yul\":3424:3470   */\n      tag_413\n        /* \"#utility.yul\":3466:3469   */\n      dup4\n        /* \"#utility.yul\":3458:3464   */\n      dup4\n        /* \"#utility.yul\":3424:3470   */\n      tag_319\n      jump\t// in\n    tag_413:\n        /* \"#utility.yul\":3502:3506   */\n      0x20\n        /* \"#utility.yul\":3497:3500   */\n      dup4\n        /* \"#utility.yul\":3493:3507   */\n      add\n        /* \"#utility.yul\":3479:3507   */\n      swap1\n      pop\n        /* \"#utility.yul\":3334:3513   */\n      swap3\n      swap2\n      pop\n      pop\n      jump\t// out\n        /* \"#utility.yul\":3519:3632   */\n    tag_321:\n        /* \"#utility.yul\":3589:3593   */\n      0x00\n        /* \"#utility.yul\":3621:3625   */\n      0x20\n        /* \"#utility.yul\":3616:3619   */\n      dup3\n        /* \"#utility.yul\":3612:3626   */\n      add\n        /* \"#utility.yul\":3604:3626   */\n      swap1\n      pop\n        /* \"#utility.yul\":3519:3632   */\n      swap2\n      swap1\n      pop\n      jump\t// out\n        /* \"#utility.yul\":3668:4400   */\n    tag_322:\n        /* \"#utility.yul\":3787:3790   */\n      0x00\n        /* \"#utility.yul\":3816:3870   */\n      tag_416\n        /* \"#utility.yul\":3864:3869   */\n      dup3\n        /* \"#utility.yul\":3816:3870   */\n      tag_316\n      jump\t// in\n    tag_416:\n        /* \"#utility.yul\":3886:3972   */\n      tag_417\n        /* \"#utility.yul\":3965:3971   */\n      dup2\n        /* \"#utility.yul\":3960:3963   */\n      dup6\n        /* \"#utility.yul\":3886:3972   */\n      tag_317\n      jump\t// in\n    tag_417:\n        /* \"#utility.yul\":3879:3972   */\n      swap4\n      pop\n        /* \"#utility.yul\":3996:4052   */\n      tag_418\n        /* \"#utility.yul\":4046:4051   */\n      dup4\n        /* \"#utility.yul\":3996:4052   */\n      tag_318\n      jump\t// in\n    tag_418:\n        /* \"#utility.yul\":4075:4082   */\n      dup1\n        /* \"#utility.yul\":4106:4107   */\n      0x00\n        /* \"#utility.yul\":4091:4375   */\n    tag_419:\n        /* \"#utility.yul\":4116:4122   */\n      dup4\n        /* \"#utility.yul\":4113:4114   */\n      dup2\n        /* \"#utility.yul\":4110:4123   */\n      lt\n        /* \"#utility.yul\":4091:4375   */\n      iszero\n      tag_421\n      jumpi\n        /* \"#utility.yul\":4192:4198   */\n      dup2\n        /* \"#utility.yul\":4186:4199   */\n      mload\n        /* \"#utility.yul\":4219:4282   */\n      tag_422\n        /* \"#utility.yul\":4278:4281   */\n      dup9\n        /* \"#utility.yul\":4263:4276   */\n      dup3\n        /* \"#utility.yul\":4219:4282   */\n      tag_320\n      jump\t// in\n    tag_422:\n        /* \"#utility.yul\":4212:4282   */\n      swap8\n      pop\n        /* \"#utility.yul\":4305:4365   */\n      tag_423\n        /* \"#utility.yul\":4358:4364   */\n      dup4\n        /* \"#utility.yul\":4305:4365   */\n      tag_321\n      jump\t// in\n    tag_423:\n        /* \"#utility.yul\":4295:4365   */\n      swap3\n      pop\n        /* \"#utility.yul\":4151:4375   */\n      pop\n        /* \"#utility.yul\":4138:4139   */\n      0x01\n        /* \"#utility.yul\":4135:4136   */\n      dup2\n        /* \"#utility.yul\":4131:4140   */\n      add\n        /* \"#utility.yul\":4126:4140   */\n      swap1\n      pop\n        /* \"#utility.yul\":4091:4375   */\n      jump(tag_419)\n    tag_421:\n        /* \"#utility.yul\":4095:4109   */\n      pop\n        /* \"#utility.yul\":4391:4394   */\n      dup6\n        /* \"#utility.yul\":4384:4394   */\n      swap4\n      pop\n        /* \"#utility.yul\":3792:4400   */\n      pop\n      pop\n      pop\n        /* \"#utility.yul\":3668:4400   */\n      swap3\n      swap2\n      pop\n      pop\n      jump\t// out\n        /* \"#utility.yul\":4406:4999   */\n    tag_33:\n        /* \"#utility.yul\":4605:4609   */\n      0x00\n        /* \"#utility.yul\":4643:4645   */\n      0x60\n        /* \"#utility.yul\":4632:4641   */\n      dup3\n        /* \"#utility.yul\":4628:4646   */\n      add\n        /* \"#utility.yul\":4620:4646   */\n      swap1\n      pop\n        /* \"#utility.yul\":4656:4727   */\n      tag_425\n        /* \"#utility.yul\":4724:4725   */\n      0x00\n        /* \"#utility.yul\":4713:4722   */\n      dup4\n        /* \"#utility.yul\":4709:4726   */\n      add\n        /* \"#utility.yul\":4700:4706   */\n      dup7\n        /* \"#utility.yul\":4656:4727   */\n      tag_315\n      jump\t// in\n    tag_425:\n        /* \"#utility.yul\":4737:4809   */\n      tag_426\n        /* \"#utility.yul\":4805:4807   */\n      0x20\n        /* \"#utility.yul\":4794:4803   */\n      dup4\n        /* \"#utility.yul\":4790:4808   */\n      add\n        /* \"#utility.yul\":4781:4787   */\n      dup6\n        /* \"#utility.yul\":4737:4809   */\n      tag_315\n      jump\t// in\n    tag_426:\n        /* \"#utility.yul\":4856:4865   */\n      dup2\n        /* \"#utility.yul\":4850:4854   */\n      dup2\n        /* \"#utility.yul\":4846:4866   */\n      sub\n        /* \"#utility.yul\":4841:4843   */\n      0x40\n        /* \"#utility.yul\":4830:4839   */\n      dup4\n        /* \"#utility.yul\":4826:4844   */\n      add\n        /* \"#utility.yul\":4819:4867   */\n      mstore\n        /* \"#utility.yul\":4884:4992   */\n      tag_427\n        /* \"#utility.yul\":4987:4991   */\n      dup2\n        /* \"#utility.yul\":4978:4984   */\n      dup5\n        /* \"#utility.yul\":4884:4992   */\n      tag_322\n      jump\t// in\n    tag_427:\n        /* \"#utility.yul\":4876:4992   */\n      swap1\n      pop\n        /* \"#utility.yul\":4406:4999   */\n      swap5\n      swap4\n      pop\n      pop\n      pop\n      pop\n      jump\t// out\n        /* \"#utility.yul\":5005:5334   */\n    tag_36:\n        /* \"#utility.yul\":5064:5070   */\n      0x00\n        /* \"#utility.yul\":5113:5115   */\n      0x20\n        /* \"#utility.yul\":5101:5110   */\n      dup3\n        /* \"#utility.yul\":5092:5099   */\n      dup5\n        /* \"#utility.yul\":5088:5111   */\n      sub\n        /* \"#utility.yul\":5084:5116   */\n      slt\n        /* \"#utility.yul\":5081:5200   */\n      iszero\n      tag_429\n      jumpi\n        /* \"#utility.yul\":5119:5198   */\n      tag_430\n      tag_303\n      jump\t// in\n    tag_430:\n        /* \"#utility.yul\":5081:5200   */\n    tag_429:\n        /* \"#utility.yul\":5239:5240   */\n      0x00\n        /* \"#utility.yul\":5264:5317   */\n      tag_431\n        /* \"#utility.yul\":5309:5316   */\n      dup5\n        /* \"#utility.yul\":5300:5306   */\n      dup3\n        /* \"#utility.yul\":5289:5298   */\n      dup6\n        /* \"#utility.yul\":5285:5307   */\n      add\n        /* \"#utility.yul\":5264:5317   */\n      tag_307\n      jump\t// in\n    tag_431:\n        /* \"#utility.yul\":5254:5317   */\n      swap2\n      pop\n        /* \"#utility.yul\":5210:5327   */\n      pop\n        /* \"#utility.yul\":5005:5334   */\n      swap3\n      swap2\n      pop\n      pop\n      jump\t// out\n        /* \"#utility.yul\":5340:5430   */\n    tag_323:\n        /* \"#utility.yul\":5374:5381   */\n      0x00\n        /* \"#utility.yul\":5417:5422   */\n      dup2\n        /* \"#utility.yul\":5410:5423   */\n      iszero\n        /* \"#utility.yul\":5403:5424   */\n      iszero\n        /* \"#utility.yul\":5392:5424   */\n      swap1\n      pop\n        /* \"#utility.yul\":5340:5430   */\n      swap2\n      swap1\n      pop\n      jump\t// out\n        /* \"#utility.yul\":5436:5552   */\n    tag_324:\n        /* \"#utility.yul\":5506:5527   */\n      tag_434\n        /* \"#utility.yul\":5521:5526   */\n      dup2\n        /* \"#utility.yul\":5506:5527   */\n      tag_323\n      jump\t// in\n    tag_434:\n        /* \"#utility.yul\":5499:5504   */\n      dup2\n        /* \"#utility.yul\":5496:5528   */\n      eq\n        /* \"#utility.yul\":5486:5546   */\n      tag_435\n      jumpi\n        /* \"#utility.yul\":5542:5543   */\n      0x00\n        /* \"#utility.yul\":5539:5540   */\n      dup1\n        /* \"#utility.yul\":5532:5544   */\n      revert\n        /* \"#utility.yul\":5486:5546   */\n    tag_435:\n        /* \"#utility.yul\":5436:5552   */\n      pop\n      jump\t// out\n        /* \"#utility.yul\":5558:5691   */\n    tag_325:\n        /* \"#utility.yul\":5601:5606   */\n      0x00\n        /* \"#utility.yul\":5639:5645   */\n      dup2\n        /* \"#utility.yul\":5626:5646   */\n      calldataload\n        /* \"#utility.yul\":5617:5646   */\n      swap1\n      pop\n        /* \"#utility.yul\":5655:5685   */\n      tag_437\n        /* \"#utility.yul\":5679:5684   */\n      dup2\n        /* \"#utility.yul\":5655:5685   */\n      tag_324\n      jump\t// in\n    tag_437:\n        /* \"#utility.yul\":5558:5691   */\n      swap3\n      swap2\n      pop\n      pop\n      jump\t// out\n        /* \"#utility.yul\":5697:6165   */\n    tag_40:\n        /* \"#utility.yul\":5762:5768   */\n      0x00\n        /* \"#utility.yul\":5770:5776   */\n      dup1\n        /* \"#utility.yul\":5819:5821   */\n      0x40\n        /* \"#utility.yul\":5807:5816   */\n      dup4\n        /* \"#utility.yul\":5798:5805   */\n      dup6\n        /* \"#utility.yul\":5794:5817   */\n      sub\n        /* \"#utility.yul\":5790:5822   */\n      slt\n        /* \"#utility.yul\":5787:5906   */\n      iszero\n      tag_439\n      jumpi\n        /* \"#utility.yul\":5825:5904   */\n      tag_440\n      tag_303\n      jump\t// in\n    tag_440:\n        /* \"#utility.yul\":5787:5906   */\n    tag_439:\n        /* \"#utility.yul\":5945:5946   */\n      0x00\n        /* \"#utility.yul\":5970:6023   */\n      tag_441\n        /* \"#utility.yul\":6015:6022   */\n      dup6\n        /* \"#utility.yul\":6006:6012   */\n      dup3\n        /* \"#utility.yul\":5995:6004   */\n      dup7\n        /* \"#utility.yul\":5991:6013   */\n      add\n        /* \"#utility.yul\":5970:6023   */\n      tag_314\n      jump\t// in\n    tag_441:\n        /* \"#utility.yul\":5960:6023   */\n      swap3\n      pop\n        /* \"#utility.yul\":5916:6033   */\n      pop\n        /* \"#utility.yul\":6072:6074   */\n      0x20\n        /* \"#utility.yul\":6098:6148   */\n      tag_442\n        /* \"#utility.yul\":6140:6147   */\n      dup6\n        /* \"#utility.yul\":6131:6137   */\n      dup3\n        /* \"#utility.yul\":6120:6129   */\n      dup7\n        /* \"#utility.yul\":6116:6138   */\n      add\n        /* \"#utility.yul\":6098:6148   */\n      tag_325\n      jump\t// in\n    tag_442:\n        /* \"#utility.yul\":6088:6148   */\n      swap2\n      pop\n        /* \"#utility.yul\":6043:6158   */\n      pop\n        /* \"#utility.yul\":5697:6165   */\n      swap3\n      pop\n      swap3\n      swap1\n      pop\n      jump\t// out\n        /* \"#utility.yul\":6171:6393   */\n    tag_45:\n        /* \"#utility.yul\":6264:6268   */\n      0x00\n        /* \"#utility.yul\":6302:6304   */\n      0x20\n        /* \"#utility.yul\":6291:6300   */\n      dup3\n        /* \"#utility.yul\":6287:6305   */\n      add\n        /* \"#utility.yul\":6279:6305   */\n      swap1\n      pop\n        /* \"#utility.yul\":6315:6386   */\n      tag_444\n        /* \"#utility.yul\":6383:6384   */\n      0x00\n        /* \"#utility.yul\":6372:6381   */\n      dup4\n        /* \"#utility.yul\":6368:6385   */\n      add\n        /* \"#utility.yul\":6359:6365   */\n      dup5\n        /* \"#utility.yul\":6315:6386   */\n      tag_315\n      jump\t// in\n    tag_444:\n        /* \"#utility.yul\":6171:6393   */\n      swap3\n      swap2\n      pop\n      pop\n      jump\t// out\n        /* \"#utility.yul\":6399:6508   */\n    tag_326:\n        /* \"#utility.yul\":6480:6501   */\n      tag_446\n        /* \"#utility.yul\":6495:6500   */\n      dup2\n        /* \"#utility.yul\":6480:6501   */\n      tag_323\n      jump\t// in\n    tag_446:\n        /* \"#utility.yul\":6475:6478   */\n      dup3\n        /* \"#utility.yul\":6468:6502   */\n      mstore\n        /* \"#utility.yul\":6399:6508   */\n      pop\n      pop\n      jump\t// out\n        /* \"#utility.yul\":6514:6724   */\n    tag_50:\n        /* \"#utility.yul\":6601:6605   */\n      0x00\n        /* \"#utility.yul\":6639:6641   */\n      0x20\n        /* \"#utility.yul\":6628:6637   */\n      dup3\n        /* \"#utility.yul\":6624:6642   */\n      add\n        /* \"#utility.yul\":6616:6642   */\n      swap1\n      pop\n        /* \"#utility.yul\":6652:6717   */\n      tag_448\n        /* \"#utility.yul\":6714:6715   */\n      0x00\n        /* \"#utility.yul\":6703:6712   */\n      dup4\n        /* \"#utility.yul\":6699:6716   */\n      add\n        /* \"#utility.yul\":6690:6696   */\n      dup5\n        /* \"#utility.yul\":6652:6717   */\n      tag_326\n      jump\t// in\n    tag_448:\n        /* \"#utility.yul\":6514:6724   */\n      swap3\n      swap2\n      pop\n      pop\n      jump\t// out\n        /* \"#utility.yul\":6730:6848   */\n    tag_327:\n        /* \"#utility.yul\":6817:6841   */\n      tag_450\n        /* \"#utility.yul\":6835:6840   */\n      dup2\n        /* \"#utility.yul\":6817:6841   */\n      tag_312\n      jump\t// in\n    tag_450:\n        /* \"#utility.yul\":6812:6815   */\n      dup3\n        /* \"#utility.yul\":6805:6842   */\n      mstore\n        /* \"#utility.yul\":6730:6848   */\n      pop\n      pop\n      jump\t// out\n        /* \"#utility.yul\":6854:7407   */\n    tag_55:\n        /* \"#utility.yul\":7031:7035   */\n      0x00\n        /* \"#utility.yul\":7069:7072   */\n      0x80\n        /* \"#utility.yul\":7058:7067   */\n      dup3\n        /* \"#utility.yul\":7054:7073   */\n      add\n        /* \"#utility.yul\":7046:7073   */\n      swap1\n      pop\n        /* \"#utility.yul\":7083:7154   */\n      tag_452\n        /* \"#utility.yul\":7151:7152   */\n      0x00\n        /* \"#utility.yul\":7140:7149   */\n      dup4\n        /* \"#utility.yul\":7136:7153   */\n      add\n        /* \"#utility.yul\":7127:7133   */\n      dup8\n        /* \"#utility.yul\":7083:7154   */\n      tag_327\n      jump\t// in\n    tag_452:\n        /* \"#utility.yul\":7164:7236   */\n      tag_453\n        /* \"#utility.yul\":7232:7234   */\n      0x20\n        /* \"#utility.yul\":7221:7230   */\n      dup4\n        /* \"#utility.yul\":7217:7235   */\n      add\n        /* \"#utility.yul\":7208:7214   */\n      dup7\n        /* \"#utility.yul\":7164:7236   */\n      tag_315\n      jump\t// in\n    tag_453:\n        /* \"#utility.yul\":7246:7318   */\n      tag_454\n        /* \"#utility.yul\":7314:7316   */\n      0x40\n        /* \"#utility.yul\":7303:7312   */\n      dup4\n        /* \"#utility.yul\":7299:7317   */\n      add\n        /* \"#utility.yul\":7290:7296   */\n      dup6\n        /* \"#utility.yul\":7246:7318   */\n      tag_315\n      jump\t// in\n    tag_454:\n        /* \"#utility.yul\":7328:7400   */\n      tag_455\n        /* \"#utility.yul\":7396:7398   */\n      0x60\n        /* \"#utility.yul\":7385:7394   */\n      dup4\n        /* \"#utility.yul\":7381:7399   */\n      add\n        /* \"#utility.yul\":7372:7378   */\n      dup5\n        /* \"#utility.yul\":7328:7400   */\n      tag_315\n      jump\t// in\n    tag_455:\n        /* \"#utility.yul\":6854:7407   */\n      swap6\n      swap5\n      pop\n      pop\n      pop\n      pop\n      pop\n      jump\t// out\n        /* \"#utility.yul\":7413:7635   */\n    tag_59:\n        /* \"#utility.yul\":7506:7510   */\n      0x00\n        /* \"#utility.yul\":7544:7546   */\n      0x20\n        /* \"#utility.yul\":7533:7542   */\n      dup3\n        /* \"#utility.yul\":7529:7547   */\n      add\n        /* \"#utility.yul\":7521:7547   */\n      swap1\n      pop\n        /* \"#utility.yul\":7557:7628   */\n      tag_457\n        /* \"#utility.yul\":7625:7626   */\n      0x00\n        /* \"#utility.yul\":7614:7623   */\n      dup4\n        /* \"#utility.yul\":7610:7627   */\n      add\n        /* \"#utility.yul\":7601:7607   */\n      dup5\n        /* \"#utility.yul\":7557:7628   */\n      tag_327\n      jump\t// in\n    tag_457:\n        /* \"#utility.yul\":7413:7635   */\n      swap3\n      swap2\n      pop\n      pop\n      jump\t// out\n        /* \"#utility.yul\":7641:7758   */\n    tag_328:\n        /* \"#utility.yul\":7750:7751   */\n      0x00\n        /* \"#utility.yul\":7747:7748   */\n      dup1\n        /* \"#utility.yul\":7740:7752   */\n      revert\n        /* \"#utility.yul\":7764:7881   */\n    tag_329:\n        /* \"#utility.yul\":7873:7874   */\n      0x00\n        /* \"#utility.yul\":7870:7871   */\n      dup1\n        /* \"#utility.yul\":7863:7875   */\n      revert\n        /* \"#utility.yul\":7887:8004   */\n    tag_330:\n        /* \"#utility.yul\":7996:7997   */\n      0x00\n        /* \"#utility.yul\":7993:7994   */\n      dup1\n        /* \"#utility.yul\":7986:7998   */\n      revert\n        /* \"#utility.yul\":8027:8595   */\n    tag_331:\n        /* \"#utility.yul\":8100:8108   */\n      0x00\n        /* \"#utility.yul\":8110:8116   */\n      dup1\n        /* \"#utility.yul\":8160:8163   */\n      dup4\n        /* \"#utility.yul\":8153:8157   */\n      0x1f\n        /* \"#utility.yul\":8145:8151   */\n      dup5\n        /* \"#utility.yul\":8141:8158   */\n      add\n        /* \"#utility.yul\":8137:8164   */\n      slt\n        /* \"#utility.yul\":8127:8249   */\n      tag_462\n      jumpi\n        /* \"#utility.yul\":8168:8247   */\n      tag_463\n      tag_328\n      jump\t// in\n    tag_463:\n        /* \"#utility.yul\":8127:8249   */\n    tag_462:\n        /* \"#utility.yul\":8281:8287   */\n      dup3\n        /* \"#utility.yul\":8268:8288   */\n      calldataload\n        /* \"#utility.yul\":8258:8288   */\n      swap1\n      pop\n        /* \"#utility.yul\":8311:8329   */\n      0xffffffffffffffff\n        /* \"#utility.yul\":8303:8309   */\n      dup2\n        /* \"#utility.yul\":8300:8330   */\n      gt\n        /* \"#utility.yul\":8297:8414   */\n      iszero\n      tag_464\n      jumpi\n        /* \"#utility.yul\":8333:8412   */\n      tag_465\n      tag_329\n      jump\t// in\n    tag_465:\n        /* \"#utility.yul\":8297:8414   */\n    tag_464:\n        /* \"#utility.yul\":8447:8451   */\n      0x20\n        /* \"#utility.yul\":8439:8445   */\n      dup4\n        /* \"#utility.yul\":8435:8452   */\n      add\n        /* \"#utility.yul\":8423:8452   */\n      swap2\n      pop\n        /* \"#utility.yul\":8501:8504   */\n      dup4\n        /* \"#utility.yul\":8493:8497   */\n      0x20\n        /* \"#utility.yul\":8485:8491   */\n      dup3\n        /* \"#utility.yul\":8481:8498   */\n      mul\n        /* \"#utility.yul\":8471:8479   */\n      dup4\n        /* \"#utility.yul\":8467:8499   */\n      add\n        /* \"#utility.yul\":8464:8505   */\n      gt\n        /* \"#utility.yul\":8461:8589   */\n      iszero\n      tag_466\n      jumpi\n        /* \"#utility.yul\":8508:8587   */\n      tag_467\n      tag_330\n      jump\t// in\n    tag_467:\n        /* \"#utility.yul\":8461:8589   */\n    tag_466:\n        /* \"#utility.yul\":8027:8595   */\n      swap3\n      pop\n      swap3\n      swap1\n      pop\n      jump\t// out\n        /* \"#utility.yul\":8601:9535   */\n    tag_68:\n        /* \"#utility.yul\":8723:8729   */\n      0x00\n        /* \"#utility.yul\":8731:8737   */\n      dup1\n        /* \"#utility.yul\":8739:8745   */\n      0x00\n        /* \"#utility.yul\":8747:8753   */\n      dup1\n        /* \"#utility.yul\":8796:8798   */\n      0x40\n        /* \"#utility.yul\":8784:8793   */\n      dup6\n        /* \"#utility.yul\":8775:8782   */\n      dup8\n        /* \"#utility.yul\":8771:8794   */\n      sub\n        /* \"#utility.yul\":8767:8799   */\n      slt\n        /* \"#utility.yul\":8764:8883   */\n      iszero\n      tag_469\n      jumpi\n        /* \"#utility.yul\":8802:8881   */\n      tag_470\n      tag_303\n      jump\t// in\n    tag_470:\n        /* \"#utility.yul\":8764:8883   */\n    tag_469:\n        /* \"#utility.yul\":8950:8951   */\n      0x00\n        /* \"#utility.yul\":8939:8948   */\n      dup6\n        /* \"#utility.yul\":8935:8952   */\n      add\n        /* \"#utility.yul\":8922:8953   */\n      calldataload\n        /* \"#utility.yul\":8980:8998   */\n      0xffffffffffffffff\n        /* \"#utility.yul\":8972:8978   */\n      dup2\n        /* \"#utility.yul\":8969:8999   */\n      gt\n        /* \"#utility.yul\":8966:9083   */\n      iszero\n      tag_471\n      jumpi\n        /* \"#utility.yul\":9002:9081   */\n      tag_472\n      tag_304\n      jump\t// in\n    tag_472:\n        /* \"#utility.yul\":8966:9083   */\n    tag_471:\n        /* \"#utility.yul\":9115:9195   */\n      tag_473\n        /* \"#utility.yul\":9187:9194   */\n      dup8\n        /* \"#utility.yul\":9178:9184   */\n      dup3\n        /* \"#utility.yul\":9167:9176   */\n      dup9\n        /* \"#utility.yul\":9163:9185   */\n      add\n        /* \"#utility.yul\":9115:9195   */\n      tag_331\n      jump\t// in\n    tag_473:\n        /* \"#utility.yul\":9097:9195   */\n      swap5\n      pop\n      swap5\n      pop\n        /* \"#utility.yul\":8893:9205   */\n      pop\n        /* \"#utility.yul\":9272:9274   */\n      0x20\n        /* \"#utility.yul\":9261:9270   */\n      dup6\n        /* \"#utility.yul\":9257:9275   */\n      add\n        /* \"#utility.yul\":9244:9276   */\n      calldataload\n        /* \"#utility.yul\":9303:9321   */\n      0xffffffffffffffff\n        /* \"#utility.yul\":9295:9301   */\n      dup2\n        /* \"#utility.yul\":9292:9322   */\n      gt\n        /* \"#utility.yul\":9289:9406   */\n      iszero\n      tag_474\n      jumpi\n        /* \"#utility.yul\":9325:9404   */\n      tag_475\n      tag_304\n      jump\t// in\n    tag_475:\n        /* \"#utility.yul\":9289:9406   */\n    tag_474:\n        /* \"#utility.yul\":9438:9518   */\n      tag_476\n        /* \"#utility.yul\":9510:9517   */\n      dup8\n        /* \"#utility.yul\":9501:9507   */\n      dup3\n        /* \"#utility.yul\":9490:9499   */\n      dup9\n        /* \"#utility.yul\":9486:9508   */\n      add\n        /* \"#utility.yul\":9438:9518   */\n      tag_331\n      jump\t// in\n    tag_476:\n        /* \"#utility.yul\":9420:9518   */\n      swap3\n      pop\n      swap3\n      pop\n        /* \"#utility.yul\":9215:9528   */\n      pop\n        /* \"#utility.yul\":8601:9535   */\n      swap3\n      swap6\n      swap2\n      swap5\n      pop\n      swap3\n      pop\n      jump\t// out\n        /* \"#utility.yul\":9541:10015   */\n    tag_75:\n        /* \"#utility.yul\":9609:9615   */\n      0x00\n        /* \"#utility.yul\":9617:9623   */\n      dup1\n        /* \"#utility.yul\":9666:9668   */\n      0x40\n        /* \"#utility.yul\":9654:9663   */\n      dup4\n        /* \"#utility.yul\":9645:9652   */\n      dup6\n        /* \"#utility.yul\":9641:9664   */\n      sub\n        /* \"#utility.yul\":9637:9669   */\n      slt\n        /* \"#utility.yul\":9634:9753   */\n      iszero\n      tag_478\n      jumpi\n        /* \"#utility.yul\":9672:9751   */\n      tag_479\n      tag_303\n      jump\t// in\n    tag_479:\n        /* \"#utility.yul\":9634:9753   */\n    tag_478:\n        /* \"#utility.yul\":9792:9793   */\n      0x00\n        /* \"#utility.yul\":9817:9870   */\n      tag_480\n        /* \"#utility.yul\":9862:9869   */\n      dup6\n        /* \"#utility.yul\":9853:9859   */\n      dup3\n        /* \"#utility.yul\":9842:9851   */\n      dup7\n        /* \"#utility.yul\":9838:9860   */\n      add\n        /* \"#utility.yul\":9817:9870   */\n      tag_314\n      jump\t// in\n    tag_480:\n        /* \"#utility.yul\":9807:9870   */\n      swap3\n      pop\n        /* \"#utility.yul\":9763:9880   */\n      pop\n        /* \"#utility.yul\":9919:9921   */\n      0x20\n        /* \"#utility.yul\":9945:9998   */\n      tag_481\n        /* \"#utility.yul\":9990:9997   */\n      dup6\n        /* \"#utility.yul\":9981:9987   */\n      dup3\n        /* \"#utility.yul\":9970:9979   */\n      dup7\n        /* \"#utility.yul\":9966:9988   */\n      add\n        /* \"#utility.yul\":9945:9998   */\n      tag_307\n      jump\t// in\n    tag_481:\n        /* \"#utility.yul\":9935:9998   */\n      swap2\n      pop\n        /* \"#utility.yul\":9890:10008   */\n      pop\n        /* \"#utility.yul\":9541:10015   */\n      swap3\n      pop\n      swap3\n      swap1\n      pop\n      jump\t// out\n        /* \"#utility.yul\":10021:10786   */\n    tag_79:\n        /* \"#utility.yul\":10107:10113   */\n      0x00\n        /* \"#utility.yul\":10115:10121   */\n      dup1\n        /* \"#utility.yul\":10123:10129   */\n      0x00\n        /* \"#utility.yul\":10131:10137   */\n      dup1\n        /* \"#utility.yul\":10180:10183   */\n      0x80\n        /* \"#utility.yul\":10168:10177   */\n      dup6\n        /* \"#utility.yul\":10159:10166   */\n      dup8\n        /* \"#utility.yul\":10155:10178   */\n      sub\n        /* \"#utility.yul\":10151:10184   */\n      slt\n        /* \"#utility.yul\":10148:10268   */\n      iszero\n      tag_483\n      jumpi\n        /* \"#utility.yul\":10187:10266   */\n      tag_484\n      tag_303\n      jump\t// in\n    tag_484:\n        /* \"#utility.yul\":10148:10268   */\n    tag_483:\n        /* \"#utility.yul\":10307:10308   */\n      0x00\n        /* \"#utility.yul\":10332:10385   */\n      tag_485\n        /* \"#utility.yul\":10377:10384   */\n      dup8\n        /* \"#utility.yul\":10368:10374   */\n      dup3\n        /* \"#utility.yul\":10357:10366   */\n      dup9\n        /* \"#utility.yul\":10353:10375   */\n      add\n        /* \"#utility.yul\":10332:10385   */\n      tag_307\n      jump\t// in\n    tag_485:\n        /* \"#utility.yul\":10322:10385   */\n      swap5\n      pop\n        /* \"#utility.yul\":10278:10395   */\n      pop\n        /* \"#utility.yul\":10434:10436   */\n      0x20\n        /* \"#utility.yul\":10460:10513   */\n      tag_486\n        /* \"#utility.yul\":10505:10512   */\n      dup8\n        /* \"#utility.yul\":10496:10502   */\n      dup3\n        /* \"#utility.yul\":10485:10494   */\n      dup9\n        /* \"#utility.yul\":10481:10503   */\n      add\n        /* \"#utility.yul\":10460:10513   */\n      tag_307\n      jump\t// in\n    tag_486:\n        /* \"#utility.yul\":10450:10513   */\n      swap4\n      pop\n        /* \"#utility.yul\":10405:10523   */\n      pop\n        /* \"#utility.yul\":10562:10564   */\n      0x40\n        /* \"#utility.yul\":10588:10641   */\n      tag_487\n        /* \"#utility.yul\":10633:10640   */\n      dup8\n        /* \"#utility.yul\":10624:10630   */\n      dup3\n        /* \"#utility.yul\":10613:10622   */\n      dup9\n        /* \"#utility.yul\":10609:10631   */\n      add\n        /* \"#utility.yul\":10588:10641   */\n      tag_307\n      jump\t// in\n    tag_487:\n        /* \"#utility.yul\":10578:10641   */\n      swap3\n      pop\n        /* \"#utility.yul\":10533:10651   */\n      pop\n        /* \"#utility.yul\":10690:10692   */\n      0x60\n        /* \"#utility.yul\":10716:10769   */\n      tag_488\n        /* \"#utility.yul\":10761:10768   */\n      dup8\n        /* \"#utility.yul\":10752:10758   */\n      dup3\n        /* \"#utility.yul\":10741:10750   */\n      dup9\n        /* \"#utility.yul\":10737:10759   */\n      add\n        /* \"#utility.yul\":10716:10769   */\n      tag_307\n      jump\t// in\n    tag_488:\n        /* \"#utility.yul\":10706:10769   */\n      swap2\n      pop\n        /* \"#utility.yul\":10661:10779   */\n      pop\n        /* \"#utility.yul\":10021:10786   */\n      swap3\n      swap6\n      swap2\n      swap5\n      pop\n      swap3\n      pop\n      jump\t// out\n        /* \"#utility.yul\":10792:11444   */\n    tag_85:\n        /* \"#utility.yul\":10991:10995   */\n      0x00\n        /* \"#utility.yul\":11029:11032   */\n      0xa0\n        /* \"#utility.yul\":11018:11027   */\n      dup3\n        /* \"#utility.yul\":11014:11033   */\n      add\n        /* \"#utility.yul\":11006:11033   */\n      swap1\n      pop\n        /* \"#utility.yul\":11043:11114   */\n      tag_490\n        /* \"#utility.yul\":11111:11112   */\n      0x00\n        /* \"#utility.yul\":11100:11109   */\n      dup4\n        /* \"#utility.yul\":11096:11113   */\n      add\n        /* \"#utility.yul\":11087:11093   */\n      dup9\n        /* \"#utility.yul\":11043:11114   */\n      tag_327\n      jump\t// in\n    tag_490:\n        /* \"#utility.yul\":11124:11196   */\n      tag_491\n        /* \"#utility.yul\":11192:11194   */\n      0x20\n        /* \"#utility.yul\":11181:11190   */\n      dup4\n        /* \"#utility.yul\":11177:11195   */\n      add\n        /* \"#utility.yul\":11168:11174   */\n      dup8\n        /* \"#utility.yul\":11124:11196   */\n      tag_315\n      jump\t// in\n    tag_491:\n        /* \"#utility.yul\":11206:11278   */\n      tag_492\n        /* \"#utility.yul\":11274:11276   */\n      0x40\n        /* \"#utility.yul\":11263:11272   */\n      dup4\n        /* \"#utility.yul\":11259:11277   */\n      add\n        /* \"#utility.yul\":11250:11256   */\n      dup7\n        /* \"#utility.yul\":11206:11278   */\n      tag_315\n      jump\t// in\n    tag_492:\n        /* \"#utility.yul\":11288:11360   */\n      tag_493\n        /* \"#utility.yul\":11356:11358   */\n      0x60\n        /* \"#utility.yul\":11345:11354   */\n      dup4\n        /* \"#utility.yul\":11341:11359   */\n      add\n        /* \"#utility.yul\":11332:11338   */\n      dup6\n        /* \"#utility.yul\":11288:11360   */\n      tag_315\n      jump\t// in\n    tag_493:\n        /* \"#utility.yul\":11370:11437   */\n      tag_494\n        /* \"#utility.yul\":11432:11435   */\n      0x80\n        /* \"#utility.yul\":11421:11430   */\n      dup4\n        /* \"#utility.yul\":11417:11436   */\n      add\n        /* \"#utility.yul\":11408:11414   */\n      dup5\n        /* \"#utility.yul\":11370:11437   */\n      tag_326\n      jump\t// in\n    tag_494:\n        /* \"#utility.yul\":10792:11444   */\n      swap7\n      swap6\n      pop\n      pop\n      pop\n      pop\n      pop\n      pop\n      jump\t// out\n        /* \"#utility.yul\":11450:11924   */\n    tag_94:\n        /* \"#utility.yul\":11518:11524   */\n      0x00\n        /* \"#utility.yul\":11526:11532   */\n      dup1\n        /* \"#utility.yul\":11575:11577   */\n      0x40\n        /* \"#utility.yul\":11563:11572   */\n      dup4\n        /* \"#utility.yul\":11554:11561   */\n      dup6\n        /* \"#utility.yul\":11550:11573   */\n      sub\n        /* \"#utility.yul\":11546:11578   */\n      slt\n        /* \"#utility.yul\":11543:11662   */\n      iszero\n      tag_496\n      jumpi\n        /* \"#utility.yul\":11581:11660   */\n      tag_497\n      tag_303\n      jump\t// in\n    tag_497:\n        /* \"#utility.yul\":11543:11662   */\n    tag_496:\n        /* \"#utility.yul\":11701:11702   */\n      0x00\n        /* \"#utility.yul\":11726:11779   */\n      tag_498\n        /* \"#utility.yul\":11771:11778   */\n      dup6\n        /* \"#utility.yul\":11762:11768   */\n      dup3\n        /* \"#utility.yul\":11751:11760   */\n      dup7\n        /* \"#utility.yul\":11747:11769   */\n      add\n        /* \"#utility.yul\":11726:11779   */\n      tag_307\n      jump\t// in\n    tag_498:\n        /* \"#utility.yul\":11716:11779   */\n      swap3\n      pop\n        /* \"#utility.yul\":11672:11789   */\n      pop\n        /* \"#utility.yul\":11828:11830   */\n      0x20\n        /* \"#utility.yul\":11854:11907   */\n      tag_499\n        /* \"#utility.yul\":11899:11906   */\n      dup6\n        /* \"#utility.yul\":11890:11896   */\n      dup3\n        /* \"#utility.yul\":11879:11888   */\n      dup7\n        /* \"#utility.yul\":11875:11897   */\n      add\n        /* \"#utility.yul\":11854:11907   */\n      tag_307\n      jump\t// in\n    tag_499:\n        /* \"#utility.yul\":11844:11907   */\n      swap2\n      pop\n        /* \"#utility.yul\":11799:11917   */\n      pop\n        /* \"#utility.yul\":11450:11924   */\n      swap3\n      pop\n      swap3\n      swap1\n      pop\n      jump\t// out\n        /* \"#utility.yul\":11930:12099   */\n    tag_332:\n        /* \"#utility.yul\":12014:12025   */\n      0x00\n        /* \"#utility.yul\":12048:12054   */\n      dup3\n        /* \"#utility.yul\":12043:12046   */\n      dup3\n        /* \"#utility.yul\":12036:12055   */\n      mstore\n        /* \"#utility.yul\":12088:12092   */\n      0x20\n        /* \"#utility.yul\":12083:12086   */\n      dup3\n        /* \"#utility.yul\":12079:12093   */\n      add\n        /* \"#utility.yul\":12064:12093   */\n      swap1\n      pop\n        /* \"#utility.yul\":11930:12099   */\n      swap3\n      swap2\n      pop\n      pop\n      jump\t// out\n        /* \"#utility.yul\":12105:12332   */\n    tag_333:\n        /* \"#utility.yul\":12245:12279   */\n      0x63616c6c6572206973206e6f74206173736f6369617465642077697468207468\n        /* \"#utility.yul\":12241:12242   */\n      0x00\n        /* \"#utility.yul\":12233:12239   */\n      dup3\n        /* \"#utility.yul\":12229:12243   */\n      add\n        /* \"#utility.yul\":12222:12280   */\n      mstore\n        /* \"#utility.yul\":12314:12324   */\n      0x6973207661756c74000000000000000000000000000000000000000000000000\n        /* \"#utility.yul\":12309:12311   */\n      0x20\n        /* \"#utility.yul\":12301:12307   */\n      dup3\n        /* \"#utility.yul\":12297:12312   */\n      add\n        /* \"#utility.yul\":12290:12325   */\n      mstore\n        /* \"#utility.yul\":12105:12332   */\n      pop\n      jump\t// out\n        /* \"#utility.yul\":12338:12704   */\n    tag_334:\n        /* \"#utility.yul\":12480:12483   */\n      0x00\n        /* \"#utility.yul\":12501:12568   */\n      tag_503\n        /* \"#utility.yul\":12565:12567   */\n      0x28\n        /* \"#utility.yul\":12560:12563   */\n      dup4\n        /* \"#utility.yul\":12501:12568   */\n      tag_332\n      jump\t// in\n    tag_503:\n        /* \"#utility.yul\":12494:12568   */\n      swap2\n      pop\n        /* \"#utility.yul\":12577:12670   */\n      tag_504\n        /* \"#utility.yul\":12666:12669   */\n      dup3\n        /* \"#utility.yul\":12577:12670   */\n      tag_333\n      jump\t// in\n    tag_504:\n        /* \"#utility.yul\":12695:12697   */\n      0x40\n        /* \"#utility.yul\":12690:12693   */\n      dup3\n        /* \"#utility.yul\":12686:12698   */\n      add\n        /* \"#utility.yul\":12679:12698   */\n      swap1\n      pop\n        /* \"#utility.yul\":12338:12704   */\n      swap2\n      swap1\n      pop\n      jump\t// out\n        /* \"#utility.yul\":12710:13129   */\n    tag_99:\n        /* \"#utility.yul\":12876:12880   */\n      0x00\n        /* \"#utility.yul\":12914:12916   */\n      0x20\n        /* \"#utility.yul\":12903:12912   */\n      dup3\n        /* \"#utility.yul\":12899:12917   */\n      add\n        /* \"#utility.yul\":12891:12917   */\n      swap1\n      pop\n        /* \"#utility.yul\":12963:12972   */\n      dup2\n        /* \"#utility.yul\":12957:12961   */\n      dup2\n        /* \"#utility.yul\":12953:12973   */\n      sub\n        /* \"#utility.yul\":12949:12950   */\n      0x00\n        /* \"#utility.yul\":12938:12947   */\n      dup4\n        /* \"#utility.yul\":12934:12951   */\n      add\n        /* \"#utility.yul\":12927:12974   */\n      mstore\n        /* \"#utility.yul\":12991:13122   */\n      tag_506\n        /* \"#utility.yul\":13117:13121   */\n      dup2\n        /* \"#utility.yul\":12991:13122   */\n      tag_334\n      jump\t// in\n    tag_506:\n        /* \"#utility.yul\":12983:13122   */\n      swap1\n      pop\n        /* \"#utility.yul\":12710:13129   */\n      swap2\n      swap1\n      pop\n      jump\t// out\n        /* \"#utility.yul\":13135:13314   */\n    tag_335:\n        /* \"#utility.yul\":13275:13306   */\n      0x6c6f636b2f73747265616d2068617320616c726561647920626567756e000000\n        /* \"#utility.yul\":13271:13272   */\n      0x00\n        /* \"#utility.yul\":13263:13269   */\n      dup3\n        /* \"#utility.yul\":13259:13273   */\n      add\n        /* \"#utility.yul\":13252:13307   */\n      mstore\n        /* \"#utility.yul\":13135:13314   */\n      pop\n      jump\t// out\n        /* \"#utility.yul\":13320:13686   */\n    tag_336:\n        /* \"#utility.yul\":13462:13465   */\n      0x00\n        /* \"#utility.yul\":13483:13550   */\n      tag_509\n        /* \"#utility.yul\":13547:13549   */\n      0x1d\n        /* \"#utility.yul\":13542:13545   */\n      dup4\n        /* \"#utility.yul\":13483:13550   */\n      tag_332\n      jump\t// in\n    tag_509:\n        /* \"#utility.yul\":13476:13550   */\n      swap2\n      pop\n        /* \"#utility.yul\":13559:13652   */\n      tag_510\n        /* \"#utility.yul\":13648:13651   */\n      dup3\n        /* \"#utility.yul\":13559:13652   */\n      tag_335\n      jump\t// in\n    tag_510:\n        /* \"#utility.yul\":13677:13679   */\n      0x20\n        /* \"#utility.yul\":13672:13675   */\n      dup3\n        /* \"#utility.yul\":13668:13680   */\n      add\n        /* \"#utility.yul\":13661:13680   */\n      swap1\n      pop\n        /* \"#utility.yul\":13320:13686   */\n      swap2\n      swap1\n      pop\n      jump\t// out\n        /* \"#utility.yul\":13692:14111   */\n    tag_102:\n        /* \"#utility.yul\":13858:13862   */\n      0x00\n        /* \"#utility.yul\":13896:13898   */\n      0x20\n        /* \"#utility.yul\":13885:13894   */\n      dup3\n        /* \"#utility.yul\":13881:13899   */\n      add\n        /* \"#utility.yul\":13873:13899   */\n      swap1\n      pop\n        /* \"#utility.yul\":13945:13954   */\n      dup2\n        /* \"#utility.yul\":13939:13943   */\n      dup2\n        /* \"#utility.yul\":13935:13955   */\n      sub\n        /* \"#utility.yul\":13931:13932   */\n      0x00\n        /* \"#utility.yul\":13920:13929   */\n      dup4\n        /* \"#utility.yul\":13916:13933   */\n      add\n        /* \"#utility.yul\":13909:13956   */\n      mstore\n        /* \"#utility.yul\":13973:14104   */\n      tag_512\n        /* \"#utility.yul\":14099:14103   */\n      dup2\n        /* \"#utility.yul\":13973:14104   */\n      tag_336\n      jump\t// in\n    tag_512:\n        /* \"#utility.yul\":13965:14104   */\n      swap1\n      pop\n        /* \"#utility.yul\":13692:14111   */\n      swap2\n      swap1\n      pop\n      jump\t// out\n        /* \"#utility.yul\":14117:14297   */\n    tag_337:\n        /* \"#utility.yul\":14165:14242   */\n      0x4e487b7100000000000000000000000000000000000000000000000000000000\n        /* \"#utility.yul\":14162:14163   */\n      0x00\n        /* \"#utility.yul\":14155:14243   */\n      mstore\n        /* \"#utility.yul\":14262:14266   */\n      0x11\n        /* \"#utility.yul\":14259:14260   */\n      0x04\n        /* \"#utility.yul\":14252:14267   */\n      mstore\n        /* \"#utility.yul\":14286:14290   */\n      0x24\n        /* \"#utility.yul\":14283:14284   */\n      0x00\n        /* \"#utility.yul\":14276:14291   */\n      revert\n        /* \"#utility.yul\":14303:14859   */\n    tag_105:\n        /* \"#utility.yul\":14342:14349   */\n      0x00\n        /* \"#utility.yul\":14365:14384   */\n      tag_515\n        /* \"#utility.yul\":14382:14383   */\n      dup3\n        /* \"#utility.yul\":14365:14384   */\n      tag_308\n      jump\t// in\n    tag_515:\n        /* \"#utility.yul\":14360:14384   */\n      swap2\n      pop\n        /* \"#utility.yul\":14398:14417   */\n      tag_516\n        /* \"#utility.yul\":14415:14416   */\n      dup4\n        /* \"#utility.yul\":14398:14417   */\n      tag_308\n      jump\t// in\n    tag_516:\n        /* \"#utility.yul\":14393:14417   */\n      swap3\n      pop\n        /* \"#utility.yul\":14452:14453   */\n      dup3\n        /* \"#utility.yul\":14449:14450   */\n      dup3\n        /* \"#utility.yul\":14445:14454   */\n      mul\n        /* \"#utility.yul\":14474:14503   */\n      tag_517\n        /* \"#utility.yul\":14491:14502   */\n      dup2\n        /* \"#utility.yul\":14474:14503   */\n      tag_308\n      jump\t// in\n    tag_517:\n        /* \"#utility.yul\":14463:14503   */\n      swap2\n      pop\n        /* \"#utility.yul\":14561:14627   */\n      0x8000000000000000000000000000000000000000000000000000000000000000\n        /* \"#utility.yul\":14558:14559   */\n      dup5\n        /* \"#utility.yul\":14555:14628   */\n      eq\n        /* \"#utility.yul\":14551:14552   */\n      0x00\n        /* \"#utility.yul\":14548:14549   */\n      dup5\n        /* \"#utility.yul\":14544:14553   */\n      slt\n        /* \"#utility.yul\":14540:14629   */\n      and\n        /* \"#utility.yul\":14537:14652   */\n      iszero\n      tag_518\n      jumpi\n        /* \"#utility.yul\":14632:14650   */\n      tag_519\n      tag_337\n      jump\t// in\n    tag_519:\n        /* \"#utility.yul\":14537:14652   */\n    tag_518:\n        /* \"#utility.yul\":14802:14803   */\n      dup3\n        /* \"#utility.yul\":14793:14800   */\n      dup3\n        /* \"#utility.yul\":14788:14804   */\n      sdiv\n        /* \"#utility.yul\":14785:14786   */\n      dup5\n        /* \"#utility.yul\":14782:14805   */\n      eq\n        /* \"#utility.yul\":14762:14763   */\n      dup4\n        /* \"#utility.yul\":14755:14764   */\n      iszero\n        /* \"#utility.yul\":14735:14819   */\n      or\n        /* \"#utility.yul\":14712:14852   */\n      tag_520\n      jumpi\n        /* \"#utility.yul\":14832:14850   */\n      tag_521\n      tag_337\n      jump\t// in\n    tag_521:\n        /* \"#utility.yul\":14712:14852   */\n    tag_520:\n        /* \"#utility.yul\":14350:14859   */\n      pop\n        /* \"#utility.yul\":14303:14859   */\n      swap3\n      swap2\n      pop\n      pop\n      jump\t// out\n        /* \"#utility.yul\":14865:15240   */\n    tag_107:\n        /* \"#utility.yul\":14904:14907   */\n      0x00\n        /* \"#utility.yul\":14923:14942   */\n      tag_523\n        /* \"#utility.yul\":14940:14941   */\n      dup3\n        /* \"#utility.yul\":14923:14942   */\n      tag_308\n      jump\t// in\n    tag_523:\n        /* \"#utility.yul\":14918:14942   */\n      swap2\n      pop\n        /* \"#utility.yul\":14956:14975   */\n      tag_524\n        /* \"#utility.yul\":14973:14974   */\n      dup4\n        /* \"#utility.yul\":14956:14975   */\n      tag_308\n      jump\t// in\n    tag_524:\n        /* \"#utility.yul\":14951:14975   */\n      swap3\n      pop\n        /* \"#utility.yul\":14998:14999   */\n      dup3\n        /* \"#utility.yul\":14995:14996   */\n      dup3\n        /* \"#utility.yul\":14991:15000   */\n      add\n        /* \"#utility.yul\":14984:15000   */\n      swap1\n      pop\n        /* \"#utility.yul\":15196:15197   */\n      dup3\n        /* \"#utility.yul\":15191:15194   */\n      dup2\n        /* \"#utility.yul\":15187:15198   */\n      slt\n        /* \"#utility.yul\":15180:15199   */\n      iszero\n        /* \"#utility.yul\":15176:15177   */\n      0x00\n        /* \"#utility.yul\":15173:15174   */\n      dup4\n        /* \"#utility.yul\":15169:15178   */\n      slt\n        /* \"#utility.yul\":15165:15200   */\n      and\n        /* \"#utility.yul\":15148:15149   */\n      dup4\n        /* \"#utility.yul\":15143:15146   */\n      dup3\n        /* \"#utility.yul\":15139:15150   */\n      slt\n        /* \"#utility.yul\":15134:15135   */\n      0x00\n        /* \"#utility.yul\":15131:15132   */\n      dup5\n        /* \"#utility.yul\":15127:15136   */\n      slt\n        /* \"#utility.yul\":15120:15137   */\n      iszero\n        /* \"#utility.yul\":15116:15151   */\n      and\n        /* \"#utility.yul\":15100:15210   */\n      or\n        /* \"#utility.yul\":15097:15233   */\n      iszero\n      tag_525\n      jumpi\n        /* \"#utility.yul\":15213:15231   */\n      tag_526\n      tag_337\n      jump\t// in\n    tag_526:\n        /* \"#utility.yul\":15097:15233   */\n    tag_525:\n        /* \"#utility.yul\":14865:15240   */\n      swap3\n      swap2\n      pop\n      pop\n      jump\t// out\n        /* \"#utility.yul\":15246:15466   */\n    tag_338:\n        /* \"#utility.yul\":15386:15420   */\n      0x6c6f636b5f73746172742063616e206e6f7420626520696e2074686520706173\n        /* \"#utility.yul\":15382:15383   */\n      0x00\n        /* \"#utility.yul\":15374:15380   */\n      dup3\n        /* \"#utility.yul\":15370:15384   */\n      add\n        /* \"#utility.yul\":15363:15421   */\n      mstore\n        /* \"#utility.yul\":15455:15458   */\n      0x7400000000000000000000000000000000000000000000000000000000000000\n        /* \"#utility.yul\":15450:15452   */\n      0x20\n        /* \"#utility.yul\":15442:15448   */\n      dup3\n        /* \"#utility.yul\":15438:15453   */\n      add\n        /* \"#utility.yul\":15431:15459   */\n      mstore\n        /* \"#utility.yul\":15246:15466   */\n      pop\n      jump\t// out\n        /* \"#utility.yul\":15472:15838   */\n    tag_339:\n        /* \"#utility.yul\":15614:15617   */\n      0x00\n        /* \"#utility.yul\":15635:15702   */\n      tag_529\n        /* \"#utility.yul\":15699:15701   */\n      0x21\n        /* \"#utility.yul\":15694:15697   */\n      dup4\n        /* \"#utility.yul\":15635:15702   */\n      tag_332\n      jump\t// in\n    tag_529:\n        /* \"#utility.yul\":15628:15702   */\n      swap2\n      pop\n        /* \"#utility.yul\":15711:15804   */\n      tag_530\n        /* \"#utility.yul\":15800:15803   */\n      dup3\n        /* \"#utility.yul\":15711:15804   */\n      tag_338\n      jump\t// in\n    tag_530:\n        /* \"#utility.yul\":15829:15831   */\n      0x40\n        /* \"#utility.yul\":15824:15827   */\n      dup3\n        /* \"#utility.yul\":15820:15832   */\n      add\n        /* \"#utility.yul\":15813:15832   */\n      swap1\n      pop\n        /* \"#utility.yul\":15472:15838   */\n      swap2\n      swap1\n      pop\n      jump\t// out\n        /* \"#utility.yul\":15844:16263   */\n    tag_110:\n        /* \"#utility.yul\":16010:16014   */\n      0x00\n        /* \"#utility.yul\":16048:16050   */\n      0x20\n        /* \"#utility.yul\":16037:16046   */\n      dup3\n        /* \"#utility.yul\":16033:16051   */\n      add\n        /* \"#utility.yul\":16025:16051   */\n      swap1\n      pop\n        /* \"#utility.yul\":16097:16106   */\n      dup2\n        /* \"#utility.yul\":16091:16095   */\n      dup2\n        /* \"#utility.yul\":16087:16107   */\n      sub\n        /* \"#utility.yul\":16083:16084   */\n      0x00\n        /* \"#utility.yul\":16072:16081   */\n      dup4\n        /* \"#utility.yul\":16068:16085   */\n      add\n        /* \"#utility.yul\":16061:16108   */\n      mstore\n        /* \"#utility.yul\":16125:16256   */\n      tag_532\n        /* \"#utility.yul\":16251:16255   */\n      dup2\n        /* \"#utility.yul\":16125:16256   */\n      tag_339\n      jump\t// in\n    tag_532:\n        /* \"#utility.yul\":16117:16256   */\n      swap1\n      pop\n        /* \"#utility.yul\":15844:16263   */\n      swap2\n      swap1\n      pop\n      jump\t// out\n        /* \"#utility.yul\":16269:16492   */\n    tag_340:\n        /* \"#utility.yul\":16409:16443   */\n      0x6c6f636b5f6475726174696f6e5f6368616e676520697320746f6f206e656769\n        /* \"#utility.yul\":16405:16406   */\n      0x00\n        /* \"#utility.yul\":16397:16403   */\n      dup3\n        /* \"#utility.yul\":16393:16407   */\n      add\n        /* \"#utility.yul\":16386:16444   */\n      mstore\n        /* \"#utility.yul\":16478:16484   */\n      0x7469766500000000000000000000000000000000000000000000000000000000\n        /* \"#utility.yul\":16473:16475   */\n      0x20\n        /* \"#utility.yul\":16465:16471   */\n      dup3\n        /* \"#utility.yul\":16461:16476   */\n      add\n        /* \"#utility.yul\":16454:16485   */\n      mstore\n        /* \"#utility.yul\":16269:16492   */\n      pop\n      jump\t// out\n        /* \"#utility.yul\":16498:16864   */\n    tag_341:\n        /* \"#utility.yul\":16640:16643   */\n      0x00\n        /* \"#utility.yul\":16661:16728   */\n      tag_535\n        /* \"#utility.yul\":16725:16727   */\n      0x24\n        /* \"#utility.yul\":16720:16723   */\n      dup4\n        /* \"#utility.yul\":16661:16728   */\n      tag_332\n      jump\t// in\n    tag_535:\n        /* \"#utility.yul\":16654:16728   */\n      swap2\n      pop\n        /* \"#utility.yul\":16737:16830   */\n      tag_536\n        /* \"#utility.yul\":16826:16829   */\n      dup3\n        /* \"#utility.yul\":16737:16830   */\n      tag_340\n      jump\t// in\n    tag_536:\n        /* \"#utility.yul\":16855:16857   */\n      0x40\n        /* \"#utility.yul\":16850:16853   */\n      dup3\n        /* \"#utility.yul\":16846:16858   */\n      add\n        /* \"#utility.yul\":16839:16858   */\n      swap1\n      pop\n        /* \"#utility.yul\":16498:16864   */\n      swap2\n      swap1\n      pop\n      jump\t// out\n        /* \"#utility.yul\":16870:17289   */\n    tag_118:\n        /* \"#utility.yul\":17036:17040   */\n      0x00\n        /* \"#utility.yul\":17074:17076   */\n      0x20\n        /* \"#utility.yul\":17063:17072   */\n      dup3\n        /* \"#utility.yul\":17059:17077   */\n      add\n        /* \"#utility.yul\":17051:17077   */\n      swap1\n      pop\n        /* \"#utility.yul\":17123:17132   */\n      dup2\n        /* \"#utility.yul\":17117:17121   */\n      dup2\n        /* \"#utility.yul\":17113:17133   */\n      sub\n        /* \"#utility.yul\":17109:17110   */\n      0x00\n        /* \"#utility.yul\":17098:17107   */\n      dup4\n        /* \"#utility.yul\":17094:17111   */\n      add\n        /* \"#utility.yul\":17087:17134   */\n      mstore\n        /* \"#utility.yul\":17151:17282   */\n      tag_538\n        /* \"#utility.yul\":17277:17281   */\n      dup2\n        /* \"#utility.yul\":17151:17282   */\n      tag_341\n      jump\t// in\n    tag_538:\n        /* \"#utility.yul\":17143:17282   */\n      swap1\n      pop\n        /* \"#utility.yul\":16870:17289   */\n      swap2\n      swap1\n      pop\n      jump\t// out\n        /* \"#utility.yul\":17295:17529   */\n    tag_342:\n        /* \"#utility.yul\":17435:17469   */\n      0x62616c616e636520697320736d616c6c6572207468616e2074686520616d6f75\n        /* \"#utility.yul\":17431:17432   */\n      0x00\n        /* \"#utility.yul\":17423:17429   */\n      dup3\n        /* \"#utility.yul\":17419:17433   */\n      add\n        /* \"#utility.yul\":17412:17470   */\n      mstore\n        /* \"#utility.yul\":17504:17521   */\n      0x6e7420746f206265206c6f636b65640000000000000000000000000000000000\n        /* \"#utility.yul\":17499:17501   */\n      0x20\n        /* \"#utility.yul\":17491:17497   */\n      dup3\n        /* \"#utility.yul\":17487:17502   */\n      add\n        /* \"#utility.yul\":17480:17522   */\n      mstore\n        /* \"#utility.yul\":17295:17529   */\n      pop\n      jump\t// out\n        /* \"#utility.yul\":17535:17901   */\n    tag_343:\n        /* \"#utility.yul\":17677:17680   */\n      0x00\n        /* \"#utility.yul\":17698:17765   */\n      tag_541\n        /* \"#utility.yul\":17762:17764   */\n      0x2f\n        /* \"#utility.yul\":17757:17760   */\n      dup4\n        /* \"#utility.yul\":17698:17765   */\n      tag_332\n      jump\t// in\n    tag_541:\n        /* \"#utility.yul\":17691:17765   */\n      swap2\n      pop\n        /* \"#utility.yul\":17774:17867   */\n      tag_542\n        /* \"#utility.yul\":17863:17866   */\n      dup3\n        /* \"#utility.yul\":17774:17867   */\n      tag_342\n      jump\t// in\n    tag_542:\n        /* \"#utility.yul\":17892:17894   */\n      0x40\n        /* \"#utility.yul\":17887:17890   */\n      dup3\n        /* \"#utility.yul\":17883:17895   */\n      add\n        /* \"#utility.yul\":17876:17895   */\n      swap1\n      pop\n        /* \"#utility.yul\":17535:17901   */\n      swap2\n      swap1\n      pop\n      jump\t// out\n        /* \"#utility.yul\":17907:18326   */\n    tag_126:\n        /* \"#utility.yul\":18073:18077   */\n      0x00\n        /* \"#utility.yul\":18111:18113   */\n      0x20\n        /* \"#utility.yul\":18100:18109   */\n      dup3\n        /* \"#utility.yul\":18096:18114   */\n      add\n        /* \"#utility.yul\":18088:18114   */\n      swap1\n      pop\n        /* \"#utility.yul\":18160:18169   */\n      dup2\n        /* \"#utility.yul\":18154:18158   */\n      dup2\n        /* \"#utility.yul\":18150:18170   */\n      sub\n        /* \"#utility.yul\":18146:18147   */\n      0x00\n        /* \"#utility.yul\":18135:18144   */\n      dup4\n        /* \"#utility.yul\":18131:18148   */\n      add\n        /* \"#utility.yul\":18124:18171   */\n      mstore\n        /* \"#utility.yul\":18188:18319   */\n      tag_544\n        /* \"#utility.yul\":18314:18318   */\n      dup2\n        /* \"#utility.yul\":18188:18319   */\n      tag_343\n      jump\t// in\n    tag_544:\n        /* \"#utility.yul\":18180:18319   */\n      swap1\n      pop\n        /* \"#utility.yul\":17907:18326   */\n      swap2\n      swap1\n      pop\n      jump\t// out\n        /* \"#utility.yul\":18332:18566   */\n    tag_344:\n        /* \"#utility.yul\":18472:18506   */\n      0x616d6f756e745f6368616e6765202b207661756c742062616c616e6365206973\n        /* \"#utility.yul\":18468:18469   */\n      0x00\n        /* \"#utility.yul\":18460:18466   */\n      dup3\n        /* \"#utility.yul\":18456:18470   */\n      add\n        /* \"#utility.yul\":18449:18507   */\n      mstore\n        /* \"#utility.yul\":18541:18558   */\n      0x20736d616c6c6572207468616e20300000000000000000000000000000000000\n        /* \"#utility.yul\":18536:18538   */\n      0x20\n        /* \"#utility.yul\":18528:18534   */\n      dup3\n        /* \"#utility.yul\":18524:18539   */\n      add\n        /* \"#utility.yul\":18517:18559   */\n      mstore\n        /* \"#utility.yul\":18332:18566   */\n      pop\n      jump\t// out\n        /* \"#utility.yul\":18572:18938   */\n    tag_345:\n        /* \"#utility.yul\":18714:18717   */\n      0x00\n        /* \"#utility.yul\":18735:18802   */\n      tag_547\n        /* \"#utility.yul\":18799:18801   */\n      0x2f\n        /* \"#utility.yul\":18794:18797   */\n      dup4\n        /* \"#utility.yul\":18735:18802   */\n      tag_332\n      jump\t// in\n    tag_547:\n        /* \"#utility.yul\":18728:18802   */\n      swap2\n      pop\n        /* \"#utility.yul\":18811:18904   */\n      tag_548\n        /* \"#utility.yul\":18900:18903   */\n      dup3\n        /* \"#utility.yul\":18811:18904   */\n      tag_344\n      jump\t// in\n    tag_548:\n        /* \"#utility.yul\":18929:18931   */\n      0x40\n        /* \"#utility.yul\":18924:18927   */\n      dup3\n        /* \"#utility.yul\":18920:18932   */\n      add\n        /* \"#utility.yul\":18913:18932   */\n      swap1\n      pop\n        /* \"#utility.yul\":18572:18938   */\n      swap2\n      swap1\n      pop\n      jump\t// out\n        /* \"#utility.yul\":18944:19363   */\n    tag_130:\n        /* \"#utility.yul\":19110:19114   */\n      0x00\n        /* \"#utility.yul\":19148:19150   */\n      0x20\n        /* \"#utility.yul\":19137:19146   */\n      dup3\n        /* \"#utility.yul\":19133:19151   */\n      add\n        /* \"#utility.yul\":19125:19151   */\n      swap1\n      pop\n        /* \"#utility.yul\":19197:19206   */\n      dup2\n        /* \"#utility.yul\":19191:19195   */\n      dup2\n        /* \"#utility.yul\":19187:19207   */\n      sub\n        /* \"#utility.yul\":19183:19184   */\n      0x00\n        /* \"#utility.yul\":19172:19181   */\n      dup4\n        /* \"#utility.yul\":19168:19185   */\n      add\n        /* \"#utility.yul\":19161:19208   */\n      mstore\n        /* \"#utility.yul\":19225:19356   */\n      tag_550\n        /* \"#utility.yul\":19351:19355   */\n      dup2\n        /* \"#utility.yul\":19225:19356   */\n      tag_345\n      jump\t// in\n    tag_550:\n        /* \"#utility.yul\":19217:19356   */\n      swap1\n      pop\n        /* \"#utility.yul\":18944:19363   */\n      swap2\n      swap1\n      pop\n      jump\t// out\n        /* \"#utility.yul\":19369:19741   */\n    tag_132:\n        /* \"#utility.yul\":19408:19412   */\n      0x00\n        /* \"#utility.yul\":19428:19447   */\n      tag_552\n        /* \"#utility.yul\":19445:19446   */\n      dup3\n        /* \"#utility.yul\":19428:19447   */\n      tag_308\n      jump\t// in\n    tag_552:\n        /* \"#utility.yul\":19423:19447   */\n      swap2\n      pop\n        /* \"#utility.yul\":19461:19480   */\n      tag_553\n        /* \"#utility.yul\":19478:19479   */\n      dup4\n        /* \"#utility.yul\":19461:19480   */\n      tag_308\n      jump\t// in\n    tag_553:\n        /* \"#utility.yul\":19456:19480   */\n      swap3\n      pop\n        /* \"#utility.yul\":19504:19505   */\n      dup3\n        /* \"#utility.yul\":19501:19502   */\n      dup3\n        /* \"#utility.yul\":19497:19506   */\n      sub\n        /* \"#utility.yul\":19489:19506   */\n      swap1\n      pop\n        /* \"#utility.yul\":19698:19699   */\n      dup2\n        /* \"#utility.yul\":19692:19696   */\n      dup2\n        /* \"#utility.yul\":19688:19700   */\n      slt\n        /* \"#utility.yul\":19684:19685   */\n      0x00\n        /* \"#utility.yul\":19681:19682   */\n      dup5\n        /* \"#utility.yul\":19677:19686   */\n      slt\n        /* \"#utility.yul\":19673:19701   */\n      and\n        /* \"#utility.yul\":19656:19657   */\n      dup3\n        /* \"#utility.yul\":19650:19654   */\n      dup3\n        /* \"#utility.yul\":19646:19658   */\n      sgt\n        /* \"#utility.yul\":19641:19642   */\n      0x00\n        /* \"#utility.yul\":19638:19639   */\n      dup6\n        /* \"#utility.yul\":19634:19643   */\n      slt\n        /* \"#utility.yul\":19627:19644   */\n      iszero\n        /* \"#utility.yul\":19623:19659   */\n      and\n        /* \"#utility.yul\":19607:19711   */\n      or\n        /* \"#utility.yul\":19604:19734   */\n      iszero\n      tag_554\n      jumpi\n        /* \"#utility.yul\":19714:19732   */\n      tag_555\n      tag_337\n      jump\t// in\n    tag_555:\n        /* \"#utility.yul\":19604:19734   */\n    tag_554:\n        /* \"#utility.yul\":19369:19741   */\n      swap3\n      swap2\n      pop\n      pop\n      jump\t// out\n        /* \"#utility.yul\":19747:20079   */\n    tag_138:\n        /* \"#utility.yul\":19868:19872   */\n      0x00\n        /* \"#utility.yul\":19906:19908   */\n      0x40\n        /* \"#utility.yul\":19895:19904   */\n      dup3\n        /* \"#utility.yul\":19891:19909   */\n      add\n        /* \"#utility.yul\":19883:19909   */\n      swap1\n      pop\n        /* \"#utility.yul\":19919:19990   */\n      tag_557\n        /* \"#utility.yul\":19987:19988   */\n      0x00\n        /* \"#utility.yul\":19976:19985   */\n      dup4\n        /* \"#utility.yul\":19972:19989   */\n      add\n        /* \"#utility.yul\":19963:19969   */\n      dup6\n        /* \"#utility.yul\":19919:19990   */\n      tag_327\n      jump\t// in\n    tag_557:\n        /* \"#utility.yul\":20000:20072   */\n      tag_558\n        /* \"#utility.yul\":20068:20070   */\n      0x20\n        /* \"#utility.yul\":20057:20066   */\n      dup4\n        /* \"#utility.yul\":20053:20071   */\n      add\n        /* \"#utility.yul\":20044:20050   */\n      dup5\n        /* \"#utility.yul\":20000:20072   */\n      tag_315\n      jump\t// in\n    tag_558:\n        /* \"#utility.yul\":19747:20079   */\n      swap4\n      swap3\n      pop\n      pop\n      pop\n      jump\t// out\n        /* \"#utility.yul\":20085:20638   */\n    tag_142:\n        /* \"#utility.yul\":20262:20266   */\n      0x00\n        /* \"#utility.yul\":20300:20303   */\n      0x80\n        /* \"#utility.yul\":20289:20298   */\n      dup3\n        /* \"#utility.yul\":20285:20304   */\n      add\n        /* \"#utility.yul\":20277:20304   */\n      swap1\n      pop\n        /* \"#utility.yul\":20314:20385   */\n      tag_560\n        /* \"#utility.yul\":20382:20383   */\n      0x00\n        /* \"#utility.yul\":20371:20380   */\n      dup4\n        /* \"#utility.yul\":20367:20384   */\n      add\n        /* \"#utility.yul\":20358:20364   */\n      dup8\n        /* \"#utility.yul\":20314:20385   */\n      tag_315\n      jump\t// in\n    tag_560:\n        /* \"#utility.yul\":20395:20467   */\n      tag_561\n        /* \"#utility.yul\":20463:20465   */\n      0x20\n        /* \"#utility.yul\":20452:20461   */\n      dup4\n        /* \"#utility.yul\":20448:20466   */\n      add\n        /* \"#utility.yul\":20439:20445   */\n      dup7\n        /* \"#utility.yul\":20395:20467   */\n      tag_315\n      jump\t// in\n    tag_561:\n        /* \"#utility.yul\":20477:20549   */\n      tag_562\n        /* \"#utility.yul\":20545:20547   */\n      0x40\n        /* \"#utility.yul\":20534:20543   */\n      dup4\n        /* \"#utility.yul\":20530:20548   */\n      add\n        /* \"#utility.yul\":20521:20527   */\n      dup6\n        /* \"#utility.yul\":20477:20549   */\n      tag_315\n      jump\t// in\n    tag_562:\n        /* \"#utility.yul\":20559:20631   */\n      tag_563\n        /* \"#utility.yul\":20627:20629   */\n      0x60\n        /* \"#utility.yul\":20616:20625   */\n      dup4\n        /* \"#utility.yul\":20612:20630   */\n      add\n        /* \"#utility.yul\":20603:20609   */\n      dup5\n        /* \"#utility.yul\":20559:20631   */\n      tag_315\n      jump\t// in\n    tag_563:\n        /* \"#utility.yul\":20085:20638   */\n      swap6\n      swap5\n      pop\n      pop\n      pop\n      pop\n      pop\n      jump\t// out\n        /* \"#utility.yul\":20644:20870   */\n    tag_346:\n        /* \"#utility.yul\":20784:20818   */\n      0x62616c616e636520697320736d616c6c6572207468616e207769746864726177\n        /* \"#utility.yul\":20780:20781   */\n      0x00\n        /* \"#utility.yul\":20772:20778   */\n      dup3\n        /* \"#utility.yul\":20768:20782   */\n      add\n        /* \"#utility.yul\":20761:20819   */\n      mstore\n        /* \"#utility.yul\":20853:20862   */\n      0x20616d6f756e7400000000000000000000000000000000000000000000000000\n        /* \"#utility.yul\":20848:20850   */\n      0x20\n        /* \"#utility.yul\":20840:20846   */\n      dup3\n        /* \"#utility.yul\":20836:20851   */\n      add\n        /* \"#utility.yul\":20829:20863   */\n      mstore\n        /* \"#utility.yul\":20644:20870   */\n      pop\n      jump\t// out\n        /* \"#utility.yul\":20876:21242   */\n    tag_347:\n        /* \"#utility.yul\":21018:21021   */\n      0x00\n        /* \"#utility.yul\":21039:21106   */\n      tag_566\n        /* \"#utility.yul\":21103:21105   */\n      0x27\n        /* \"#utility.yul\":21098:21101   */\n      dup4\n        /* \"#utility.yul\":21039:21106   */\n      tag_332\n      jump\t// in\n    tag_566:\n        /* \"#utility.yul\":21032:21106   */\n      swap2\n      pop\n        /* \"#utility.yul\":21115:21208   */\n      tag_567\n        /* \"#utility.yul\":21204:21207   */\n      dup3\n        /* \"#utility.yul\":21115:21208   */\n      tag_346\n      jump\t// in\n    tag_567:\n        /* \"#utility.yul\":21233:21235   */\n      0x40\n        /* \"#utility.yul\":21228:21231   */\n      dup3\n        /* \"#utility.yul\":21224:21236   */\n      add\n        /* \"#utility.yul\":21217:21236   */\n      swap1\n      pop\n        /* \"#utility.yul\":20876:21242   */\n      swap2\n      swap1\n      pop\n      jump\t// out\n        /* \"#utility.yul\":21248:21667   */\n    tag_151:\n        /* \"#utility.yul\":21414:21418   */\n      0x00\n        /* \"#utility.yul\":21452:21454   */\n      0x20\n        /* \"#utility.yul\":21441:21450   */\n      dup3\n        /* \"#utility.yul\":21437:21455   */\n      add\n        /* \"#utility.yul\":21429:21455   */\n      swap1\n      pop\n        /* \"#utility.yul\":21501:21510   */\n      dup2\n        /* \"#utility.yul\":21495:21499   */\n      dup2\n        /* \"#utility.yul\":21491:21511   */\n      sub\n        /* \"#utility.yul\":21487:21488   */\n      0x00\n        /* \"#utility.yul\":21476:21485   */\n      dup4\n        /* \"#utility.yul\":21472:21489   */\n      add\n        /* \"#utility.yul\":21465:21512   */\n      mstore\n        /* \"#utility.yul\":21529:21660   */\n      tag_569\n        /* \"#utility.yul\":21655:21659   */\n      dup2\n        /* \"#utility.yul\":21529:21660   */\n      tag_347\n      jump\t// in\n    tag_569:\n        /* \"#utility.yul\":21521:21660   */\n      swap1\n      pop\n        /* \"#utility.yul\":21248:21667   */\n      swap2\n      swap1\n      pop\n      jump\t// out\n        /* \"#utility.yul\":21673:21867   */\n    tag_153:\n        /* \"#utility.yul\":21713:21717   */\n      0x00\n        /* \"#utility.yul\":21733:21753   */\n      tag_571\n        /* \"#utility.yul\":21751:21752   */\n      dup3\n        /* \"#utility.yul\":21733:21753   */\n      tag_305\n      jump\t// in\n    tag_571:\n        /* \"#utility.yul\":21728:21753   */\n      swap2\n      pop\n        /* \"#utility.yul\":21767:21787   */\n      tag_572\n        /* \"#utility.yul\":21785:21786   */\n      dup4\n        /* \"#utility.yul\":21767:21787   */\n      tag_305\n      jump\t// in\n    tag_572:\n        /* \"#utility.yul\":21762:21787   */\n      swap3\n      pop\n        /* \"#utility.yul\":21811:21812   */\n      dup3\n        /* \"#utility.yul\":21808:21809   */\n      dup3\n        /* \"#utility.yul\":21804:21813   */\n      sub\n        /* \"#utility.yul\":21796:21813   */\n      swap1\n      pop\n        /* \"#utility.yul\":21835:21836   */\n      dup2\n        /* \"#utility.yul\":21829:21833   */\n      dup2\n        /* \"#utility.yul\":21826:21837   */\n      gt\n        /* \"#utility.yul\":21823:21860   */\n      iszero\n      tag_573\n      jumpi\n        /* \"#utility.yul\":21840:21858   */\n      tag_574\n      tag_337\n      jump\t// in\n    tag_574:\n        /* \"#utility.yul\":21823:21860   */\n    tag_573:\n        /* \"#utility.yul\":21673:21867   */\n      swap3\n      swap2\n      pop\n      pop\n      jump\t// out\n        /* \"#utility.yul\":21873:22010   */\n    tag_348:\n        /* \"#utility.yul\":21927:21932   */\n      0x00\n        /* \"#utility.yul\":21958:21964   */\n      dup2\n        /* \"#utility.yul\":21952:21965   */\n      mload\n        /* \"#utility.yul\":21943:21965   */\n      swap1\n      pop\n        /* \"#utility.yul\":21974:22004   */\n      tag_576\n        /* \"#utility.yul\":21998:22003   */\n      dup2\n        /* \"#utility.yul\":21974:22004   */\n      tag_324\n      jump\t// in\n    tag_576:\n        /* \"#utility.yul\":21873:22010   */\n      swap3\n      swap2\n      pop\n      pop\n      jump\t// out\n        /* \"#utility.yul\":22016:22361   */\n    tag_158:\n        /* \"#utility.yul\":22083:22089   */\n      0x00\n        /* \"#utility.yul\":22132:22134   */\n      0x20\n        /* \"#utility.yul\":22120:22129   */\n      dup3\n        /* \"#utility.yul\":22111:22118   */\n      dup5\n        /* \"#utility.yul\":22107:22130   */\n      sub\n        /* \"#utility.yul\":22103:22135   */\n      slt\n        /* \"#utility.yul\":22100:22219   */\n      iszero\n      tag_578\n      jumpi\n        /* \"#utility.yul\":22138:22217   */\n      tag_579\n      tag_303\n      jump\t// in\n    tag_579:\n        /* \"#utility.yul\":22100:22219   */\n    tag_578:\n        /* \"#utility.yul\":22258:22259   */\n      0x00\n        /* \"#utility.yul\":22283:22344   */\n      tag_580\n        /* \"#utility.yul\":22336:22343   */\n      dup5\n        /* \"#utility.yul\":22327:22333   */\n      dup3\n        /* \"#utility.yul\":22316:22325   */\n      dup6\n        /* \"#utility.yul\":22312:22334   */\n      add\n        /* \"#utility.yul\":22283:22344   */\n      tag_348\n      jump\t// in\n    tag_580:\n        /* \"#utility.yul\":22273:22344   */\n      swap2\n      pop\n        /* \"#utility.yul\":22229:22354   */\n      pop\n        /* \"#utility.yul\":22016:22361   */\n      swap3\n      swap2\n      pop\n      pop\n      jump\t// out\n        /* \"#utility.yul\":22367:22538   */\n    tag_349:\n        /* \"#utility.yul\":22507:22530   */\n      0x746f6b656e207472616e73666572206661696c65640000000000000000000000\n        /* \"#utility.yul\":22503:22504   */\n      0x00\n        /* \"#utility.yul\":22495:22501   */\n      dup3\n        /* \"#utility.yul\":22491:22505   */\n      add\n        /* \"#utility.yul\":22484:22531   */\n      mstore\n        /* \"#utility.yul\":22367:22538   */\n      pop\n      jump\t// out\n        /* \"#utility.yul\":22544:22910   */\n    tag_350:\n        /* \"#utility.yul\":22686:22689   */\n      0x00\n        /* \"#utility.yul\":22707:22774   */\n      tag_583\n        /* \"#utility.yul\":22771:22773   */\n      0x15\n        /* \"#utility.yul\":22766:22769   */\n      dup4\n        /* \"#utility.yul\":22707:22774   */\n      tag_332\n      jump\t// in\n    tag_583:\n        /* \"#utility.yul\":22700:22774   */\n      swap2\n      pop\n        /* \"#utility.yul\":22783:22876   */\n      tag_584\n        /* \"#utility.yul\":22872:22875   */\n      dup3\n        /* \"#utility.yul\":22783:22876   */\n      tag_349\n      jump\t// in\n    tag_584:\n        /* \"#utility.yul\":22901:22903   */\n      0x20\n        /* \"#utility.yul\":22896:22899   */\n      dup3\n        /* \"#utility.yul\":22892:22904   */\n      add\n        /* \"#utility.yul\":22885:22904   */\n      swap1\n      pop\n        /* \"#utility.yul\":22544:22910   */\n      swap2\n      swap1\n      pop\n      jump\t// out\n        /* \"#utility.yul\":22916:23335   */\n    tag_161:\n        /* \"#utility.yul\":23082:23086   */\n      0x00\n        /* \"#utility.yul\":23120:23122   */\n      0x20\n        /* \"#utility.yul\":23109:23118   */\n      dup3\n        /* \"#utility.yul\":23105:23123   */\n      add\n        /* \"#utility.yul\":23097:23123   */\n      swap1\n      pop\n        /* \"#utility.yul\":23169:23178   */\n      dup2\n        /* \"#utility.yul\":23163:23167   */\n      dup2\n        /* \"#utility.yul\":23159:23179   */\n      sub\n        /* \"#utility.yul\":23155:23156   */\n      0x00\n        /* \"#utility.yul\":23144:23153   */\n      dup4\n        /* \"#utility.yul\":23140:23157   */\n      add\n        /* \"#utility.yul\":23133:23180   */\n      mstore\n        /* \"#utility.yul\":23197:23328   */\n      tag_586\n        /* \"#utility.yul\":23323:23327   */\n      dup2\n        /* \"#utility.yul\":23197:23328   */\n      tag_350\n      jump\t// in\n    tag_586:\n        /* \"#utility.yul\":23189:23328   */\n      swap1\n      pop\n        /* \"#utility.yul\":22916:23335   */\n      swap2\n      swap1\n      pop\n      jump\t// out\n        /* \"#utility.yul\":23341:23510   */\n    tag_351:\n        /* \"#utility.yul\":23481:23502   */\n      0x63616c6c6572206973206e6f74206f776e657200000000000000000000000000\n        /* \"#utility.yul\":23477:23478   */\n      0x00\n        /* \"#utility.yul\":23469:23475   */\n      dup3\n        /* \"#utility.yul\":23465:23479   */\n      add\n        /* \"#utility.yul\":23458:23503   */\n      mstore\n        /* \"#utility.yul\":23341:23510   */\n      pop\n      jump\t// out\n        /* \"#utility.yul\":23516:23882   */\n    tag_352:\n        /* \"#utility.yul\":23658:23661   */\n      0x00\n        /* \"#utility.yul\":23679:23746   */\n      tag_589\n        /* \"#utility.yul\":23743:23745   */\n      0x13\n        /* \"#utility.yul\":23738:23741   */\n      dup4\n        /* \"#utility.yul\":23679:23746   */\n      tag_332\n      jump\t// in\n    tag_589:\n        /* \"#utility.yul\":23672:23746   */\n      swap2\n      pop\n        /* \"#utility.yul\":23755:23848   */\n      tag_590\n        /* \"#utility.yul\":23844:23847   */\n      dup3\n        /* \"#utility.yul\":23755:23848   */\n      tag_351\n      jump\t// in\n    tag_590:\n        /* \"#utility.yul\":23873:23875   */\n      0x20\n        /* \"#utility.yul\":23868:23871   */\n      dup3\n        /* \"#utility.yul\":23864:23876   */\n      add\n        /* \"#utility.yul\":23857:23876   */\n      swap1\n      pop\n        /* \"#utility.yul\":23516:23882   */\n      swap2\n      swap1\n      pop\n      jump\t// out\n        /* \"#utility.yul\":23888:24307   */\n    tag_166:\n        /* \"#utility.yul\":24054:24058   */\n      0x00\n        /* \"#utility.yul\":24092:24094   */\n      0x20\n        /* \"#utility.yul\":24081:24090   */\n      dup3\n        /* \"#utility.yul\":24077:24095   */\n      add\n        /* \"#utility.yul\":24069:24095   */\n      swap1\n      pop\n        /* \"#utility.yul\":24141:24150   */\n      dup2\n        /* \"#utility.yul\":24135:24139   */\n      dup2\n        /* \"#utility.yul\":24131:24151   */\n      sub\n        /* \"#utility.yul\":24127:24128   */\n      0x00\n        /* \"#utility.yul\":24116:24125   */\n      dup4\n        /* \"#utility.yul\":24112:24129   */\n      add\n        /* \"#utility.yul\":24105:24152   */\n      mstore\n        /* \"#utility.yul\":24169:24300   */\n      tag_592\n        /* \"#utility.yul\":24295:24299   */\n      dup2\n        /* \"#utility.yul\":24169:24300   */\n      tag_352\n      jump\t// in\n    tag_592:\n        /* \"#utility.yul\":24161:24300   */\n      swap1\n      pop\n        /* \"#utility.yul\":23888:24307   */\n      swap2\n      swap1\n      pop\n      jump\t// out\n        /* \"#utility.yul\":24313:24539   */\n    tag_353:\n        /* \"#utility.yul\":24453:24487   */\n      0x63616c6c657220646f6573206e6f74206861766520746865207065726d732072\n        /* \"#utility.yul\":24449:24450   */\n      0x00\n        /* \"#utility.yul\":24441:24447   */\n      dup3\n        /* \"#utility.yul\":24437:24451   */\n      add\n        /* \"#utility.yul\":24430:24488   */\n      mstore\n        /* \"#utility.yul\":24522:24531   */\n      0x6571756972656400000000000000000000000000000000000000000000000000\n        /* \"#utility.yul\":24517:24519   */\n      0x20\n        /* \"#utility.yul\":24509:24515   */\n      dup3\n        /* \"#utility.yul\":24505:24520   */\n      add\n        /* \"#utility.yul\":24498:24532   */\n      mstore\n        /* \"#utility.yul\":24313:24539   */\n      pop\n      jump\t// out\n        /* \"#utility.yul\":24545:24911   */\n    tag_354:\n        /* \"#utility.yul\":24687:24690   */\n      0x00\n        /* \"#utility.yul\":24708:24775   */\n      tag_595\n        /* \"#utility.yul\":24772:24774   */\n      0x27\n        /* \"#utility.yul\":24767:24770   */\n      dup4\n        /* \"#utility.yul\":24708:24775   */\n      tag_332\n      jump\t// in\n    tag_595:\n        /* \"#utility.yul\":24701:24775   */\n      swap2\n      pop\n        /* \"#utility.yul\":24784:24877   */\n      tag_596\n        /* \"#utility.yul\":24873:24876   */\n      dup3\n        /* \"#utility.yul\":24784:24877   */\n      tag_353\n      jump\t// in\n    tag_596:\n        /* \"#utility.yul\":24902:24904   */\n      0x40\n        /* \"#utility.yul\":24897:24900   */\n      dup3\n        /* \"#utility.yul\":24893:24905   */\n      add\n        /* \"#utility.yul\":24886:24905   */\n      swap1\n      pop\n        /* \"#utility.yul\":24545:24911   */\n      swap2\n      swap1\n      pop\n      jump\t// out\n        /* \"#utility.yul\":24917:25336   */\n    tag_173:\n        /* \"#utility.yul\":25083:25087   */\n      0x00\n        /* \"#utility.yul\":25121:25123   */\n      0x20\n        /* \"#utility.yul\":25110:25119   */\n      dup3\n        /* \"#utility.yul\":25106:25124   */\n      add\n        /* \"#utility.yul\":25098:25124   */\n      swap1\n      pop\n        /* \"#utility.yul\":25170:25179   */\n      dup2\n        /* \"#utility.yul\":25164:25168   */\n      dup2\n        /* \"#utility.yul\":25160:25180   */\n      sub\n        /* \"#utility.yul\":25156:25157   */\n      0x00\n        /* \"#utility.yul\":25145:25154   */\n      dup4\n        /* \"#utility.yul\":25141:25158   */\n      add\n        /* \"#utility.yul\":25134:25181   */\n      mstore\n        /* \"#utility.yul\":25198:25329   */\n      tag_598\n        /* \"#utility.yul\":25324:25328   */\n      dup2\n        /* \"#utility.yul\":25198:25329   */\n      tag_354\n      jump\t// in\n    tag_598:\n        /* \"#utility.yul\":25190:25329   */\n      swap1\n      pop\n        /* \"#utility.yul\":24917:25336   */\n      swap2\n      swap1\n      pop\n      jump\t// out\n        /* \"#utility.yul\":25342:25522   */\n    tag_355:\n        /* \"#utility.yul\":25482:25514   */\n      0x617272617973206d757374206265206f6620657175616c206c656e6774680000\n        /* \"#utility.yul\":25478:25479   */\n      0x00\n        /* \"#utility.yul\":25470:25476   */\n      dup3\n        /* \"#utility.yul\":25466:25480   */\n      add\n        /* \"#utility.yul\":25459:25515   */\n      mstore\n        /* \"#utility.yul\":25342:25522   */\n      pop\n      jump\t// out\n        /* \"#utility.yul\":25528:25894   */\n    tag_356:\n        /* \"#utility.yul\":25670:25673   */\n      0x00\n        /* \"#utility.yul\":25691:25758   */\n      tag_601\n        /* \"#utility.yul\":25755:25757   */\n      0x1e\n        /* \"#utility.yul\":25750:25753   */\n      dup4\n        /* \"#utility.yul\":25691:25758   */\n      tag_332\n      jump\t// in\n    tag_601:\n        /* \"#utility.yul\":25684:25758   */\n      swap2\n      pop\n        /* \"#utility.yul\":25767:25860   */\n      tag_602\n        /* \"#utility.yul\":25856:25859   */\n      dup3\n        /* \"#utility.yul\":25767:25860   */\n      tag_355\n      jump\t// in\n    tag_602:\n        /* \"#utility.yul\":25885:25887   */\n      0x20\n        /* \"#utility.yul\":25880:25883   */\n      dup3\n        /* \"#utility.yul\":25876:25888   */\n      add\n        /* \"#utility.yul\":25869:25888   */\n      swap1\n      pop\n        /* \"#utility.yul\":25528:25894   */\n      swap2\n      swap1\n      pop\n      jump\t// out\n        /* \"#utility.yul\":25900:26319   */\n    tag_177:\n        /* \"#utility.yul\":26066:26070   */\n      0x00\n        /* \"#utility.yul\":26104:26106   */\n      0x20\n        /* \"#utility.yul\":26093:26102   */\n      dup3\n        /* \"#utility.yul\":26089:26107   */\n      add\n        /* \"#utility.yul\":26081:26107   */\n      swap1\n      pop\n        /* \"#utility.yul\":26153:26162   */\n      dup2\n        /* \"#utility.yul\":26147:26151   */\n      dup2\n        /* \"#utility.yul\":26143:26163   */\n      sub\n        /* \"#utility.yul\":26139:26140   */\n      0x00\n        /* \"#utility.yul\":26128:26137   */\n      dup4\n        /* \"#utility.yul\":26124:26141   */\n      add\n        /* \"#utility.yul\":26117:26164   */\n      mstore\n        /* \"#utility.yul\":26181:26312   */\n      tag_604\n        /* \"#utility.yul\":26307:26311   */\n      dup2\n        /* \"#utility.yul\":26181:26312   */\n      tag_356\n      jump\t// in\n    tag_604:\n        /* \"#utility.yul\":26173:26312   */\n      swap1\n      pop\n        /* \"#utility.yul\":25900:26319   */\n      swap2\n      swap1\n      pop\n      jump\t// out\n        /* \"#utility.yul\":26325:26505   */\n    tag_184:\n        /* \"#utility.yul\":26373:26450   */\n      0x4e487b7100000000000000000000000000000000000000000000000000000000\n        /* \"#utility.yul\":26370:26371   */\n      0x00\n        /* \"#utility.yul\":26363:26451   */\n      mstore\n        /* \"#utility.yul\":26470:26474   */\n      0x32\n        /* \"#utility.yul\":26467:26468   */\n      0x04\n        /* \"#utility.yul\":26460:26475   */\n      mstore\n        /* \"#utility.yul\":26494:26498   */\n      0x24\n        /* \"#utility.yul\":26491:26492   */\n      0x00\n        /* \"#utility.yul\":26484:26499   */\n      revert\n        /* \"#utility.yul\":26511:26744   */\n    tag_188:\n        /* \"#utility.yul\":26550:26553   */\n      0x00\n        /* \"#utility.yul\":26573:26597   */\n      tag_607\n        /* \"#utility.yul\":26591:26596   */\n      dup3\n        /* \"#utility.yul\":26573:26597   */\n      tag_305\n      jump\t// in\n    tag_607:\n        /* \"#utility.yul\":26564:26597   */\n      swap2\n      pop\n        /* \"#utility.yul\":26619:26685   */\n      0xffffffffffffffffffffffffffffffffffffffffffffffffffffffffffffffff\n        /* \"#utility.yul\":26612:26617   */\n      dup3\n        /* \"#utility.yul\":26609:26686   */\n      sub\n        /* \"#utility.yul\":26606:26709   */\n      tag_608\n      jumpi\n        /* \"#utility.yul\":26689:26707   */\n      tag_609\n      tag_337\n      jump\t// in\n    tag_609:\n        /* \"#utility.yul\":26606:26709   */\n    tag_608:\n        /* \"#utility.yul\":26736:26737   */\n      0x01\n        /* \"#utility.yul\":26729:26734   */\n      dup3\n        /* \"#utility.yul\":26725:26738   */\n      add\n        /* \"#utility.yul\":26718:26738   */\n      swap1\n      pop\n        /* \"#utility.yul\":26511:26744   */\n      swap2\n      swap1\n      pop\n      jump\t// out\n        /* \"#utility.yul\":26750:27082   */\n    tag_191:\n        /* \"#utility.yul\":26871:26875   */\n      0x00\n        /* \"#utility.yul\":26909:26911   */\n      0x40\n        /* \"#utility.yul\":26898:26907   */\n      dup3\n        /* \"#utility.yul\":26894:26912   */\n      add\n        /* \"#utility.yul\":26886:26912   */\n      swap1\n      pop\n        /* \"#utility.yul\":26922:26993   */\n      tag_611\n        /* \"#utility.yul\":26990:26991   */\n      0x00\n        /* \"#utility.yul\":26979:26988   */\n      dup4\n        /* \"#utility.yul\":26975:26992   */\n      add\n        /* \"#utility.yul\":26966:26972   */\n      dup6\n        /* \"#utility.yul\":26922:26993   */\n      tag_327\n      jump\t// in\n    tag_611:\n        /* \"#utility.yul\":27003:27075   */\n      tag_612\n        /* \"#utility.yul\":27071:27073   */\n      0x20\n        /* \"#utility.yul\":27060:27069   */\n      dup4\n        /* \"#utility.yul\":27056:27074   */\n      add\n        /* \"#utility.yul\":27047:27053   */\n      dup5\n        /* \"#utility.yul\":27003:27075   */\n      tag_327\n      jump\t// in\n    tag_612:\n        /* \"#utility.yul\":26750:27082   */\n      swap4\n      swap3\n      pop\n      pop\n      pop\n      jump\t// out\n        /* \"#utility.yul\":27088:27231   */\n    tag_357:\n        /* \"#utility.yul\":27145:27150   */\n      0x00\n        /* \"#utility.yul\":27176:27182   */\n      dup2\n        /* \"#utility.yul\":27170:27183   */\n      mload\n        /* \"#utility.yul\":27161:27183   */\n      swap1\n      pop\n        /* \"#utility.yul\":27192:27225   */\n      tag_614\n        /* \"#utility.yul\":27219:27224   */\n      dup2\n        /* \"#utility.yul\":27192:27225   */\n      tag_306\n      jump\t// in\n    tag_614:\n        /* \"#utility.yul\":27088:27231   */\n      swap3\n      swap2\n      pop\n      pop\n      jump\t// out\n        /* \"#utility.yul\":27237:27588   */\n    tag_195:\n        /* \"#utility.yul\":27307:27313   */\n      0x00\n        /* \"#utility.yul\":27356:27358   */\n      0x20\n        /* \"#utility.yul\":27344:27353   */\n      dup3\n        /* \"#utility.yul\":27335:27342   */\n      dup5\n        /* \"#utility.yul\":27331:27354   */\n      sub\n        /* \"#utility.yul\":27327:27359   */\n      slt\n        /* \"#utility.yul\":27324:27443   */\n      iszero\n      tag_616\n      jumpi\n        /* \"#utility.yul\":27362:27441   */\n      tag_617\n      tag_303\n      jump\t// in\n    tag_617:\n        /* \"#utility.yul\":27324:27443   */\n    tag_616:\n        /* \"#utility.yul\":27482:27483   */\n      0x00\n        /* \"#utility.yul\":27507:27571   */\n      tag_618\n        /* \"#utility.yul\":27563:27570   */\n      dup5\n        /* \"#utility.yul\":27554:27560   */\n      dup3\n        /* \"#utility.yul\":27543:27552   */\n      dup6\n        /* \"#utility.yul\":27539:27561   */\n      add\n        /* \"#utility.yul\":27507:27571   */\n      tag_357\n      jump\t// in\n    tag_618:\n        /* \"#utility.yul\":27497:27571   */\n      swap2\n      pop\n        /* \"#utility.yul\":27453:27581   */\n      pop\n        /* \"#utility.yul\":27237:27588   */\n      swap3\n      swap2\n      pop\n      pop\n      jump\t// out\n        /* \"#utility.yul\":27594:27838   */\n    tag_358:\n        /* \"#utility.yul\":27734:27768   */\n      0x63616c6c657220686173206e6f7420617070726f766564207468697320636f6e\n        /* \"#utility.yul\":27730:27731   */\n      0x00\n        /* \"#utility.yul\":27722:27728   */\n      dup3\n        /* \"#utility.yul\":27718:27732   */\n      add\n        /* \"#utility.yul\":27711:27769   */\n      mstore\n        /* \"#utility.yul\":27803:27830   */\n      0x747261637420746f2070756c6c2074686573652066756e647300000000000000\n        /* \"#utility.yul\":27798:27800   */\n      0x20\n        /* \"#utility.yul\":27790:27796   */\n      dup3\n        /* \"#utility.yul\":27786:27801   */\n      add\n        /* \"#utility.yul\":27779:27831   */\n      mstore\n        /* \"#utility.yul\":27594:27838   */\n      pop\n      jump\t// out\n        /* \"#utility.yul\":27844:28210   */\n    tag_359:\n        /* \"#utility.yul\":27986:27989   */\n      0x00\n        /* \"#utility.yul\":28007:28074   */\n      tag_621\n        /* \"#utility.yul\":28071:28073   */\n      0x39\n        /* \"#utility.yul\":28066:28069   */\n      dup4\n        /* \"#utility.yul\":28007:28074   */\n      tag_332\n      jump\t// in\n    tag_621:\n        /* \"#utility.yul\":28000:28074   */\n      swap2\n      pop\n        /* \"#utility.yul\":28083:28176   */\n      tag_622\n        /* \"#utility.yul\":28172:28175   */\n      dup3\n        /* \"#utility.yul\":28083:28176   */\n      tag_358\n      jump\t// in\n    tag_622:\n        /* \"#utility.yul\":28201:28203   */\n      0x40\n        /* \"#utility.yul\":28196:28199   */\n      dup3\n        /* \"#utility.yul\":28192:28204   */\n      add\n        /* \"#utility.yul\":28185:28204   */\n      swap1\n      pop\n        /* \"#utility.yul\":27844:28210   */\n      swap2\n      swap1\n      pop\n      jump\t// out\n        /* \"#utility.yul\":28216:28635   */\n    tag_198:\n        /* \"#utility.yul\":28382:28386   */\n      0x00\n        /* \"#utility.yul\":28420:28422   */\n      0x20\n        /* \"#utility.yul\":28409:28418   */\n      dup3\n        /* \"#utility.yul\":28405:28423   */\n      add\n        /* \"#utility.yul\":28397:28423   */\n      swap1\n      pop\n        /* \"#utility.yul\":28469:28478   */\n      dup2\n        /* \"#utility.yul\":28463:28467   */\n      dup2\n        /* \"#utility.yul\":28459:28479   */\n      sub\n        /* \"#utility.yul\":28455:28456   */\n      0x00\n        /* \"#utility.yul\":28444:28453   */\n      dup4\n        /* \"#utility.yul\":28440:28457   */\n      add\n        /* \"#utility.yul\":28433:28480   */\n      mstore\n        /* \"#utility.yul\":28497:28628   */\n      tag_624\n        /* \"#utility.yul\":28623:28627   */\n      dup2\n        /* \"#utility.yul\":28497:28628   */\n      tag_359\n      jump\t// in\n    tag_624:\n        /* \"#utility.yul\":28489:28628   */\n      swap1\n      pop\n        /* \"#utility.yul\":28216:28635   */\n      swap2\n      swap1\n      pop\n      jump\t// out\n        /* \"#utility.yul\":28641:28886   */\n    tag_360:\n        /* \"#utility.yul\":28781:28815   */\n      0x63616c6c657220646f6573206e6f74206861766520656e6f75676820746f6b65\n        /* \"#utility.yul\":28777:28778   */\n      0x00\n        /* \"#utility.yul\":28769:28775   */\n      dup3\n        /* \"#utility.yul\":28765:28779   */\n      add\n        /* \"#utility.yul\":28758:28816   */\n      mstore\n        /* \"#utility.yul\":28850:28878   */\n      0x6e7320696e2074686569722077616c6c657420746f2070756c6c000000000000\n        /* \"#utility.yul\":28845:28847   */\n      0x20\n        /* \"#utility.yul\":28837:28843   */\n      dup3\n        /* \"#utility.yul\":28833:28848   */\n      add\n        /* \"#utility.yul\":28826:28879   */\n      mstore\n        /* \"#utility.yul\":28641:28886   */\n      pop\n      jump\t// out\n        /* \"#utility.yul\":28892:29258   */\n    tag_361:\n        /* \"#utility.yul\":29034:29037   */\n      0x00\n        /* \"#utility.yul\":29055:29122   */\n      tag_627\n        /* \"#utility.yul\":29119:29121   */\n      0x3a\n        /* \"#utility.yul\":29114:29117   */\n      dup4\n        /* \"#utility.yul\":29055:29122   */\n      tag_332\n      jump\t// in\n    tag_627:\n        /* \"#utility.yul\":29048:29122   */\n      swap2\n      pop\n        /* \"#utility.yul\":29131:29224   */\n      tag_628\n        /* \"#utility.yul\":29220:29223   */\n      dup3\n        /* \"#utility.yul\":29131:29224   */\n      tag_360\n      jump\t// in\n    tag_628:\n        /* \"#utility.yul\":29249:29251   */\n      0x40\n        /* \"#utility.yul\":29244:29247   */\n      dup3\n        /* \"#utility.yul\":29240:29252   */\n      add\n        /* \"#utility.yul\":29233:29252   */\n      swap1\n      pop\n        /* \"#utility.yul\":28892:29258   */\n      swap2\n      swap1\n      pop\n      jump\t// out\n        /* \"#utility.yul\":29264:29683   */\n    tag_205:\n        /* \"#utility.yul\":29430:29434   */\n      0x00\n        /* \"#utility.yul\":29468:29470   */\n      0x20\n        /* \"#utility.yul\":29457:29466   */\n      dup3\n        /* \"#utility.yul\":29453:29471   */\n      add\n        /* \"#utility.yul\":29445:29471   */\n      swap1\n      pop\n        /* \"#utility.yul\":29517:29526   */\n      dup2\n        /* \"#utility.yul\":29511:29515   */\n      dup2\n        /* \"#utility.yul\":29507:29527   */\n      sub\n        /* \"#utility.yul\":29503:29504   */\n      0x00\n        /* \"#utility.yul\":29492:29501   */\n      dup4\n        /* \"#utility.yul\":29488:29505   */\n      add\n        /* \"#utility.yul\":29481:29528   */\n      mstore\n        /* \"#utility.yul\":29545:29676   */\n      tag_630\n        /* \"#utility.yul\":29671:29675   */\n      dup2\n        /* \"#utility.yul\":29545:29676   */\n      tag_361\n      jump\t// in\n    tag_630:\n        /* \"#utility.yul\":29537:29676   */\n      swap1\n      pop\n        /* \"#utility.yul\":29264:29683   */\n      swap2\n      swap1\n      pop\n      jump\t// out\n        /* \"#utility.yul\":29689:30131   */\n    tag_207:\n        /* \"#utility.yul\":29838:29842   */\n      0x00\n        /* \"#utility.yul\":29876:29878   */\n      0x60\n        /* \"#utility.yul\":29865:29874   */\n      dup3\n        /* \"#utility.yul\":29861:29879   */\n      add\n        /* \"#utility.yul\":29853:29879   */\n      swap1\n      pop\n        /* \"#utility.yul\":29889:29960   */\n      tag_632\n        /* \"#utility.yul\":29957:29958   */\n      0x00\n        /* \"#utility.yul\":29946:29955   */\n      dup4\n        /* \"#utility.yul\":29942:29959   */\n      add\n        /* \"#utility.yul\":29933:29939   */\n      dup7\n        /* \"#utility.yul\":29889:29960   */\n      tag_327\n      jump\t// in\n    tag_632:\n        /* \"#utility.yul\":29970:30042   */\n      tag_633\n        /* \"#utility.yul\":30038:30040   */\n      0x20\n        /* \"#utility.yul\":30027:30036   */\n      dup4\n        /* \"#utility.yul\":30023:30041   */\n      add\n        /* \"#utility.yul\":30014:30020   */\n      dup6\n        /* \"#utility.yul\":29970:30042   */\n      tag_327\n      jump\t// in\n    tag_633:\n        /* \"#utility.yul\":30052:30124   */\n      tag_634\n        /* \"#utility.yul\":30120:30122   */\n      0x40\n        /* \"#utility.yul\":30109:30118   */\n      dup4\n        /* \"#utility.yul\":30105:30123   */\n      add\n        /* \"#utility.yul\":30096:30102   */\n      dup5\n        /* \"#utility.yul\":30052:30124   */\n      tag_315\n      jump\t// in\n    tag_634:\n        /* \"#utility.yul\":29689:30131   */\n      swap5\n      swap4\n      pop\n      pop\n      pop\n      pop\n      jump\t// out\n        /* \"#utility.yul\":30137:30328   */\n    tag_214:\n        /* \"#utility.yul\":30177:30180   */\n      0x00\n        /* \"#utility.yul\":30196:30216   */\n      tag_636\n        /* \"#utility.yul\":30214:30215   */\n      dup3\n        /* \"#utility.yul\":30196:30216   */\n      tag_305\n      jump\t// in\n    tag_636:\n        /* \"#utility.yul\":30191:30216   */\n      swap2\n      pop\n        /* \"#utility.yul\":30230:30250   */\n      tag_637\n        /* \"#utility.yul\":30248:30249   */\n      dup4\n        /* \"#utility.yul\":30230:30250   */\n      tag_305\n      jump\t// in\n    tag_637:\n        /* \"#utility.yul\":30225:30250   */\n      swap3\n      pop\n        /* \"#utility.yul\":30273:30274   */\n      dup3\n        /* \"#utility.yul\":30270:30271   */\n      dup3\n        /* \"#utility.yul\":30266:30275   */\n      add\n        /* \"#utility.yul\":30259:30275   */\n      swap1\n      pop\n        /* \"#utility.yul\":30294:30297   */\n      dup1\n        /* \"#utility.yul\":30291:30292   */\n      dup3\n        /* \"#utility.yul\":30288:30298   */\n      gt\n        /* \"#utility.yul\":30285:30321   */\n      iszero\n      tag_638\n      jumpi\n        /* \"#utility.yul\":30301:30319   */\n      tag_639\n      tag_337\n      jump\t// in\n    tag_639:\n        /* \"#utility.yul\":30285:30321   */\n    tag_638:\n        /* \"#utility.yul\":30137:30328   */\n      swap3\n      swap2\n      pop\n      pop\n      jump\t// out\n        /* \"#utility.yul\":30334:30626   */\n    tag_362:\n        /* \"#utility.yul\":30474:30508   */\n      0x747265617375727920646f7365206e6f74206861766520656e6f756768206675\n        /* \"#utility.yul\":30470:30471   */\n      0x00\n        /* \"#utility.yul\":30462:30468   */\n      dup3\n        /* \"#utility.yul\":30458:30472   */\n      add\n        /* \"#utility.yul\":30451:30509   */\n      mstore\n        /* \"#utility.yul\":30543:30577   */\n      0x6e647320746f207769746864726177207468652072657175657374656420616d\n        /* \"#utility.yul\":30538:30540   */\n      0x20\n        /* \"#utility.yul\":30530:30536   */\n      dup3\n        /* \"#utility.yul\":30526:30541   */\n      add\n        /* \"#utility.yul\":30519:30578   */\n      mstore\n        /* \"#utility.yul\":30612:30618   */\n      0x6f756e7400000000000000000000000000000000000000000000000000000000\n        /* \"#utility.yul\":30607:30609   */\n      0x40\n        /* \"#utility.yul\":30599:30605   */\n      dup3\n        /* \"#utility.yul\":30595:30610   */\n      add\n        /* \"#utility.yul\":30588:30619   */\n      mstore\n        /* \"#utility.yul\":30334:30626   */\n      pop\n      jump\t// out\n        /* \"#utility.yul\":30632:30998   */\n    tag_363:\n        /* \"#utility.yul\":30774:30777   */\n      0x00\n        /* \"#utility.yul\":30795:30862   */\n      tag_642\n        /* \"#utility.yul\":30859:30861   */\n      0x44\n        /* \"#utility.yul\":30854:30857   */\n      dup4\n        /* \"#utility.yul\":30795:30862   */\n      tag_332\n      jump\t// in\n    tag_642:\n        /* \"#utility.yul\":30788:30862   */\n      swap2\n      pop\n        /* \"#utility.yul\":30871:30964   */\n      tag_643\n        /* \"#utility.yul\":30960:30963   */\n      dup3\n        /* \"#utility.yul\":30871:30964   */\n      tag_362\n      jump\t// in\n    tag_643:\n        /* \"#utility.yul\":30989:30991   */\n      0x60\n        /* \"#utility.yul\":30984:30987   */\n      dup3\n        /* \"#utility.yul\":30980:30992   */\n      add\n        /* \"#utility.yul\":30973:30992   */\n      swap1\n      pop\n        /* \"#utility.yul\":30632:30998   */\n      swap2\n      swap1\n      pop\n      jump\t// out\n        /* \"#utility.yul\":31004:31423   */\n    tag_223:\n        /* \"#utility.yul\":31170:31174   */\n      0x00\n        /* \"#utility.yul\":31208:31210   */\n      0x20\n        /* \"#utility.yul\":31197:31206   */\n      dup3\n        /* \"#utility.yul\":31193:31211   */\n      add\n        /* \"#utility.yul\":31185:31211   */\n      swap1\n      pop\n        /* \"#utility.yul\":31257:31266   */\n      dup2\n        /* \"#utility.yul\":31251:31255   */\n      dup2\n        /* \"#utility.yul\":31247:31267   */\n      sub\n        /* \"#utility.yul\":31243:31244   */\n      0x00\n        /* \"#utility.yul\":31232:31241   */\n      dup4\n        /* \"#utility.yul\":31228:31245   */\n      add\n        /* \"#utility.yul\":31221:31268   */\n      mstore\n        /* \"#utility.yul\":31285:31416   */\n      tag_645\n        /* \"#utility.yul\":31411:31415   */\n      dup2\n        /* \"#utility.yul\":31285:31416   */\n      tag_363\n      jump\t// in\n    tag_645:\n        /* \"#utility.yul\":31277:31416   */\n      swap1\n      pop\n        /* \"#utility.yul\":31004:31423   */\n      swap2\n      swap1\n      pop\n      jump\t// out\n        /* \"#utility.yul\":31429:31982   */\n    tag_232:\n        /* \"#utility.yul\":31606:31610   */\n      0x00\n        /* \"#utility.yul\":31644:31647   */\n      0x80\n        /* \"#utility.yul\":31633:31642   */\n      dup3\n        /* \"#utility.yul\":31629:31648   */\n      add\n        /* \"#utility.yul\":31621:31648   */\n      swap1\n      pop\n        /* \"#utility.yul\":31658:31729   */\n      tag_647\n        /* \"#utility.yul\":31726:31727   */\n      0x00\n        /* \"#utility.yul\":31715:31724   */\n      dup4\n        /* \"#utility.yul\":31711:31728   */\n      add\n        /* \"#utility.yul\":31702:31708   */\n      dup8\n        /* \"#utility.yul\":31658:31729   */\n      tag_327\n      jump\t// in\n    tag_647:\n        /* \"#utility.yul\":31739:31811   */\n      tag_648\n        /* \"#utility.yul\":31807:31809   */\n      0x20\n        /* \"#utility.yul\":31796:31805   */\n      dup4\n        /* \"#utility.yul\":31792:31810   */\n      add\n        /* \"#utility.yul\":31783:31789   */\n      dup7\n        /* \"#utility.yul\":31739:31811   */\n      tag_327\n      jump\t// in\n    tag_648:\n        /* \"#utility.yul\":31821:31893   */\n      tag_649\n        /* \"#utility.yul\":31889:31891   */\n      0x40\n        /* \"#utility.yul\":31878:31887   */\n      dup4\n        /* \"#utility.yul\":31874:31892   */\n      add\n        /* \"#utility.yul\":31865:31871   */\n      dup6\n        /* \"#utility.yul\":31821:31893   */\n      tag_315\n      jump\t// in\n    tag_649:\n        /* \"#utility.yul\":31903:31975   */\n      tag_650\n        /* \"#utility.yul\":31971:31973   */\n      0x60\n        /* \"#utility.yul\":31960:31969   */\n      dup4\n        /* \"#utility.yul\":31956:31974   */\n      add\n        /* \"#utility.yul\":31947:31953   */\n      dup5\n        /* \"#utility.yul\":31903:31975   */\n      tag_315\n      jump\t// in\n    tag_650:\n        /* \"#utility.yul\":31429:31982   */\n      swap6\n      swap5\n      pop\n      pop\n      pop\n      pop\n      pop\n      jump\t// out\n        /* \"#utility.yul\":31988:32221   */\n    tag_364:\n        /* \"#utility.yul\":32128:32162   */\n      0x766964656f494420697320616c726561647920696e207573652c20696e736572\n        /* \"#utility.yul\":32124:32125   */\n      0x00\n        /* \"#utility.yul\":32116:32122   */\n      dup3\n        /* \"#utility.yul\":32112:32126   */\n      add\n        /* \"#utility.yul\":32105:32163   */\n      mstore\n        /* \"#utility.yul\":32197:32213   */\n      0x7420616e20756e69717565204944000000000000000000000000000000000000\n        /* \"#utility.yul\":32192:32194   */\n      0x20\n        /* \"#utility.yul\":32184:32190   */\n      dup3\n        /* \"#utility.yul\":32180:32195   */\n      add\n        /* \"#utility.yul\":32173:32214   */\n      mstore\n        /* \"#utility.yul\":31988:32221   */\n      pop\n      jump\t// out\n        /* \"#utility.yul\":32227:32593   */\n    tag_365:\n        /* \"#utility.yul\":32369:32372   */\n      0x00\n        /* \"#utility.yul\":32390:32457   */\n      tag_653\n        /* \"#utility.yul\":32454:32456   */\n      0x2e\n        /* \"#utility.yul\":32449:32452   */\n      dup4\n        /* \"#utility.yul\":32390:32457   */\n      tag_332\n      jump\t// in\n    tag_653:\n        /* \"#utility.yul\":32383:32457   */\n      swap2\n      pop\n        /* \"#utility.yul\":32466:32559   */\n      tag_654\n        /* \"#utility.yul\":32555:32558   */\n      dup3\n        /* \"#utility.yul\":32466:32559   */\n      tag_364\n      jump\t// in\n    tag_654:\n        /* \"#utility.yul\":32584:32586   */\n      0x40\n        /* \"#utility.yul\":32579:32582   */\n      dup3\n        /* \"#utility.yul\":32575:32587   */\n      add\n        /* \"#utility.yul\":32568:32587   */\n      swap1\n      pop\n        /* \"#utility.yul\":32227:32593   */\n      swap2\n      swap1\n      pop\n      jump\t// out\n        /* \"#utility.yul\":32599:33018   */\n    tag_236:\n        /* \"#utility.yul\":32765:32769   */\n      0x00\n        /* \"#utility.yul\":32803:32805   */\n      0x20\n        /* \"#utility.yul\":32792:32801   */\n      dup3\n        /* \"#utility.yul\":32788:32806   */\n      add\n        /* \"#utility.yul\":32780:32806   */\n      swap1\n      pop\n        /* \"#utility.yul\":32852:32861   */\n      dup2\n        /* \"#utility.yul\":32846:32850   */\n      dup2\n        /* \"#utility.yul\":32842:32862   */\n      sub\n        /* \"#utility.yul\":32838:32839   */\n      0x00\n        /* \"#utility.yul\":32827:32836   */\n      dup4\n        /* \"#utility.yul\":32823:32840   */\n      add\n        /* \"#utility.yul\":32816:32863   */\n      mstore\n        /* \"#utility.yul\":32880:33011   */\n      tag_656\n        /* \"#utility.yul\":33006:33010   */\n      dup2\n        /* \"#utility.yul\":32880:33011   */\n      tag_365\n      jump\t// in\n    tag_656:\n        /* \"#utility.yul\":32872:33011   */\n      swap1\n      pop\n        /* \"#utility.yul\":32599:33018   */\n      swap2\n      swap1\n      pop\n      jump\t// out\n        /* \"#utility.yul\":33024:33434   */\n    tag_247:\n        /* \"#utility.yul\":33064:33071   */\n      0x00\n        /* \"#utility.yul\":33087:33107   */\n      tag_658\n        /* \"#utility.yul\":33105:33106   */\n      dup3\n        /* \"#utility.yul\":33087:33107   */\n      tag_305\n      jump\t// in\n    tag_658:\n        /* \"#utility.yul\":33082:33107   */\n      swap2\n      pop\n        /* \"#utility.yul\":33121:33141   */\n      tag_659\n        /* \"#utility.yul\":33139:33140   */\n      dup4\n        /* \"#utility.yul\":33121:33141   */\n      tag_305\n      jump\t// in\n    tag_659:\n        /* \"#utility.yul\":33116:33141   */\n      swap3\n      pop\n        /* \"#utility.yul\":33176:33177   */\n      dup3\n        /* \"#utility.yul\":33173:33174   */\n      dup3\n        /* \"#utility.yul\":33169:33178   */\n      mul\n        /* \"#utility.yul\":33198:33228   */\n      tag_660\n        /* \"#utility.yul\":33216:33227   */\n      dup2\n        /* \"#utility.yul\":33198:33228   */\n      tag_305\n      jump\t// in\n    tag_660:\n        /* \"#utility.yul\":33187:33228   */\n      swap2\n      pop\n        /* \"#utility.yul\":33377:33378   */\n      dup3\n        /* \"#utility.yul\":33368:33375   */\n      dup3\n        /* \"#utility.yul\":33364:33379   */\n      div\n        /* \"#utility.yul\":33361:33362   */\n      dup5\n        /* \"#utility.yul\":33358:33380   */\n      eq\n        /* \"#utility.yul\":33338:33339   */\n      dup4\n        /* \"#utility.yul\":33331:33340   */\n      iszero\n        /* \"#utility.yul\":33311:33394   */\n      or\n        /* \"#utility.yul\":33288:33427   */\n      tag_661\n      jumpi\n        /* \"#utility.yul\":33407:33425   */\n      tag_662\n      tag_337\n      jump\t// in\n    tag_662:\n        /* \"#utility.yul\":33288:33427   */\n    tag_661:\n        /* \"#utility.yul\":33072:33434   */\n      pop\n        /* \"#utility.yul\":33024:33434   */\n      swap3\n      swap2\n      pop\n      pop\n      jump\t// out\n        /* \"#utility.yul\":33440:34104   */\n    tag_254:\n        /* \"#utility.yul\":33645:33649   */\n      0x00\n        /* \"#utility.yul\":33683:33686   */\n      0xa0\n        /* \"#utility.yul\":33672:33681   */\n      dup3\n        /* \"#utility.yul\":33668:33687   */\n      add\n        /* \"#utility.yul\":33660:33687   */\n      swap1\n      pop\n        /* \"#utility.yul\":33697:33768   */\n      tag_664\n        /* \"#utility.yul\":33765:33766   */\n      0x00\n        /* \"#utility.yul\":33754:33763   */\n      dup4\n        /* \"#utility.yul\":33750:33767   */\n      add\n        /* \"#utility.yul\":33741:33747   */\n      dup9\n        /* \"#utility.yul\":33697:33768   */\n      tag_315\n      jump\t// in\n    tag_664:\n        /* \"#utility.yul\":33778:33850   */\n      tag_665\n        /* \"#utility.yul\":33846:33848   */\n      0x20\n        /* \"#utility.yul\":33835:33844   */\n      dup4\n        /* \"#utility.yul\":33831:33849   */\n      add\n        /* \"#utility.yul\":33822:33828   */\n      dup8\n        /* \"#utility.yul\":33778:33850   */\n      tag_327\n      jump\t// in\n    tag_665:\n        /* \"#utility.yul\":33860:33932   */\n      tag_666\n        /* \"#utility.yul\":33928:33930   */\n      0x40\n        /* \"#utility.yul\":33917:33926   */\n      dup4\n        /* \"#utility.yul\":33913:33931   */\n      add\n        /* \"#utility.yul\":33904:33910   */\n      dup7\n        /* \"#utility.yul\":33860:33932   */\n      tag_315\n      jump\t// in\n    tag_666:\n        /* \"#utility.yul\":33942:34014   */\n      tag_667\n        /* \"#utility.yul\":34010:34012   */\n      0x60\n        /* \"#utility.yul\":33999:34008   */\n      dup4\n        /* \"#utility.yul\":33995:34013   */\n      add\n        /* \"#utility.yul\":33986:33992   */\n      dup6\n        /* \"#utility.yul\":33942:34014   */\n      tag_315\n      jump\t// in\n    tag_667:\n        /* \"#utility.yul\":34024:34097   */\n      tag_668\n        /* \"#utility.yul\":34092:34095   */\n      0x80\n        /* \"#utility.yul\":34081:34090   */\n      dup4\n        /* \"#utility.yul\":34077:34096   */\n      add\n        /* \"#utility.yul\":34068:34074   */\n      dup5\n        /* \"#utility.yul\":34024:34097   */\n      tag_315\n      jump\t// in\n    tag_668:\n        /* \"#utility.yul\":33440:34104   */\n      swap7\n      swap6\n      pop\n      pop\n      pop\n      pop\n      pop\n      pop\n      jump\t// out\n        /* \"#utility.yul\":34110:34280   */\n    tag_366:\n        /* \"#utility.yul\":34250:34272   */\n      0x7661756c7420646f6573206e6f74206578697374000000000000000000000000\n        /* \"#utility.yul\":34246:34247   */\n      0x00\n        /* \"#utility.yul\":34238:34244   */\n      dup3\n        /* \"#utility.yul\":34234:34248   */\n      add\n        /* \"#utility.yul\":34227:34273   */\n      mstore\n        /* \"#utility.yul\":34110:34280   */\n      pop\n      jump\t// out\n        /* \"#utility.yul\":34286:34652   */\n    tag_367:\n        /* \"#utility.yul\":34428:34431   */\n      0x00\n        /* \"#utility.yul\":34449:34516   */\n      tag_671\n        /* \"#utility.yul\":34513:34515   */\n      0x14\n        /* \"#utility.yul\":34508:34511   */\n      dup4\n        /* \"#utility.yul\":34449:34516   */\n      tag_332\n      jump\t// in\n    tag_671:\n        /* \"#utility.yul\":34442:34516   */\n      swap2\n      pop\n        /* \"#utility.yul\":34525:34618   */\n      tag_672\n        /* \"#utility.yul\":34614:34617   */\n      dup3\n        /* \"#utility.yul\":34525:34618   */\n      tag_366\n      jump\t// in\n    tag_672:\n        /* \"#utility.yul\":34643:34645   */\n      0x20\n        /* \"#utility.yul\":34638:34641   */\n      dup3\n        /* \"#utility.yul\":34634:34646   */\n      add\n        /* \"#utility.yul\":34627:34646   */\n      swap1\n      pop\n        /* \"#utility.yul\":34286:34652   */\n      swap2\n      swap1\n      pop\n      jump\t// out\n        /* \"#utility.yul\":34658:35077   */\n    tag_281:\n        /* \"#utility.yul\":34824:34828   */\n      0x00\n        /* \"#utility.yul\":34862:34864   */\n      0x20\n        /* \"#utility.yul\":34851:34860   */\n      dup3\n        /* \"#utility.yul\":34847:34865   */\n      add\n        /* \"#utility.yul\":34839:34865   */\n      swap1\n      pop\n        /* \"#utility.yul\":34911:34920   */\n      dup2\n        /* \"#utility.yul\":34905:34909   */\n      dup2\n        /* \"#utility.yul\":34901:34921   */\n      sub\n        /* \"#utility.yul\":34897:34898   */\n      0x00\n        /* \"#utility.yul\":34886:34895   */\n      dup4\n        /* \"#utility.yul\":34882:34899   */\n      add\n        /* \"#utility.yul\":34875:34922   */\n      mstore\n        /* \"#utility.yul\":34939:35070   */\n      tag_674\n        /* \"#utility.yul\":35065:35069   */\n      dup2\n        /* \"#utility.yul\":34939:35070   */\n      tag_367\n      jump\t// in\n    tag_674:\n        /* \"#utility.yul\":34931:35070   */\n      swap1\n      pop\n        /* \"#utility.yul\":34658:35077   */\n      swap2\n      swap1\n      pop\n      jump\t// out\n        /* \"#utility.yul\":35083:35314   */\n    tag_368:\n        /* \"#utility.yul\":35223:35257   */\n      0x7661756c7420646f6573206e6f74206861766520656e6f7567682066756e6473\n        /* \"#utility.yul\":35219:35220   */\n      0x00\n        /* \"#utility.yul\":35211:35217   */\n      dup3\n        /* \"#utility.yul\":35207:35221   */\n      add\n        /* \"#utility.yul\":35200:35258   */\n      mstore\n        /* \"#utility.yul\":35292:35306   */\n      0x20746f2077697468647261770000000000000000000000000000000000000000\n        /* \"#utility.yul\":35287:35289   */\n      0x20\n        /* \"#utility.yul\":35279:35285   */\n      dup3\n        /* \"#utility.yul\":35275:35290   */\n      add\n        /* \"#utility.yul\":35268:35307   */\n      mstore\n        /* \"#utility.yul\":35083:35314   */\n      pop\n      jump\t// out\n        /* \"#utility.yul\":35320:35686   */\n    tag_369:\n        /* \"#utility.yul\":35462:35465   */\n      0x00\n        /* \"#utility.yul\":35483:35550   */\n      tag_677\n        /* \"#utility.yul\":35547:35549   */\n      0x2c\n        /* \"#utility.yul\":35542:35545   */\n      dup4\n        /* \"#utility.yul\":35483:35550   */\n      tag_332\n      jump\t// in\n    tag_677:\n        /* \"#utility.yul\":35476:35550   */\n      swap2\n      pop\n        /* \"#utility.yul\":35559:35652   */\n      tag_678\n        /* \"#utility.yul\":35648:35651   */\n      dup3\n        /* \"#utility.yul\":35559:35652   */\n      tag_368\n      jump\t// in\n    tag_678:\n        /* \"#utility.yul\":35677:35679   */\n      0x40\n        /* \"#utility.yul\":35672:35675   */\n      dup3\n        /* \"#utility.yul\":35668:35680   */\n      add\n        /* \"#utility.yul\":35661:35680   */\n      swap1\n      pop\n        /* \"#utility.yul\":35320:35686   */\n      swap2\n      swap1\n      pop\n      jump\t// out\n        /* \"#utility.yul\":35692:36111   */\n    tag_284:\n        /* \"#utility.yul\":35858:35862   */\n      0x00\n        /* \"#utility.yul\":35896:35898   */\n      0x20\n        /* \"#utility.yul\":35885:35894   */\n      dup3\n        /* \"#utility.yul\":35881:35899   */\n      add\n        /* \"#utility.yul\":35873:35899   */\n      swap1\n      pop\n        /* \"#utility.yul\":35945:35954   */\n      dup2\n        /* \"#utility.yul\":35939:35943   */\n      dup2\n        /* \"#utility.yul\":35935:35955   */\n      sub\n        /* \"#utility.yul\":35931:35932   */\n      0x00\n        /* \"#utility.yul\":35920:35929   */\n      dup4\n        /* \"#utility.yul\":35916:35933   */\n      add\n        /* \"#utility.yul\":35909:35956   */\n      mstore\n        /* \"#utility.yul\":35973:36104   */\n      tag_680\n        /* \"#utility.yul\":36099:36103   */\n      dup2\n        /* \"#utility.yul\":35973:36104   */\n      tag_369\n      jump\t// in\n    tag_680:\n        /* \"#utility.yul\":35965:36104   */\n      swap1\n      pop\n        /* \"#utility.yul\":35692:36111   */\n      swap2\n      swap1\n      pop\n      jump\t// out\n\n    auxdata: 0xa2646970667358221220e89e3ecd036266889ebdf1f26f6dc5d2a93e92de362bdc5447206b0f00e17d7764736f6c63430008110033\n}\n",
				"bytecode": {
					"linkReferences": {},
					"object": "608060405234801561001057600080fd5b50336000806101000a81548173ffffffffffffffffffffffffffffffffffffffff021916908373ffffffffffffffffffffffffffffffffffffffff160217905550732791bca1f2de4661ed88a30c99a7a9449aa84174600260006101000a81548173ffffffffffffffffffffffffffffffffffffffff021916908373ffffffffffffffffffffffffffffffffffffffff160217905550613861806100b56000396000f3fe608060405234801561001057600080fd5b50600436106101165760003560e01c8063ab40d83a116100a2578063cb7b7bce11610071578063cb7b7bce146102d0578063cc0d93be146102ec578063d864ddf714610320578063f0350c041461033c578063fd01ec6d1461035857610116565b8063ab40d83a1461025e578063aea62e3f1461027c578063b6b55f2514610298578063c49bfdca146102b457610116565b806361d027b3116100e957806361d027b3146101a157806363a846f8146101bf57806381a36fb6146101ef5780638da5cb5b146102225780639d76ea581461024057610116565b806305d955f41461011b5780632314c2a2146101375780632e1a7d4d146101695780633a49138114610185575b600080fd5b61013560048036038101906101309190612551565b610374565b005b610151600480360381019061014c9190612616565b610903565b60405161016093929190612710565b60405180910390f35b610183600480360381019061017e919061274e565b610a2f565b005b61019f600480360381019061019a91906127b3565b610cba565b005b6101a9610da3565b6040516101b691906127f3565b60405180910390f35b6101d960048036038101906101d49190612616565b610da9565b6040516101e6919061281d565b60405180910390f35b6102096004803603810190610204919061274e565b610dc9565b6040516102199493929190612847565b60405180910390f35b61022a610e19565b604051610237919061288c565b60405180910390f35b610248610e3d565b604051610255919061288c565b60405180910390f35b610266610e55565b60405161027391906127f3565b60405180910390f35b6102966004803603810190610291919061290c565b610e5d565b005b6102b260048036038101906102ad919061274e565b610feb565b005b6102ce60048036038101906102c9919061298d565b611325565b005b6102ea60048036038101906102e591906129cd565b611588565b005b6103066004803603810190610301919061274e565b6119db565b604051610317959493929190612a34565b60405180910390f35b61033a6004803603810190610335919061274e565b611a8b565b005b61035660048036038101906103519190612616565b611e8d565b005b610372600480360381019061036d9190612a87565b611f5e565b005b6000600460008681526020019081526020016000206040518060800160405290816000820160009054906101000a900473ffffffffffffffffffffffffffffffffffffffff1673ffffffffffffffffffffffffffffffffffffffff1673ffffffffffffffffffffffffffffffffffffffff168152602001600182015481526020016002820154815260200160038201548152505090503373ffffffffffffffffffffffffffffffffffffffff16816000015173ffffffffffffffffffffffffffffffffffffffff161461047c576040517f08c379a000000000000000000000000000000000000000000000000000000000815260040161047390612b4a565b60405180910390fd5b428160200151106104c2576040517f08c379a00000000000000000000000000000000000000000000000000000000081526004016104b990612bb6565b60405180910390fd5b6000821461054d5742603c836104d89190612c05565b82602001516104e79190612c7d565b13610527576040517f08c379a000000000000000000000000000000000000000000000000000000000815260040161051e90612d33565b60405180910390fd5b603c826105349190612c05565b81602001516105439190612c7d565b8160200181815250505b600083146105d9576000603c846105649190612c05565b82604001516105739190612c7d565b136105b3576040517f08c379a00000000000000000000000000000000000000000000000000000000081526004016105aa90612dc5565b60405180910390fd5b603c836105c09190612c05565b81604001516105cf9190612c7d565b8160400181815250505b60008414610833576000600360003373ffffffffffffffffffffffffffffffffffffffff1673ffffffffffffffffffffffffffffffffffffffff16815260200190815260200160002060405180606001604052908160008201548152602001600182015481526020016002820180548060200260200160405190810160405280929190818152602001828054801561069057602002820191906000526020600020905b81548152602001906001019080831161067c575b505050505081525050905084816000015112156106e2576040517f08c379a00000000000000000000000000000000000000000000000000000000081526004016106d990612e57565b60405180910390fd5b60008583606001516106f49190612c7d565b1215610735576040517f08c379a000000000000000000000000000000000000000000000000000000000815260040161072c90612ee9565b60405180910390fd5b8481600001516107459190612f09565b81600001818152505084816020015161075e9190612c7d565b8160200181815250508482606001516107779190612c7d565b82606001818152505080600360003373ffffffffffffffffffffffffffffffffffffffff1673ffffffffffffffffffffffffffffffffffffffff168152602001908152602001600020600082015181600001556020820151816001015560408201518160020190805190602001906107f0929190612433565b509050507fca3824b7e6e1648f24d80bb94c0549cd029b4e985db70a77cc71332e52cd1611338260000151604051610829929190612f4c565b60405180910390a1505b806004600087815260200190815260200160002060008201518160000160006101000a81548173ffffffffffffffffffffffffffffffffffffffff021916908373ffffffffffffffffffffffffffffffffffffffff1602179055506020820151816001015560408201518160020155606082015181600301559050507f3c6a380e7dfff0ffb6efe4e395ed2b4456ea50ec4a9650a5fecff8aa2a6f40f285826060015183602001516108e4896123f2565b6040516108f49493929190612f75565b60405180910390a15050505050565b6000806060600360008573ffffffffffffffffffffffffffffffffffffffff1673ffffffffffffffffffffffffffffffffffffffff16815260200190815260200160002060000154600360008673ffffffffffffffffffffffffffffffffffffffff1673ffffffffffffffffffffffffffffffffffffffff16815260200190815260200160002060010154600360008773ffffffffffffffffffffffffffffffffffffffff1673ffffffffffffffffffffffffffffffffffffffff16815260200190815260200160002060020180805480602002602001604051908101604052809291908181526020018280548015610a1b57602002820191906000526020600020905b815481526020019060010190808311610a07575b505050505090509250925092509193909250565b6000600360003373ffffffffffffffffffffffffffffffffffffffff1673ffffffffffffffffffffffffffffffffffffffff168152602001908152602001600020604051806060016040529081600082015481526020016001820154815260200160028201805480602002602001604051908101604052809291908181526020018280548015610ade57602002820191906000526020600020905b815481526020019060010190808311610aca575b50505050508152505090508060000151821115610b30576040517f08c379a0000000000000000000000000000000000000000000000000000000008152600401610b279061302c565b60405180910390fd5b8181600001818151610b42919061304c565b915081815250508060000151600360003373ffffffffffffffffffffffffffffffffffffffff1673ffffffffffffffffffffffffffffffffffffffff168152602001908152602001600020600001819055506000600260009054906101000a900473ffffffffffffffffffffffffffffffffffffffff1673ffffffffffffffffffffffffffffffffffffffff1663a9059cbb33856040518363ffffffff1660e01b8152600401610bf3929190612f4c565b6020604051808303816000875af1158015610c12573d6000803e3d6000fd5b505050506040513d601f19601f82011682018060405250810190610c369190613095565b905080610c78576040517f08c379a0000000000000000000000000000000000000000000000000000000008152600401610c6f9061310e565b60405180910390fd5b7fca3824b7e6e1648f24d80bb94c0549cd029b4e985db70a77cc71332e52cd1611338360000151604051610cad929190612f4c565b60405180910390a1505050565b60008054906101000a900473ffffffffffffffffffffffffffffffffffffffff1673ffffffffffffffffffffffffffffffffffffffff163373ffffffffffffffffffffffffffffffffffffffff1614610d48576040517f08c379a0000000000000000000000000000000000000000000000000000000008152600401610d3f9061317a565b60405180910390fd5b80600160008473ffffffffffffffffffffffffffffffffffffffff1673ffffffffffffffffffffffffffffffffffffffff16815260200190815260200160002060006101000a81548160ff0219169083151502179055505050565b60055481565b60016020528060005260406000206000915054906101000a900460ff1681565b60046020528060005260406000206000915090508060000160009054906101000a900473ffffffffffffffffffffffffffffffffffffffff16908060010154908060020154908060030154905084565b60008054906101000a900473ffffffffffffffffffffffffffffffffffffffff1681565b732791bca1f2de4661ed88a30c99a7a9449aa8417481565b600042905090565b600160003373ffffffffffffffffffffffffffffffffffffffff1673ffffffffffffffffffffffffffffffffffffffff16815260200190815260200160002060009054906101000a900460ff1680610f00575060008054906101000a900473ffffffffffffffffffffffffffffffffffffffff1673ffffffffffffffffffffffffffffffffffffffff163373ffffffffffffffffffffffffffffffffffffffff16145b610f3f576040517f08c379a0000000000000000000000000000000000000000000000000000000008152600401610f369061320c565b60405180910390fd5b818190508484905014610f87576040517f08c379a0000000000000000000000000000000000000000000000000000000008152600401610f7e90613278565b60405180910390fd5b60005b82829050811015610fe457610fd1858583818110610fab57610faa613298565b5b90506020020135848484818110610fc557610fc4613298565b5b90506020020135611f5e565b8080610fdc906132c7565b915050610f8a565b5050505050565b80600260009054906101000a900473ffffffffffffffffffffffffffffffffffffffff1673ffffffffffffffffffffffffffffffffffffffff1663dd62ed3e33306040518363ffffffff1660e01b815260040161104992919061330f565b602060405180830381865afa158015611066573d6000803e3d6000fd5b505050506040513d601f19601f8201168201806040525081019061108a919061334d565b10156110cb576040517f08c379a00000000000000000000000000000000000000000000000000000000081526004016110c2906133ec565b60405180910390fd5b80600260009054906101000a900473ffffffffffffffffffffffffffffffffffffffff1673ffffffffffffffffffffffffffffffffffffffff166370a08231336040518263ffffffff1660e01b8152600401611127919061288c565b602060405180830381865afa158015611144573d6000803e3d6000fd5b505050506040513d601f19601f82011682018060405250810190611168919061334d565b10156111a9576040517f08c379a00000000000000000000000000000000000000000000000000000000081526004016111a09061347e565b60405180910390fd5b6000600260009054906101000a900473ffffffffffffffffffffffffffffffffffffffff1673ffffffffffffffffffffffffffffffffffffffff166323b872dd3330856040518463ffffffff1660e01b815260040161120a9392919061349e565b6020604051808303816000875af1158015611229573d6000803e3d6000fd5b505050506040513d601f19601f8201168201806040525081019061124d9190613095565b90508061128f576040517f08c379a00000000000000000000000000000000000000000000000000000000081526004016112869061310e565b60405180910390fd5b81600360003373ffffffffffffffffffffffffffffffffffffffff1673ffffffffffffffffffffffffffffffffffffffff16815260200190815260200160002060000160008282546112e191906134d5565b925050819055507fca3824b7e6e1648f24d80bb94c0549cd029b4e985db70a77cc71332e52cd16113383604051611319929190612f4c565b60405180910390a15050565b600160003373ffffffffffffffffffffffffffffffffffffffff1673ffffffffffffffffffffffffffffffffffffffff16815260200190815260200160002060009054906101000a900460ff16806113c8575060008054906101000a900473ffffffffffffffffffffffffffffffffffffffff1673ffffffffffffffffffffffffffffffffffffffff163373ffffffffffffffffffffffffffffffffffffffff16145b611407576040517f08c379a00000000000000000000000000000000000000000000000000000000081526004016113fe9061320c565b60405180910390fd5b60055481111561144c576040517f08c379a0000000000000000000000000000000000000000000000000000000008152600401611443906135a1565b60405180910390fd5b8060055461145a919061304c565b6005819055506000600260009054906101000a900473ffffffffffffffffffffffffffffffffffffffff1673ffffffffffffffffffffffffffffffffffffffff1663a9059cbb84846040518363ffffffff1660e01b81526004016114bf929190612f4c565b6020604051808303816000875af11580156114de573d6000803e3d6000fd5b505050506040513d601f19601f820116820180604052508101906115029190613095565b905080611544576040517f08c379a000000000000000000000000000000000000000000000000000000000815260040161153b9061310e565b60405180910390fd5b7f52e5f0b0966b7ddae6eb81cf661f808d26cbb035da15d32e70926d514f8d8c3433848460055460405161157b94939291906135c1565b60405180910390a1505050565b600073ffffffffffffffffffffffffffffffffffffffff166004600086815260200190815260200160002060000160009054906101000a900473ffffffffffffffffffffffffffffffffffffffff1673ffffffffffffffffffffffffffffffffffffffff161461162d576040517f08c379a000000000000000000000000000000000000000000000000000000000815260040161162490613678565b60405180910390fd5b611635612480565b6000600360003373ffffffffffffffffffffffffffffffffffffffff1673ffffffffffffffffffffffffffffffffffffffff1681526020019081526020016000206040518060600160405290816000820154815260200160018201548152602001600282018054806020026020016040519081016040528092919081815260200182805480156116e457602002820191906000526020600020905b8154815260200190600101908083116116d0575b50505050508152505090508281600001511015611736576040517f08c379a000000000000000000000000000000000000000000000000000000000815260040161172d90612e57565b60405180910390fd5b8281600001818151611748919061304c565b91508181525050828160200181815161176191906134d5565b915081815250508282606001818152505033826000019073ffffffffffffffffffffffffffffffffffffffff16908173ffffffffffffffffffffffffffffffffffffffff168152505084826020018181525050610258826020018181516117c8919061304c565b91508181525050610258603c856117df9190613698565b6117e991906134d5565b82604001818152505080600360003373ffffffffffffffffffffffffffffffffffffffff1673ffffffffffffffffffffffffffffffffffffffff16815260200190815260200160002060008201518160000155602082015181600101556040820151816002019080519060200190611862929190612433565b50905050600360003373ffffffffffffffffffffffffffffffffffffffff1673ffffffffffffffffffffffffffffffffffffffff168152602001908152602001600020600201869080600181540180825580915050600190039060005260206000200160009091909190915055816004600088815260200190815260200160002060008201518160000160006101000a81548173ffffffffffffffffffffffffffffffffffffffff021916908373ffffffffffffffffffffffffffffffffffffffff1602179055506020820151816001015560408201518160020155606082015181600301559050507fca3824b7e6e1648f24d80bb94c0549cd029b4e985db70a77cc71332e52cd1611338260000151604051611980929190612f4c565b60405180910390a17fcf2318af0c0c130d221f4e0c108e3216e19dd0fa2246b660e9cdec57a056fcb08633856119b58a6123f2565b86602001516040516119cb9594939291906136da565b60405180910390a1505050505050565b60008060008060006119ec866123f2565b91506004600087815260200190815260200160002060000160009054906101000a900473ffffffffffffffffffffffffffffffffffffffff16600460008881526020019081526020016000206003015460046000898152602001908152602001600020600101548442600460008c815260200190815260200160002060010154108015611a7857508542105b9450945094509450945091939590929450565b6000600460008381526020019081526020016000206040518060800160405290816000820160009054906101000a900473ffffffffffffffffffffffffffffffffffffffff1673ffffffffffffffffffffffffffffffffffffffff1673ffffffffffffffffffffffffffffffffffffffff168152602001600182015481526020016002820154815260200160038201548152505090503373ffffffffffffffffffffffffffffffffffffffff16816000015173ffffffffffffffffffffffffffffffffffffffff1614611b93576040517f08c379a0000000000000000000000000000000000000000000000000000000008152600401611b8a90612b4a565b60405180910390fd5b42816020015111611bd9576040517f08c379a0000000000000000000000000000000000000000000000000000000008152600401611bd090612bb6565b60405180910390fd5b6000600360003373ffffffffffffffffffffffffffffffffffffffff1673ffffffffffffffffffffffffffffffffffffffff168152602001908152602001600020604051806060016040529081600082015481526020016001820154815260200160028201805480602002602001604051908101604052809291908181526020018280548015611c8857602002820191906000526020600020905b815481526020019060010190808311611c74575b5050505050815250509050816060015181602001818151611ca9919061304c565b91508181525050816060015181600001818151611cc691906134d5565b915081815250506000826060018181525050731111111111111111111111111111111111111111826000019073ffffffffffffffffffffffffffffffffffffffff16908173ffffffffffffffffffffffffffffffffffffffff168152505080600360003373ffffffffffffffffffffffffffffffffffffffff1673ffffffffffffffffffffffffffffffffffffffff16815260200190815260200160002060008201518160000155602082015181600101556040820151816002019080519060200190611d94929190612433565b50905050816004600085815260200190815260200160002060008201518160000160006101000a81548173ffffffffffffffffffffffffffffffffffffffff021916908373ffffffffffffffffffffffffffffffffffffffff1602179055506020820151816001015560408201518160020155606082015181600301559050507f3c40ea31b27b76cc19d7289ff39fe49d0d2c54b6f2e71277dcc572f0a049281983604051611e4391906127f3565b60405180910390a17fca3824b7e6e1648f24d80bb94c0549cd029b4e985db70a77cc71332e52cd1611338260000151604051611e80929190612f4c565b60405180910390a1505050565b60008054906101000a900473ffffffffffffffffffffffffffffffffffffffff1673ffffffffffffffffffffffffffffffffffffffff163373ffffffffffffffffffffffffffffffffffffffff1614611f1b576040517f08c379a0000000000000000000000000000000000000000000000000000000008152600401611f129061317a565b60405180910390fd5b806000806101000a81548173ffffffffffffffffffffffffffffffffffffffff021916908373ffffffffffffffffffffffffffffffffffffffff16021790555050565b600160003373ffffffffffffffffffffffffffffffffffffffff1673ffffffffffffffffffffffffffffffffffffffff16815260200190815260200160002060009054906101000a900460ff1680612001575060008054906101000a900473ffffffffffffffffffffffffffffffffffffffff1673ffffffffffffffffffffffffffffffffffffffff163373ffffffffffffffffffffffffffffffffffffffff16145b612040576040517f08c379a00000000000000000000000000000000000000000000000000000000081526004016120379061320c565b60405180910390fd5b6000600460008481526020019081526020016000206040518060800160405290816000820160009054906101000a900473ffffffffffffffffffffffffffffffffffffffff1673ffffffffffffffffffffffffffffffffffffffff1673ffffffffffffffffffffffffffffffffffffffff16815260200160018201548152602001600282015481526020016003820154815250509050600073ffffffffffffffffffffffffffffffffffffffff16816000015173ffffffffffffffffffffffffffffffffffffffff1603612149576040517f08c379a000000000000000000000000000000000000000000000000000000000815260040161214090613779565b60405180910390fd5b8181606001511015612190576040517f08c379a00000000000000000000000000000000000000000000000000000000081526004016121879061380b565b60405180910390fd5b600060036000836000015173ffffffffffffffffffffffffffffffffffffffff1673ffffffffffffffffffffffffffffffffffffffff16815260200190815260200160002060405180606001604052908160008201548152602001600182015481526020016002820180548060200260200160405190810160405280929190818152602001828054801561224357602002820191906000526020600020905b81548152602001906001019080831161222f575b5050505050815250509050816060015181602001818151612264919061304c565b9150818152505082826060015161227b919061304c565b8160000181815161228c91906134d5565b915081815250506000826060018181525050816004600086815260200190815260200160002060008201518160000160006101000a81548173ffffffffffffffffffffffffffffffffffffffff021916908373ffffffffffffffffffffffffffffffffffffffff1602179055506020820151816001015560408201518160020155606082015181600301559050508060036000846000015173ffffffffffffffffffffffffffffffffffffffff1673ffffffffffffffffffffffffffffffffffffffff1681526020019081526020016000206000820151816000015560208201518160010155604082015181600201908051906020019061238e929190612433565b5090505082600560008282546123a491906134d5565b925050819055507fca3824b7e6e1648f24d80bb94c0549cd029b4e985db70a77cc71332e52cd1611826000015182600001516040516123e4929190612f4c565b60405180910390a150505050565b60006004600083815260200190815260200160002060020154600460008481526020019081526020016000206001015461242c91906134d5565b9050919050565b82805482825590600052602060002090810192821561246f579160200282015b8281111561246e578251825591602001919060010190612453565b5b50905061247c91906124be565b5090565b6040518060800160405280600073ffffffffffffffffffffffffffffffffffffffff1681526020016000815260200160008152602001600081525090565b5b808211156124d75760008160009055506001016124bf565b5090565b600080fd5b600080fd5b6000819050919050565b6124f8816124e5565b811461250357600080fd5b50565b600081359050612515816124ef565b92915050565b6000819050919050565b61252e8161251b565b811461253957600080fd5b50565b60008135905061254b81612525565b92915050565b6000806000806080858703121561256b5761256a6124db565b5b600061257987828801612506565b945050602061258a8782880161253c565b935050604061259b8782880161253c565b92505060606125ac8782880161253c565b91505092959194509250565b600073ffffffffffffffffffffffffffffffffffffffff82169050919050565b60006125e3826125b8565b9050919050565b6125f3816125d8565b81146125fe57600080fd5b50565b600081359050612610816125ea565b92915050565b60006020828403121561262c5761262b6124db565b5b600061263a84828501612601565b91505092915050565b61264c816124e5565b82525050565b600081519050919050565b600082825260208201905092915050565b6000819050602082019050919050565b612687816124e5565b82525050565b6000612699838361267e565b60208301905092915050565b6000602082019050919050565b60006126bd82612652565b6126c7818561265d565b93506126d28361266e565b8060005b838110156127035781516126ea888261268d565b97506126f5836126a5565b9250506001810190506126d6565b5085935050505092915050565b60006060820190506127256000830186612643565b6127326020830185612643565b818103604083015261274481846126b2565b9050949350505050565b600060208284031215612764576127636124db565b5b600061277284828501612506565b91505092915050565b60008115159050919050565b6127908161277b565b811461279b57600080fd5b50565b6000813590506127ad81612787565b92915050565b600080604083850312156127ca576127c96124db565b5b60006127d885828601612601565b92505060206127e98582860161279e565b9150509250929050565b60006020820190506128086000830184612643565b92915050565b6128178161277b565b82525050565b6000602082019050612832600083018461280e565b92915050565b612841816125d8565b82525050565b600060808201905061285c6000830187612838565b6128696020830186612643565b6128766040830185612643565b6128836060830184612643565b95945050505050565b60006020820190506128a16000830184612838565b92915050565b600080fd5b600080fd5b600080fd5b60008083601f8401126128cc576128cb6128a7565b5b8235905067ffffffffffffffff8111156128e9576128e86128ac565b5b602083019150836020820283011115612905576129046128b1565b5b9250929050565b60008060008060408587031215612926576129256124db565b5b600085013567ffffffffffffffff811115612944576129436124e0565b5b612950878288016128b6565b9450945050602085013567ffffffffffffffff811115612973576129726124e0565b5b61297f878288016128b6565b925092505092959194509250565b600080604083850312156129a4576129a36124db565b5b60006129b285828601612601565b92505060206129c385828601612506565b9150509250929050565b600080600080608085870312156129e7576129e66124db565b5b60006129f587828801612506565b9450506020612a0687828801612506565b9350506040612a1787828801612506565b9250506060612a2887828801612506565b91505092959194509250565b600060a082019050612a496000830188612838565b612a566020830187612643565b612a636040830186612643565b612a706060830185612643565b612a7d608083018461280e565b9695505050505050565b60008060408385031215612a9e57612a9d6124db565b5b6000612aac85828601612506565b9250506020612abd85828601612506565b9150509250929050565b600082825260208201905092915050565b7f63616c6c6572206973206e6f74206173736f636961746564207769746820746860008201527f6973207661756c74000000000000000000000000000000000000000000000000602082015250565b6000612b34602883612ac7565b9150612b3f82612ad8565b604082019050919050565b60006020820190508181036000830152612b6381612b27565b9050919050565b7f6c6f636b2f73747265616d2068617320616c726561647920626567756e000000600082015250565b6000612ba0601d83612ac7565b9150612bab82612b6a565b602082019050919050565b60006020820190508181036000830152612bcf81612b93565b9050919050565b7f4e487b7100000000000000000000000000000000000000000000000000000000600052601160045260246000fd5b6000612c108261251b565b9150612c1b8361251b565b9250828202612c298161251b565b91507f80000000000000000000000000000000000000000000000000000000000000008414600084121615612c6157612c60612bd6565b5b8282058414831517612c7657612c75612bd6565b5b5092915050565b6000612c888261251b565b9150612c938361251b565b925082820190508281121560008312168382126000841215161715612cbb57612cba612bd6565b5b92915050565b7f6c6f636b5f73746172742063616e206e6f7420626520696e207468652070617360008201527f7400000000000000000000000000000000000000000000000000000000000000602082015250565b6000612d1d602183612ac7565b9150612d2882612cc1565b604082019050919050565b60006020820190508181036000830152612d4c81612d10565b9050919050565b7f6c6f636b5f6475726174696f6e5f6368616e676520697320746f6f206e65676960008201527f7469766500000000000000000000000000000000000000000000000000000000602082015250565b6000612daf602483612ac7565b9150612dba82612d53565b604082019050919050565b60006020820190508181036000830152612dde81612da2565b9050919050565b7f62616c616e636520697320736d616c6c6572207468616e2074686520616d6f7560008201527f6e7420746f206265206c6f636b65640000000000000000000000000000000000602082015250565b6000612e41602f83612ac7565b9150612e4c82612de5565b604082019050919050565b60006020820190508181036000830152612e7081612e34565b9050919050565b7f616d6f756e745f6368616e6765202b207661756c742062616c616e636520697360008201527f20736d616c6c6572207468616e20300000000000000000000000000000000000602082015250565b6000612ed3602f83612ac7565b9150612ede82612e77565b604082019050919050565b60006020820190508181036000830152612f0281612ec6565b9050919050565b6000612f148261251b565b9150612f1f8361251b565b9250828203905081811260008412168282136000851215161715612f4657612f45612bd6565b5b92915050565b6000604082019050612f616000830185612838565b612f6e6020830184612643565b9392505050565b6000608082019050612f8a6000830187612643565b612f976020830186612643565b612fa46040830185612643565b612fb16060830184612643565b95945050505050565b7f62616c616e636520697320736d616c6c6572207468616e20776974686472617760008201527f20616d6f756e7400000000000000000000000000000000000000000000000000602082015250565b6000613016602783612ac7565b915061302182612fba565b604082019050919050565b6000602082019050818103600083015261304581613009565b9050919050565b6000613057826124e5565b9150613062836124e5565b925082820390508181111561307a57613079612bd6565b5b92915050565b60008151905061308f81612787565b92915050565b6000602082840312156130ab576130aa6124db565b5b60006130b984828501613080565b91505092915050565b7f746f6b656e207472616e73666572206661696c65640000000000000000000000600082015250565b60006130f8601583612ac7565b9150613103826130c2565b602082019050919050565b60006020820190508181036000830152613127816130eb565b9050919050565b7f63616c6c6572206973206e6f74206f776e657200000000000000000000000000600082015250565b6000613164601383612ac7565b915061316f8261312e565b602082019050919050565b6000602082019050818103600083015261319381613157565b9050919050565b7f63616c6c657220646f6573206e6f74206861766520746865207065726d73207260008201527f6571756972656400000000000000000000000000000000000000000000000000602082015250565b60006131f6602783612ac7565b91506132018261319a565b604082019050919050565b60006020820190508181036000830152613225816131e9565b9050919050565b7f617272617973206d757374206265206f6620657175616c206c656e6774680000600082015250565b6000613262601e83612ac7565b915061326d8261322c565b602082019050919050565b6000602082019050818103600083015261329181613255565b9050919050565b7f4e487b7100000000000000000000000000000000000000000000000000000000600052603260045260246000fd5b60006132d2826124e5565b91507fffffffffffffffffffffffffffffffffffffffffffffffffffffffffffffffff820361330457613303612bd6565b5b600182019050919050565b60006040820190506133246000830185612838565b6133316020830184612838565b9392505050565b600081519050613347816124ef565b92915050565b600060208284031215613363576133626124db565b5b600061337184828501613338565b91505092915050565b7f63616c6c657220686173206e6f7420617070726f766564207468697320636f6e60008201527f747261637420746f2070756c6c2074686573652066756e647300000000000000602082015250565b60006133d6603983612ac7565b91506133e18261337a565b604082019050919050565b60006020820190508181036000830152613405816133c9565b9050919050565b7f63616c6c657220646f6573206e6f74206861766520656e6f75676820746f6b6560008201527f6e7320696e2074686569722077616c6c657420746f2070756c6c000000000000602082015250565b6000613468603a83612ac7565b91506134738261340c565b604082019050919050565b600060208201905081810360008301526134978161345b565b9050919050565b60006060820190506134b36000830186612838565b6134c06020830185612838565b6134cd6040830184612643565b949350505050565b60006134e0826124e5565b91506134eb836124e5565b925082820190508082111561350357613502612bd6565b5b92915050565b7f747265617375727920646f7365206e6f74206861766520656e6f75676820667560008201527f6e647320746f207769746864726177207468652072657175657374656420616d60208201527f6f756e7400000000000000000000000000000000000000000000000000000000604082015250565b600061358b604483612ac7565b915061359682613509565b606082019050919050565b600060208201905081810360008301526135ba8161357e565b9050919050565b60006080820190506135d66000830187612838565b6135e36020830186612838565b6135f06040830185612643565b6135fd6060830184612643565b95945050505050565b7f766964656f494420697320616c726561647920696e207573652c20696e73657260008201527f7420616e20756e69717565204944000000000000000000000000000000000000602082015250565b6000613662602e83612ac7565b915061366d82613606565b604082019050919050565b6000602082019050818103600083015261369181613655565b9050919050565b60006136a3826124e5565b91506136ae836124e5565b92508282026136bc816124e5565b915082820484148315176136d3576136d2612bd6565b5b5092915050565b600060a0820190506136ef6000830188612643565b6136fc6020830187612838565b6137096040830186612643565b6137166060830185612643565b6137236080830184612643565b9695505050505050565b7f7661756c7420646f6573206e6f74206578697374000000000000000000000000600082015250565b6000613763601483612ac7565b915061376e8261372d565b602082019050919050565b6000602082019050818103600083015261379281613756565b9050919050565b7f7661756c7420646f6573206e6f74206861766520656e6f7567682066756e647360008201527f20746f2077697468647261770000000000000000000000000000000000000000602082015250565b60006137f5602c83612ac7565b915061380082613799565b604082019050919050565b60006020820190508181036000830152613824816137e8565b905091905056fea2646970667358221220e89e3ecd036266889ebdf1f26f6dc5d2a93e92de362bdc5447206b0f00e17d7764736f6c63430008110033",
					"opcodes": "PUSH1 0x80 PUSH1 0x40 MSTORE CALLVALUE DUP1 ISZERO PUSH2 0x10 JUMPI PUSH1 0x0 DUP1 REVERT JUMPDEST POP CALLER PUSH1 0x0 DUP1 PUSH2 0x100 EXP DUP2 SLOAD DUP2 PUSH20 0xFFFFFFFFFFFFFFFFFFFFFFFFFFFFFFFFFFFFFFFF MUL NOT AND SWAP1 DUP4 PUSH20 0xFFFFFFFFFFFFFFFFFFFFFFFFFFFFFFFFFFFFFFFF AND MUL OR SWAP1 SSTORE POP PUSH20 0x2791BCA1F2DE4661ED88A30C99A7A9449AA84174 PUSH1 0x2 PUSH1 0x0 PUSH2 0x100 EXP DUP2 SLOAD DUP2 PUSH20 0xFFFFFFFFFFFFFFFFFFFFFFFFFFFFFFFFFFFFFFFF MUL NOT AND SWAP1 DUP4 PUSH20 0xFFFFFFFFFFFFFFFFFFFFFFFFFFFFFFFFFFFFFFFF AND MUL OR SWAP1 SSTORE POP PUSH2 0x3861 DUP1 PUSH2 0xB5 PUSH1 0x0 CODECOPY PUSH1 0x0 RETURN INVALID PUSH1 0x80 PUSH1 0x40 MSTORE CALLVALUE DUP1 ISZERO PUSH2 0x10 JUMPI PUSH1 0x0 DUP1 REVERT JUMPDEST POP PUSH1 0x4 CALLDATASIZE LT PUSH2 0x116 JUMPI PUSH1 0x0 CALLDATALOAD PUSH1 0xE0 SHR DUP1 PUSH4 0xAB40D83A GT PUSH2 0xA2 JUMPI DUP1 PUSH4 0xCB7B7BCE GT PUSH2 0x71 JUMPI DUP1 PUSH4 0xCB7B7BCE EQ PUSH2 0x2D0 JUMPI DUP1 PUSH4 0xCC0D93BE EQ PUSH2 0x2EC JUMPI DUP1 PUSH4 0xD864DDF7 EQ PUSH2 0x320 JUMPI DUP1 PUSH4 0xF0350C04 EQ PUSH2 0x33C JUMPI DUP1 PUSH4 0xFD01EC6D EQ PUSH2 0x358 JUMPI PUSH2 0x116 JUMP JUMPDEST DUP1 PUSH4 0xAB40D83A EQ PUSH2 0x25E JUMPI DUP1 PUSH4 0xAEA62E3F EQ PUSH2 0x27C JUMPI DUP1 PUSH4 0xB6B55F25 EQ PUSH2 0x298 JUMPI DUP1 PUSH4 0xC49BFDCA EQ PUSH2 0x2B4 JUMPI PUSH2 0x116 JUMP JUMPDEST DUP1 PUSH4 0x61D027B3 GT PUSH2 0xE9 JUMPI DUP1 PUSH4 0x61D027B3 EQ PUSH2 0x1A1 JUMPI DUP1 PUSH4 0x63A846F8 EQ PUSH2 0x1BF JUMPI DUP1 PUSH4 0x81A36FB6 EQ PUSH2 0x1EF JUMPI DUP1 PUSH4 0x8DA5CB5B EQ PUSH2 0x222 JUMPI DUP1 PUSH4 0x9D76EA58 EQ PUSH2 0x240 JUMPI PUSH2 0x116 JUMP JUMPDEST DUP1 PUSH4 0x5D955F4 EQ PUSH2 0x11B JUMPI DUP1 PUSH4 0x2314C2A2 EQ PUSH2 0x137 JUMPI DUP1 PUSH4 0x2E1A7D4D EQ PUSH2 0x169 JUMPI DUP1 PUSH4 0x3A491381 EQ PUSH2 0x185 JUMPI JUMPDEST PUSH1 0x0 DUP1 REVERT JUMPDEST PUSH2 0x135 PUSH1 0x4 DUP1 CALLDATASIZE SUB DUP2 ADD SWAP1 PUSH2 0x130 SWAP2 SWAP1 PUSH2 0x2551 JUMP JUMPDEST PUSH2 0x374 JUMP JUMPDEST STOP JUMPDEST PUSH2 0x151 PUSH1 0x4 DUP1 CALLDATASIZE SUB DUP2 ADD SWAP1 PUSH2 0x14C SWAP2 SWAP1 PUSH2 0x2616 JUMP JUMPDEST PUSH2 0x903 JUMP JUMPDEST PUSH1 0x40 MLOAD PUSH2 0x160 SWAP4 SWAP3 SWAP2 SWAP1 PUSH2 0x2710 JUMP JUMPDEST PUSH1 0x40 MLOAD DUP1 SWAP2 SUB SWAP1 RETURN JUMPDEST PUSH2 0x183 PUSH1 0x4 DUP1 CALLDATASIZE SUB DUP2 ADD SWAP1 PUSH2 0x17E SWAP2 SWAP1 PUSH2 0x274E JUMP JUMPDEST PUSH2 0xA2F JUMP JUMPDEST STOP JUMPDEST PUSH2 0x19F PUSH1 0x4 DUP1 CALLDATASIZE SUB DUP2 ADD SWAP1 PUSH2 0x19A SWAP2 SWAP1 PUSH2 0x27B3 JUMP JUMPDEST PUSH2 0xCBA JUMP JUMPDEST STOP JUMPDEST PUSH2 0x1A9 PUSH2 0xDA3 JUMP JUMPDEST PUSH1 0x40 MLOAD PUSH2 0x1B6 SWAP2 SWAP1 PUSH2 0x27F3 JUMP JUMPDEST PUSH1 0x40 MLOAD DUP1 SWAP2 SUB SWAP1 RETURN JUMPDEST PUSH2 0x1D9 PUSH1 0x4 DUP1 CALLDATASIZE SUB DUP2 ADD SWAP1 PUSH2 0x1D4 SWAP2 SWAP1 PUSH2 0x2616 JUMP JUMPDEST PUSH2 0xDA9 JUMP JUMPDEST PUSH1 0x40 MLOAD PUSH2 0x1E6 SWAP2 SWAP1 PUSH2 0x281D JUMP JUMPDEST PUSH1 0x40 MLOAD DUP1 SWAP2 SUB SWAP1 RETURN JUMPDEST PUSH2 0x209 PUSH1 0x4 DUP1 CALLDATASIZE SUB DUP2 ADD SWAP1 PUSH2 0x204 SWAP2 SWAP1 PUSH2 0x274E JUMP JUMPDEST PUSH2 0xDC9 JUMP JUMPDEST PUSH1 0x40 MLOAD PUSH2 0x219 SWAP5 SWAP4 SWAP3 SWAP2 SWAP1 PUSH2 0x2847 JUMP JUMPDEST PUSH1 0x40 MLOAD DUP1 SWAP2 SUB SWAP1 RETURN JUMPDEST PUSH2 0x22A PUSH2 0xE19 JUMP JUMPDEST PUSH1 0x40 MLOAD PUSH2 0x237 SWAP2 SWAP1 PUSH2 0x288C JUMP JUMPDEST PUSH1 0x40 MLOAD DUP1 SWAP2 SUB SWAP1 RETURN JUMPDEST PUSH2 0x248 PUSH2 0xE3D JUMP JUMPDEST PUSH1 0x40 MLOAD PUSH2 0x255 SWAP2 SWAP1 PUSH2 0x288C JUMP JUMPDEST PUSH1 0x40 MLOAD DUP1 SWAP2 SUB SWAP1 RETURN JUMPDEST PUSH2 0x266 PUSH2 0xE55 JUMP JUMPDEST PUSH1 0x40 MLOAD PUSH2 0x273 SWAP2 SWAP1 PUSH2 0x27F3 JUMP JUMPDEST PUSH1 0x40 MLOAD DUP1 SWAP2 SUB SWAP1 RETURN JUMPDEST PUSH2 0x296 PUSH1 0x4 DUP1 CALLDATASIZE SUB DUP2 ADD SWAP1 PUSH2 0x291 SWAP2 SWAP1 PUSH2 0x290C JUMP JUMPDEST PUSH2 0xE5D JUMP JUMPDEST STOP JUMPDEST PUSH2 0x2B2 PUSH1 0x4 DUP1 CALLDATASIZE SUB DUP2 ADD SWAP1 PUSH2 0x2AD SWAP2 SWAP1 PUSH2 0x274E JUMP JUMPDEST PUSH2 0xFEB JUMP JUMPDEST STOP JUMPDEST PUSH2 0x2CE PUSH1 0x4 DUP1 CALLDATASIZE SUB DUP2 ADD SWAP1 PUSH2 0x2C9 SWAP2 SWAP1 PUSH2 0x298D JUMP JUMPDEST PUSH2 0x1325 JUMP JUMPDEST STOP JUMPDEST PUSH2 0x2EA PUSH1 0x4 DUP1 CALLDATASIZE SUB DUP2 ADD SWAP1 PUSH2 0x2E5 SWAP2 SWAP1 PUSH2 0x29CD JUMP JUMPDEST PUSH2 0x1588 JUMP JUMPDEST STOP JUMPDEST PUSH2 0x306 PUSH1 0x4 DUP1 CALLDATASIZE SUB DUP2 ADD SWAP1 PUSH2 0x301 SWAP2 SWAP1 PUSH2 0x274E JUMP JUMPDEST PUSH2 0x19DB JUMP JUMPDEST PUSH1 0x40 MLOAD PUSH2 0x317 SWAP6 SWAP5 SWAP4 SWAP3 SWAP2 SWAP1 PUSH2 0x2A34 JUMP JUMPDEST PUSH1 0x40 MLOAD DUP1 SWAP2 SUB SWAP1 RETURN JUMPDEST PUSH2 0x33A PUSH1 0x4 DUP1 CALLDATASIZE SUB DUP2 ADD SWAP1 PUSH2 0x335 SWAP2 SWAP1 PUSH2 0x274E JUMP JUMPDEST PUSH2 0x1A8B JUMP JUMPDEST STOP JUMPDEST PUSH2 0x356 PUSH1 0x4 DUP1 CALLDATASIZE SUB DUP2 ADD SWAP1 PUSH2 0x351 SWAP2 SWAP1 PUSH2 0x2616 JUMP JUMPDEST PUSH2 0x1E8D JUMP JUMPDEST STOP JUMPDEST PUSH2 0x372 PUSH1 0x4 DUP1 CALLDATASIZE SUB DUP2 ADD SWAP1 PUSH2 0x36D SWAP2 SWAP1 PUSH2 0x2A87 JUMP JUMPDEST PUSH2 0x1F5E JUMP JUMPDEST STOP JUMPDEST PUSH1 0x0 PUSH1 0x4 PUSH1 0x0 DUP7 DUP2 MSTORE PUSH1 0x20 ADD SWAP1 DUP2 MSTORE PUSH1 0x20 ADD PUSH1 0x0 KECCAK256 PUSH1 0x40 MLOAD DUP1 PUSH1 0x80 ADD PUSH1 0x40 MSTORE SWAP1 DUP2 PUSH1 0x0 DUP3 ADD PUSH1 0x0 SWAP1 SLOAD SWAP1 PUSH2 0x100 EXP SWAP1 DIV PUSH20 0xFFFFFFFFFFFFFFFFFFFFFFFFFFFFFFFFFFFFFFFF AND PUSH20 0xFFFFFFFFFFFFFFFFFFFFFFFFFFFFFFFFFFFFFFFF AND PUSH20 0xFFFFFFFFFFFFFFFFFFFFFFFFFFFFFFFFFFFFFFFF AND DUP2 MSTORE PUSH1 0x20 ADD PUSH1 0x1 DUP3 ADD SLOAD DUP2 MSTORE PUSH1 0x20 ADD PUSH1 0x2 DUP3 ADD SLOAD DUP2 MSTORE PUSH1 0x20 ADD PUSH1 0x3 DUP3 ADD SLOAD DUP2 MSTORE POP POP SWAP1 POP CALLER PUSH20 0xFFFFFFFFFFFFFFFFFFFFFFFFFFFFFFFFFFFFFFFF AND DUP2 PUSH1 0x0 ADD MLOAD PUSH20 0xFFFFFFFFFFFFFFFFFFFFFFFFFFFFFFFFFFFFFFFF AND EQ PUSH2 0x47C JUMPI PUSH1 0x40 MLOAD PUSH32 0x8C379A000000000000000000000000000000000000000000000000000000000 DUP2 MSTORE PUSH1 0x4 ADD PUSH2 0x473 SWAP1 PUSH2 0x2B4A JUMP JUMPDEST PUSH1 0x40 MLOAD DUP1 SWAP2 SUB SWAP1 REVERT JUMPDEST TIMESTAMP DUP2 PUSH1 0x20 ADD MLOAD LT PUSH2 0x4C2 JUMPI PUSH1 0x40 MLOAD PUSH32 0x8C379A000000000000000000000000000000000000000000000000000000000 DUP2 MSTORE PUSH1 0x4 ADD PUSH2 0x4B9 SWAP1 PUSH2 0x2BB6 JUMP JUMPDEST PUSH1 0x40 MLOAD DUP1 SWAP2 SUB SWAP1 REVERT JUMPDEST PUSH1 0x0 DUP3 EQ PUSH2 0x54D JUMPI TIMESTAMP PUSH1 0x3C DUP4 PUSH2 0x4D8 SWAP2 SWAP1 PUSH2 0x2C05 JUMP JUMPDEST DUP3 PUSH1 0x20 ADD MLOAD PUSH2 0x4E7 SWAP2 SWAP1 PUSH2 0x2C7D JUMP JUMPDEST SGT PUSH2 0x527 JUMPI PUSH1 0x40 MLOAD PUSH32 0x8C379A000000000000000000000000000000000000000000000000000000000 DUP2 MSTORE PUSH1 0x4 ADD PUSH2 0x51E SWAP1 PUSH2 0x2D33 JUMP JUMPDEST PUSH1 0x40 MLOAD DUP1 SWAP2 SUB SWAP1 REVERT JUMPDEST PUSH1 0x3C DUP3 PUSH2 0x534 SWAP2 SWAP1 PUSH2 0x2C05 JUMP JUMPDEST DUP2 PUSH1 0x20 ADD MLOAD PUSH2 0x543 SWAP2 SWAP1 PUSH2 0x2C7D JUMP JUMPDEST DUP2 PUSH1 0x20 ADD DUP2 DUP2 MSTORE POP POP JUMPDEST PUSH1 0x0 DUP4 EQ PUSH2 0x5D9 JUMPI PUSH1 0x0 PUSH1 0x3C DUP5 PUSH2 0x564 SWAP2 SWAP1 PUSH2 0x2C05 JUMP JUMPDEST DUP3 PUSH1 0x40 ADD MLOAD PUSH2 0x573 SWAP2 SWAP1 PUSH2 0x2C7D JUMP JUMPDEST SGT PUSH2 0x5B3 JUMPI PUSH1 0x40 MLOAD PUSH32 0x8C379A000000000000000000000000000000000000000000000000000000000 DUP2 MSTORE PUSH1 0x4 ADD PUSH2 0x5AA SWAP1 PUSH2 0x2DC5 JUMP JUMPDEST PUSH1 0x40 MLOAD DUP1 SWAP2 SUB SWAP1 REVERT JUMPDEST PUSH1 0x3C DUP4 PUSH2 0x5C0 SWAP2 SWAP1 PUSH2 0x2C05 JUMP JUMPDEST DUP2 PUSH1 0x40 ADD MLOAD PUSH2 0x5CF SWAP2 SWAP1 PUSH2 0x2C7D JUMP JUMPDEST DUP2 PUSH1 0x40 ADD DUP2 DUP2 MSTORE POP POP JUMPDEST PUSH1 0x0 DUP5 EQ PUSH2 0x833 JUMPI PUSH1 0x0 PUSH1 0x3 PUSH1 0x0 CALLER PUSH20 0xFFFFFFFFFFFFFFFFFFFFFFFFFFFFFFFFFFFFFFFF AND PUSH20 0xFFFFFFFFFFFFFFFFFFFFFFFFFFFFFFFFFFFFFFFF AND DUP2 MSTORE PUSH1 0x20 ADD SWAP1 DUP2 MSTORE PUSH1 0x20 ADD PUSH1 0x0 KECCAK256 PUSH1 0x40 MLOAD DUP1 PUSH1 0x60 ADD PUSH1 0x40 MSTORE SWAP1 DUP2 PUSH1 0x0 DUP3 ADD SLOAD DUP2 MSTORE PUSH1 0x20 ADD PUSH1 0x1 DUP3 ADD SLOAD DUP2 MSTORE PUSH1 0x20 ADD PUSH1 0x2 DUP3 ADD DUP1 SLOAD DUP1 PUSH1 0x20 MUL PUSH1 0x20 ADD PUSH1 0x40 MLOAD SWAP1 DUP2 ADD PUSH1 0x40 MSTORE DUP1 SWAP3 SWAP2 SWAP1 DUP2 DUP2 MSTORE PUSH1 0x20 ADD DUP3 DUP1 SLOAD DUP1 ISZERO PUSH2 0x690 JUMPI PUSH1 0x20 MUL DUP3 ADD SWAP2 SWAP1 PUSH1 0x0 MSTORE PUSH1 0x20 PUSH1 0x0 KECCAK256 SWAP1 JUMPDEST DUP2 SLOAD DUP2 MSTORE PUSH1 0x20 ADD SWAP1 PUSH1 0x1 ADD SWAP1 DUP1 DUP4 GT PUSH2 0x67C JUMPI JUMPDEST POP POP POP POP POP DUP2 MSTORE POP POP SWAP1 POP DUP5 DUP2 PUSH1 0x0 ADD MLOAD SLT ISZERO PUSH2 0x6E2 JUMPI PUSH1 0x40 MLOAD PUSH32 0x8C379A000000000000000000000000000000000000000000000000000000000 DUP2 MSTORE PUSH1 0x4 ADD PUSH2 0x6D9 SWAP1 PUSH2 0x2E57 JUMP JUMPDEST PUSH1 0x40 MLOAD DUP1 SWAP2 SUB SWAP1 REVERT JUMPDEST PUSH1 0x0 DUP6 DUP4 PUSH1 0x60 ADD MLOAD PUSH2 0x6F4 SWAP2 SWAP1 PUSH2 0x2C7D JUMP JUMPDEST SLT ISZERO PUSH2 0x735 JUMPI PUSH1 0x40 MLOAD PUSH32 0x8C379A000000000000000000000000000000000000000000000000000000000 DUP2 MSTORE PUSH1 0x4 ADD PUSH2 0x72C SWAP1 PUSH2 0x2EE9 JUMP JUMPDEST PUSH1 0x40 MLOAD DUP1 SWAP2 SUB SWAP1 REVERT JUMPDEST DUP5 DUP2 PUSH1 0x0 ADD MLOAD PUSH2 0x745 SWAP2 SWAP1 PUSH2 0x2F09 JUMP JUMPDEST DUP2 PUSH1 0x0 ADD DUP2 DUP2 MSTORE POP POP DUP5 DUP2 PUSH1 0x20 ADD MLOAD PUSH2 0x75E SWAP2 SWAP1 PUSH2 0x2C7D JUMP JUMPDEST DUP2 PUSH1 0x20 ADD DUP2 DUP2 MSTORE POP POP DUP5 DUP3 PUSH1 0x60 ADD MLOAD PUSH2 0x777 SWAP2 SWAP1 PUSH2 0x2C7D JUMP JUMPDEST DUP3 PUSH1 0x60 ADD DUP2 DUP2 MSTORE POP POP DUP1 PUSH1 0x3 PUSH1 0x0 CALLER PUSH20 0xFFFFFFFFFFFFFFFFFFFFFFFFFFFFFFFFFFFFFFFF AND PUSH20 0xFFFFFFFFFFFFFFFFFFFFFFFFFFFFFFFFFFFFFFFF AND DUP2 MSTORE PUSH1 0x20 ADD SWAP1 DUP2 MSTORE PUSH1 0x20 ADD PUSH1 0x0 KECCAK256 PUSH1 0x0 DUP3 ADD MLOAD DUP2 PUSH1 0x0 ADD SSTORE PUSH1 0x20 DUP3 ADD MLOAD DUP2 PUSH1 0x1 ADD SSTORE PUSH1 0x40 DUP3 ADD MLOAD DUP2 PUSH1 0x2 ADD SWAP1 DUP1 MLOAD SWAP1 PUSH1 0x20 ADD SWAP1 PUSH2 0x7F0 SWAP3 SWAP2 SWAP1 PUSH2 0x2433 JUMP JUMPDEST POP SWAP1 POP POP PUSH32 0xCA3824B7E6E1648F24D80BB94C0549CD029B4E985DB70A77CC71332E52CD1611 CALLER DUP3 PUSH1 0x0 ADD MLOAD PUSH1 0x40 MLOAD PUSH2 0x829 SWAP3 SWAP2 SWAP1 PUSH2 0x2F4C JUMP JUMPDEST PUSH1 0x40 MLOAD DUP1 SWAP2 SUB SWAP1 LOG1 POP JUMPDEST DUP1 PUSH1 0x4 PUSH1 0x0 DUP8 DUP2 MSTORE PUSH1 0x20 ADD SWAP1 DUP2 MSTORE PUSH1 0x20 ADD PUSH1 0x0 KECCAK256 PUSH1 0x0 DUP3 ADD MLOAD DUP2 PUSH1 0x0 ADD PUSH1 0x0 PUSH2 0x100 EXP DUP2 SLOAD DUP2 PUSH20 0xFFFFFFFFFFFFFFFFFFFFFFFFFFFFFFFFFFFFFFFF MUL NOT AND SWAP1 DUP4 PUSH20 0xFFFFFFFFFFFFFFFFFFFFFFFFFFFFFFFFFFFFFFFF AND MUL OR SWAP1 SSTORE POP PUSH1 0x20 DUP3 ADD MLOAD DUP2 PUSH1 0x1 ADD SSTORE PUSH1 0x40 DUP3 ADD MLOAD DUP2 PUSH1 0x2 ADD SSTORE PUSH1 0x60 DUP3 ADD MLOAD DUP2 PUSH1 0x3 ADD SSTORE SWAP1 POP POP PUSH32 0x3C6A380E7DFFF0FFB6EFE4E395ED2B4456EA50EC4A9650A5FECFF8AA2A6F40F2 DUP6 DUP3 PUSH1 0x60 ADD MLOAD DUP4 PUSH1 0x20 ADD MLOAD PUSH2 0x8E4 DUP10 PUSH2 0x23F2 JUMP JUMPDEST PUSH1 0x40 MLOAD PUSH2 0x8F4 SWAP5 SWAP4 SWAP3 SWAP2 SWAP1 PUSH2 0x2F75 JUMP JUMPDEST PUSH1 0x40 MLOAD DUP1 SWAP2 SUB SWAP1 LOG1 POP POP POP POP POP JUMP JUMPDEST PUSH1 0x0 DUP1 PUSH1 0x60 PUSH1 0x3 PUSH1 0x0 DUP6 PUSH20 0xFFFFFFFFFFFFFFFFFFFFFFFFFFFFFFFFFFFFFFFF AND PUSH20 0xFFFFFFFFFFFFFFFFFFFFFFFFFFFFFFFFFFFFFFFF AND DUP2 MSTORE PUSH1 0x20 ADD SWAP1 DUP2 MSTORE PUSH1 0x20 ADD PUSH1 0x0 KECCAK256 PUSH1 0x0 ADD SLOAD PUSH1 0x3 PUSH1 0x0 DUP7 PUSH20 0xFFFFFFFFFFFFFFFFFFFFFFFFFFFFFFFFFFFFFFFF AND PUSH20 0xFFFFFFFFFFFFFFFFFFFFFFFFFFFFFFFFFFFFFFFF AND DUP2 MSTORE PUSH1 0x20 ADD SWAP1 DUP2 MSTORE PUSH1 0x20 ADD PUSH1 0x0 KECCAK256 PUSH1 0x1 ADD SLOAD PUSH1 0x3 PUSH1 0x0 DUP8 PUSH20 0xFFFFFFFFFFFFFFFFFFFFFFFFFFFFFFFFFFFFFFFF AND PUSH20 0xFFFFFFFFFFFFFFFFFFFFFFFFFFFFFFFFFFFFFFFF AND DUP2 MSTORE PUSH1 0x20 ADD SWAP1 DUP2 MSTORE PUSH1 0x20 ADD PUSH1 0x0 KECCAK256 PUSH1 0x2 ADD DUP1 DUP1 SLOAD DUP1 PUSH1 0x20 MUL PUSH1 0x20 ADD PUSH1 0x40 MLOAD SWAP1 DUP2 ADD PUSH1 0x40 MSTORE DUP1 SWAP3 SWAP2 SWAP1 DUP2 DUP2 MSTORE PUSH1 0x20 ADD DUP3 DUP1 SLOAD DUP1 ISZERO PUSH2 0xA1B JUMPI PUSH1 0x20 MUL DUP3 ADD SWAP2 SWAP1 PUSH1 0x0 MSTORE PUSH1 0x20 PUSH1 0x0 KECCAK256 SWAP1 JUMPDEST DUP2 SLOAD DUP2 MSTORE PUSH1 0x20 ADD SWAP1 PUSH1 0x1 ADD SWAP1 DUP1 DUP4 GT PUSH2 0xA07 JUMPI JUMPDEST POP POP POP POP POP SWAP1 POP SWAP3 POP SWAP3 POP SWAP3 POP SWAP2 SWAP4 SWAP1 SWAP3 POP JUMP JUMPDEST PUSH1 0x0 PUSH1 0x3 PUSH1 0x0 CALLER PUSH20 0xFFFFFFFFFFFFFFFFFFFFFFFFFFFFFFFFFFFFFFFF AND PUSH20 0xFFFFFFFFFFFFFFFFFFFFFFFFFFFFFFFFFFFFFFFF AND DUP2 MSTORE PUSH1 0x20 ADD SWAP1 DUP2 MSTORE PUSH1 0x20 ADD PUSH1 0x0 KECCAK256 PUSH1 0x40 MLOAD DUP1 PUSH1 0x60 ADD PUSH1 0x40 MSTORE SWAP1 DUP2 PUSH1 0x0 DUP3 ADD SLOAD DUP2 MSTORE PUSH1 0x20 ADD PUSH1 0x1 DUP3 ADD SLOAD DUP2 MSTORE PUSH1 0x20 ADD PUSH1 0x2 DUP3 ADD DUP1 SLOAD DUP1 PUSH1 0x20 MUL PUSH1 0x20 ADD PUSH1 0x40 MLOAD SWAP1 DUP2 ADD PUSH1 0x40 MSTORE DUP1 SWAP3 SWAP2 SWAP1 DUP2 DUP2 MSTORE PUSH1 0x20 ADD DUP3 DUP1 SLOAD DUP1 ISZERO PUSH2 0xADE JUMPI PUSH1 0x20 MUL DUP3 ADD SWAP2 SWAP1 PUSH1 0x0 MSTORE PUSH1 0x20 PUSH1 0x0 KECCAK256 SWAP1 JUMPDEST DUP2 SLOAD DUP2 MSTORE PUSH1 0x20 ADD SWAP1 PUSH1 0x1 ADD SWAP1 DUP1 DUP4 GT PUSH2 0xACA JUMPI JUMPDEST POP POP POP POP POP DUP2 MSTORE POP POP SWAP1 POP DUP1 PUSH1 0x0 ADD MLOAD DUP3 GT ISZERO PUSH2 0xB30 JUMPI PUSH1 0x40 MLOAD PUSH32 0x8C379A000000000000000000000000000000000000000000000000000000000 DUP2 MSTORE PUSH1 0x4 ADD PUSH2 0xB27 SWAP1 PUSH2 0x302C JUMP JUMPDEST PUSH1 0x40 MLOAD DUP1 SWAP2 SUB SWAP1 REVERT JUMPDEST DUP2 DUP2 PUSH1 0x0 ADD DUP2 DUP2 MLOAD PUSH2 0xB42 SWAP2 SWAP1 PUSH2 0x304C JUMP JUMPDEST SWAP2 POP DUP2 DUP2 MSTORE POP POP DUP1 PUSH1 0x0 ADD MLOAD PUSH1 0x3 PUSH1 0x0 CALLER PUSH20 0xFFFFFFFFFFFFFFFFFFFFFFFFFFFFFFFFFFFFFFFF AND PUSH20 0xFFFFFFFFFFFFFFFFFFFFFFFFFFFFFFFFFFFFFFFF AND DUP2 MSTORE PUSH1 0x20 ADD SWAP1 DUP2 MSTORE PUSH1 0x20 ADD PUSH1 0x0 KECCAK256 PUSH1 0x0 ADD DUP2 SWAP1 SSTORE POP PUSH1 0x0 PUSH1 0x2 PUSH1 0x0 SWAP1 SLOAD SWAP1 PUSH2 0x100 EXP SWAP1 DIV PUSH20 0xFFFFFFFFFFFFFFFFFFFFFFFFFFFFFFFFFFFFFFFF AND PUSH20 0xFFFFFFFFFFFFFFFFFFFFFFFFFFFFFFFFFFFFFFFF AND PUSH4 0xA9059CBB CALLER DUP6 PUSH1 0x40 MLOAD DUP4 PUSH4 0xFFFFFFFF AND PUSH1 0xE0 SHL DUP2 MSTORE PUSH1 0x4 ADD PUSH2 0xBF3 SWAP3 SWAP2 SWAP1 PUSH2 0x2F4C JUMP JUMPDEST PUSH1 0x20 PUSH1 0x40 MLOAD DUP1 DUP4 SUB DUP2 PUSH1 0x0 DUP8 GAS CALL ISZERO DUP1 ISZERO PUSH2 0xC12 JUMPI RETURNDATASIZE PUSH1 0x0 DUP1 RETURNDATACOPY RETURNDATASIZE PUSH1 0x0 REVERT JUMPDEST POP POP POP POP PUSH1 0x40 MLOAD RETURNDATASIZE PUSH1 0x1F NOT PUSH1 0x1F DUP3 ADD AND DUP3 ADD DUP1 PUSH1 0x40 MSTORE POP DUP2 ADD SWAP1 PUSH2 0xC36 SWAP2 SWAP1 PUSH2 0x3095 JUMP JUMPDEST SWAP1 POP DUP1 PUSH2 0xC78 JUMPI PUSH1 0x40 MLOAD PUSH32 0x8C379A000000000000000000000000000000000000000000000000000000000 DUP2 MSTORE PUSH1 0x4 ADD PUSH2 0xC6F SWAP1 PUSH2 0x310E JUMP JUMPDEST PUSH1 0x40 MLOAD DUP1 SWAP2 SUB SWAP1 REVERT JUMPDEST PUSH32 0xCA3824B7E6E1648F24D80BB94C0549CD029B4E985DB70A77CC71332E52CD1611 CALLER DUP4 PUSH1 0x0 ADD MLOAD PUSH1 0x40 MLOAD PUSH2 0xCAD SWAP3 SWAP2 SWAP1 PUSH2 0x2F4C JUMP JUMPDEST PUSH1 0x40 MLOAD DUP1 SWAP2 SUB SWAP1 LOG1 POP POP POP JUMP JUMPDEST PUSH1 0x0 DUP1 SLOAD SWAP1 PUSH2 0x100 EXP SWAP1 DIV PUSH20 0xFFFFFFFFFFFFFFFFFFFFFFFFFFFFFFFFFFFFFFFF AND PUSH20 0xFFFFFFFFFFFFFFFFFFFFFFFFFFFFFFFFFFFFFFFF AND CALLER PUSH20 0xFFFFFFFFFFFFFFFFFFFFFFFFFFFFFFFFFFFFFFFF AND EQ PUSH2 0xD48 JUMPI PUSH1 0x40 MLOAD PUSH32 0x8C379A000000000000000000000000000000000000000000000000000000000 DUP2 MSTORE PUSH1 0x4 ADD PUSH2 0xD3F SWAP1 PUSH2 0x317A JUMP JUMPDEST PUSH1 0x40 MLOAD DUP1 SWAP2 SUB SWAP1 REVERT JUMPDEST DUP1 PUSH1 0x1 PUSH1 0x0 DUP5 PUSH20 0xFFFFFFFFFFFFFFFFFFFFFFFFFFFFFFFFFFFFFFFF AND PUSH20 0xFFFFFFFFFFFFFFFFFFFFFFFFFFFFFFFFFFFFFFFF AND DUP2 MSTORE PUSH1 0x20 ADD SWAP1 DUP2 MSTORE PUSH1 0x20 ADD PUSH1 0x0 KECCAK256 PUSH1 0x0 PUSH2 0x100 EXP DUP2 SLOAD DUP2 PUSH1 0xFF MUL NOT AND SWAP1 DUP4 ISZERO ISZERO MUL OR SWAP1 SSTORE POP POP POP JUMP JUMPDEST PUSH1 0x5 SLOAD DUP2 JUMP JUMPDEST PUSH1 0x1 PUSH1 0x20 MSTORE DUP1 PUSH1 0x0 MSTORE PUSH1 0x40 PUSH1 0x0 KECCAK256 PUSH1 0x0 SWAP2 POP SLOAD SWAP1 PUSH2 0x100 EXP SWAP1 DIV PUSH1 0xFF AND DUP2 JUMP JUMPDEST PUSH1 0x4 PUSH1 0x20 MSTORE DUP1 PUSH1 0x0 MSTORE PUSH1 0x40 PUSH1 0x0 KECCAK256 PUSH1 0x0 SWAP2 POP SWAP1 POP DUP1 PUSH1 0x0 ADD PUSH1 0x0 SWAP1 SLOAD SWAP1 PUSH2 0x100 EXP SWAP1 DIV PUSH20 0xFFFFFFFFFFFFFFFFFFFFFFFFFFFFFFFFFFFFFFFF AND SWAP1 DUP1 PUSH1 0x1 ADD SLOAD SWAP1 DUP1 PUSH1 0x2 ADD SLOAD SWAP1 DUP1 PUSH1 0x3 ADD SLOAD SWAP1 POP DUP5 JUMP JUMPDEST PUSH1 0x0 DUP1 SLOAD SWAP1 PUSH2 0x100 EXP SWAP1 DIV PUSH20 0xFFFFFFFFFFFFFFFFFFFFFFFFFFFFFFFFFFFFFFFF AND DUP2 JUMP JUMPDEST PUSH20 0x2791BCA1F2DE4661ED88A30C99A7A9449AA84174 DUP2 JUMP JUMPDEST PUSH1 0x0 TIMESTAMP SWAP1 POP SWAP1 JUMP JUMPDEST PUSH1 0x1 PUSH1 0x0 CALLER PUSH20 0xFFFFFFFFFFFFFFFFFFFFFFFFFFFFFFFFFFFFFFFF AND PUSH20 0xFFFFFFFFFFFFFFFFFFFFFFFFFFFFFFFFFFFFFFFF AND DUP2 MSTORE PUSH1 0x20 ADD SWAP1 DUP2 MSTORE PUSH1 0x20 ADD PUSH1 0x0 KECCAK256 PUSH1 0x0 SWAP1 SLOAD SWAP1 PUSH2 0x100 EXP SWAP1 DIV PUSH1 0xFF AND DUP1 PUSH2 0xF00 JUMPI POP PUSH1 0x0 DUP1 SLOAD SWAP1 PUSH2 0x100 EXP SWAP1 DIV PUSH20 0xFFFFFFFFFFFFFFFFFFFFFFFFFFFFFFFFFFFFFFFF AND PUSH20 0xFFFFFFFFFFFFFFFFFFFFFFFFFFFFFFFFFFFFFFFF AND CALLER PUSH20 0xFFFFFFFFFFFFFFFFFFFFFFFFFFFFFFFFFFFFFFFF AND EQ JUMPDEST PUSH2 0xF3F JUMPI PUSH1 0x40 MLOAD PUSH32 0x8C379A000000000000000000000000000000000000000000000000000000000 DUP2 MSTORE PUSH1 0x4 ADD PUSH2 0xF36 SWAP1 PUSH2 0x320C JUMP JUMPDEST PUSH1 0x40 MLOAD DUP1 SWAP2 SUB SWAP1 REVERT JUMPDEST DUP2 DUP2 SWAP1 POP DUP5 DUP5 SWAP1 POP EQ PUSH2 0xF87 JUMPI PUSH1 0x40 MLOAD PUSH32 0x8C379A000000000000000000000000000000000000000000000000000000000 DUP2 MSTORE PUSH1 0x4 ADD PUSH2 0xF7E SWAP1 PUSH2 0x3278 JUMP JUMPDEST PUSH1 0x40 MLOAD DUP1 SWAP2 SUB SWAP1 REVERT JUMPDEST PUSH1 0x0 JUMPDEST DUP3 DUP3 SWAP1 POP DUP2 LT ISZERO PUSH2 0xFE4 JUMPI PUSH2 0xFD1 DUP6 DUP6 DUP4 DUP2 DUP2 LT PUSH2 0xFAB JUMPI PUSH2 0xFAA PUSH2 0x3298 JUMP JUMPDEST JUMPDEST SWAP1 POP PUSH1 0x20 MUL ADD CALLDATALOAD DUP5 DUP5 DUP5 DUP2 DUP2 LT PUSH2 0xFC5 JUMPI PUSH2 0xFC4 PUSH2 0x3298 JUMP JUMPDEST JUMPDEST SWAP1 POP PUSH1 0x20 MUL ADD CALLDATALOAD PUSH2 0x1F5E JUMP JUMPDEST DUP1 DUP1 PUSH2 0xFDC SWAP1 PUSH2 0x32C7 JUMP JUMPDEST SWAP2 POP POP PUSH2 0xF8A JUMP JUMPDEST POP POP POP POP POP JUMP JUMPDEST DUP1 PUSH1 0x2 PUSH1 0x0 SWAP1 SLOAD SWAP1 PUSH2 0x100 EXP SWAP1 DIV PUSH20 0xFFFFFFFFFFFFFFFFFFFFFFFFFFFFFFFFFFFFFFFF AND PUSH20 0xFFFFFFFFFFFFFFFFFFFFFFFFFFFFFFFFFFFFFFFF AND PUSH4 0xDD62ED3E CALLER ADDRESS PUSH1 0x40 MLOAD DUP4 PUSH4 0xFFFFFFFF AND PUSH1 0xE0 SHL DUP2 MSTORE PUSH1 0x4 ADD PUSH2 0x1049 SWAP3 SWAP2 SWAP1 PUSH2 0x330F JUMP JUMPDEST PUSH1 0x20 PUSH1 0x40 MLOAD DUP1 DUP4 SUB DUP2 DUP7 GAS STATICCALL ISZERO DUP1 ISZERO PUSH2 0x1066 JUMPI RETURNDATASIZE PUSH1 0x0 DUP1 RETURNDATACOPY RETURNDATASIZE PUSH1 0x0 REVERT JUMPDEST POP POP POP POP PUSH1 0x40 MLOAD RETURNDATASIZE PUSH1 0x1F NOT PUSH1 0x1F DUP3 ADD AND DUP3 ADD DUP1 PUSH1 0x40 MSTORE POP DUP2 ADD SWAP1 PUSH2 0x108A SWAP2 SWAP1 PUSH2 0x334D JUMP JUMPDEST LT ISZERO PUSH2 0x10CB JUMPI PUSH1 0x40 MLOAD PUSH32 0x8C379A000000000000000000000000000000000000000000000000000000000 DUP2 MSTORE PUSH1 0x4 ADD PUSH2 0x10C2 SWAP1 PUSH2 0x33EC JUMP JUMPDEST PUSH1 0x40 MLOAD DUP1 SWAP2 SUB SWAP1 REVERT JUMPDEST DUP1 PUSH1 0x2 PUSH1 0x0 SWAP1 SLOAD SWAP1 PUSH2 0x100 EXP SWAP1 DIV PUSH20 0xFFFFFFFFFFFFFFFFFFFFFFFFFFFFFFFFFFFFFFFF AND PUSH20 0xFFFFFFFFFFFFFFFFFFFFFFFFFFFFFFFFFFFFFFFF AND PUSH4 0x70A08231 CALLER PUSH1 0x40 MLOAD DUP3 PUSH4 0xFFFFFFFF AND PUSH1 0xE0 SHL DUP2 MSTORE PUSH1 0x4 ADD PUSH2 0x1127 SWAP2 SWAP1 PUSH2 0x288C JUMP JUMPDEST PUSH1 0x20 PUSH1 0x40 MLOAD DUP1 DUP4 SUB DUP2 DUP7 GAS STATICCALL ISZERO DUP1 ISZERO PUSH2 0x1144 JUMPI RETURNDATASIZE PUSH1 0x0 DUP1 RETURNDATACOPY RETURNDATASIZE PUSH1 0x0 REVERT JUMPDEST POP POP POP POP PUSH1 0x40 MLOAD RETURNDATASIZE PUSH1 0x1F NOT PUSH1 0x1F DUP3 ADD AND DUP3 ADD DUP1 PUSH1 0x40 MSTORE POP DUP2 ADD SWAP1 PUSH2 0x1168 SWAP2 SWAP1 PUSH2 0x334D JUMP JUMPDEST LT ISZERO PUSH2 0x11A9 JUMPI PUSH1 0x40 MLOAD PUSH32 0x8C379A000000000000000000000000000000000000000000000000000000000 DUP2 MSTORE PUSH1 0x4 ADD PUSH2 0x11A0 SWAP1 PUSH2 0x347E JUMP JUMPDEST PUSH1 0x40 MLOAD DUP1 SWAP2 SUB SWAP1 REVERT JUMPDEST PUSH1 0x0 PUSH1 0x2 PUSH1 0x0 SWAP1 SLOAD SWAP1 PUSH2 0x100 EXP SWAP1 DIV PUSH20 0xFFFFFFFFFFFFFFFFFFFFFFFFFFFFFFFFFFFFFFFF AND PUSH20 0xFFFFFFFFFFFFFFFFFFFFFFFFFFFFFFFFFFFFFFFF AND PUSH4 0x23B872DD CALLER ADDRESS DUP6 PUSH1 0x40 MLOAD DUP5 PUSH4 0xFFFFFFFF AND PUSH1 0xE0 SHL DUP2 MSTORE PUSH1 0x4 ADD PUSH2 0x120A SWAP4 SWAP3 SWAP2 SWAP1 PUSH2 0x349E JUMP JUMPDEST PUSH1 0x20 PUSH1 0x40 MLOAD DUP1 DUP4 SUB DUP2 PUSH1 0x0 DUP8 GAS CALL ISZERO DUP1 ISZERO PUSH2 0x1229 JUMPI RETURNDATASIZE PUSH1 0x0 DUP1 RETURNDATACOPY RETURNDATASIZE PUSH1 0x0 REVERT JUMPDEST POP POP POP POP PUSH1 0x40 MLOAD RETURNDATASIZE PUSH1 0x1F NOT PUSH1 0x1F DUP3 ADD AND DUP3 ADD DUP1 PUSH1 0x40 MSTORE POP DUP2 ADD SWAP1 PUSH2 0x124D SWAP2 SWAP1 PUSH2 0x3095 JUMP JUMPDEST SWAP1 POP DUP1 PUSH2 0x128F JUMPI PUSH1 0x40 MLOAD PUSH32 0x8C379A000000000000000000000000000000000000000000000000000000000 DUP2 MSTORE PUSH1 0x4 ADD PUSH2 0x1286 SWAP1 PUSH2 0x310E JUMP JUMPDEST PUSH1 0x40 MLOAD DUP1 SWAP2 SUB SWAP1 REVERT JUMPDEST DUP2 PUSH1 0x3 PUSH1 0x0 CALLER PUSH20 0xFFFFFFFFFFFFFFFFFFFFFFFFFFFFFFFFFFFFFFFF AND PUSH20 0xFFFFFFFFFFFFFFFFFFFFFFFFFFFFFFFFFFFFFFFF AND DUP2 MSTORE PUSH1 0x20 ADD SWAP1 DUP2 MSTORE PUSH1 0x20 ADD PUSH1 0x0 KECCAK256 PUSH1 0x0 ADD PUSH1 0x0 DUP3 DUP3 SLOAD PUSH2 0x12E1 SWAP2 SWAP1 PUSH2 0x34D5 JUMP JUMPDEST SWAP3 POP POP DUP2 SWAP1 SSTORE POP PUSH32 0xCA3824B7E6E1648F24D80BB94C0549CD029B4E985DB70A77CC71332E52CD1611 CALLER DUP4 PUSH1 0x40 MLOAD PUSH2 0x1319 SWAP3 SWAP2 SWAP1 PUSH2 0x2F4C JUMP JUMPDEST PUSH1 0x40 MLOAD DUP1 SWAP2 SUB SWAP1 LOG1 POP POP JUMP JUMPDEST PUSH1 0x1 PUSH1 0x0 CALLER PUSH20 0xFFFFFFFFFFFFFFFFFFFFFFFFFFFFFFFFFFFFFFFF AND PUSH20 0xFFFFFFFFFFFFFFFFFFFFFFFFFFFFFFFFFFFFFFFF AND DUP2 MSTORE PUSH1 0x20 ADD SWAP1 DUP2 MSTORE PUSH1 0x20 ADD PUSH1 0x0 KECCAK256 PUSH1 0x0 SWAP1 SLOAD SWAP1 PUSH2 0x100 EXP SWAP1 DIV PUSH1 0xFF AND DUP1 PUSH2 0x13C8 JUMPI POP PUSH1 0x0 DUP1 SLOAD SWAP1 PUSH2 0x100 EXP SWAP1 DIV PUSH20 0xFFFFFFFFFFFFFFFFFFFFFFFFFFFFFFFFFFFFFFFF AND PUSH20 0xFFFFFFFFFFFFFFFFFFFFFFFFFFFFFFFFFFFFFFFF AND CALLER PUSH20 0xFFFFFFFFFFFFFFFFFFFFFFFFFFFFFFFFFFFFFFFF AND EQ JUMPDEST PUSH2 0x1407 JUMPI PUSH1 0x40 MLOAD PUSH32 0x8C379A000000000000000000000000000000000000000000000000000000000 DUP2 MSTORE PUSH1 0x4 ADD PUSH2 0x13FE SWAP1 PUSH2 0x320C JUMP JUMPDEST PUSH1 0x40 MLOAD DUP1 SWAP2 SUB SWAP1 REVERT JUMPDEST PUSH1 0x5 SLOAD DUP2 GT ISZERO PUSH2 0x144C JUMPI PUSH1 0x40 MLOAD PUSH32 0x8C379A000000000000000000000000000000000000000000000000000000000 DUP2 MSTORE PUSH1 0x4 ADD PUSH2 0x1443 SWAP1 PUSH2 0x35A1 JUMP JUMPDEST PUSH1 0x40 MLOAD DUP1 SWAP2 SUB SWAP1 REVERT JUMPDEST DUP1 PUSH1 0x5 SLOAD PUSH2 0x145A SWAP2 SWAP1 PUSH2 0x304C JUMP JUMPDEST PUSH1 0x5 DUP2 SWAP1 SSTORE POP PUSH1 0x0 PUSH1 0x2 PUSH1 0x0 SWAP1 SLOAD SWAP1 PUSH2 0x100 EXP SWAP1 DIV PUSH20 0xFFFFFFFFFFFFFFFFFFFFFFFFFFFFFFFFFFFFFFFF AND PUSH20 0xFFFFFFFFFFFFFFFFFFFFFFFFFFFFFFFFFFFFFFFF AND PUSH4 0xA9059CBB DUP5 DUP5 PUSH1 0x40 MLOAD DUP4 PUSH4 0xFFFFFFFF AND PUSH1 0xE0 SHL DUP2 MSTORE PUSH1 0x4 ADD PUSH2 0x14BF SWAP3 SWAP2 SWAP1 PUSH2 0x2F4C JUMP JUMPDEST PUSH1 0x20 PUSH1 0x40 MLOAD DUP1 DUP4 SUB DUP2 PUSH1 0x0 DUP8 GAS CALL ISZERO DUP1 ISZERO PUSH2 0x14DE JUMPI RETURNDATASIZE PUSH1 0x0 DUP1 RETURNDATACOPY RETURNDATASIZE PUSH1 0x0 REVERT JUMPDEST POP POP POP POP PUSH1 0x40 MLOAD RETURNDATASIZE PUSH1 0x1F NOT PUSH1 0x1F DUP3 ADD AND DUP3 ADD DUP1 PUSH1 0x40 MSTORE POP DUP2 ADD SWAP1 PUSH2 0x1502 SWAP2 SWAP1 PUSH2 0x3095 JUMP JUMPDEST SWAP1 POP DUP1 PUSH2 0x1544 JUMPI PUSH1 0x40 MLOAD PUSH32 0x8C379A000000000000000000000000000000000000000000000000000000000 DUP2 MSTORE PUSH1 0x4 ADD PUSH2 0x153B SWAP1 PUSH2 0x310E JUMP JUMPDEST PUSH1 0x40 MLOAD DUP1 SWAP2 SUB SWAP1 REVERT JUMPDEST PUSH32 0x52E5F0B0966B7DDAE6EB81CF661F808D26CBB035DA15D32E70926D514F8D8C34 CALLER DUP5 DUP5 PUSH1 0x5 SLOAD PUSH1 0x40 MLOAD PUSH2 0x157B SWAP5 SWAP4 SWAP3 SWAP2 SWAP1 PUSH2 0x35C1 JUMP JUMPDEST PUSH1 0x40 MLOAD DUP1 SWAP2 SUB SWAP1 LOG1 POP POP POP JUMP JUMPDEST PUSH1 0x0 PUSH20 0xFFFFFFFFFFFFFFFFFFFFFFFFFFFFFFFFFFFFFFFF AND PUSH1 0x4 PUSH1 0x0 DUP7 DUP2 MSTORE PUSH1 0x20 ADD SWAP1 DUP2 MSTORE PUSH1 0x20 ADD PUSH1 0x0 KECCAK256 PUSH1 0x0 ADD PUSH1 0x0 SWAP1 SLOAD SWAP1 PUSH2 0x100 EXP SWAP1 DIV PUSH20 0xFFFFFFFFFFFFFFFFFFFFFFFFFFFFFFFFFFFFFFFF AND PUSH20 0xFFFFFFFFFFFFFFFFFFFFFFFFFFFFFFFFFFFFFFFF AND EQ PUSH2 0x162D JUMPI PUSH1 0x40 MLOAD PUSH32 0x8C379A000000000000000000000000000000000000000000000000000000000 DUP2 MSTORE PUSH1 0x4 ADD PUSH2 0x1624 SWAP1 PUSH2 0x3678 JUMP JUMPDEST PUSH1 0x40 MLOAD DUP1 SWAP2 SUB SWAP1 REVERT JUMPDEST PUSH2 0x1635 PUSH2 0x2480 JUMP JUMPDEST PUSH1 0x0 PUSH1 0x3 PUSH1 0x0 CALLER PUSH20 0xFFFFFFFFFFFFFFFFFFFFFFFFFFFFFFFFFFFFFFFF AND PUSH20 0xFFFFFFFFFFFFFFFFFFFFFFFFFFFFFFFFFFFFFFFF AND DUP2 MSTORE PUSH1 0x20 ADD SWAP1 DUP2 MSTORE PUSH1 0x20 ADD PUSH1 0x0 KECCAK256 PUSH1 0x40 MLOAD DUP1 PUSH1 0x60 ADD PUSH1 0x40 MSTORE SWAP1 DUP2 PUSH1 0x0 DUP3 ADD SLOAD DUP2 MSTORE PUSH1 0x20 ADD PUSH1 0x1 DUP3 ADD SLOAD DUP2 MSTORE PUSH1 0x20 ADD PUSH1 0x2 DUP3 ADD DUP1 SLOAD DUP1 PUSH1 0x20 MUL PUSH1 0x20 ADD PUSH1 0x40 MLOAD SWAP1 DUP2 ADD PUSH1 0x40 MSTORE DUP1 SWAP3 SWAP2 SWAP1 DUP2 DUP2 MSTORE PUSH1 0x20 ADD DUP3 DUP1 SLOAD DUP1 ISZERO PUSH2 0x16E4 JUMPI PUSH1 0x20 MUL DUP3 ADD SWAP2 SWAP1 PUSH1 0x0 MSTORE PUSH1 0x20 PUSH1 0x0 KECCAK256 SWAP1 JUMPDEST DUP2 SLOAD DUP2 MSTORE PUSH1 0x20 ADD SWAP1 PUSH1 0x1 ADD SWAP1 DUP1 DUP4 GT PUSH2 0x16D0 JUMPI JUMPDEST POP POP POP POP POP DUP2 MSTORE POP POP SWAP1 POP DUP3 DUP2 PUSH1 0x0 ADD MLOAD LT ISZERO PUSH2 0x1736 JUMPI PUSH1 0x40 MLOAD PUSH32 0x8C379A000000000000000000000000000000000000000000000000000000000 DUP2 MSTORE PUSH1 0x4 ADD PUSH2 0x172D SWAP1 PUSH2 0x2E57 JUMP JUMPDEST PUSH1 0x40 MLOAD DUP1 SWAP2 SUB SWAP1 REVERT JUMPDEST DUP3 DUP2 PUSH1 0x0 ADD DUP2 DUP2 MLOAD PUSH2 0x1748 SWAP2 SWAP1 PUSH2 0x304C JUMP JUMPDEST SWAP2 POP DUP2 DUP2 MSTORE POP POP DUP3 DUP2 PUSH1 0x20 ADD DUP2 DUP2 MLOAD PUSH2 0x1761 SWAP2 SWAP1 PUSH2 0x34D5 JUMP JUMPDEST SWAP2 POP DUP2 DUP2 MSTORE POP POP DUP3 DUP3 PUSH1 0x60 ADD DUP2 DUP2 MSTORE POP POP CALLER DUP3 PUSH1 0x0 ADD SWAP1 PUSH20 0xFFFFFFFFFFFFFFFFFFFFFFFFFFFFFFFFFFFFFFFF AND SWAP1 DUP2 PUSH20 0xFFFFFFFFFFFFFFFFFFFFFFFFFFFFFFFFFFFFFFFF AND DUP2 MSTORE POP POP DUP5 DUP3 PUSH1 0x20 ADD DUP2 DUP2 MSTORE POP POP PUSH2 0x258 DUP3 PUSH1 0x20 ADD DUP2 DUP2 MLOAD PUSH2 0x17C8 SWAP2 SWAP1 PUSH2 0x304C JUMP JUMPDEST SWAP2 POP DUP2 DUP2 MSTORE POP POP PUSH2 0x258 PUSH1 0x3C DUP6 PUSH2 0x17DF SWAP2 SWAP1 PUSH2 0x3698 JUMP JUMPDEST PUSH2 0x17E9 SWAP2 SWAP1 PUSH2 0x34D5 JUMP JUMPDEST DUP3 PUSH1 0x40 ADD DUP2 DUP2 MSTORE POP POP DUP1 PUSH1 0x3 PUSH1 0x0 CALLER PUSH20 0xFFFFFFFFFFFFFFFFFFFFFFFFFFFFFFFFFFFFFFFF AND PUSH20 0xFFFFFFFFFFFFFFFFFFFFFFFFFFFFFFFFFFFFFFFF AND DUP2 MSTORE PUSH1 0x20 ADD SWAP1 DUP2 MSTORE PUSH1 0x20 ADD PUSH1 0x0 KECCAK256 PUSH1 0x0 DUP3 ADD MLOAD DUP2 PUSH1 0x0 ADD SSTORE PUSH1 0x20 DUP3 ADD MLOAD DUP2 PUSH1 0x1 ADD SSTORE PUSH1 0x40 DUP3 ADD MLOAD DUP2 PUSH1 0x2 ADD SWAP1 DUP1 MLOAD SWAP1 PUSH1 0x20 ADD SWAP1 PUSH2 0x1862 SWAP3 SWAP2 SWAP1 PUSH2 0x2433 JUMP JUMPDEST POP SWAP1 POP POP PUSH1 0x3 PUSH1 0x0 CALLER PUSH20 0xFFFFFFFFFFFFFFFFFFFFFFFFFFFFFFFFFFFFFFFF AND PUSH20 0xFFFFFFFFFFFFFFFFFFFFFFFFFFFFFFFFFFFFFFFF AND DUP2 MSTORE PUSH1 0x20 ADD SWAP1 DUP2 MSTORE PUSH1 0x20 ADD PUSH1 0x0 KECCAK256 PUSH1 0x2 ADD DUP7 SWAP1 DUP1 PUSH1 0x1 DUP2 SLOAD ADD DUP1 DUP3 SSTORE DUP1 SWAP2 POP POP PUSH1 0x1 SWAP1 SUB SWAP1 PUSH1 0x0 MSTORE PUSH1 0x20 PUSH1 0x0 KECCAK256 ADD PUSH1 0x0 SWAP1 SWAP2 SWAP1 SWAP2 SWAP1 SWAP2 POP SSTORE DUP2 PUSH1 0x4 PUSH1 0x0 DUP9 DUP2 MSTORE PUSH1 0x20 ADD SWAP1 DUP2 MSTORE PUSH1 0x20 ADD PUSH1 0x0 KECCAK256 PUSH1 0x0 DUP3 ADD MLOAD DUP2 PUSH1 0x0 ADD PUSH1 0x0 PUSH2 0x100 EXP DUP2 SLOAD DUP2 PUSH20 0xFFFFFFFFFFFFFFFFFFFFFFFFFFFFFFFFFFFFFFFF MUL NOT AND SWAP1 DUP4 PUSH20 0xFFFFFFFFFFFFFFFFFFFFFFFFFFFFFFFFFFFFFFFF AND MUL OR SWAP1 SSTORE POP PUSH1 0x20 DUP3 ADD MLOAD DUP2 PUSH1 0x1 ADD SSTORE PUSH1 0x40 DUP3 ADD MLOAD DUP2 PUSH1 0x2 ADD SSTORE PUSH1 0x60 DUP3 ADD MLOAD DUP2 PUSH1 0x3 ADD SSTORE SWAP1 POP POP PUSH32 0xCA3824B7E6E1648F24D80BB94C0549CD029B4E985DB70A77CC71332E52CD1611 CALLER DUP3 PUSH1 0x0 ADD MLOAD PUSH1 0x40 MLOAD PUSH2 0x1980 SWAP3 SWAP2 SWAP1 PUSH2 0x2F4C JUMP JUMPDEST PUSH1 0x40 MLOAD DUP1 SWAP2 SUB SWAP1 LOG1 PUSH32 0xCF2318AF0C0C130D221F4E0C108E3216E19DD0FA2246B660E9CDEC57A056FCB0 DUP7 CALLER DUP6 PUSH2 0x19B5 DUP11 PUSH2 0x23F2 JUMP JUMPDEST DUP7 PUSH1 0x20 ADD MLOAD PUSH1 0x40 MLOAD PUSH2 0x19CB SWAP6 SWAP5 SWAP4 SWAP3 SWAP2 SWAP1 PUSH2 0x36DA JUMP JUMPDEST PUSH1 0x40 MLOAD DUP1 SWAP2 SUB SWAP1 LOG1 POP POP POP POP POP POP JUMP JUMPDEST PUSH1 0x0 DUP1 PUSH1 0x0 DUP1 PUSH1 0x0 PUSH2 0x19EC DUP7 PUSH2 0x23F2 JUMP JUMPDEST SWAP2 POP PUSH1 0x4 PUSH1 0x0 DUP8 DUP2 MSTORE PUSH1 0x20 ADD SWAP1 DUP2 MSTORE PUSH1 0x20 ADD PUSH1 0x0 KECCAK256 PUSH1 0x0 ADD PUSH1 0x0 SWAP1 SLOAD SWAP1 PUSH2 0x100 EXP SWAP1 DIV PUSH20 0xFFFFFFFFFFFFFFFFFFFFFFFFFFFFFFFFFFFFFFFF AND PUSH1 0x4 PUSH1 0x0 DUP9 DUP2 MSTORE PUSH1 0x20 ADD SWAP1 DUP2 MSTORE PUSH1 0x20 ADD PUSH1 0x0 KECCAK256 PUSH1 0x3 ADD SLOAD PUSH1 0x4 PUSH1 0x0 DUP10 DUP2 MSTORE PUSH1 0x20 ADD SWAP1 DUP2 MSTORE PUSH1 0x20 ADD PUSH1 0x0 KECCAK256 PUSH1 0x1 ADD SLOAD DUP5 TIMESTAMP PUSH1 0x4 PUSH1 0x0 DUP13 DUP2 MSTORE PUSH1 0x20 ADD SWAP1 DUP2 MSTORE PUSH1 0x20 ADD PUSH1 0x0 KECCAK256 PUSH1 0x1 ADD SLOAD LT DUP1 ISZERO PUSH2 0x1A78 JUMPI POP DUP6 TIMESTAMP LT JUMPDEST SWAP5 POP SWAP5 POP SWAP5 POP SWAP5 POP SWAP5 POP SWAP2 SWAP4 SWAP6 SWAP1 SWAP3 SWAP5 POP JUMP JUMPDEST PUSH1 0x0 PUSH1 0x4 PUSH1 0x0 DUP4 DUP2 MSTORE PUSH1 0x20 ADD SWAP1 DUP2 MSTORE PUSH1 0x20 ADD PUSH1 0x0 KECCAK256 PUSH1 0x40 MLOAD DUP1 PUSH1 0x80 ADD PUSH1 0x40 MSTORE SWAP1 DUP2 PUSH1 0x0 DUP3 ADD PUSH1 0x0 SWAP1 SLOAD SWAP1 PUSH2 0x100 EXP SWAP1 DIV PUSH20 0xFFFFFFFFFFFFFFFFFFFFFFFFFFFFFFFFFFFFFFFF AND PUSH20 0xFFFFFFFFFFFFFFFFFFFFFFFFFFFFFFFFFFFFFFFF AND PUSH20 0xFFFFFFFFFFFFFFFFFFFFFFFFFFFFFFFFFFFFFFFF AND DUP2 MSTORE PUSH1 0x20 ADD PUSH1 0x1 DUP3 ADD SLOAD DUP2 MSTORE PUSH1 0x20 ADD PUSH1 0x2 DUP3 ADD SLOAD DUP2 MSTORE PUSH1 0x20 ADD PUSH1 0x3 DUP3 ADD SLOAD DUP2 MSTORE POP POP SWAP1 POP CALLER PUSH20 0xFFFFFFFFFFFFFFFFFFFFFFFFFFFFFFFFFFFFFFFF AND DUP2 PUSH1 0x0 ADD MLOAD PUSH20 0xFFFFFFFFFFFFFFFFFFFFFFFFFFFFFFFFFFFFFFFF AND EQ PUSH2 0x1B93 JUMPI PUSH1 0x40 MLOAD PUSH32 0x8C379A000000000000000000000000000000000000000000000000000000000 DUP2 MSTORE PUSH1 0x4 ADD PUSH2 0x1B8A SWAP1 PUSH2 0x2B4A JUMP JUMPDEST PUSH1 0x40 MLOAD DUP1 SWAP2 SUB SWAP1 REVERT JUMPDEST TIMESTAMP DUP2 PUSH1 0x20 ADD MLOAD GT PUSH2 0x1BD9 JUMPI PUSH1 0x40 MLOAD PUSH32 0x8C379A000000000000000000000000000000000000000000000000000000000 DUP2 MSTORE PUSH1 0x4 ADD PUSH2 0x1BD0 SWAP1 PUSH2 0x2BB6 JUMP JUMPDEST PUSH1 0x40 MLOAD DUP1 SWAP2 SUB SWAP1 REVERT JUMPDEST PUSH1 0x0 PUSH1 0x3 PUSH1 0x0 CALLER PUSH20 0xFFFFFFFFFFFFFFFFFFFFFFFFFFFFFFFFFFFFFFFF AND PUSH20 0xFFFFFFFFFFFFFFFFFFFFFFFFFFFFFFFFFFFFFFFF AND DUP2 MSTORE PUSH1 0x20 ADD SWAP1 DUP2 MSTORE PUSH1 0x20 ADD PUSH1 0x0 KECCAK256 PUSH1 0x40 MLOAD DUP1 PUSH1 0x60 ADD PUSH1 0x40 MSTORE SWAP1 DUP2 PUSH1 0x0 DUP3 ADD SLOAD DUP2 MSTORE PUSH1 0x20 ADD PUSH1 0x1 DUP3 ADD SLOAD DUP2 MSTORE PUSH1 0x20 ADD PUSH1 0x2 DUP3 ADD DUP1 SLOAD DUP1 PUSH1 0x20 MUL PUSH1 0x20 ADD PUSH1 0x40 MLOAD SWAP1 DUP2 ADD PUSH1 0x40 MSTORE DUP1 SWAP3 SWAP2 SWAP1 DUP2 DUP2 MSTORE PUSH1 0x20 ADD DUP3 DUP1 SLOAD DUP1 ISZERO PUSH2 0x1C88 JUMPI PUSH1 0x20 MUL DUP3 ADD SWAP2 SWAP1 PUSH1 0x0 MSTORE PUSH1 0x20 PUSH1 0x0 KECCAK256 SWAP1 JUMPDEST DUP2 SLOAD DUP2 MSTORE PUSH1 0x20 ADD SWAP1 PUSH1 0x1 ADD SWAP1 DUP1 DUP4 GT PUSH2 0x1C74 JUMPI JUMPDEST POP POP POP POP POP DUP2 MSTORE POP POP SWAP1 POP DUP2 PUSH1 0x60 ADD MLOAD DUP2 PUSH1 0x20 ADD DUP2 DUP2 MLOAD PUSH2 0x1CA9 SWAP2 SWAP1 PUSH2 0x304C JUMP JUMPDEST SWAP2 POP DUP2 DUP2 MSTORE POP POP DUP2 PUSH1 0x60 ADD MLOAD DUP2 PUSH1 0x0 ADD DUP2 DUP2 MLOAD PUSH2 0x1CC6 SWAP2 SWAP1 PUSH2 0x34D5 JUMP JUMPDEST SWAP2 POP DUP2 DUP2 MSTORE POP POP PUSH1 0x0 DUP3 PUSH1 0x60 ADD DUP2 DUP2 MSTORE POP POP PUSH20 0x1111111111111111111111111111111111111111 DUP3 PUSH1 0x0 ADD SWAP1 PUSH20 0xFFFFFFFFFFFFFFFFFFFFFFFFFFFFFFFFFFFFFFFF AND SWAP1 DUP2 PUSH20 0xFFFFFFFFFFFFFFFFFFFFFFFFFFFFFFFFFFFFFFFF AND DUP2 MSTORE POP POP DUP1 PUSH1 0x3 PUSH1 0x0 CALLER PUSH20 0xFFFFFFFFFFFFFFFFFFFFFFFFFFFFFFFFFFFFFFFF AND PUSH20 0xFFFFFFFFFFFFFFFFFFFFFFFFFFFFFFFFFFFFFFFF AND DUP2 MSTORE PUSH1 0x20 ADD SWAP1 DUP2 MSTORE PUSH1 0x20 ADD PUSH1 0x0 KECCAK256 PUSH1 0x0 DUP3 ADD MLOAD DUP2 PUSH1 0x0 ADD SSTORE PUSH1 0x20 DUP3 ADD MLOAD DUP2 PUSH1 0x1 ADD SSTORE PUSH1 0x40 DUP3 ADD MLOAD DUP2 PUSH1 0x2 ADD SWAP1 DUP1 MLOAD SWAP1 PUSH1 0x20 ADD SWAP1 PUSH2 0x1D94 SWAP3 SWAP2 SWAP1 PUSH2 0x2433 JUMP JUMPDEST POP SWAP1 POP POP DUP2 PUSH1 0x4 PUSH1 0x0 DUP6 DUP2 MSTORE PUSH1 0x20 ADD SWAP1 DUP2 MSTORE PUSH1 0x20 ADD PUSH1 0x0 KECCAK256 PUSH1 0x0 DUP3 ADD MLOAD DUP2 PUSH1 0x0 ADD PUSH1 0x0 PUSH2 0x100 EXP DUP2 SLOAD DUP2 PUSH20 0xFFFFFFFFFFFFFFFFFFFFFFFFFFFFFFFFFFFFFFFF MUL NOT AND SWAP1 DUP4 PUSH20 0xFFFFFFFFFFFFFFFFFFFFFFFFFFFFFFFFFFFFFFFF AND MUL OR SWAP1 SSTORE POP PUSH1 0x20 DUP3 ADD MLOAD DUP2 PUSH1 0x1 ADD SSTORE PUSH1 0x40 DUP3 ADD MLOAD DUP2 PUSH1 0x2 ADD SSTORE PUSH1 0x60 DUP3 ADD MLOAD DUP2 PUSH1 0x3 ADD SSTORE SWAP1 POP POP PUSH32 0x3C40EA31B27B76CC19D7289FF39FE49D0D2C54B6F2E71277DCC572F0A0492819 DUP4 PUSH1 0x40 MLOAD PUSH2 0x1E43 SWAP2 SWAP1 PUSH2 0x27F3 JUMP JUMPDEST PUSH1 0x40 MLOAD DUP1 SWAP2 SUB SWAP1 LOG1 PUSH32 0xCA3824B7E6E1648F24D80BB94C0549CD029B4E985DB70A77CC71332E52CD1611 CALLER DUP3 PUSH1 0x0 ADD MLOAD PUSH1 0x40 MLOAD PUSH2 0x1E80 SWAP3 SWAP2 SWAP1 PUSH2 0x2F4C JUMP JUMPDEST PUSH1 0x40 MLOAD DUP1 SWAP2 SUB SWAP1 LOG1 POP POP POP JUMP JUMPDEST PUSH1 0x0 DUP1 SLOAD SWAP1 PUSH2 0x100 EXP SWAP1 DIV PUSH20 0xFFFFFFFFFFFFFFFFFFFFFFFFFFFFFFFFFFFFFFFF AND PUSH20 0xFFFFFFFFFFFFFFFFFFFFFFFFFFFFFFFFFFFFFFFF AND CALLER PUSH20 0xFFFFFFFFFFFFFFFFFFFFFFFFFFFFFFFFFFFFFFFF AND EQ PUSH2 0x1F1B JUMPI PUSH1 0x40 MLOAD PUSH32 0x8C379A000000000000000000000000000000000000000000000000000000000 DUP2 MSTORE PUSH1 0x4 ADD PUSH2 0x1F12 SWAP1 PUSH2 0x317A JUMP JUMPDEST PUSH1 0x40 MLOAD DUP1 SWAP2 SUB SWAP1 REVERT JUMPDEST DUP1 PUSH1 0x0 DUP1 PUSH2 0x100 EXP DUP2 SLOAD DUP2 PUSH20 0xFFFFFFFFFFFFFFFFFFFFFFFFFFFFFFFFFFFFFFFF MUL NOT AND SWAP1 DUP4 PUSH20 0xFFFFFFFFFFFFFFFFFFFFFFFFFFFFFFFFFFFFFFFF AND MUL OR SWAP1 SSTORE POP POP JUMP JUMPDEST PUSH1 0x1 PUSH1 0x0 CALLER PUSH20 0xFFFFFFFFFFFFFFFFFFFFFFFFFFFFFFFFFFFFFFFF AND PUSH20 0xFFFFFFFFFFFFFFFFFFFFFFFFFFFFFFFFFFFFFFFF AND DUP2 MSTORE PUSH1 0x20 ADD SWAP1 DUP2 MSTORE PUSH1 0x20 ADD PUSH1 0x0 KECCAK256 PUSH1 0x0 SWAP1 SLOAD SWAP1 PUSH2 0x100 EXP SWAP1 DIV PUSH1 0xFF AND DUP1 PUSH2 0x2001 JUMPI POP PUSH1 0x0 DUP1 SLOAD SWAP1 PUSH2 0x100 EXP SWAP1 DIV PUSH20 0xFFFFFFFFFFFFFFFFFFFFFFFFFFFFFFFFFFFFFFFF AND PUSH20 0xFFFFFFFFFFFFFFFFFFFFFFFFFFFFFFFFFFFFFFFF AND CALLER PUSH20 0xFFFFFFFFFFFFFFFFFFFFFFFFFFFFFFFFFFFFFFFF AND EQ JUMPDEST PUSH2 0x2040 JUMPI PUSH1 0x40 MLOAD PUSH32 0x8C379A000000000000000000000000000000000000000000000000000000000 DUP2 MSTORE PUSH1 0x4 ADD PUSH2 0x2037 SWAP1 PUSH2 0x320C JUMP JUMPDEST PUSH1 0x40 MLOAD DUP1 SWAP2 SUB SWAP1 REVERT JUMPDEST PUSH1 0x0 PUSH1 0x4 PUSH1 0x0 DUP5 DUP2 MSTORE PUSH1 0x20 ADD SWAP1 DUP2 MSTORE PUSH1 0x20 ADD PUSH1 0x0 KECCAK256 PUSH1 0x40 MLOAD DUP1 PUSH1 0x80 ADD PUSH1 0x40 MSTORE SWAP1 DUP2 PUSH1 0x0 DUP3 ADD PUSH1 0x0 SWAP1 SLOAD SWAP1 PUSH2 0x100 EXP SWAP1 DIV PUSH20 0xFFFFFFFFFFFFFFFFFFFFFFFFFFFFFFFFFFFFFFFF AND PUSH20 0xFFFFFFFFFFFFFFFFFFFFFFFFFFFFFFFFFFFFFFFF AND PUSH20 0xFFFFFFFFFFFFFFFFFFFFFFFFFFFFFFFFFFFFFFFF AND DUP2 MSTORE PUSH1 0x20 ADD PUSH1 0x1 DUP3 ADD SLOAD DUP2 MSTORE PUSH1 0x20 ADD PUSH1 0x2 DUP3 ADD SLOAD DUP2 MSTORE PUSH1 0x20 ADD PUSH1 0x3 DUP3 ADD SLOAD DUP2 MSTORE POP POP SWAP1 POP PUSH1 0x0 PUSH20 0xFFFFFFFFFFFFFFFFFFFFFFFFFFFFFFFFFFFFFFFF AND DUP2 PUSH1 0x0 ADD MLOAD PUSH20 0xFFFFFFFFFFFFFFFFFFFFFFFFFFFFFFFFFFFFFFFF AND SUB PUSH2 0x2149 JUMPI PUSH1 0x40 MLOAD PUSH32 0x8C379A000000000000000000000000000000000000000000000000000000000 DUP2 MSTORE PUSH1 0x4 ADD PUSH2 0x2140 SWAP1 PUSH2 0x3779 JUMP JUMPDEST PUSH1 0x40 MLOAD DUP1 SWAP2 SUB SWAP1 REVERT JUMPDEST DUP2 DUP2 PUSH1 0x60 ADD MLOAD LT ISZERO PUSH2 0x2190 JUMPI PUSH1 0x40 MLOAD PUSH32 0x8C379A000000000000000000000000000000000000000000000000000000000 DUP2 MSTORE PUSH1 0x4 ADD PUSH2 0x2187 SWAP1 PUSH2 0x380B JUMP JUMPDEST PUSH1 0x40 MLOAD DUP1 SWAP2 SUB SWAP1 REVERT JUMPDEST PUSH1 0x0 PUSH1 0x3 PUSH1 0x0 DUP4 PUSH1 0x0 ADD MLOAD PUSH20 0xFFFFFFFFFFFFFFFFFFFFFFFFFFFFFFFFFFFFFFFF AND PUSH20 0xFFFFFFFFFFFFFFFFFFFFFFFFFFFFFFFFFFFFFFFF AND DUP2 MSTORE PUSH1 0x20 ADD SWAP1 DUP2 MSTORE PUSH1 0x20 ADD PUSH1 0x0 KECCAK256 PUSH1 0x40 MLOAD DUP1 PUSH1 0x60 ADD PUSH1 0x40 MSTORE SWAP1 DUP2 PUSH1 0x0 DUP3 ADD SLOAD DUP2 MSTORE PUSH1 0x20 ADD PUSH1 0x1 DUP3 ADD SLOAD DUP2 MSTORE PUSH1 0x20 ADD PUSH1 0x2 DUP3 ADD DUP1 SLOAD DUP1 PUSH1 0x20 MUL PUSH1 0x20 ADD PUSH1 0x40 MLOAD SWAP1 DUP2 ADD PUSH1 0x40 MSTORE DUP1 SWAP3 SWAP2 SWAP1 DUP2 DUP2 MSTORE PUSH1 0x20 ADD DUP3 DUP1 SLOAD DUP1 ISZERO PUSH2 0x2243 JUMPI PUSH1 0x20 MUL DUP3 ADD SWAP2 SWAP1 PUSH1 0x0 MSTORE PUSH1 0x20 PUSH1 0x0 KECCAK256 SWAP1 JUMPDEST DUP2 SLOAD DUP2 MSTORE PUSH1 0x20 ADD SWAP1 PUSH1 0x1 ADD SWAP1 DUP1 DUP4 GT PUSH2 0x222F JUMPI JUMPDEST POP POP POP POP POP DUP2 MSTORE POP POP SWAP1 POP DUP2 PUSH1 0x60 ADD MLOAD DUP2 PUSH1 0x20 ADD DUP2 DUP2 MLOAD PUSH2 0x2264 SWAP2 SWAP1 PUSH2 0x304C JUMP JUMPDEST SWAP2 POP DUP2 DUP2 MSTORE POP POP DUP3 DUP3 PUSH1 0x60 ADD MLOAD PUSH2 0x227B SWAP2 SWAP1 PUSH2 0x304C JUMP JUMPDEST DUP2 PUSH1 0x0 ADD DUP2 DUP2 MLOAD PUSH2 0x228C SWAP2 SWAP1 PUSH2 0x34D5 JUMP JUMPDEST SWAP2 POP DUP2 DUP2 MSTORE POP POP PUSH1 0x0 DUP3 PUSH1 0x60 ADD DUP2 DUP2 MSTORE POP POP DUP2 PUSH1 0x4 PUSH1 0x0 DUP7 DUP2 MSTORE PUSH1 0x20 ADD SWAP1 DUP2 MSTORE PUSH1 0x20 ADD PUSH1 0x0 KECCAK256 PUSH1 0x0 DUP3 ADD MLOAD DUP2 PUSH1 0x0 ADD PUSH1 0x0 PUSH2 0x100 EXP DUP2 SLOAD DUP2 PUSH20 0xFFFFFFFFFFFFFFFFFFFFFFFFFFFFFFFFFFFFFFFF MUL NOT AND SWAP1 DUP4 PUSH20 0xFFFFFFFFFFFFFFFFFFFFFFFFFFFFFFFFFFFFFFFF AND MUL OR SWAP1 SSTORE POP PUSH1 0x20 DUP3 ADD MLOAD DUP2 PUSH1 0x1 ADD SSTORE PUSH1 0x40 DUP3 ADD MLOAD DUP2 PUSH1 0x2 ADD SSTORE PUSH1 0x60 DUP3 ADD MLOAD DUP2 PUSH1 0x3 ADD SSTORE SWAP1 POP POP DUP1 PUSH1 0x3 PUSH1 0x0 DUP5 PUSH1 0x0 ADD MLOAD PUSH20 0xFFFFFFFFFFFFFFFFFFFFFFFFFFFFFFFFFFFFFFFF AND PUSH20 0xFFFFFFFFFFFFFFFFFFFFFFFFFFFFFFFFFFFFFFFF AND DUP2 MSTORE PUSH1 0x20 ADD SWAP1 DUP2 MSTORE PUSH1 0x20 ADD PUSH1 0x0 KECCAK256 PUSH1 0x0 DUP3 ADD MLOAD DUP2 PUSH1 0x0 ADD SSTORE PUSH1 0x20 DUP3 ADD MLOAD DUP2 PUSH1 0x1 ADD SSTORE PUSH1 0x40 DUP3 ADD MLOAD DUP2 PUSH1 0x2 ADD SWAP1 DUP1 MLOAD SWAP1 PUSH1 0x20 ADD SWAP1 PUSH2 0x238E SWAP3 SWAP2 SWAP1 PUSH2 0x2433 JUMP JUMPDEST POP SWAP1 POP POP DUP3 PUSH1 0x5 PUSH1 0x0 DUP3 DUP3 SLOAD PUSH2 0x23A4 SWAP2 SWAP1 PUSH2 0x34D5 JUMP JUMPDEST SWAP3 POP POP DUP2 SWAP1 SSTORE POP PUSH32 0xCA3824B7E6E1648F24D80BB94C0549CD029B4E985DB70A77CC71332E52CD1611 DUP3 PUSH1 0x0 ADD MLOAD DUP3 PUSH1 0x0 ADD MLOAD PUSH1 0x40 MLOAD PUSH2 0x23E4 SWAP3 SWAP2 SWAP1 PUSH2 0x2F4C JUMP JUMPDEST PUSH1 0x40 MLOAD DUP1 SWAP2 SUB SWAP1 LOG1 POP POP POP POP JUMP JUMPDEST PUSH1 0x0 PUSH1 0x4 PUSH1 0x0 DUP4 DUP2 MSTORE PUSH1 0x20 ADD SWAP1 DUP2 MSTORE PUSH1 0x20 ADD PUSH1 0x0 KECCAK256 PUSH1 0x2 ADD SLOAD PUSH1 0x4 PUSH1 0x0 DUP5 DUP2 MSTORE PUSH1 0x20 ADD SWAP1 DUP2 MSTORE PUSH1 0x20 ADD PUSH1 0x0 KECCAK256 PUSH1 0x1 ADD SLOAD PUSH2 0x242C SWAP2 SWAP1 PUSH2 0x34D5 JUMP JUMPDEST SWAP1 POP SWAP2 SWAP1 POP JUMP JUMPDEST DUP3 DUP1 SLOAD DUP3 DUP3 SSTORE SWAP1 PUSH1 0x0 MSTORE PUSH1 0x20 PUSH1 0x0 KECCAK256 SWAP1 DUP2 ADD SWAP3 DUP3 ISZERO PUSH2 0x246F JUMPI SWAP2 PUSH1 0x20 MUL DUP3 ADD JUMPDEST DUP3 DUP2 GT ISZERO PUSH2 0x246E JUMPI DUP3 MLOAD DUP3 SSTORE SWAP2 PUSH1 0x20 ADD SWAP2 SWAP1 PUSH1 0x1 ADD SWAP1 PUSH2 0x2453 JUMP JUMPDEST JUMPDEST POP SWAP1 POP PUSH2 0x247C SWAP2 SWAP1 PUSH2 0x24BE JUMP JUMPDEST POP SWAP1 JUMP JUMPDEST PUSH1 0x40 MLOAD DUP1 PUSH1 0x80 ADD PUSH1 0x40 MSTORE DUP1 PUSH1 0x0 PUSH20 0xFFFFFFFFFFFFFFFFFFFFFFFFFFFFFFFFFFFFFFFF AND DUP2 MSTORE PUSH1 0x20 ADD PUSH1 0x0 DUP2 MSTORE PUSH1 0x20 ADD PUSH1 0x0 DUP2 MSTORE PUSH1 0x20 ADD PUSH1 0x0 DUP2 MSTORE POP SWAP1 JUMP JUMPDEST JUMPDEST DUP1 DUP3 GT ISZERO PUSH2 0x24D7 JUMPI PUSH1 0x0 DUP2 PUSH1 0x0 SWAP1 SSTORE POP PUSH1 0x1 ADD PUSH2 0x24BF JUMP JUMPDEST POP SWAP1 JUMP JUMPDEST PUSH1 0x0 DUP1 REVERT JUMPDEST PUSH1 0x0 DUP1 REVERT JUMPDEST PUSH1 0x0 DUP2 SWAP1 POP SWAP2 SWAP1 POP JUMP JUMPDEST PUSH2 0x24F8 DUP2 PUSH2 0x24E5 JUMP JUMPDEST DUP2 EQ PUSH2 0x2503 JUMPI PUSH1 0x0 DUP1 REVERT JUMPDEST POP JUMP JUMPDEST PUSH1 0x0 DUP2 CALLDATALOAD SWAP1 POP PUSH2 0x2515 DUP2 PUSH2 0x24EF JUMP JUMPDEST SWAP3 SWAP2 POP POP JUMP JUMPDEST PUSH1 0x0 DUP2 SWAP1 POP SWAP2 SWAP1 POP JUMP JUMPDEST PUSH2 0x252E DUP2 PUSH2 0x251B JUMP JUMPDEST DUP2 EQ PUSH2 0x2539 JUMPI PUSH1 0x0 DUP1 REVERT JUMPDEST POP JUMP JUMPDEST PUSH1 0x0 DUP2 CALLDATALOAD SWAP1 POP PUSH2 0x254B DUP2 PUSH2 0x2525 JUMP JUMPDEST SWAP3 SWAP2 POP POP JUMP JUMPDEST PUSH1 0x0 DUP1 PUSH1 0x0 DUP1 PUSH1 0x80 DUP6 DUP8 SUB SLT ISZERO PUSH2 0x256B JUMPI PUSH2 0x256A PUSH2 0x24DB JUMP JUMPDEST JUMPDEST PUSH1 0x0 PUSH2 0x2579 DUP8 DUP3 DUP9 ADD PUSH2 0x2506 JUMP JUMPDEST SWAP5 POP POP PUSH1 0x20 PUSH2 0x258A DUP8 DUP3 DUP9 ADD PUSH2 0x253C JUMP JUMPDEST SWAP4 POP POP PUSH1 0x40 PUSH2 0x259B DUP8 DUP3 DUP9 ADD PUSH2 0x253C JUMP JUMPDEST SWAP3 POP POP PUSH1 0x60 PUSH2 0x25AC DUP8 DUP3 DUP9 ADD PUSH2 0x253C JUMP JUMPDEST SWAP2 POP POP SWAP3 SWAP6 SWAP2 SWAP5 POP SWAP3 POP JUMP JUMPDEST PUSH1 0x0 PUSH20 0xFFFFFFFFFFFFFFFFFFFFFFFFFFFFFFFFFFFFFFFF DUP3 AND SWAP1 POP SWAP2 SWAP1 POP JUMP JUMPDEST PUSH1 0x0 PUSH2 0x25E3 DUP3 PUSH2 0x25B8 JUMP JUMPDEST SWAP1 POP SWAP2 SWAP1 POP JUMP JUMPDEST PUSH2 0x25F3 DUP2 PUSH2 0x25D8 JUMP JUMPDEST DUP2 EQ PUSH2 0x25FE JUMPI PUSH1 0x0 DUP1 REVERT JUMPDEST POP JUMP JUMPDEST PUSH1 0x0 DUP2 CALLDATALOAD SWAP1 POP PUSH2 0x2610 DUP2 PUSH2 0x25EA JUMP JUMPDEST SWAP3 SWAP2 POP POP JUMP JUMPDEST PUSH1 0x0 PUSH1 0x20 DUP3 DUP5 SUB SLT ISZERO PUSH2 0x262C JUMPI PUSH2 0x262B PUSH2 0x24DB JUMP JUMPDEST JUMPDEST PUSH1 0x0 PUSH2 0x263A DUP5 DUP3 DUP6 ADD PUSH2 0x2601 JUMP JUMPDEST SWAP2 POP POP SWAP3 SWAP2 POP POP JUMP JUMPDEST PUSH2 0x264C DUP2 PUSH2 0x24E5 JUMP JUMPDEST DUP3 MSTORE POP POP JUMP JUMPDEST PUSH1 0x0 DUP2 MLOAD SWAP1 POP SWAP2 SWAP1 POP JUMP JUMPDEST PUSH1 0x0 DUP3 DUP3 MSTORE PUSH1 0x20 DUP3 ADD SWAP1 POP SWAP3 SWAP2 POP POP JUMP JUMPDEST PUSH1 0x0 DUP2 SWAP1 POP PUSH1 0x20 DUP3 ADD SWAP1 POP SWAP2 SWAP1 POP JUMP JUMPDEST PUSH2 0x2687 DUP2 PUSH2 0x24E5 JUMP JUMPDEST DUP3 MSTORE POP POP JUMP JUMPDEST PUSH1 0x0 PUSH2 0x2699 DUP4 DUP4 PUSH2 0x267E JUMP JUMPDEST PUSH1 0x20 DUP4 ADD SWAP1 POP SWAP3 SWAP2 POP POP JUMP JUMPDEST PUSH1 0x0 PUSH1 0x20 DUP3 ADD SWAP1 POP SWAP2 SWAP1 POP JUMP JUMPDEST PUSH1 0x0 PUSH2 0x26BD DUP3 PUSH2 0x2652 JUMP JUMPDEST PUSH2 0x26C7 DUP2 DUP6 PUSH2 0x265D JUMP JUMPDEST SWAP4 POP PUSH2 0x26D2 DUP4 PUSH2 0x266E JUMP JUMPDEST DUP1 PUSH1 0x0 JUMPDEST DUP4 DUP2 LT ISZERO PUSH2 0x2703 JUMPI DUP2 MLOAD PUSH2 0x26EA DUP9 DUP3 PUSH2 0x268D JUMP JUMPDEST SWAP8 POP PUSH2 0x26F5 DUP4 PUSH2 0x26A5 JUMP JUMPDEST SWAP3 POP POP PUSH1 0x1 DUP2 ADD SWAP1 POP PUSH2 0x26D6 JUMP JUMPDEST POP DUP6 SWAP4 POP POP POP POP SWAP3 SWAP2 POP POP JUMP JUMPDEST PUSH1 0x0 PUSH1 0x60 DUP3 ADD SWAP1 POP PUSH2 0x2725 PUSH1 0x0 DUP4 ADD DUP7 PUSH2 0x2643 JUMP JUMPDEST PUSH2 0x2732 PUSH1 0x20 DUP4 ADD DUP6 PUSH2 0x2643 JUMP JUMPDEST DUP2 DUP2 SUB PUSH1 0x40 DUP4 ADD MSTORE PUSH2 0x2744 DUP2 DUP5 PUSH2 0x26B2 JUMP JUMPDEST SWAP1 POP SWAP5 SWAP4 POP POP POP POP JUMP JUMPDEST PUSH1 0x0 PUSH1 0x20 DUP3 DUP5 SUB SLT ISZERO PUSH2 0x2764 JUMPI PUSH2 0x2763 PUSH2 0x24DB JUMP JUMPDEST JUMPDEST PUSH1 0x0 PUSH2 0x2772 DUP5 DUP3 DUP6 ADD PUSH2 0x2506 JUMP JUMPDEST SWAP2 POP POP SWAP3 SWAP2 POP POP JUMP JUMPDEST PUSH1 0x0 DUP2 ISZERO ISZERO SWAP1 POP SWAP2 SWAP1 POP JUMP JUMPDEST PUSH2 0x2790 DUP2 PUSH2 0x277B JUMP JUMPDEST DUP2 EQ PUSH2 0x279B JUMPI PUSH1 0x0 DUP1 REVERT JUMPDEST POP JUMP JUMPDEST PUSH1 0x0 DUP2 CALLDATALOAD SWAP1 POP PUSH2 0x27AD DUP2 PUSH2 0x2787 JUMP JUMPDEST SWAP3 SWAP2 POP POP JUMP JUMPDEST PUSH1 0x0 DUP1 PUSH1 0x40 DUP4 DUP6 SUB SLT ISZERO PUSH2 0x27CA JUMPI PUSH2 0x27C9 PUSH2 0x24DB JUMP JUMPDEST JUMPDEST PUSH1 0x0 PUSH2 0x27D8 DUP6 DUP3 DUP7 ADD PUSH2 0x2601 JUMP JUMPDEST SWAP3 POP POP PUSH1 0x20 PUSH2 0x27E9 DUP6 DUP3 DUP7 ADD PUSH2 0x279E JUMP JUMPDEST SWAP2 POP POP SWAP3 POP SWAP3 SWAP1 POP JUMP JUMPDEST PUSH1 0x0 PUSH1 0x20 DUP3 ADD SWAP1 POP PUSH2 0x2808 PUSH1 0x0 DUP4 ADD DUP5 PUSH2 0x2643 JUMP JUMPDEST SWAP3 SWAP2 POP POP JUMP JUMPDEST PUSH2 0x2817 DUP2 PUSH2 0x277B JUMP JUMPDEST DUP3 MSTORE POP POP JUMP JUMPDEST PUSH1 0x0 PUSH1 0x20 DUP3 ADD SWAP1 POP PUSH2 0x2832 PUSH1 0x0 DUP4 ADD DUP5 PUSH2 0x280E JUMP JUMPDEST SWAP3 SWAP2 POP POP JUMP JUMPDEST PUSH2 0x2841 DUP2 PUSH2 0x25D8 JUMP JUMPDEST DUP3 MSTORE POP POP JUMP JUMPDEST PUSH1 0x0 PUSH1 0x80 DUP3 ADD SWAP1 POP PUSH2 0x285C PUSH1 0x0 DUP4 ADD DUP8 PUSH2 0x2838 JUMP JUMPDEST PUSH2 0x2869 PUSH1 0x20 DUP4 ADD DUP7 PUSH2 0x2643 JUMP JUMPDEST PUSH2 0x2876 PUSH1 0x40 DUP4 ADD DUP6 PUSH2 0x2643 JUMP JUMPDEST PUSH2 0x2883 PUSH1 0x60 DUP4 ADD DUP5 PUSH2 0x2643 JUMP JUMPDEST SWAP6 SWAP5 POP POP POP POP POP JUMP JUMPDEST PUSH1 0x0 PUSH1 0x20 DUP3 ADD SWAP1 POP PUSH2 0x28A1 PUSH1 0x0 DUP4 ADD DUP5 PUSH2 0x2838 JUMP JUMPDEST SWAP3 SWAP2 POP POP JUMP JUMPDEST PUSH1 0x0 DUP1 REVERT JUMPDEST PUSH1 0x0 DUP1 REVERT JUMPDEST PUSH1 0x0 DUP1 REVERT JUMPDEST PUSH1 0x0 DUP1 DUP4 PUSH1 0x1F DUP5 ADD SLT PUSH2 0x28CC JUMPI PUSH2 0x28CB PUSH2 0x28A7 JUMP JUMPDEST JUMPDEST DUP3 CALLDATALOAD SWAP1 POP PUSH8 0xFFFFFFFFFFFFFFFF DUP2 GT ISZERO PUSH2 0x28E9 JUMPI PUSH2 0x28E8 PUSH2 0x28AC JUMP JUMPDEST JUMPDEST PUSH1 0x20 DUP4 ADD SWAP2 POP DUP4 PUSH1 0x20 DUP3 MUL DUP4 ADD GT ISZERO PUSH2 0x2905 JUMPI PUSH2 0x2904 PUSH2 0x28B1 JUMP JUMPDEST JUMPDEST SWAP3 POP SWAP3 SWAP1 POP JUMP JUMPDEST PUSH1 0x0 DUP1 PUSH1 0x0 DUP1 PUSH1 0x40 DUP6 DUP8 SUB SLT ISZERO PUSH2 0x2926 JUMPI PUSH2 0x2925 PUSH2 0x24DB JUMP JUMPDEST JUMPDEST PUSH1 0x0 DUP6 ADD CALLDATALOAD PUSH8 0xFFFFFFFFFFFFFFFF DUP2 GT ISZERO PUSH2 0x2944 JUMPI PUSH2 0x2943 PUSH2 0x24E0 JUMP JUMPDEST JUMPDEST PUSH2 0x2950 DUP8 DUP3 DUP9 ADD PUSH2 0x28B6 JUMP JUMPDEST SWAP5 POP SWAP5 POP POP PUSH1 0x20 DUP6 ADD CALLDATALOAD PUSH8 0xFFFFFFFFFFFFFFFF DUP2 GT ISZERO PUSH2 0x2973 JUMPI PUSH2 0x2972 PUSH2 0x24E0 JUMP JUMPDEST JUMPDEST PUSH2 0x297F DUP8 DUP3 DUP9 ADD PUSH2 0x28B6 JUMP JUMPDEST SWAP3 POP SWAP3 POP POP SWAP3 SWAP6 SWAP2 SWAP5 POP SWAP3 POP JUMP JUMPDEST PUSH1 0x0 DUP1 PUSH1 0x40 DUP4 DUP6 SUB SLT ISZERO PUSH2 0x29A4 JUMPI PUSH2 0x29A3 PUSH2 0x24DB JUMP JUMPDEST JUMPDEST PUSH1 0x0 PUSH2 0x29B2 DUP6 DUP3 DUP7 ADD PUSH2 0x2601 JUMP JUMPDEST SWAP3 POP POP PUSH1 0x20 PUSH2 0x29C3 DUP6 DUP3 DUP7 ADD PUSH2 0x2506 JUMP JUMPDEST SWAP2 POP POP SWAP3 POP SWAP3 SWAP1 POP JUMP JUMPDEST PUSH1 0x0 DUP1 PUSH1 0x0 DUP1 PUSH1 0x80 DUP6 DUP8 SUB SLT ISZERO PUSH2 0x29E7 JUMPI PUSH2 0x29E6 PUSH2 0x24DB JUMP JUMPDEST JUMPDEST PUSH1 0x0 PUSH2 0x29F5 DUP8 DUP3 DUP9 ADD PUSH2 0x2506 JUMP JUMPDEST SWAP5 POP POP PUSH1 0x20 PUSH2 0x2A06 DUP8 DUP3 DUP9 ADD PUSH2 0x2506 JUMP JUMPDEST SWAP4 POP POP PUSH1 0x40 PUSH2 0x2A17 DUP8 DUP3 DUP9 ADD PUSH2 0x2506 JUMP JUMPDEST SWAP3 POP POP PUSH1 0x60 PUSH2 0x2A28 DUP8 DUP3 DUP9 ADD PUSH2 0x2506 JUMP JUMPDEST SWAP2 POP POP SWAP3 SWAP6 SWAP2 SWAP5 POP SWAP3 POP JUMP JUMPDEST PUSH1 0x0 PUSH1 0xA0 DUP3 ADD SWAP1 POP PUSH2 0x2A49 PUSH1 0x0 DUP4 ADD DUP9 PUSH2 0x2838 JUMP JUMPDEST PUSH2 0x2A56 PUSH1 0x20 DUP4 ADD DUP8 PUSH2 0x2643 JUMP JUMPDEST PUSH2 0x2A63 PUSH1 0x40 DUP4 ADD DUP7 PUSH2 0x2643 JUMP JUMPDEST PUSH2 0x2A70 PUSH1 0x60 DUP4 ADD DUP6 PUSH2 0x2643 JUMP JUMPDEST PUSH2 0x2A7D PUSH1 0x80 DUP4 ADD DUP5 PUSH2 0x280E JUMP JUMPDEST SWAP7 SWAP6 POP POP POP POP POP POP JUMP JUMPDEST PUSH1 0x0 DUP1 PUSH1 0x40 DUP4 DUP6 SUB SLT ISZERO PUSH2 0x2A9E JUMPI PUSH2 0x2A9D PUSH2 0x24DB JUMP JUMPDEST JUMPDEST PUSH1 0x0 PUSH2 0x2AAC DUP6 DUP3 DUP7 ADD PUSH2 0x2506 JUMP JUMPDEST SWAP3 POP POP PUSH1 0x20 PUSH2 0x2ABD DUP6 DUP3 DUP7 ADD PUSH2 0x2506 JUMP JUMPDEST SWAP2 POP POP SWAP3 POP SWAP3 SWAP1 POP JUMP JUMPDEST PUSH1 0x0 DUP3 DUP3 MSTORE PUSH1 0x20 DUP3 ADD SWAP1 POP SWAP3 SWAP2 POP POP JUMP JUMPDEST PUSH32 0x63616C6C6572206973206E6F74206173736F6369617465642077697468207468 PUSH1 0x0 DUP3 ADD MSTORE PUSH32 0x6973207661756C74000000000000000000000000000000000000000000000000 PUSH1 0x20 DUP3 ADD MSTORE POP JUMP JUMPDEST PUSH1 0x0 PUSH2 0x2B34 PUSH1 0x28 DUP4 PUSH2 0x2AC7 JUMP JUMPDEST SWAP2 POP PUSH2 0x2B3F DUP3 PUSH2 0x2AD8 JUMP JUMPDEST PUSH1 0x40 DUP3 ADD SWAP1 POP SWAP2 SWAP1 POP JUMP JUMPDEST PUSH1 0x0 PUSH1 0x20 DUP3 ADD SWAP1 POP DUP2 DUP2 SUB PUSH1 0x0 DUP4 ADD MSTORE PUSH2 0x2B63 DUP2 PUSH2 0x2B27 JUMP JUMPDEST SWAP1 POP SWAP2 SWAP1 POP JUMP JUMPDEST PUSH32 0x6C6F636B2F73747265616D2068617320616C726561647920626567756E000000 PUSH1 0x0 DUP3 ADD MSTORE POP JUMP JUMPDEST PUSH1 0x0 PUSH2 0x2BA0 PUSH1 0x1D DUP4 PUSH2 0x2AC7 JUMP JUMPDEST SWAP2 POP PUSH2 0x2BAB DUP3 PUSH2 0x2B6A JUMP JUMPDEST PUSH1 0x20 DUP3 ADD SWAP1 POP SWAP2 SWAP1 POP JUMP JUMPDEST PUSH1 0x0 PUSH1 0x20 DUP3 ADD SWAP1 POP DUP2 DUP2 SUB PUSH1 0x0 DUP4 ADD MSTORE PUSH2 0x2BCF DUP2 PUSH2 0x2B93 JUMP JUMPDEST SWAP1 POP SWAP2 SWAP1 POP JUMP JUMPDEST PUSH32 0x4E487B7100000000000000000000000000000000000000000000000000000000 PUSH1 0x0 MSTORE PUSH1 0x11 PUSH1 0x4 MSTORE PUSH1 0x24 PUSH1 0x0 REVERT JUMPDEST PUSH1 0x0 PUSH2 0x2C10 DUP3 PUSH2 0x251B JUMP JUMPDEST SWAP2 POP PUSH2 0x2C1B DUP4 PUSH2 0x251B JUMP JUMPDEST SWAP3 POP DUP3 DUP3 MUL PUSH2 0x2C29 DUP2 PUSH2 0x251B JUMP JUMPDEST SWAP2 POP PUSH32 0x8000000000000000000000000000000000000000000000000000000000000000 DUP5 EQ PUSH1 0x0 DUP5 SLT AND ISZERO PUSH2 0x2C61 JUMPI PUSH2 0x2C60 PUSH2 0x2BD6 JUMP JUMPDEST JUMPDEST DUP3 DUP3 SDIV DUP5 EQ DUP4 ISZERO OR PUSH2 0x2C76 JUMPI PUSH2 0x2C75 PUSH2 0x2BD6 JUMP JUMPDEST JUMPDEST POP SWAP3 SWAP2 POP POP JUMP JUMPDEST PUSH1 0x0 PUSH2 0x2C88 DUP3 PUSH2 0x251B JUMP JUMPDEST SWAP2 POP PUSH2 0x2C93 DUP4 PUSH2 0x251B JUMP JUMPDEST SWAP3 POP DUP3 DUP3 ADD SWAP1 POP DUP3 DUP2 SLT ISZERO PUSH1 0x0 DUP4 SLT AND DUP4 DUP3 SLT PUSH1 0x0 DUP5 SLT ISZERO AND OR ISZERO PUSH2 0x2CBB JUMPI PUSH2 0x2CBA PUSH2 0x2BD6 JUMP JUMPDEST JUMPDEST SWAP3 SWAP2 POP POP JUMP JUMPDEST PUSH32 0x6C6F636B5F73746172742063616E206E6F7420626520696E2074686520706173 PUSH1 0x0 DUP3 ADD MSTORE PUSH32 0x7400000000000000000000000000000000000000000000000000000000000000 PUSH1 0x20 DUP3 ADD MSTORE POP JUMP JUMPDEST PUSH1 0x0 PUSH2 0x2D1D PUSH1 0x21 DUP4 PUSH2 0x2AC7 JUMP JUMPDEST SWAP2 POP PUSH2 0x2D28 DUP3 PUSH2 0x2CC1 JUMP JUMPDEST PUSH1 0x40 DUP3 ADD SWAP1 POP SWAP2 SWAP1 POP JUMP JUMPDEST PUSH1 0x0 PUSH1 0x20 DUP3 ADD SWAP1 POP DUP2 DUP2 SUB PUSH1 0x0 DUP4 ADD MSTORE PUSH2 0x2D4C DUP2 PUSH2 0x2D10 JUMP JUMPDEST SWAP1 POP SWAP2 SWAP1 POP JUMP JUMPDEST PUSH32 0x6C6F636B5F6475726174696F6E5F6368616E676520697320746F6F206E656769 PUSH1 0x0 DUP3 ADD MSTORE PUSH32 0x7469766500000000000000000000000000000000000000000000000000000000 PUSH1 0x20 DUP3 ADD MSTORE POP JUMP JUMPDEST PUSH1 0x0 PUSH2 0x2DAF PUSH1 0x24 DUP4 PUSH2 0x2AC7 JUMP JUMPDEST SWAP2 POP PUSH2 0x2DBA DUP3 PUSH2 0x2D53 JUMP JUMPDEST PUSH1 0x40 DUP3 ADD SWAP1 POP SWAP2 SWAP1 POP JUMP JUMPDEST PUSH1 0x0 PUSH1 0x20 DUP3 ADD SWAP1 POP DUP2 DUP2 SUB PUSH1 0x0 DUP4 ADD MSTORE PUSH2 0x2DDE DUP2 PUSH2 0x2DA2 JUMP JUMPDEST SWAP1 POP SWAP2 SWAP1 POP JUMP JUMPDEST PUSH32 0x62616C616E636520697320736D616C6C6572207468616E2074686520616D6F75 PUSH1 0x0 DUP3 ADD MSTORE PUSH32 0x6E7420746F206265206C6F636B65640000000000000000000000000000000000 PUSH1 0x20 DUP3 ADD MSTORE POP JUMP JUMPDEST PUSH1 0x0 PUSH2 0x2E41 PUSH1 0x2F DUP4 PUSH2 0x2AC7 JUMP JUMPDEST SWAP2 POP PUSH2 0x2E4C DUP3 PUSH2 0x2DE5 JUMP JUMPDEST PUSH1 0x40 DUP3 ADD SWAP1 POP SWAP2 SWAP1 POP JUMP JUMPDEST PUSH1 0x0 PUSH1 0x20 DUP3 ADD SWAP1 POP DUP2 DUP2 SUB PUSH1 0x0 DUP4 ADD MSTORE PUSH2 0x2E70 DUP2 PUSH2 0x2E34 JUMP JUMPDEST SWAP1 POP SWAP2 SWAP1 POP JUMP JUMPDEST PUSH32 0x616D6F756E745F6368616E6765202B207661756C742062616C616E6365206973 PUSH1 0x0 DUP3 ADD MSTORE PUSH32 0x20736D616C6C6572207468616E20300000000000000000000000000000000000 PUSH1 0x20 DUP3 ADD MSTORE POP JUMP JUMPDEST PUSH1 0x0 PUSH2 0x2ED3 PUSH1 0x2F DUP4 PUSH2 0x2AC7 JUMP JUMPDEST SWAP2 POP PUSH2 0x2EDE DUP3 PUSH2 0x2E77 JUMP JUMPDEST PUSH1 0x40 DUP3 ADD SWAP1 POP SWAP2 SWAP1 POP JUMP JUMPDEST PUSH1 0x0 PUSH1 0x20 DUP3 ADD SWAP1 POP DUP2 DUP2 SUB PUSH1 0x0 DUP4 ADD MSTORE PUSH2 0x2F02 DUP2 PUSH2 0x2EC6 JUMP JUMPDEST SWAP1 POP SWAP2 SWAP1 POP JUMP JUMPDEST PUSH1 0x0 PUSH2 0x2F14 DUP3 PUSH2 0x251B JUMP JUMPDEST SWAP2 POP PUSH2 0x2F1F DUP4 PUSH2 0x251B JUMP JUMPDEST SWAP3 POP DUP3 DUP3 SUB SWAP1 POP DUP2 DUP2 SLT PUSH1 0x0 DUP5 SLT AND DUP3 DUP3 SGT PUSH1 0x0 DUP6 SLT ISZERO AND OR ISZERO PUSH2 0x2F46 JUMPI PUSH2 0x2F45 PUSH2 0x2BD6 JUMP JUMPDEST JUMPDEST SWAP3 SWAP2 POP POP JUMP JUMPDEST PUSH1 0x0 PUSH1 0x40 DUP3 ADD SWAP1 POP PUSH2 0x2F61 PUSH1 0x0 DUP4 ADD DUP6 PUSH2 0x2838 JUMP JUMPDEST PUSH2 0x2F6E PUSH1 0x20 DUP4 ADD DUP5 PUSH2 0x2643 JUMP JUMPDEST SWAP4 SWAP3 POP POP POP JUMP JUMPDEST PUSH1 0x0 PUSH1 0x80 DUP3 ADD SWAP1 POP PUSH2 0x2F8A PUSH1 0x0 DUP4 ADD DUP8 PUSH2 0x2643 JUMP JUMPDEST PUSH2 0x2F97 PUSH1 0x20 DUP4 ADD DUP7 PUSH2 0x2643 JUMP JUMPDEST PUSH2 0x2FA4 PUSH1 0x40 DUP4 ADD DUP6 PUSH2 0x2643 JUMP JUMPDEST PUSH2 0x2FB1 PUSH1 0x60 DUP4 ADD DUP5 PUSH2 0x2643 JUMP JUMPDEST SWAP6 SWAP5 POP POP POP POP POP JUMP JUMPDEST PUSH32 0x62616C616E636520697320736D616C6C6572207468616E207769746864726177 PUSH1 0x0 DUP3 ADD MSTORE PUSH32 0x20616D6F756E7400000000000000000000000000000000000000000000000000 PUSH1 0x20 DUP3 ADD MSTORE POP JUMP JUMPDEST PUSH1 0x0 PUSH2 0x3016 PUSH1 0x27 DUP4 PUSH2 0x2AC7 JUMP JUMPDEST SWAP2 POP PUSH2 0x3021 DUP3 PUSH2 0x2FBA JUMP JUMPDEST PUSH1 0x40 DUP3 ADD SWAP1 POP SWAP2 SWAP1 POP JUMP JUMPDEST PUSH1 0x0 PUSH1 0x20 DUP3 ADD SWAP1 POP DUP2 DUP2 SUB PUSH1 0x0 DUP4 ADD MSTORE PUSH2 0x3045 DUP2 PUSH2 0x3009 JUMP JUMPDEST SWAP1 POP SWAP2 SWAP1 POP JUMP JUMPDEST PUSH1 0x0 PUSH2 0x3057 DUP3 PUSH2 0x24E5 JUMP JUMPDEST SWAP2 POP PUSH2 0x3062 DUP4 PUSH2 0x24E5 JUMP JUMPDEST SWAP3 POP DUP3 DUP3 SUB SWAP1 POP DUP2 DUP2 GT ISZERO PUSH2 0x307A JUMPI PUSH2 0x3079 PUSH2 0x2BD6 JUMP JUMPDEST JUMPDEST SWAP3 SWAP2 POP POP JUMP JUMPDEST PUSH1 0x0 DUP2 MLOAD SWAP1 POP PUSH2 0x308F DUP2 PUSH2 0x2787 JUMP JUMPDEST SWAP3 SWAP2 POP POP JUMP JUMPDEST PUSH1 0x0 PUSH1 0x20 DUP3 DUP5 SUB SLT ISZERO PUSH2 0x30AB JUMPI PUSH2 0x30AA PUSH2 0x24DB JUMP JUMPDEST JUMPDEST PUSH1 0x0 PUSH2 0x30B9 DUP5 DUP3 DUP6 ADD PUSH2 0x3080 JUMP JUMPDEST SWAP2 POP POP SWAP3 SWAP2 POP POP JUMP JUMPDEST PUSH32 0x746F6B656E207472616E73666572206661696C65640000000000000000000000 PUSH1 0x0 DUP3 ADD MSTORE POP JUMP JUMPDEST PUSH1 0x0 PUSH2 0x30F8 PUSH1 0x15 DUP4 PUSH2 0x2AC7 JUMP JUMPDEST SWAP2 POP PUSH2 0x3103 DUP3 PUSH2 0x30C2 JUMP JUMPDEST PUSH1 0x20 DUP3 ADD SWAP1 POP SWAP2 SWAP1 POP JUMP JUMPDEST PUSH1 0x0 PUSH1 0x20 DUP3 ADD SWAP1 POP DUP2 DUP2 SUB PUSH1 0x0 DUP4 ADD MSTORE PUSH2 0x3127 DUP2 PUSH2 0x30EB JUMP JUMPDEST SWAP1 POP SWAP2 SWAP1 POP JUMP JUMPDEST PUSH32 0x63616C6C6572206973206E6F74206F776E657200000000000000000000000000 PUSH1 0x0 DUP3 ADD MSTORE POP JUMP JUMPDEST PUSH1 0x0 PUSH2 0x3164 PUSH1 0x13 DUP4 PUSH2 0x2AC7 JUMP JUMPDEST SWAP2 POP PUSH2 0x316F DUP3 PUSH2 0x312E JUMP JUMPDEST PUSH1 0x20 DUP3 ADD SWAP1 POP SWAP2 SWAP1 POP JUMP JUMPDEST PUSH1 0x0 PUSH1 0x20 DUP3 ADD SWAP1 POP DUP2 DUP2 SUB PUSH1 0x0 DUP4 ADD MSTORE PUSH2 0x3193 DUP2 PUSH2 0x3157 JUMP JUMPDEST SWAP1 POP SWAP2 SWAP1 POP JUMP JUMPDEST PUSH32 0x63616C6C657220646F6573206E6F74206861766520746865207065726D732072 PUSH1 0x0 DUP3 ADD MSTORE PUSH32 0x6571756972656400000000000000000000000000000000000000000000000000 PUSH1 0x20 DUP3 ADD MSTORE POP JUMP JUMPDEST PUSH1 0x0 PUSH2 0x31F6 PUSH1 0x27 DUP4 PUSH2 0x2AC7 JUMP JUMPDEST SWAP2 POP PUSH2 0x3201 DUP3 PUSH2 0x319A JUMP JUMPDEST PUSH1 0x40 DUP3 ADD SWAP1 POP SWAP2 SWAP1 POP JUMP JUMPDEST PUSH1 0x0 PUSH1 0x20 DUP3 ADD SWAP1 POP DUP2 DUP2 SUB PUSH1 0x0 DUP4 ADD MSTORE PUSH2 0x3225 DUP2 PUSH2 0x31E9 JUMP JUMPDEST SWAP1 POP SWAP2 SWAP1 POP JUMP JUMPDEST PUSH32 0x617272617973206D757374206265206F6620657175616C206C656E6774680000 PUSH1 0x0 DUP3 ADD MSTORE POP JUMP JUMPDEST PUSH1 0x0 PUSH2 0x3262 PUSH1 0x1E DUP4 PUSH2 0x2AC7 JUMP JUMPDEST SWAP2 POP PUSH2 0x326D DUP3 PUSH2 0x322C JUMP JUMPDEST PUSH1 0x20 DUP3 ADD SWAP1 POP SWAP2 SWAP1 POP JUMP JUMPDEST PUSH1 0x0 PUSH1 0x20 DUP3 ADD SWAP1 POP DUP2 DUP2 SUB PUSH1 0x0 DUP4 ADD MSTORE PUSH2 0x3291 DUP2 PUSH2 0x3255 JUMP JUMPDEST SWAP1 POP SWAP2 SWAP1 POP JUMP JUMPDEST PUSH32 0x4E487B7100000000000000000000000000000000000000000000000000000000 PUSH1 0x0 MSTORE PUSH1 0x32 PUSH1 0x4 MSTORE PUSH1 0x24 PUSH1 0x0 REVERT JUMPDEST PUSH1 0x0 PUSH2 0x32D2 DUP3 PUSH2 0x24E5 JUMP JUMPDEST SWAP2 POP PUSH32 0xFFFFFFFFFFFFFFFFFFFFFFFFFFFFFFFFFFFFFFFFFFFFFFFFFFFFFFFFFFFFFFFF DUP3 SUB PUSH2 0x3304 JUMPI PUSH2 0x3303 PUSH2 0x2BD6 JUMP JUMPDEST JUMPDEST PUSH1 0x1 DUP3 ADD SWAP1 POP SWAP2 SWAP1 POP JUMP JUMPDEST PUSH1 0x0 PUSH1 0x40 DUP3 ADD SWAP1 POP PUSH2 0x3324 PUSH1 0x0 DUP4 ADD DUP6 PUSH2 0x2838 JUMP JUMPDEST PUSH2 0x3331 PUSH1 0x20 DUP4 ADD DUP5 PUSH2 0x2838 JUMP JUMPDEST SWAP4 SWAP3 POP POP POP JUMP JUMPDEST PUSH1 0x0 DUP2 MLOAD SWAP1 POP PUSH2 0x3347 DUP2 PUSH2 0x24EF JUMP JUMPDEST SWAP3 SWAP2 POP POP JUMP JUMPDEST PUSH1 0x0 PUSH1 0x20 DUP3 DUP5 SUB SLT ISZERO PUSH2 0x3363 JUMPI PUSH2 0x3362 PUSH2 0x24DB JUMP JUMPDEST JUMPDEST PUSH1 0x0 PUSH2 0x3371 DUP5 DUP3 DUP6 ADD PUSH2 0x3338 JUMP JUMPDEST SWAP2 POP POP SWAP3 SWAP2 POP POP JUMP JUMPDEST PUSH32 0x63616C6C657220686173206E6F7420617070726F766564207468697320636F6E PUSH1 0x0 DUP3 ADD MSTORE PUSH32 0x747261637420746F2070756C6C2074686573652066756E647300000000000000 PUSH1 0x20 DUP3 ADD MSTORE POP JUMP JUMPDEST PUSH1 0x0 PUSH2 0x33D6 PUSH1 0x39 DUP4 PUSH2 0x2AC7 JUMP JUMPDEST SWAP2 POP PUSH2 0x33E1 DUP3 PUSH2 0x337A JUMP JUMPDEST PUSH1 0x40 DUP3 ADD SWAP1 POP SWAP2 SWAP1 POP JUMP JUMPDEST PUSH1 0x0 PUSH1 0x20 DUP3 ADD SWAP1 POP DUP2 DUP2 SUB PUSH1 0x0 DUP4 ADD MSTORE PUSH2 0x3405 DUP2 PUSH2 0x33C9 JUMP JUMPDEST SWAP1 POP SWAP2 SWAP1 POP JUMP JUMPDEST PUSH32 0x63616C6C657220646F6573206E6F74206861766520656E6F75676820746F6B65 PUSH1 0x0 DUP3 ADD MSTORE PUSH32 0x6E7320696E2074686569722077616C6C657420746F2070756C6C000000000000 PUSH1 0x20 DUP3 ADD MSTORE POP JUMP JUMPDEST PUSH1 0x0 PUSH2 0x3468 PUSH1 0x3A DUP4 PUSH2 0x2AC7 JUMP JUMPDEST SWAP2 POP PUSH2 0x3473 DUP3 PUSH2 0x340C JUMP JUMPDEST PUSH1 0x40 DUP3 ADD SWAP1 POP SWAP2 SWAP1 POP JUMP JUMPDEST PUSH1 0x0 PUSH1 0x20 DUP3 ADD SWAP1 POP DUP2 DUP2 SUB PUSH1 0x0 DUP4 ADD MSTORE PUSH2 0x3497 DUP2 PUSH2 0x345B JUMP JUMPDEST SWAP1 POP SWAP2 SWAP1 POP JUMP JUMPDEST PUSH1 0x0 PUSH1 0x60 DUP3 ADD SWAP1 POP PUSH2 0x34B3 PUSH1 0x0 DUP4 ADD DUP7 PUSH2 0x2838 JUMP JUMPDEST PUSH2 0x34C0 PUSH1 0x20 DUP4 ADD DUP6 PUSH2 0x2838 JUMP JUMPDEST PUSH2 0x34CD PUSH1 0x40 DUP4 ADD DUP5 PUSH2 0x2643 JUMP JUMPDEST SWAP5 SWAP4 POP POP POP POP JUMP JUMPDEST PUSH1 0x0 PUSH2 0x34E0 DUP3 PUSH2 0x24E5 JUMP JUMPDEST SWAP2 POP PUSH2 0x34EB DUP4 PUSH2 0x24E5 JUMP JUMPDEST SWAP3 POP DUP3 DUP3 ADD SWAP1 POP DUP1 DUP3 GT ISZERO PUSH2 0x3503 JUMPI PUSH2 0x3502 PUSH2 0x2BD6 JUMP JUMPDEST JUMPDEST SWAP3 SWAP2 POP POP JUMP JUMPDEST PUSH32 0x747265617375727920646F7365206E6F74206861766520656E6F756768206675 PUSH1 0x0 DUP3 ADD MSTORE PUSH32 0x6E647320746F207769746864726177207468652072657175657374656420616D PUSH1 0x20 DUP3 ADD MSTORE PUSH32 0x6F756E7400000000000000000000000000000000000000000000000000000000 PUSH1 0x40 DUP3 ADD MSTORE POP JUMP JUMPDEST PUSH1 0x0 PUSH2 0x358B PUSH1 0x44 DUP4 PUSH2 0x2AC7 JUMP JUMPDEST SWAP2 POP PUSH2 0x3596 DUP3 PUSH2 0x3509 JUMP JUMPDEST PUSH1 0x60 DUP3 ADD SWAP1 POP SWAP2 SWAP1 POP JUMP JUMPDEST PUSH1 0x0 PUSH1 0x20 DUP3 ADD SWAP1 POP DUP2 DUP2 SUB PUSH1 0x0 DUP4 ADD MSTORE PUSH2 0x35BA DUP2 PUSH2 0x357E JUMP JUMPDEST SWAP1 POP SWAP2 SWAP1 POP JUMP JUMPDEST PUSH1 0x0 PUSH1 0x80 DUP3 ADD SWAP1 POP PUSH2 0x35D6 PUSH1 0x0 DUP4 ADD DUP8 PUSH2 0x2838 JUMP JUMPDEST PUSH2 0x35E3 PUSH1 0x20 DUP4 ADD DUP7 PUSH2 0x2838 JUMP JUMPDEST PUSH2 0x35F0 PUSH1 0x40 DUP4 ADD DUP6 PUSH2 0x2643 JUMP JUMPDEST PUSH2 0x35FD PUSH1 0x60 DUP4 ADD DUP5 PUSH2 0x2643 JUMP JUMPDEST SWAP6 SWAP5 POP POP POP POP POP JUMP JUMPDEST PUSH32 0x766964656F494420697320616C726561647920696E207573652C20696E736572 PUSH1 0x0 DUP3 ADD MSTORE PUSH32 0x7420616E20756E69717565204944000000000000000000000000000000000000 PUSH1 0x20 DUP3 ADD MSTORE POP JUMP JUMPDEST PUSH1 0x0 PUSH2 0x3662 PUSH1 0x2E DUP4 PUSH2 0x2AC7 JUMP JUMPDEST SWAP2 POP PUSH2 0x366D DUP3 PUSH2 0x3606 JUMP JUMPDEST PUSH1 0x40 DUP3 ADD SWAP1 POP SWAP2 SWAP1 POP JUMP JUMPDEST PUSH1 0x0 PUSH1 0x20 DUP3 ADD SWAP1 POP DUP2 DUP2 SUB PUSH1 0x0 DUP4 ADD MSTORE PUSH2 0x3691 DUP2 PUSH2 0x3655 JUMP JUMPDEST SWAP1 POP SWAP2 SWAP1 POP JUMP JUMPDEST PUSH1 0x0 PUSH2 0x36A3 DUP3 PUSH2 0x24E5 JUMP JUMPDEST SWAP2 POP PUSH2 0x36AE DUP4 PUSH2 0x24E5 JUMP JUMPDEST SWAP3 POP DUP3 DUP3 MUL PUSH2 0x36BC DUP2 PUSH2 0x24E5 JUMP JUMPDEST SWAP2 POP DUP3 DUP3 DIV DUP5 EQ DUP4 ISZERO OR PUSH2 0x36D3 JUMPI PUSH2 0x36D2 PUSH2 0x2BD6 JUMP JUMPDEST JUMPDEST POP SWAP3 SWAP2 POP POP JUMP JUMPDEST PUSH1 0x0 PUSH1 0xA0 DUP3 ADD SWAP1 POP PUSH2 0x36EF PUSH1 0x0 DUP4 ADD DUP9 PUSH2 0x2643 JUMP JUMPDEST PUSH2 0x36FC PUSH1 0x20 DUP4 ADD DUP8 PUSH2 0x2838 JUMP JUMPDEST PUSH2 0x3709 PUSH1 0x40 DUP4 ADD DUP7 PUSH2 0x2643 JUMP JUMPDEST PUSH2 0x3716 PUSH1 0x60 DUP4 ADD DUP6 PUSH2 0x2643 JUMP JUMPDEST PUSH2 0x3723 PUSH1 0x80 DUP4 ADD DUP5 PUSH2 0x2643 JUMP JUMPDEST SWAP7 SWAP6 POP POP POP POP POP POP JUMP JUMPDEST PUSH32 0x7661756C7420646F6573206E6F74206578697374000000000000000000000000 PUSH1 0x0 DUP3 ADD MSTORE POP JUMP JUMPDEST PUSH1 0x0 PUSH2 0x3763 PUSH1 0x14 DUP4 PUSH2 0x2AC7 JUMP JUMPDEST SWAP2 POP PUSH2 0x376E DUP3 PUSH2 0x372D JUMP JUMPDEST PUSH1 0x20 DUP3 ADD SWAP1 POP SWAP2 SWAP1 POP JUMP JUMPDEST PUSH1 0x0 PUSH1 0x20 DUP3 ADD SWAP1 POP DUP2 DUP2 SUB PUSH1 0x0 DUP4 ADD MSTORE PUSH2 0x3792 DUP2 PUSH2 0x3756 JUMP JUMPDEST SWAP1 POP SWAP2 SWAP1 POP JUMP JUMPDEST PUSH32 0x7661756C7420646F6573206E6F74206861766520656E6F7567682066756E6473 PUSH1 0x0 DUP3 ADD MSTORE PUSH32 0x20746F2077697468647261770000000000000000000000000000000000000000 PUSH1 0x20 DUP3 ADD MSTORE POP JUMP JUMPDEST PUSH1 0x0 PUSH2 0x37F5 PUSH1 0x2C DUP4 PUSH2 0x2AC7 JUMP JUMPDEST SWAP2 POP PUSH2 0x3800 DUP3 PUSH2 0x3799 JUMP JUMPDEST PUSH1 0x40 DUP3 ADD SWAP1 POP SWAP2 SWAP1 POP JUMP JUMPDEST PUSH1 0x0 PUSH1 0x20 DUP3 ADD SWAP1 POP DUP2 DUP2 SUB PUSH1 0x0 DUP4 ADD MSTORE PUSH2 0x3824 DUP2 PUSH2 0x37E8 JUMP JUMPDEST SWAP1 POP SWAP2 SWAP1 POP JUMP INVALID LOG2 PUSH5 0x6970667358 0x22 SLT KECCAK256 0xE8 SWAP15 RETURNDATACOPY 0xCD SUB PUSH3 0x66889E 0xBD CALL CALLCODE PUSH16 0x6DC5D2A93E92DE362BDC5447206B0F00 0xE1 PUSH30 0x7764736F6C63430008110033000000000000000000000000000000000000 "
				},
				"gasEstimates": {
					"creation": {
						"codeDepositCost": "2886600",
						"executionCost": "51695",
						"totalCost": "2938295"
					},
					"external": {
						"admin(address)": "2890",
						"cancel_stream(uint256)": "infinite",
						"change_admin_status(address,bool)": "27248",
						"deposit(uint256)": "infinite",
						"edit_vault(uint256,int256,int256,int256)": "infinite",
						"lock_funds(uint256,uint256,uint256,uint256)": "infinite",
						"multiWithdraw(uint256[],uint256[])": "infinite",
						"owner()": "2600",
						"tokenAddress()": "489",
						"transfer_ownership(address)": "26977",
						"treasury()": "2452",
						"treasuryWithdraw(address,uint256)": "infinite",
						"vault(uint256)": "infinite",
						"vaultWithdraw(uint256,uint256)": "infinite",
						"view_blocktimestamp()": "359",
						"view_sub_info(address)": "infinite",
						"view_vault(uint256)": "infinite",
						"withdraw(uint256)": "infinite"
					},
					"internal": {
						"lockend(uint256)": "infinite"
					}
				},
				"methodIdentifiers": {
					"admin(address)": "63a846f8",
					"cancel_stream(uint256)": "d864ddf7",
					"change_admin_status(address,bool)": "3a491381",
					"deposit(uint256)": "b6b55f25",
					"edit_vault(uint256,int256,int256,int256)": "05d955f4",
					"lock_funds(uint256,uint256,uint256,uint256)": "cb7b7bce",
					"multiWithdraw(uint256[],uint256[])": "aea62e3f",
					"owner()": "8da5cb5b",
					"tokenAddress()": "9d76ea58",
					"transfer_ownership(address)": "f0350c04",
					"treasury()": "61d027b3",
					"treasuryWithdraw(address,uint256)": "c49bfdca",
					"vault(uint256)": "81a36fb6",
					"vaultWithdraw(uint256,uint256)": "fd01ec6d",
					"view_blocktimestamp()": "ab40d83a",
					"view_sub_info(address)": "2314c2a2",
					"view_vault(uint256)": "cc0d93be",
					"withdraw(uint256)": "2e1a7d4d"
				}
			},
			"storageLayout": {
				"storage": [
					{
						"astId": 6,
						"contract": "Work/CLS-Polygon.sol:SubscriptionContract",
						"label": "owner",
						"offset": 0,
						"slot": "0",
						"type": "t_address"
					},
					{
						"astId": 10,
						"contract": "Work/CLS-Polygon.sol:SubscriptionContract",
						"label": "admin",
						"offset": 0,
						"slot": "1",
						"type": "t_mapping(t_address,t_bool)"
					},
					{
						"astId": 13,
						"contract": "Work/CLS-Polygon.sol:SubscriptionContract",
						"label": "token",
						"offset": 0,
						"slot": "2",
						"type": "t_contract(ERC20)1102"
					},
					{
						"astId": 35,
						"contract": "Work/CLS-Polygon.sol:SubscriptionContract",
						"label": "sub_info",
						"offset": 0,
						"slot": "3",
						"type": "t_mapping(t_address,t_struct(Subscription)21_storage)"
					},
					{
						"astId": 40,
						"contract": "Work/CLS-Polygon.sol:SubscriptionContract",
						"label": "vault",
						"offset": 0,
						"slot": "4",
						"type": "t_mapping(t_uint256,t_struct(vault_info)30_storage)"
					},
					{
						"astId": 42,
						"contract": "Work/CLS-Polygon.sol:SubscriptionContract",
						"label": "treasury",
						"offset": 0,
						"slot": "5",
						"type": "t_uint256"
					}
				],
				"types": {
					"t_address": {
						"encoding": "inplace",
						"label": "address",
						"numberOfBytes": "20"
					},
					"t_array(t_uint256)dyn_storage": {
						"base": "t_uint256",
						"encoding": "dynamic_array",
						"label": "uint256[]",
						"numberOfBytes": "32"
					},
					"t_bool": {
						"encoding": "inplace",
						"label": "bool",
						"numberOfBytes": "1"
					},
					"t_contract(ERC20)1102": {
						"encoding": "inplace",
						"label": "contract ERC20",
						"numberOfBytes": "20"
					},
					"t_mapping(t_address,t_bool)": {
						"encoding": "mapping",
						"key": "t_address",
						"label": "mapping(address => bool)",
						"numberOfBytes": "32",
						"value": "t_bool"
					},
					"t_mapping(t_address,t_struct(Subscription)21_storage)": {
						"encoding": "mapping",
						"key": "t_address",
						"label": "mapping(address => struct SubscriptionContract.Subscription)",
						"numberOfBytes": "32",
						"value": "t_struct(Subscription)21_storage"
					},
					"t_mapping(t_uint256,t_struct(vault_info)30_storage)": {
						"encoding": "mapping",
						"key": "t_uint256",
						"label": "mapping(uint256 => struct SubscriptionContract.vault_info)",
						"numberOfBytes": "32",
						"value": "t_struct(vault_info)30_storage"
					},
					"t_struct(Subscription)21_storage": {
						"encoding": "inplace",
						"label": "struct SubscriptionContract.Subscription",
						"members": [
							{
								"astId": 15,
								"contract": "Work/CLS-Polygon.sol:SubscriptionContract",
								"label": "balance",
								"offset": 0,
								"slot": "0",
								"type": "t_uint256"
							},
							{
								"astId": 17,
								"contract": "Work/CLS-Polygon.sol:SubscriptionContract",
								"label": "lockedBalance",
								"offset": 0,
								"slot": "1",
								"type": "t_uint256"
							},
							{
								"astId": 20,
								"contract": "Work/CLS-Polygon.sol:SubscriptionContract",
								"label": "videoIDs",
								"offset": 0,
								"slot": "2",
								"type": "t_array(t_uint256)dyn_storage"
							}
						],
						"numberOfBytes": "96"
					},
					"t_struct(vault_info)30_storage": {
						"encoding": "inplace",
						"label": "struct SubscriptionContract.vault_info",
						"members": [
							{
								"astId": 23,
								"contract": "Work/CLS-Polygon.sol:SubscriptionContract",
								"label": "returnAddress",
								"offset": 0,
								"slot": "0",
								"type": "t_address"
							},
							{
								"astId": 25,
								"contract": "Work/CLS-Polygon.sol:SubscriptionContract",
								"label": "lockstart",
								"offset": 0,
								"slot": "1",
								"type": "t_uint256"
							},
							{
								"astId": 27,
								"contract": "Work/CLS-Polygon.sol:SubscriptionContract",
								"label": "lockduration",
								"offset": 0,
								"slot": "2",
								"type": "t_uint256"
							},
							{
								"astId": 29,
								"contract": "Work/CLS-Polygon.sol:SubscriptionContract",
								"label": "balance",
								"offset": 0,
								"slot": "3",
								"type": "t_uint256"
							}
						],
						"numberOfBytes": "128"
					},
					"t_uint256": {
						"encoding": "inplace",
						"label": "uint256",
						"numberOfBytes": "32"
					}
				}
			},
			"userdoc": {
				"kind": "user",
				"methods": {},
				"version": 1
			}
		}
	}
}